:020000040000fa
:080000000002040000000000f2
:020000040000fa
:100400002f4421000eff2d000e0188000000000087
:100410000c000700e08f2400010020000f000700ff
:10042000000020000000e000020032000000020096
:1004300000000000121f0200000000000040da006f
:100440000000fe00a0fd20000000e00002003200dd
:10045000002020009001880000000600a102880012
:10046000800078000000eb001a003700e2804000b6
:1004700054a0b4009101ba00e280400054a0b4003e
:100480009102ba00e280400054a0b4000002eb00e8
:10049000472bde00f507b200a6018800602ce100c2
:1004a00008003a000049eb000201e80002003900b0
:1004b0003420ec0002f0a0008301e900f9ff3e00c7
:1004c000040037006128e100010032000082eb00e7
:1004d000040007001101ba000200e000e3ff3a0047
:1004e0000000060004d0a300e20f49001c00390000
:1004f000810278003549ba000201e80002003900a3
:100500003420ec0002f0a0008301e9000f0032006b
:100510002549ba000201e800020039003420ec004d
:1005200002f0a0008301e900080032000400e000ae
:100530000600320015c9ba000201e80002003900c5
:100540003420ec0002f0a0008301e9008180e80083
:1005500054a0b4000300e000e2ff3a0000000600ef
:100560009102ba00055978008301e900f7ff3200d3
:10057000c82ade00055978008301e900f3ff320044
:100580000400e000f1ff320011d9ba00eeff37009d
:100590008c21040000000000222004000000000064
:1005a0002821040000000000922604000000000042
:1005b0009e280400000000008624040000000000c3
:1005c0008c25040000000000a429040000000000a5
:1005d000c82f040000000000ce300400000000001e
:1005e0000040da000000fe000a00fa0080017800f6
:1005f000e20f500027003e0000a28000e10f5000f3
:1006000008003200802320000000e00005003200d6
:1006100004232000252320004623200080017800a9
:10062000040037000422200025222000462220005a
:1006300083222000144090000004e00004003500f4
:100640008009eb00144090000074a0001042980054
:10065000154090000028a30003003a0015409000c8
:100660000024a000904298008001eb0006003700b3
:10067000154090000008a300fdff32003100fb0090
:10068000000b78008301e800828f5100f8ff3a00e8
:100690000800370030002000b0bf9f00c3bf9f009c
:1006a000d1bf9f00e2bf9f006a80570000c0da0000
:1006b0006fb99700020078000080fa000000060081
:1006c000140020001c013700f4ff2f001a0137002e
:1006d000889fbe008a9fbe00010578000100e000ef
:1006e0000400350008003c000000e000200032005b
:1006f0000500370060001000e080180002003b0099
:1007000001f02c001a0037000004be006011b80090
:100710006b0920000982cf00020039000882cf0057
:100720000441b000694252000e00320008003b0054
:1007300082817100610164008904d1000884d300c2
:100740008b05e8000442e800f9ff3a000500370095
:100750000804440089844c008b05e9000442e90048
:10076000fbff3a000f0107000af0a70001f0a0000c
:100770004f05be004f04be000000060003f0a200bb
:10078000889fbe008a9fbe008c1f78002b01070047
:10079000320133006450e1004f0032006420e10078
:1007a0005200320003826c0007003b000905d000b4
:1007b0000306d000820f54000c065d0002003900d1
:1007c0000200320089017800030678008582550016
:1007d00004003d000003fd008103fd008502ea00e6
:1007e0008b854200840f720002003b006000100005
:1007f000e08018006011b8000005eb007a28e100e5
:100800000a00390006007800c75ddd00f707b20076
:10081000878075002d003700828171000a01780001
:10082000610560008180d1000080d3008502e9006d
:10083000f9ff3b00060440008784480002003b00ab
:1008400060041400e0841c000988a3000700320043
:100850008a81710082817100610164008904d10084
:100860000884d3008b05e800170037000978a3003f
:1008700013003a000b00e000130034008b05e90080
:100880000804440089844c000a4474000978a300d9
:100890000d003a000b00e000070034008b05e90072
:1008a0000804440089844c0001003a000b00200039
:1008b0000978a300f7ff32000001eb0002003700c7
:1008c000828171000a017800b60007000cf0a700d1
:1008d00001f0a000ea0037006420e10002003a00c5
:1008e000838f6c00ea0033000801be000200be00e6
:1008f000e3003700889fbe008a9fbe008c1f7800ef
:10090000ce000700d500330003866c006450e10080
:10091000240032006420e100270032006150e10031
:10092000220032006120e100210032008b8542006c
:10093000eb07b1000134b800003ab80008044200e7
:1009400089844a00013ab8000030b800888040002d
:1009500009014a0004003300000040008180480083
:10096000020149008b05e900c909dd00830170001f
:100970000100320013002000c814de004814dd001e
:100980004709de001200b200c808de0008847000cb
:100990008400070001f0a1000cf0a70001f0a00006
:1009a000b70037006120e100b90032000801be0045
:1009b0000200be00f7ff37006150e100fcff3a0083
:1009c000b30037000001be00b40007000470a700a8
:1009d00003f0a10003f8a30013003a006509b10079
:1009e00010003200090035006928e10002003500de
:1009f0000100280000000500000040008180480040
:100a00008502e900fcff3a0000000600f88f420072
:100a1000050035008100d1000080d3008502e80088
:100a2000fcff3a00000006008000eb00000005001b
:100a3000889fbe008a9fbe008c1f78007f00070041
:100a40008600330003866c006450e1002e00320003
:100a50006420e100330032006150e1002f003200d9
:100a60006120e1003100320085855500eb07b000c0
:100a70000900200008042000050037000804440095
:100a800089844c000a0031000603430087834b0031
:100a90000001530081815b00f8ff33000203be00b8
:100aa0000800a0000804440089844c00f6ff3900c7
:100ab000c639dd00830173000100320013002000fd
:100ac0008904d1000884d3000998a30005003200ee
:100ad0000800a7000300a0008904d1000884d30007
:100ae0008b05e8008904d1000884d3000001eb00e5
:100af0000281d2002b00070001f0a1000cf0a7003a
:100b000001f0a0005e0037006420e10060003200c8
:100b10000801be000200be00f7ff37006120e100bf
:100b20005b0032006000b800f3ff370000002000d7
:100b300001f82700f0ff3700889fbe008a9fbe00a3
:100b4000841f78003d0007004f007800110033003b
:100b5000f0ff2f00838f6c0006003b00040565004a
:100b60000a00a7000800370009f0a60010002000c6
:100b700008003700820f5400838f5c0003003900a7
:100b80001000200001003e000000200009f0a70036
:100b90000000ea004f05be004f04be000000e00068
:100ba0000000060081002000618055000b003d0020
:100bb0000b00200061fe2f000100e1001d00340049
:100bc00082817100610164008904d1000884d3002e
:100bd0000000e800faff3a007100200061006400a4
:100be000030070000200600009003200610444004c
:100bf000e0844c000988a500050032008b05e80060
:100c00006808e10002003a008904d1000884d3009a
:100c1000f20f20000258e10005003d00c75ddd0035
:100c2000f907b2008980750008007800000006000e
:100c30000bf827008b007800000005000004be00c0
:100c4000160007000003be000405be000200be003f
:100c500012000700844f7500000006000200be006d
:100c60006450e100050036006420e1000200360017
:100c70000968a30001003a000800be000160a0005e
:100c80004f0678004f05be004f04be00000006006e
:100c9000f0ff2f00f1ff2700f9ff3700c70ade0041
:100ca000f107b200f50fb20008003200e1cf4200b8
:100cb000020032000170a00024000500810f7000c6
:100cc000010032000408050044000500810f700097
:100cd00002003a00140005008502e900000040000f
:100ce00081c04800fcff3b000170a000240005000b
:100cf000881f7800000478005001be004000be004c
:100d000004004000858048000601490087814900b1
:100d1000009cbe000294be000400e1000588e100d2
:100d20000690e1000798e1000200310068004400ed
:100d30001008e8004f04780000000600f487470020
:100d4000889fbe008a9fbe008c9fbe008e1f7800c9
:100d50000205be000004be00d4b79f00e5b79f00a7
:100d6000f6b79f0087bf9f000000eb00c0b79f0051
:100d7000b0b79f00a0b79f0090b79f0080b79f00bb
:100d80000d042000bfb097004fb097000001400055
:100d90000000e0000f003d004f08de000000710081
:100da000c0b79f009e00070001003d001200200018
:100db000a100070001003d0012002000a60007006e
:100dc000b1000700b60007000f004000c8ff070091
:100dd000220037004f08de0000067100ccb79f00ec
:100de0008f00070001003d00120020009200070064
:100df00001003d001200200097000700a20007003c
:100e00000fb297009fb297002fb39700bfb3970020
:100e1000a90007000000520081805a0002015b0017
:100e200083815b0080b79f0091b79f00a2b79f00ae
:100e3000b3b79f000007eb009f0007000020e10010
:100e400001a8e10002b0e10003b8e10001003100b7
:100e50001e0020000e005600c0b79f004fb2970042
:100e60000400e00007003500100020000100200011
:100e70006011b80008047000898470000a057100d0
:100e80008b8571008d06e900beff3a000400e0008a
:100e900003003d00820007000f00400094ff0700a0
:100ea0004fa897000000e00004003a000fb497003c
:100eb0009fb497002fb59700bfb597009400070027
:100ec0004f0778004f06be004f05be004f04be001e
:100ed0004f01b10000000600881f780018002000b4
:100ee000881f780095ff07008f87e9004f0478007e
:100ef00000000600801feb0090ff07008f87e900cd
:100f000000000600889fbe008a9fbe008c1f7800ec
:100f10006e00070007003d0073000700e00f5b0054
:100f2000e08f5b0007003d00320007000006eb0089
:100f3000040037003400070002003d002a000700cb
:100f40001c00200072000700e3ff07000203be0040
:100f50000002be000c00e000010032002200070089
:100f60000400be000601be004f0678004f05be001b
:100f70004f04be0000000600889fbe008a9fbe008e
:100f80008c1f78005100070005003d005600070047
:100f9000e00f5b00e08f5b0006003d0004003700bf
:100fa0001900070003003d006000b8006011b800a0
:100fb0001000070056000700ceff07000203be0026
:100fc0000002be000c00e000010032000600070035
:100fd0000400be000601be004f0678004f05be00ab
:100fe0004f04be00000006006000b8006011b800a9
:100ff00000003700040250008582580006035900a3
:1010000087835900000006000006eb00e00f520045
:10101000e08f5a00e00f5b00e08f5b0000000600ed
:101020000180400090b79f000001eb008fb0970057
:101030000100e000000006000200700090b79f0071
:101040000180400080b79f000001eb00ffa89700df
:101050000100e000000006000200700080b79f0061
:10106000018040006faa9700cf20de0001007000d1
:10107000f0af9f0004024200250007004f18de0079
:101080000002720000000600e4af9f000804440064
:1010900089844c000a054d008b854d000000060038
:1010a0003fb29700cfb297005fb39700efb39700be
:1010b00000fe2f00000006003fb09700cfb0970061
:1010c0005fb19700efb19700000006000205be0077
:1010d0000004be00e00f5000e08f5800e00f590000
:1010e000e08f5900000006006000b8006011b800f1
:1010f00008045000898458000a0559008b8559005e
:101100001c002000e00f5200e08f5a000000060093
:101110000800be000a01be00000006000c00fa0034
:10112000889fbe0000047800cfb09700f0ff270032
:10113000d0bf9f008004eb0099bf9f0088bf9f0035
:10114000a8bf9f00200c2000b0bf9f0078815700ef
:1011500070805700080007000fb897000948780012
:101160000fb8970008045000080078004f04be0034
:101170000080fa0000000600fe874700889fbe003e
:101180008a9fbe008c9fbe008e1f7800f0b79f0024
:101190000107780082bf9f000000eb00a0b79f000e
:1011a0009e0237008006eb0050c2b30080cf500093
:1011b000090032000100fb00ffb09700a202070007
:1011c000e10f400095023200afb097008100e800c7
:1011d000a1b79f00910237009e407800d0c2b300b3
:1011e00080cf50000c00320007003c006d405000e2
:1011f00080cf50000a0032006b40400080cf50008a
:101200000e003a000800370000c3b30080cf500042
:101210000a003a00060037000d30a0000500370034
:101220000d00a000030037000d10a00001003700e2
:101230000d20a0000e07e800e7ff37000d18a300ff
:10124000010032000d00a1000d38a30001003200a2
:101250000d20a1000100fb0002fd2f000200400054
:10126000e90f50000d003e008001eb00c3b79f0066
:101270004fb29700ea20b8009e00fb00010040003a
:1012800002004000c0b79f005e00fb00020040006b
:10129000e90f50000b003e00f5ff37008002eb0025
:1012a000c5b79f00a0c2b30080cf500005003a0030
:1012b0000fbe97004c0078008cbf9f00c0b79f0006
:1012c0000e07e8008000eb00b1b79f00e0c2b3005a
:1012d0009e4f100018003a000de0a0008e00e800bc
:1012e00064405000914f1000020032000107780066
:1012f0000c0037008fb997004302780083bf9f002e
:10130000b4b79f000e87e8000b003700bfb297000c
:10131000ea28b8000100400002004000b0b79f007a
:101320000e07e8009e00fb0002fd2f000280400037
:10133000e90f5000f5ff3600be407800e1d79f006e
:10134000c0c6b30080cf5000220032000f003c0026
:101350006940500080cf50007700320004003c000c
:101360000104e000310232006b4050000f003700f2
:1013700040c6b30080cf500093003200654040006b
:1013800080cf50008b003a008f00370030c7b30089
:1013900080cf50001a00320007003c00644050002b
:1013a00080cf5000110032000040e80080cf500094
:1013b00080003a000f00370050c7b30080cf5000c4
:1013c000800032006340400080cf500079003a0036
:1013d00009003700000028000d48a30001003a0072
:1013e0000001200080867600d3ff37000d60a0004a
:1013f000750037000d50a0000d70a000720037007e
:101400000fbe97004c0078008cbf9f00000478004e
:101410000000e00001003a00a83e21008004eb003b
:10142000010037008104e80089007800088044004a
:101430001004e000fbff3a003fb097000000e0001e
:1014400003003200890f5000010031008004780051
:101450008000eb00e1af9f004fb19700890f510072
:101460000200360009005100e0af9f004368de0033
:10147000e10660001b003a000d0678000900370005
:10148000ffb0970000022000ef010700e10f4000cd
:1014900003003200afb197008301e800a3b79f00bb
:1014a0000c06e8006faa9700840f5600f4ff3a007c
:1014b0008082eb00e5af9f000a00370088007800cb
:1014c0003100fb0001047800ffb09700de01070047
:1014d000e10f4000030032002fb697000c06e80031
:1014e000acb79f000900e90080047800e10f4000dc
:1014f000f2ff3a000006eb000d00e0000a003a009f
:10150000c6013700ffb0970000022000ce0107009f
:10151000e10f4000030032002fb097000000e80008
:10152000a0b79f000c06e800efa89700810f5600b7
:10153000f4ff3a00b90137000fb997004200780074
:1015400082bf9f00cf80de00010178008201780019
:101550000205be000004be000203be000002be0081
:101560004822de00482edd0004027600e4d79f000a
:101570000d48a3000a0032000404e0000800320015
:10158000e14f42000600320071fd2f00018047004c
:101590000448780018409800290020000200370015
:1015a000f0d79f001900200072fd2f000284470031
:1015b000a1ff370063fd2f000384470019002000be
:1015c0009dff37000d0cb3000d007800000cb20039
:1015d00028003a000d00e00005003d000fba97001a
:1015e0004405be004404be0084bf9f0014003700c1
:1015f0000d48a3000b0032008fba97004500be00d3
:1016000085bf9f004f89de00cf91de000002be0043
:1016100002037800820378000605be000404be00c1
:10162000070037000fbe97004c0078008cbf9f006a
:1016300000047800cfc4de00090578008a05780030
:10164000e00f5400e08f5c00e00f5d00e08f5d0074
:101650001f003d003d00b3006000b8006011b800fd
:1016600008045000898458000a0559008b855900e8
:10167000170037000d00e00005003d000fb897008f
:101680004005be004004be0080bf9f001000370030
:101690000d48a300070032000fba97004400be00b7
:1016a00084bf9f006011b8000205be000004be00a8
:1016b000070037008fba97004500780085bf9f006c
:1016c00000047800090020000a0020000b00200020
:1016d0003fb697000c00e00007003a00e00f54000e
:1016e000e08f5c00e00f5d00e08f5d0002003a00db
:1016f00010002000b0b79f008d007800010cb200f0
:10170000e1b79f0000042000808f500030003200bd
:1017100003003c000100e0000800320040003700f8
:10172000000820006fb19700800f510014003200b4
:10173000000c2000800f510039003a0014c0b300a3
:10174000a53421000b0037000400fb004300dd003e
:10175000050040005001be004000be000040e10016
:1017600001c8e10002d0e10003d8e1002b003900fc
:101770000442e800f44f5200f3ff3a00270037001c
:1017800000012000010020006011b80014c0b30067
:101790000040e10001c8e10002d0e10003d8e1000f
:1017a0001e003900450020000000d0008180d200da
:1017b0000281d2008381d2008502e900faff3a005b
:1017c0000442e800f04f5200f1ff3a0013003700e6
:1017d00080002000010020006011b80014c0b30098
:1017e0000040e10001c8e10002d0e10003d8e100bf
:1017f0000a0039003c0020000000d0008180d200a7
:101800000281d2008381d2000c06e900faff3a007f
:101810000442e800f54f5200f1ff3a00e4d79f0080
:10182000efd097000100fb003fb19700820f5000fe
:1018300002003d00e2d79f0004003700bfb19700cf
:10184000808f510001003d00b0b79f004fb297005c
:101850000400e000040032006380660002003200f1
:101860000402e900c4b79f000de8a3000b0032009a
:10187000cfb297003fb697008c8f520003003c0018
:101880000000eb00c0b79f0004003700cfb0970006
:101890003fb1970082805000c1b79f00efd1970001
:1018a0000300fb000002eb00d4af9f00cfb2970013
:1018b000808f52000200340000805200d0af9f00a1
:1018c0000d28a30036003200e18066000d18a30049
:1018d0000c003200d00220000100e00001003a00bc
:1018e0000080e900ffb09700d7000700e10f40003b
:1018f0000e0032002fb697000c06e800acb79f0030
:101900000a0037000100e00008003200ffb0970035
:1019100000022000cc000700e10f4000030032006d
:101920002fb097000000e800a0b79f00dfa8970045
:101930000100e0000f0032000006eb00ffb097004e
:1019400000032000c0000700e10f40000300320048
:101950002fb197000201e800a2b79f000c06e80033
:10196000dfa99700830f5600f4ff3a000002eb0056
:10197000d4af9f00bfb297004328dd00213421007f
:101980000100400090b79f004228dd006400500035
:1019900080b79f00e32eb800fcaf9f0084003700a3
:1019a0005fa897000000e000110032006880660028
:1019b0000f003a0000067800ffb0970000022000f8
:1019c000a1000700e10f400003003200afb0970014
:1019d0008100e800a1b79f000c06e8005fa997000e
:1019e000820f5600f4ff3a008001eb00d3af9f0056
:1019f000e18066000d18a3000c003200d002200028
:101a00000100e00001003a000080e900ffb097000b
:101a10008d000700e10f4000d6ff32002fb2970083
:101a20000402e800a4b79f00d2ff37000100e000e5
:101a3000d0ff3200ffb097000002200082000700b4
:101a4000e10f4000cbff3200afb297008502e80003
:101a5000a5b79f00c7ff370000042000efb0970034
:101a6000808f50003200320003003c000100e00093
:101a7000080032003f003700000820006fb19700d7
:101a8000800f510011003200000c2000800f510027
:101a900038003a009fb197003302be002303be0016
:101aa0000800be000a01be000bfd0700a4002000d4
:101ab000050020006033b8000efd070004c3b3002a
:101ac00004424000e4d79f002a003700153f210060
:101ad000d5b79f000d58a30002003a002040210016
:101ae000d0b79f0014002000050020006033b8002c
:101af0008fb097008100e900050033000402d00098
:101b00008582d2000683d2008783d200f9ff370096
:101b10000800be000a01be00effc07006f00600075
:101b20005fb19700000041001040780010003700be
:101b300014002000050020006033b8008c017800fc
:101b40008301e900050033000402d0008582d20041
:101b50000683d2008783d200f9ff37000800be0059
:101b60000a01be00dcfc0700674060000043b000d3
:101b7000e0d79f006fd297000400fb00ffb09700f2
:101b800031000700e10f400003003200afb29700c0
:101b90008502e800a5b79f001fb0970068005000bd
:101ba00090b79f008fb09700e480500081b79f00ee
:101bb00063065600d0ff2f003fb197008010b80099
:101bc0007faa97000000420063005000800f56007b
:101bd000a1ff3a000d38a30010003200dfaa9700e1
:101be0000500e0000d0034000006eb00ffb0970098
:101bf0000002200014000700e10f40000300320043
:101c00002fb097000000e800a0b79f000c06e80086
:101c1000dfa89700810f5600f4ff3a00be4078001d
:101c2000e1d79f000104e0005efd3a002fb097006d
:101c30004f0778004f06be004f05be004f04be00a0
:101c4000ef01b10000000600889fbe00000178008f
:101c500001047800b10090000118a3003d0032009b
:101c60000198a30003003a00180090000000e00073
:101c700038003a000190a0003104980082047800f6
:101c8000f90fb200180090000000e00002003a00d6
:101c900028009000000c7800ea8f540006003a00fb
:101ca000380090000078a30003003a008800780014
:101cb000d0002000e4ff070098009000580090003a
:101cc000808f50000b0032000100e80010049800e3
:101cd0001800780009587800000c780011c0b30093
:101ce000e043210001487800ea8f540006003200ea
:101cf00019003700880078000940780019000700b3
:101d00008004780014003700380090000088a30099
:101d10001100320018019000a800900048009000c7
:101d200031fa070098009000810f50000400320043
:101d3000380090000003b300300498008084eb006a
:101d40000000eb001004980028009000000c7800c0
:101d5000010037008084eb00090078004f04be00ca
:101d6000000006000200fa00889fbe00a0ff9f004e
:101d700001047800b1009000810478000904b200e9
:101d8000020032000000fb00360037000118a300fb
:101d900005003a000103b3003104980019049800cb
:101da0000080eb002f003700580090000000e0009a
:101db00006003a004800900012002000e68057001c
:101dc00009fa070019049800240037002800900041
:101dd0000000e00008003a00a04321002004980021
:101de000000c780020002000500498001004980097
:101df0000130a0003104980018019000a800900064
:101e000048009000f8f9070028009000000c7800c6
:101e10000080eb001004980018007800aff89700dd
:101e200001587800000c78002ff89700ea4f500016
:101e30000a003a00380090000088a3000700320032
:101e400018019000a800900048009000e6f90700f3
:101e500019049800a8009000010c7800aff89700d2
:101e60000100fb004f04be000080fa0000000600e5
:020000040000fa
:0200000401f009
:04000c00f9ff0000f8
:020000040000fa
:0200000401f009
:040010007dff000070
:020000040000fa
:0200000401f009
:040014007fff00006a
:020000040000fa
:10000800f0020000f0020000f0020000f002000020
:10001800f0020000f0020000f0020000f002000010
:10002800f0020000f002000026470000f002000085
:10003800f0020000f0020000f0020000f0020000f0
:10004800f0020000f0020000f0020000f0020000e0
:10005800f0020000f0020000f0020000f0020000d0
:10006800f0020000f0020000f0020000f0020000c0
:10007800f0020000f0020000f0020000f0020000b0
:10008800f0020000f0020000f0020000f0020000a0
:10009800f0020000f0020000f0020000f002000090
:1000a800f0020000f0020000f00200001e3b000019
:1000b800f0020000f0020000f0020000f002000070
:1000c800f0020000f0020000f0020000f002000060
:1000d800f0020000f0020000f0020000f002000050
:1000e800f0020000f0020000f0020000f002000040
:1000f800f0020000f0020000f0020000f002000030
:10010800f0020000f0020000f0020000f00200001f
:10011800f0020000f0020000f0020000f00200000f
:10012800f0020000f0020000f0020000f0020000ff
:10013800f0020000f0020000f0020000f0020000ef
:10014800f0020000f0020000f0020000f0020000df
:10015800f0020000f0020000f0020000f0020000cf
:10016800f0020000f0020000f0020000f0020000bf
:10017800f0020000f0020000f0020000f0020000af
:10018800f0020000f0020000f0020000f00200009f
:10019800f0020000f0020000f0020000f00200008f
:1001a800f0020000f0020000f0020000f00200007f
:1001b800f0020000f0020000f0020000f00200006f
:1001c800f0020000f0020000f0020000f00200005f
:1001d800f0020000f0020000f0020000f00200004f
:1001e800f0020000f0020000f0020000f00200003f
:1001f800f0020000f0020000f0020000f00200002f
:10020800f0020000f0020000f0020000f00200001e
:10021800f0020000f0020000f0020000f00200000e
:10022800f0020000f0020000f0020000f0020000fe
:10023800f0020000f0020000f0020000f0020000ee
:10024800f0020000f0020000f0020000f0020000de
:10025800f0020000f0020000f0020000f0020000ce
:020000040000fa
:101e7000db0f0000494000000000000000000000ef
:101e80000000000000000000000000000000000052
:101e90000000000000000000000000000000000042
:101ea0000000000000000000000000000000000032
:101eb0000000000000000000000000000000000022
:101ec0000000000000000000000000000000000012
:101ed0000000000000000000000000000000000002
:101ee00000000000000000000000000000000000f2
:101ef00000000000000000000000000000000000e2
:101f000000000000000000000000000000000000d1
:101f100000000000000000000000000000000000c1
:101f200000000000000000000000000000000000b1
:101f300000000000000000000000000000000000a1
:101f40000a0d000025640000203a00002043000034
:101f5000616e00002070000069740000636800007a
:101f6000206f000072690000656e0000746100005f
:101f7000746900006f6e0000203a00002025000008
:101f80006325000063250000632500006325000031
:101f90006325000063250000632500006320000026
:101fa00020200000000000000000000000000000f1
:101fb0000000000000000000000000000000000021
:101fc0000000000000000000000000000000000011
:101fd0000000000000000000000000000000000001
:101fe00000000000000000000000000000000000f1
:101ff00000000000000000000000000000000000e1
:102000000000000000000000000a00000d25000094
:10201000642000003a200000436100006e200000b0
:102020006d6100006e750000616c000020700000a2
:102030006974000063680000203a00002025000059
:102040006325000063250000632500006325000070
:102050006325000063250000632500006320000065
:102060002020000000000000000000000000000030
:102070000000000000000000000000000000000060
:102080000000000000000000000000000000000050
:102090000000000000000000000000000000000040
:1020a0000000000000000000000000000000000030
:1020b0000000000000000000000000000000000020
:1020c0000000000000000000000000000000000010
:1020d0000000000000000000000000000000000000
:1020e00000000000000000000000000000000000f0
:1020f00000000000000000000000000000000000e0
:1021000000000000000000000000000000000000cf
:1021100000000000000000000000000000000000bf
:10212000000000000000000000000000000a0000a5
:102130000d250000642000003a20000043610000eb
:102140006e200000636f00006d6d0000616e000086
:1021500064650000203a000020250000632500008f
:102160006325000063250000630a00000d200000c5
:10217000202000000000000000000000000000001f
:10218000000000000000000000000000000000004f
:10219000000000000000000000000000000000003f
:1021a000000000000000000000000000000000002f
:1021b000000000000000000000000000000000001f
:1021c000000000000000000000000000000000000f
:1021d00000000000000000000000000000000000ff
:1021e00000000000000000000000000000000000ef
:1021f00000000000000000000000000000000000df
:1022000000000000000000000000000000000000ce
:1022100000000000000000000000000000000000be
:1022200000000000000000000000000000000000ae
:10223000000000000000000000000000000a000094
:102240000d250000642000003a20000043610000da
:102250006e200000736800006966000074200000b2
:1022600075700000203a0000202500006325000062
:10227000632500006325000063250000632500003e
:10228000632500006325000063200000202000007b
:10229000000000000000000000000000000000003e
:1022a000000000000000000000000000000000002e
:1022b000000000000000000000000000000000001e
:1022c000000000000000000000000000000000000e
:1022d00000000000000000000000000000000000fe
:1022e00000000000000000000000000000000000ee
:1022f00000000000000000000000000000000000de
:1023000000000000000000000000000000000000cd
:1023100000000000000000000000000000000000bd
:1023200000000000000000000000000000000000ad
:10233000000000000000000000000000000000009d
:10234000000000000000000000000000000000008d
:102350000000000000000000000a00000d25000041
:10236000642000003a200000436100006e2000005d
:10237000736800006966000074200000646f00004c
:10238000776e0000203a0000202500006325000041
:10239000632500006325000063250000632500001d
:1023a000632500006325000063200000202000005a
:1023b000000000000000000000000000000000001d
:1023c000000000000000000000000000000000000d
:1023d00000000000000000000000000000000000fd
:1023e00000000000000000000000000000000000ed
:1023f00000000000000000000000000000000000dd
:1024000000000000000000000000000000000000cc
:1024100000000000000000000000000000000000bc
:1024200000000000000000000000000000000000ac
:10243000000000000000000000000000000000009c
:10244000000000000000000000000000000000008c
:10245000000000000000000000000000000000007c
:10246000000000000000000000000000000000006c
:102470000000000000000000000a00000d25000020
:10248000642000003a200000436100006e2000003c
:10249000776900006e640000207300007065000022
:1024a00065640000203a000020250000632500003c
:1024b00063250000632500006325000063250000fc
:1024c0006325000063250000632000002020000039
:1024d00000000000000000000000000000000000fc
:1024e00000000000000000000000000000000000ec
:1024f00000000000000000000000000000000000dc
:1025000000000000000000000000000000000000cb
:1025100000000000000000000000000000000000bb
:1025200000000000000000000000000000000000ab
:10253000000000000000000000000000000000009b
:10254000000000000000000000000000000000008b
:10255000000000000000000000000000000000007b
:10256000000000000000000000000000000000006b
:10257000000000000000000000000000000000005b
:10258000000000000000000000000000000000004b
:102590000000000000000000000a00000d250000ff
:1025a000642000003a200000436100006e2000001b
:1025b000776900006e64000020640000697200000a
:1025c00065630000746900006f6e0000203a00002f
:1025d000202500006325000063250000632500001e
:1025e00063250000632500006325000063250000cb
:1025f0006320000020200000000000000000000018
:1026000000000000000000000000000000000000ca
:1026100000000000000000000000000000000000ba
:1026200000000000000000000000000000000000aa
:10263000000000000000000000000000000000009a
:10264000000000000000000000000000000000008a
:10265000000000000000000000000000000000007a
:10266000000000000000000000000000000000006a
:10267000000000000000000000000000000000005a
:10268000000000000000000000000000000000004a
:10269000000000000000000000000000000000003a
:1026a000000000000000000000000000000000002a
:1026b000000000000000000000000000000000001a
:1026c000000a00000d250000642000003a200000f0
:1026d000436100006e20000074750000726200000b
:1026e000696e000065200000727000006d2000001f
:1026f000736500006e7300006f720000203a0000e6
:1027000020250000632500006325000063250000ec
:102710006325000063250000632500006325000099
:1027200063200000202000000000000000000000e6
:102730000000000000000000000000000000000099
:102740000000000000000000000000000000000089
:102750000000000000000000000000000000000079
:102760000000000000000000000000000000000069
:102770000000000000000000000000000000000059
:102780000000000000000000000000000000000049
:102790000000000000000000000000000000000039
:1027a0000000000000000000000000000000000029
:1027b0000000000000000000000000000000000019
:1027c0000000000000000000000000000000000009
:1027d00000000000000000000000000000000000f9
:1027e00000000000000000000000000000000000e9
:1027f000000a00000d250000642000003a200000bf
:10280000436100006e2000007475000072620000d9
:10281000696e000065200000727000006d200000ed
:102820006d6f0000746f0000722000003a200000fd
:102830002563000025630000256300002563000078
:102840002563000025630000256300002563000068
:102850002020000020000000000000000000000018
:102860000000000000000000000000000000000068
:102870000000000000000000000000000000000058
:102880000000000000000000000000000000000048
:102890000000000000000000000000000000000038
:1028a0000000000000000000000000000000000028
:1028b0000000000000000000000000000000000018
:1028c0000000000000000000000000000000000008
:1028d00000000000000000000000000000000000f8
:1028e00000000000000000000000000000000000e8
:1028f00000000000000000000000000000000000d8
:1029000000000000000000000000000000000000c7
:1029100000000000000000000000000000000000b7
:102920000a0d000025640000203a0000204300004a
:10293000616e00002077000068650000656c000093
:1029400020720000706d0000203a00002025000079
:102950006325000063250000632500006325000057
:10296000632500006325000063250000632000004c
:102970002020000000000000000000000000000017
:102980000000000000000000000000000000000047
:102990000000000000000000000000000000000037
:1029a0000000000000000000000000000000000027
:1029b0000000000000000000000000000000000017
:1029c0000000000000000000000000000000000007
:1029d00000000000000000000000000000000000f7
:1029e00000000000000000000000000000000000e7
:1029f00000000000000000000000000000000000d7
:102a000000000000000000000000000000000000c6
:102a100000000000000000000000000000000000b6
:102a200000000000000000000000000000000000a6
:102a3000000000000000000000000000000a00008c
:102a40000d250000642000003a20000043610000d2
:102a50006e20000074720000757300007420000086
:102a60003a20000025630000256300002563000074
:102a70002563000025630000256300002563000036
:102a8000256300002020000020000000000000005e
:102a90000000000000000000000000000000000036
:102aa0000000000000000000000000000000000026
:102ab0000000000000000000000000000000000016
:102ac0000000000000000000000000000000000006
:102ad00000000000000000000000000000000000f6
:102ae00000000000000000000000000000000000e6
:102af00000000000000000000000000000000000d6
:102b000000000000000000000000000000000000c5
:102b100000000000000000000000000000000000b5
:102b200000000000000000000000000000000000a5
:102b30000000000000000000000000000000000095
:102b40000000000000000000000000000000000085
:102b5000000000000a0d000025640000203a00007b
:102b600020430000616e0000207400006f720000be
:102b700071750000652000003a2000002563000008
:102b80002563000025630000256300002563000025
:102b9000256300002563000025630000202000005d
:102ba0002000000000000000000000000000000005
:102bb0000000000000000000000000000000000015
:102bc0000000000000000000000000000000000005
:102bd00000000000000000000000000000000000f5
:102be00000000000000000000000000000000000e5
:102bf00000000000000000000000000000000000d5
:102c000000000000000000000000000000000000c4
:102c100000000000000000000000000000000000b4
:102c200000000000000000000000000000000000a4
:102c30000000000000000000000000000000000094
:102c40000000000000000000000000000000000084
:102c50000000000000000000000000000000000074
:102c60000000000000000000000000000a0d00004d
:102c700025640000203a000020430000616e00003f
:102c80002074000075720000626900006e6500002b
:102c90002064000069720000656300007469000030
:102ca0006f6e0000203a0000202500006325000020
:102cb00063250000632500006325000063250000f4
:102cc0006325000063250000632000002020000031
:102cd00000000000000000000000000000000000f4
:102ce00000000000000000000000000000000000e4
:102cf00000000000000000000000000000000000d4
:102d000000000000000000000000000000000000c3
:102d100000000000000000000000000000000000b3
:102d200000000000000000000000000000000000a3
:102d30000000000000000000000000000000000093
:102d40000000000000000000000000000000000083
:102d50000000000000000000000000000000000073
:102d60000000000000000000000000000000000063
:102d70000000000000000000000000000000000053
:102d80000000000000000000000000000000000043
:102d90000000000000000000000a00000d250000f7
:102da000642000003a200000436100006e20000013
:102db0006765000061720000203a000020250000d5
:102dc00063250000632500006325000063250000e3
:102dd00063250000632500006325000063200000d8
:102de00020200000000000000000000000000000a3
:102df00000000000000000000000000000000000d3
:102e000000000000000000000000000000000000c2
:102e100000000000000000000000000000000000b2
:102e200000000000000000000000000000000000a2
:102e30000000000000000000000000000000000092
:102e40000000000000000000000000000000000082
:102e50000000000000000000000000000000000072
:102e60000000000000000000000000000000000062
:102e70000000000000000000000000000000000052
:102e80000000000000000000000000000000000042
:102e90000000000000000000000000000000000032
:102ea000000000000000000000000000000a000018
:102eb0000d250000642000003a200000436100005e
:102ec0006e20000061630000636500006c65000017
:102ed00072610000746900006f6e0000203a00000b
:102ee0002025000063250000632500006325000005
:102ef00063250000632500006325000063250000b2
:102f000063200000202000000000000000000000fe
:102f100000000000000000000000000000000000b1
:102f200000000000000000000000000000000000a1
:102f30000000000000000000000000000000000091
:102f40000000000000000000000000000000000081
:102f50000000000000000000000000000000000071
:102f60000000000000000000000000000000000061
:102f70000000000000000000000000000000000051
:102f80000000000000000000000000000000000041
:102f90000000000000000000000000000000000031
:102fa0000000000000000000000000000000000021
:102fb0000000000000000000000000000000000011
:102fc0000000000000000000000000000000000001
:102fd000000a00000d250000642000003a200000d7
:102fe000436100006e200000636c000075740000f7
:102ff0006368000020740000656d000070650000cb
:10300000726100007475000072650000203a0000d3
:1030100020250000632500006325000063250000d3
:103020006325000063250000632500006325000080
:1030300063200000202000000000000000000000cd
:103040000000000000000000000000000000000080
:103050000000000000000000000000000000000070
:103060000000000000000000000000000000000060
:103070000000000000000000000000000000000050
:103080000000000000000000000000000000000040
:103090000000000000000000000000000000000030
:1030a0000000000000000000000000000000000020
:1030b0000000000000000000000000000000000010
:1030c0000000000000000000000000000000000000
:1030d00000000000000000000000000000000000f0
:1030e00000000000000000000000000000000000e0
:1030f00000000000000000000000000000000000d0
:10310000000a00000d250000642000003a200000a5
:10311000436100006e200000766f00006c740000b8
:1031200061670000652000006d6f00006e6900009f
:10313000746f0000722000003a2000002563000038
:10314000256300002563000025630000256300005f
:103150002563000025630000256300002020000097
:10316000200000000000000000000000000000003f
:10317000000000000000000000000000000000004f
:10318000000000000000000000000000000000003f
:10319000000000000000000000000000000000002f
:1031a000000000000000000000000000000000001f
:1031b000000000000000000000000000000000000f
:1031c00000000000000000000000000000000000ff
:1031d00000000000000000000000000000000000ef
:1031e00000000000000000000000000000000000df
:1031f00000000000000000000000000000000000cf
:1032000000000000000000000000000000000000be
:1032100000000000000000000000000000000000ae
:103220000000000000000000000000000a0d000087
:1032300025640000203a000020430000616e000079
:103240002063000075720000726500006e7400005b
:10325000206d00006f6e0000697400006f72000046
:10326000203a0000202500006325000063250000af
:10327000632500006325000063250000632500002e
:1032800063250000632000002020000000000000f3
:10329000000000000000000000000000000000002e
:1032a000000000000000000000000000000000001e
:1032b000000000000000000000000000000000000e
:1032c00000000000000000000000000000000000fe
:1032d00000000000000000000000000000000000ee
:1032e00000000000000000000000000000000000de
:1032f00000000000000000000000000000000000ce
:1033000000000000000000000000000000000000bd
:1033100000000000000000000000000000000000ad
:10332000000000000000000000000000000000009d
:10333000000000000000000000000000000000008d
:10334000000000000000000000000000000000007d
:1033500000000000000a00000d25000064200000ad
:103360003a200000436100006e20000074690000f4
:103370006d650000203a0000202500006325000054
:10338000632500006325000063250000632500001d
:10339000632500006325000063200000202000005a
:1033a000000000000000000000000000000000001d
:1033b000000000000000000000000000000000000d
:1033c00000000000000000000000000000000000fd
:1033d00000000000000000000000000000000000ed
:1033e00000000000000000000000000000000000dd
:1033f00000000000000000000000000000000000cd
:1034000000000000000000000000000000000000bc
:1034100000000000000000000000000000000000ac
:10342000000000003042000000000000000000002a
:10343000000000000000000000000000000000008c
:10344000000000000000000000000000000000007c
:10345000000000000000000000000000000000006c
:10346000000000000000000000000000000000005c
:10347000000000000000000000000000000000004c
:10348000000000000000000000000000000000003c
:10349000000000000000000000000000000000002c
:1034a000000000000000000000000000000000001c
:1034b000000000000000000000000000000000000c
:1034c0000000000031420000000000000000000089
:1034d00000000000000000000000000000000000ec
:1034e00000000000000000000000000000000000dc
:1034f00000000000000000000000000000000000cc
:1035000000000000000000000000000000000000bb
:1035100000000000000000000000000000000000ab
:10352000000000000000000000000000000000009b
:10353000000000000000000000000000000000008b
:10354000000000000000000000000000000000007b
:10355000000000000000000000000000000000006b
:1035600000000000324400000000000000000000e5
:10357000000000000000000000000000000000004b
:10358000000000000000000000000000000000003b
:10359000000000000000000000000000000000002b
:1035a000000000000000000000000000000000001b
:1035b000000000000000000000000000000000000b
:1035c00000000000000000000000000000000000fb
:1035d00000000000000000000000000000000000eb
:1035e00000000000000000000000000000000000db
:1035f00000000000000000000000000000000000cb
:103600000000000033460000000000000000000041
:1036100000000000000000000000000000000000aa
:10362000000000000000000000000000000000009a
:10363000000000000000000000000000000000008a
:10364000000000000000000000000000000000007a
:10365000000000000000000000000000000000006a
:10366000000000000000000000000000000000005a
:10367000000000000000000000000000000000004a
:10368000000000000000000000000000000000003a
:10369000000000000000000000000000000000002a
:1036a000000000003448000000000000000000009e
:1036b000000000000000000000000000000000000a
:1036c00000000000000000000000000000000000fa
:1036d00000000000000000000000000000000000ea
:1036e00000000000000000000000000000000000da
:1036f00000000000000000000000000000000000ca
:1037000000000000000000000000000000000000b9
:1037100000000000000000000000000000000000a9
:103720000000000000000000000000000000000099
:103730000000000000000000000000000000000089
:1037400000000000354a00000000000000000000fa
:103750000000000000000000000000000000000069
:103760000000000000000000000000000000000059
:103770000000000000000000000000000000000049
:103780000000000000000000000000000000000039
:103790000000000000000000000000000000000029
:1037a0000000000000000000000000000000000019
:1037b0000000000000000000000000000000000009
:1037c00000000000000000000000000000000000f9
:1037d00000000000000000000000000000000000e9
:1037e00000000000364c0000000000000000000057
:1037f00000000000000000000000000000000000c9
:1038000000000000000000000000000000000000b8
:1038100000000000000000000000000000000000a8
:103820000000000000000000000000000000000098
:103830000000000000000000000000000000000088
:103840000000000000000000000000000000000078
:103850000000000000000000000000000000000068
:103860000000000000000000000000000000000058
:103870000000000000000000000000000000000048
:1038800000000000374e00000000000000000000b3
:103890000000000000000000000000000000000028
:1038a0000000000000000000000000000000000018
:1038b0000000000000000000000000000000000008
:1038c00000000000000000000000000000000000f8
:1038d00000000000000000000000000000000000e8
:1038e00000000000000000000000000000000000d8
:1038f00000000000000000000000000000000000c8
:1039000000000000000000000000000000000000b7
:1039100000000000000000000000000000000000a7
:10392000000000003850000000000000000000000f
:103930000000000000000000000000000000000087
:103940000000000000000000000000000000000077
:103950000000000000000000000000000000000067
:103960000000000000000000000000000000000057
:103970000000000000000000000000000000000047
:103980000000000000000000000000000000000037
:103990000000000000000000000000000000000027
:1039a0000000000000000000000000000000000017
:1039b0000000000000000000000000000000000007
:1039c000000000003952000000000000000000006c
:1039d00000000000000000000000000000000000e7
:1039e00000000000000000000000000000000000d7
:1039f00000000000000000000000000000000000c7
:103a000000000000000000000000000000000000b6
:103a100000000000000000000000000000000000a6
:103a20000000000000000000000000000000000096
:103a30000000000000000000000000000000000086
:103a40000000000000000000000000000000000076
:103a50000000000000000000000000000000000066
:103a600000000000415400000000000000000000c1
:103a70000000000000000000000000000000000046
:103a80000000000000000000000000000000000036
:103a90000000000000000000000000000000000026
:103aa0000000000000000000000000000000000016
:103ab0000000000000000000000000000000000006
:103ac00000000000000000000000000000000000f6
:103ad00000000000000000000000000000000000e6
:103ae00000000000000000000000000000000000d6
:103af00000000000000000000000000000000000c6
:103b0000000000004256000000000000000000001d
:103b100000000000000000000000000000000000a5
:103b20000000000000000000000000000000000095
:103b30000000000000000000000000000000000085
:103b40000000000000000000000000000000000075
:103b50000000000000000000000000000000000065
:103b60000000000000000000000000000000000055
:103b70000000000000000000000000000000000045
:103b80000000000000000000000000000000000035
:103b90000000000000000000000000000000000025
:103ba000000000004358000000000000000000007a
:103bb0000000000000000000000000000000000005
:103bc00000000000000000000000000000000000f5
:103bd00000000000000000000000000000000000e5
:103be00000000000000000000000000000000000d5
:103bf00000000000000000000000000000000000c5
:103c000000000000000000000000000000000000b4
:103c100000000000000000000000000000000000a4
:103c20000000000000000000000000000000000094
:103c30000000000000000000000000000000000084
:103c400000000000445a00000000000000000000d6
:103c50000000000000000000000000000000000064
:103c60000000000000000000000000000000000054
:103c70000000000000000000000000000000000044
:103c80000000000000000000000000000000000034
:103c90000000000000000000000000000000000024
:103ca0000000000000000000000000000000000014
:103cb0000000000000000000000000000000000004
:103cc00000000000000000000000000000000000f4
:103cd00000000000000000000000000000000000e4
:103ce000000000004542000000000000000000004d
:103cf00000000000000000000000000000000000c4
:103d000000000000000000000000000000000000b3
:103d100000000000000000000000000000000000a3
:103d20000000000000000000000000000000000093
:103d30000000000000000000000000000000000083
:103d40000000000000000000000000000000000073
:103d50000000000000000000000000000000000063
:103d60000000000000000000000000000000000053
:103d70000000000000000000000000000000000043
:103d800000000000464400000000000000000000a9
:103d90000000000000000000000000000000000023
:103da0000000000000000000000000000000000013
:103db0000000000000000000000000000000000003
:103dc00000000000000000000000000000000000f3
:103dd00000000000000000000000000000000000e3
:103de00000000000000000000000000000000000d3
:103df00000000000000000000000000000000000c3
:103e000000000000000000000000000000000000b2
:103e100000000000000000000000000000000000a2
:043e2000000000009e
:020000040000fa
:103e24000000fa00c215070002160700e0090700a7
:103e3400ffff37007a00fa00889fbe008a1f7800cf
:103e4400003f9800113f9800223f9800333f9800ac
:103e540004ff98006c004700c1f3280063000900c8
:103e6400315878004006b10020042000104078004a
:103e74000080fb004500de000080fb004007980046
:103e8400200520001000780010079800ff3ffc0078
:103e9400200420009040780000ceb30080c0700061
:103ea40020042000014878009e0090002005200096
:103eb400010878003e389000500798005e0090009a
:103ec40067004000104078008000fb005e00900016
:103ed40066004000104078000001fb005e00900086
:103ee40065004000104078008001fb005e009000f7
:103ef40064004000104078000002fb005e00900067
:103f040063004000104078008002fb005e009000d7
:103f14000080e800104078000003fb005e00900081
:103f24000000e800104078008003fb005e00900071
:103f3400104078000004fb00409a80008004780060
:103f44000000e800409a88006c054700811f780053
:103f5400821f7800831f7800841f7800851f7800f3
:103f6400861f7800871f7800881f7800891f7800d3
:103f740000fa2800801f78000a00780066f4070021
:103f8400f48757000000eb00300798001400370056
:103f9400be0090006c004700008040001040780094
:103fa4008000fb004022200001087800302220001d
:103fb40010407800614060000004e000fbff320024
:103fc400be0090006c004700808040000040eb0081
:103fd400804878003e0090000000e8003007980018
:103fe400be00900010032000808f5000e8ff3400d2
:103ff4002005200010007800000f7800ff3ffc002f
:104004004e00900067406000c500dd0020042000e1
:10401400104078007f4060000140700021042000bf
:10402400804878009e007800200520000108780070
:104034004f0578004f04be000080fa00000006001f
:104044004600fa00889fbe008a1f7800601f98000f
:10405400711f9800022798001327980044c79800fe
:104064006a00470031fd280031000900315878000a
:104074002003b10020042000104078000080fb00e1
:104084004500de000080fb0040079800200520006a
:104094001000780010079800ff3ffc002004200067
:1040a4009040780000ceb30080c07000200420004f
:1040b400014878009e009000200520000108780047
:1040c4001e209000009a8800009a8000670040003b
:1040d400104078008000fb00009a800066004000d9
:1040e400104078000001fb00009a80006500400049
:1040f400104078008001fb00009a800064004000ba
:10410400104078000002fb00009a80006300400029
:10411400104078008002fb00009a80000080e800d4
:10412400104078000003fb00009a80000000e800c3
:10413400104078008003fb00009a80001040780053
:104144000004fb00409a8000800478000000e8002e
:10415400409a88006a054700811f7800821f780012
:10416400831f7800841f7800851f7800861f7800dd
:10417400871f7800881f7800891f78005000290065
:10418400801f78000a007800e3f30700f4875700e3
:104194000000eb003007980014003700be009000c8
:1041a4006a00470000804000104078008000fb0057
:1041b40040222000010878003022200010407800be
:1041c400614060000004e000fbff3200be0090008c
:1041d4006a004700808040000040eb00804878007f
:1041e4003e0090000000e80030079800be009000f8
:1041f40010032000808f5000e8ff340020052000c9
:1042040010007800000f7800ff3ffc004e00900083
:1042140067406000c500dd002004200010407800e5
:104224007f40600001407000210420008048780035
:104234009e00780020052000010878004f057800d2
:104244004f04be000080fa00000006004600fa0099
:10425400601f9800711f9800022798001327980088
:1042640044c798006a00470031032900310009005f
:10427400315878002003b100200420001040780059
:104284000080fb004500de000080fb004007980032
:10429400200520001000780010079800ff3ffc0064
:1042a400200420009040780000ceb30080c070004d
:1042b40020042000014878009e0090002005200082
:1042c400010878001e209000f09988002005200045
:1042d40010007800000f7800ff3ffc004e009000b3
:1042e40067406000c500dd00200420001040780015
:1042f4007f40600001407000210420008048780065
:104304009e00780020052000010878000080fa0053
:10431400000006004600fa00601f9800711f980014
:10432400022798001327980044c798006a004700a2
:104334005106290031000900315878002003b100ea
:1043440020042000104078000080fb004500de00bf
:104354000080fb0040079800200520001000780032
:1043640010079800ff3ffc002004200090407800d4
:1043740000ceb30080c07000200420000148780003
:104384009e00900020052000010878001e20900067
:10439400109a8800109a80001040780061406000f4
:1043a400614060000041400020e52000904078001a
:1043b400d0cfb30000c060000240700021e52000af
:1043c40080487800109a8000104078000002fb00ba
:1043d400109a80000000e800104078008002fb0082
:1043e400109a80000080e800104078000003fb0071
:1043f400109a800063004000104078008000fb00a9
:10440400409a8000000178000000e800409a88008b
:10441400ea014700841f7800851f7800861f780012
:10442400811f7800821f780070092900801f78009e
:104434000300780038f30700ec8757000000eb0016
:104444003007980014003700be0090006a0047004f
:1044540000804000104078008000fb0040222000d3
:10446400010878003022200010407800614060008c
:104474000004e000fbff3200be0090006a00470029
:10448400808040000040eb00804878003e009000af
:104494000000e80030079800be00900010032000e0
:1044a400808f5000e8ff34002005200010007800c1
:1044b400000f7800ff3ffc004e0090006740600052
:1044c400c500dd0020042000104078007f4060001b
:1044d4000140700021042000804878009e0078008c
:1044e40020052000010878000080fa000000060082
:1044f4007a00fa00889fbe008a1f7800003f980067
:10450400113f9800223f9800333f980004ff980021
:104514006c004700b10b2900630009003158780092
:104524004006b10020042000104078000080fb0009
:104534004500de000080fb004007980020052000b5
:104544001000780010079800ff3ffc0020042000b2
:104554009040780000ceb30080c07000200420009a
:10456400014878009e009000200520000108780092
:104574003e389000500798005e00900067004000ad
:10458400104078008000fb005e0090006600400050
:10459400104078000001fb005e00900065004000c0
:1045a400104078008001fb005e0090006400400031
:1045b400104078000002fb005e00900063004000a1
:1045c400104078008002fb005e0090000080e8004c
:1045d400104078000003fb005e0090000000e8003b
:1045e400104078008003fb005e00900010407800cb
:1045f4000004fb00409a8000800478000000e8007a
:10460400409a88006c054700811f7800821f78005b
:10461400831f7800841f7800851f7800861f780028
:10462400871f7800881f7800891f7800f0112900ff
:10463400801f78000a007800b7f20700f48757005b
:104644000000eb003007980014003700be00900013
:104654006c00470000804000104078008000fb00a0
:104664004022200001087800302220001040780009
:10467400614060000004e000fbff3200be009000d7
:104684006c004700808040000040eb0080487800c8
:104694003e0090000000e80030079800be00900043
:1046a40010032000808f5000e8ff34002005200014
:1046b40010007800000f7800ff3ffc004e009000cf
:1046c40067406000c500dd00200420001040780031
:1046d4007f40600001407000210420008048780081
:1046e4009e00780020052000010878004f0578001e
:1046f4004f04be000080fa00000006007a00fa00b1
:10470400889fbe008a1f7800003f9800113f9800e0
:10471400223f9800333f980004ff98006c00470044
:104724009114290063000900315878004006b10053
:1047340020042000104078000080fb004500de00cb
:104744000080fb004007980020052000100078003e
:1047540010079800ff3ffc002004200090407800e0
:1047640000ceb30080c0700020042000014878000f
:104774009e00900020052000010878003e3890003b
:10478400500798005e0090006700400010407800d9
:104794008000fb005e00900066004000104078003e
:1047a4000001fb005e0090006500400010407800ae
:1047b4008001fb005e00900064004000104078001f
:1047c4000002fb005e00900063004000104078008f
:1047d4008002fb005e0090000080e800104078003a
:1047e4000003fb005e0090000000e8001040780029
:1047f4008003fb005e009000104078000004fb0082
:10480400409a8000800478000000e800409a880004
:104814006c054700811f7800821f7800831f780091
:10482400841f7800851f7800861f7800871f780012
:10483400881f7800891f7800d01a2900801f78000b
:104844000a00780034f20700f48757000000eb00f8
:104854003007980014003700be0090006c00470039
:1048640000804000104078008000fb0040222000bf
:104874000108780030222000104078006140600078
:104884000004e000fbff3200be0090006c00470013
:10489400808040000040eb00804878003e0090009b
:1048a4000000e80030079800be00900010032000cc
:1048b400808f5000e8ff34002005200010007800ad
:1048c400000f7800ff3ffc004e009000674060003e
:1048d400c500dd0020042000104078007f40600007
:1048e4000140700021042000804878009e00780078
:1048f40020052000010878004f0578004f04be0011
:104904000080fa00000006007a00fa00889fbe00ca
:104914008a1f7800003f9800113f9800223f9800ba
:10492400333f980004ff98006c004700911d290054
:1049340063000900315878004006b10020042000cb
:10494400104078000080fb004500de000080fb0082
:1049540040079800200520001000780010079800f8
:10496400ff3ffc00200420009040780000ceb300fc
:1049740080c0700020042000014878009e00900050
:1049840020052000010878003e3890005007980068
:104994005e00900067004000104078008000fb003b
:1049a4005e00900066004000104078000001fb00ab
:1049b4005e00900065004000104078008001fb001c
:1049c4005e00900064004000104078000002fb008c
:1049d4005e00900063004000104078008002fb00fd
:1049e4005e0090000080e800104078000003fb00a7
:1049f4005e0090000000e800104078008003fb0097
:104a04005e009000104078000004fb00409a800093
:104a1400800478000000e800409a88006c05470094
:104a2400811f7800821f7800831f7800841f78001c
:104a3400851f7800861f7800871f7800881f7800fc
:104a4400891f7800d0232900801f78000a0078008d
:104a5400b1f10700f48757000000eb00300798001d
:104a640014003700be0090006c0047000080400036
:104a7400104078008000fb004022200001087800ec
:104a84003022200010407800614060000004e00003
:104a9400fbff3200be0090006c00470080804000a5
:104aa4000040eb00804878003e0090000000e800e1
:104ab40030079800be00900010032000808f500043
:104ac400e8ff34002005200010007800000f780073
:104ad400ff3ffc004e00900067406000c500dd0011
:104ae40020042000104078007f40600001407000e6
:104af40021042000804878009e00780020052000d2
:104b0400010878004f0578004f04be000080fa00c9
:104b1400000006007a00fa00889fbe008a1f780011
:104b2400003f9800113f9800223f9800333f9800bf
:104b340004ff98006c0047009126290063000900d7
:104b4400315878004006b10020042000104078005d
:104b54000080fb004500de000080fb004007980059
:104b6400200520001000780010079800ff3ffc008b
:104b7400200420009040780000ceb30080c0700074
:104b840020042000014878009e00900020052000a9
:104b9400010878003e389000500798005e009000ad
:104ba40067004000104078008000fb005e00900029
:104bb40066004000104078000001fb005e00900099
:104bc40065004000104078008001fb005e0090000a
:104bd40064004000104078000002fb005e0090007a
:104be40063004000104078008002fb005e009000eb
:104bf4000080e800104078000003fb005e00900095
:104c04000000e800104078008003fb005e00900084
:104c1400104078000004fb00409a80008004780073
:104c24000000e800409a88006c054700811f780066
:104c3400821f7800831f7800841f7800851f780006
:104c4400861f7800871f7800881f7800891f7800e6
:104c5400d02c2900801f78000a0078002ef107006c
:104c6400f48757000000eb00300798001400370069
:104c7400be0090006c0047000080400010407800a7
:104c84008000fb0040222000010878003022200030
:104c940010407800614060000004e000fbff320037
:104ca400be0090006c004700808040000040eb0094
:104cb400804878003e0090000000e800300798002b
:104cc400be00900010032000808f5000e8ff3400e5
:104cd4002005200010007800000f7800ff3ffc0042
:104ce4004e00900067406000c500dd0020042000f5
:104cf400104078007f4060000140700021042000d3
:104d0400804878009e007800200520000108780083
:104d14004f0578004f04be000080fa000000060032
:104d24007a00fa00889fbe008a1f7800003f98002e
:104d3400113f9800223f9800333f980004ff9800e9
:104d44006c004700d12f2900630009003158780016
:104d54004006b10020042000104078000080fb00d1
:104d64004500de000080fb0040079800200520007d
:104d74001000780010079800ff3ffc00200420007a
:104d84009040780000ceb30080c070002004200062
:104d9400014878009e00900020052000010878005a
:104da4003e389000500798005e0090006700400075
:104db400104078008000fb005e0090006600400018
:104dc400104078000001fb005e0090006500400088
:104dd400104078008001fb005e00900064004000f9
:104de400104078000002fb005e0090006300400069
:104df400104078008002fb005e0090000080e80014
:104e0400104078000003fb005e0090000000e80002
:104e1400104078008003fb005e0090001040780092
:104e24000004fb00409a8000800478000000e80041
:104e3400409a88006c054700811f7800821f780023
:104e4400831f7800841f7800851f7800861f7800f0
:104e5400871f7800881f7800891f78001036290082
:104e6400801f78000a007800abf00700f487570031
:104e74000000eb003007980014003700be009000db
:104e84006c00470000804000104078008000fb0068
:104e940040222000010878003022200010407800d1
:104ea400614060000004e000fbff3200be0090009f
:104eb4006c004700808040000040eb008048780090
:104ec4003e0090000000e80030079800be0090000b
:104ed40010032000808f5000e8ff340020052000dc
:104ee40010007800000f7800ff3ffc004e00900097
:104ef40067406000c500dd002004200010407800f9
:104f04007f40600001407000210420008048780048
:104f14009e00780020052000010878004f057800e5
:104f24004f04be000080fa00000006007a00fa0078
:104f3400889fbe008a1f7800003f9800113f9800a8
:104f4400223f9800333f980004ff98006c0047000c
:104f54005139290063000900315878004006b10036
:104f640020042000104078000080fb004500de0093
:104f74000080fb0040079800200520001000780006
:104f840010079800ff3ffc002004200090407800a8
:104f940000ceb30080c070002004200001487800d7
:104fa4009e00900020052000010878003e38900003
:104fb400500798005e0090006700400010407800a1
:104fc4008000fb005e009000660040001040780006
:104fd4000001fb005e009000650040001040780076
:104fe4008001fb005e0090006400400010407800e7
:104ff4000002fb005e009000630040001040780057
:105004008002fb005e0090000080e8001040780001
:105014000003fb005e0090000000e80010407800f0
:105024008003fb005e009000104078000004fb0049
:10503400409a8000800478000000e800409a8800cc
:105044006c054700811f7800821f7800831f780059
:10505400841f7800851f7800861f7800871f7800da
:10506400881f7800891f7800903f2900801f7800ee
:105074000a00780028f00700f48757000000eb00ce
:105084003007980014003700be0090006c00470001
:1050940000804000104078008000fb004022200087
:1050a4000108780030222000104078006140600040
:1050b4000004e000fbff3200be0090006c004700db
:1050c400808040000040eb00804878003e00900063
:1050d4000000e80030079800be0090001003200094
:1050e400808f5000e8ff3400200520001000780075
:1050f400000f7800ff3ffc004e0090006740600006
:10510400c500dd0020042000104078007f406000ce
:105114000140700021042000804878009e0078003f
:1051240020052000010878004f0578004f04be00d8
:105134000080fa00000006007a00fa00889fbe0092
:105144008a1f7800003f9800113f9800223f980082
:10515400333f980004ff98006c004700c1422900c7
:1051640063000900315878004006b1002004200093
:10517400104078000080fb004500de000080fb004a
:1051840040079800200520001000780010079800c0
:10519400ff3ffc00200420009040780000ceb300c4
:1051a40080c0700020042000014878009e00900018
:1051b40020052000010878003e3890005007980030
:1051c4005e00900067004000104078008000fb0003
:1051d4005e00900066004000104078000001fb0073
:1051e4005e00900065004000104078008001fb00e4
:1051f4005e00900064004000104078000002fb0054
:105204005e00900063004000104078008002fb00c4
:105214005e0090000080e800104078000003fb006e
:105224005e0090000000e800104078008003fb005e
:105234005e009000104078000004fb00409a80005b
:10524400800478000000e800409a88006c0547005c
:10525400811f7800821f7800831f7800841f7800e4
:10526400851f7800861f7800871f7800881f7800c4
:10527400891f780000492900801f78000a007800ff
:10528400a5ef0700f48757000000eb0030079800f3
:1052940014003700be0090006c00470000804000fe
:1052a400104078008000fb004022200001087800b4
:1052b4003022200010407800614060000004e000cb
:1052c400fbff3200be0090006c004700808040006d
:1052d4000040eb00804878003e0090000000e800a9
:1052e40030079800be00900010032000808f50000b
:1052f400e8ff34002005200010007800000f78003b
:10530400ff3ffc004e00900067406000c500dd00d8
:1053140020042000104078007f40600001407000ad
:1053240021042000804878009e0078002005200099
:10533400010878004f0578004f04be000080fa0091
:10534400000006007a00fa00889fbe008a1f7800d9
:10535400003f9800113f9800223f9800333f980087
:1053640004ff98006c004700b14b2900630009005a
:10537400315878004006b100200420001040780025
:105384000080fb004500de000080fb004007980021
:10539400200520001000780010079800ff3ffc0053
:1053a400200420009040780000ceb30080c070003c
:1053b40020042000014878009e0090002005200071
:1053c400010878003e389000500798005e00900075
:1053d40067004000104078008000fb005e009000f1
:1053e40066004000104078000001fb005e00900061
:1053f40065004000104078008001fb005e009000d2
:1054040064004000104078000002fb005e00900041
:1054140063004000104078008002fb005e009000b2
:105424000080e800104078000003fb005e0090005c
:105434000000e800104078008003fb005e0090004c
:10544400104078000004fb00409a8000800478003b
:105454000000e800409a88006c054700811f78002e
:10546400821f7800831f7800841f7800851f7800ce
:10547400861f7800871f7800881f7800891f7800ae
:10548400f0512900801f78000a00780022ef0700fd
:10549400f48757000000eb00300798001400370031
:1054a400be0090006c00470000804000104078006f
:1054b4008000fb00402220000108780030222000f8
:1054c40010407800614060000004e000fbff3200ff
:1054d400be0090006c004700808040000040eb005c
:1054e400804878003e0090000000e80030079800f3
:1054f400be00900010032000808f5000e8ff3400ad
:105504002005200010007800000f7800ff3ffc0009
:105514004e00900067406000c500dd0020042000bc
:10552400104078007f40600001407000210420009a
:10553400804878009e00780020052000010878004b
:105544004f0578004f04be000080fa0000000600fa
:105554007a00fa00889fbe008a1f7800003f9800f6
:10556400113f9800223f9800333f980004ff9800b1
:105574006c00470061542900630009003158780029
:105584004006b10020042000104078000080fb0099
:105594004500de000080fb00400798002005200045
:1055a4001000780010079800ff3ffc002004200042
:1055b4009040780000ceb30080c07000200420002a
:1055c400014878009e009000200520000108780022
:1055d4003e389000500798005e009000670040003d
:1055e400104078008000fb005e00900066004000e0
:1055f400104078000001fb005e0090006500400050
:10560400104078008001fb005e00900064004000c0
:10561400104078000002fb005e0090006300400030
:10562400104078008002fb005e0090000080e800db
:10563400104078000003fb005e0090000000e800ca
:10564400104078008003fb005e009000104078005a
:105654000004fb00409a8000800478000000e80009
:10566400409a88006c054700811f7800821f7800eb
:10567400831f7800841f7800851f7800861f7800b8
:10568400871f7800881f7800891f7800a05a290096
:10569400801f78000a0078009fee0700f487570007
:1056a4000000eb003007980014003700be009000a3
:1056b4006c00470000804000104078008000fb0030
:1056c4004022200001087800302220001040780099
:1056d400614060000004e000fbff3200be00900067
:1056e4006c004700808040000040eb008048780058
:1056f4003e0090000000e80030079800be009000d3
:1057040010032000808f5000e8ff340020052000a3
:1057140010007800000f7800ff3ffc004e0090005e
:1057240067406000c500dd002004200010407800c0
:105734007f40600001407000210420008048780010
:105744009e00780020052000010878004f057800ad
:105754004f04be000080fa00000006007a00fa0040
:10576400889fbe008a1f7800003f9800113f980070
:10577400223f9800333f980004ff98006c004700d4
:10578400215d290063000900315878004006b1000a
:1057940020042000104078000080fb004500de005b
:1057a4000080fb00400798002005200010007800ce
:1057b40010079800ff3ffc00200420009040780070
:1057c40000ceb30080c0700020042000014878009f
:1057d4009e00900020052000010878003e389000cb
:1057e400500798005e009000670040001040780069
:1057f4008000fb005e0090006600400010407800ce
:105804000001fb005e00900065004000104078003d
:105814008001fb005e0090006400400010407800ae
:105824000002fb005e00900063004000104078001e
:105834008002fb005e0090000080e80010407800c9
:105844000003fb005e0090000000e80010407800b8
:105854008003fb005e009000104078000004fb0011
:10586400409a8000800478000000e800409a880094
:105874006c054700811f7800821f7800831f780021
:10588400841f7800851f7800861f7800871f7800a2
:10589400881f7800891f780060632900801f7800c2
:1058a4000a0078001cee0700f48757000000eb00a4
:1058b4003007980014003700be0090006c004700c9
:1058c40000804000104078008000fb00402220004f
:1058d4000108780030222000104078006140600008
:1058e4000004e000fbff3200be0090006c004700a3
:1058f400808040000040eb00804878003e0090002b
:105904000000e80030079800be009000100320005b
:10591400808f5000e8ff340020052000100078003c
:10592400000f7800ff3ffc004e00900067406000cd
:10593400c500dd0020042000104078007f40600096
:105944000140700021042000804878009e00780007
:1059540020052000010878004f0578004f04be00a0
:105964000080fa00000006007a00fa00889fbe005a
:105974008a1f7800003f9800113f9800223f98004a
:10598400333f980004ff98006c004700916629009b
:1059940063000900315878004006b100200420005b
:1059a400104078000080fb004500de000080fb0012
:1059b4004007980020052000100078001007980088
:1059c400ff3ffc00200420009040780000ceb3008c
:1059d40080c0700020042000014878009e009000e0
:1059e40020052000010878003e38900050079800f8
:1059f4005e00900067004000104078008000fb00cb
:105a04005e00900066004000104078000001fb003a
:105a14005e00900065004000104078008001fb00ab
:105a24005e00900064004000104078000002fb001b
:105a34005e00900063004000104078008002fb008c
:105a44005e0090000080e800104078000003fb0036
:105a54005e0090000000e800104078008003fb0026
:105a64005e009000104078000004fb00409a800023
:105a7400800478000000e800409a88006c05470024
:105a8400811f7800821f7800831f7800841f7800ac
:105a9400851f7800861f7800871f7800881f78008c
:105aa400891f7800d06c2900801f78000a007800d4
:105ab40099ed0700f48757000000eb0030079800c9
:105ac40014003700be0090006c00470000804000c6
:105ad400104078008000fb0040222000010878007c
:105ae4003022200010407800614060000004e00093
:105af400fbff3200be0090006c0047008080400035
:105b04000040eb00804878003e0090000000e80070
:105b140030079800be00900010032000808f5000d2
:105b2400e8ff34002005200010007800000f780002
:105b3400ff3ffc004e00900067406000c500dd00a0
:105b440020042000104078007f4060000140700075
:105b540021042000804878009e0078002005200061
:105b6400010878004f0578004f04be000080fa0059
:105b7400000006007a00fa00889fbe008a1f7800a1
:105b8400003f9800113f9800223f9800333f98004f
:105b940004ff98006c004700316f2900630009007e
:105ba400315878004006b1002004200010407800ed
:105bb4000080fb004500de000080fb0040079800e9
:105bc400200520001000780010079800ff3ffc001b
:105bd400200420009040780000ceb30080c0700004
:105be40020042000014878009e0090002005200039
:105bf400010878003e389000500798005e0090003d
:105c040067004000104078008000fb005e009000b8
:105c140066004000104078000001fb005e00900028
