:020000040000fa
:080000000002040000000000f2
:020000040000fa
:100400008f5d21000eff2d000e018800000000000e
:100410000c000700408a2300010020000f000700a5
:10042000000020000000e000020032000000020096
:100430000000000004330200000000000040da0069
:100440000000fe00c07320000000e0000200320047
:10045000002020009001880000000600a102880012
:10046000800078000000eb001a003700e2804000b6
:1004700054a0b4009101ba00e280400054a0b4003e
:100480009102ba00e280400054a0b4000002eb00e8
:10049000472bde00f507b200a6018800602ce100c2
:1004a00008003a000049eb000201e80002003900b0
:1004b0003420ec0002f0a0008301e900f9ff3e00c7
:1004c000040037006128e100010032000082eb00e7
:1004d000040007001101ba000200e000e3ff3a0047
:1004e0000000060004d0a300e20f49001c00390000
:1004f000810278003549ba000201e80002003900a3
:100500003420ec0002f0a0008301e9000f0032006b
:100510002549ba000201e800020039003420ec004d
:1005200002f0a0008301e900080032000400e000ae
:100530000600320015c9ba000201e80002003900c5
:100540003420ec0002f0a0008301e9008180e80083
:1005500054a0b4000300e000e2ff3a0000000600ef
:100560009102ba00055978008301e900f7ff3200d3
:10057000c82ade00055978008301e900f3ff320044
:100580000400e000f1ff320011d9ba00eeff37009d
:100590004035040000000000463604000000000062
:1005a000b2360400000000000040da000000fe0047
:1005b0000a00fa0080017800e20f500027003e0098
:1005c000b0ae8000e10f5000080032008023200010
:1005d0000000e00005003200042320002523200055
:1005e0004623200080017800040037000422200008
:1005f0002522200046222000832220001440900063
:100600000004e000040035008009eb001440900075
:100610000074a00010429800154090000028a3002c
:1006200003003a00154090000024a000904298007a
:100630008001eb0006003700154090000008a30081
:10064000fdff32003100fb00000b78008301e80061
:10065000828f5100f8ff3a00080037003000200078
:10066000b0bf9f00c3bf9f00d1bf9f00e2bf9f00ec
:100670006a80570000c0da006fb997000200780066
:100680000080fa0000000600889fbe008a9fbe001e
:10069000010578000100e0000400350008003c007e
:1006a0000000e0002000320005003700600010006c
:1006b000e080180002003b0001f02c001a00370017
:1006c0000004be006011b8006b0920000982cf0051
:1006d000020039000882cf000441b0006942520094
:1006e0000e00320008003b0082817100610164004d
:1006f0008904d1000884d3008b05e8000442e80097
:10070000f9ff3a00050037000804440089844c00d2
:100710008b05e9000442e900fbff3a00f8000700fe
:100720000af0a70001f0a0004f05be004f04be0074
:1007300000000600889fbe008a9fbe008c1f7800c4
:10074000150107001c01330003866c006450e100b2
:10075000240032006420e100270032006150e100f3
:10076000220032006120e100210032008b8542002e
:10077000eb07b1000134b800003ab80008044200a9
:1007800089844a00013ab8000030b80088804000ef
:1007900009014a0004003300000040008180480045
:1007a000020149008b05e900c909dd0083017000e1
:1007b0000100320013002000c814de004814dd00e0
:1007c0004709de001200b200c808de00088470008d
:1007d000cb00070001f0a1000cf0a70001f0a00081
:1007e000fe0037006120e100000132000801be0078
:1007f0000200be00f7ff37006150e100fcff3a0045
:10080000fa00370003f0a200889fbe008a9fbe0056
:100810008c1f7800e0000700e70033006450e1001f
:100820004f0032006420e1005200320003826c006d
:1008300007003b000905d0000306d000820f5400da
:100840000c065d00020039000200320089017800c8
:10085000030678008582550004003d000003fd007a
:100860008103fd008502ea008b854200840f72003f
:1008700002003b0060001000e08018006011b8002a
:100880000005eb007a28e1000a0039000600780034
:10089000c75ddd00f707b200878075002d003700c7
:1008a000828171000a017800610560008180d100b9
:1008b0000080d3008502e900f9ff3b0006044000f8
:1008c0008784480002003b0060041400e0841c00a0
:1008d0000988a300070032008a81710082817100bb
:1008e000610164008904d1000884d3008b05e8000d
:1008f000170037000978a30013003a000b00e0004e
:10090000130034008b05e9000804440089844c007e
:100910000a4474000978a3000d003a000b00e000bf
:10092000070034008b05e9000804440089844c006a
:1009300001003a000b0020000978a300f7ff320005
:100940000001eb0002003700828171000a0178008b
:100950006b0007000cf0a70001f0a0009f0037001b
:100960006420e10002003a00838f6c009f00330096
:100970000801be000200be0098003700f4ff2f00ff
:100980009d003700140020009b0037000001be00ce
:10099000b40007000470a70003f0a10003f8a3004f
:1009a00013003a006509b10010003200090035005b
:1009b0006928e10002003500010028000000050060
:1009c00000004000818048008502e900fcff3a00f9
:1009d00000000600f88f4200050035008100d100bc
:1009e0000080d3008502e800fcff3a00000006000a
:1009f0008000eb0000000500889fbe008a9fbe00bb
:100a00008c1f7800640007006b00330003866c00c5
:100a10006450e1002e0032006420e1003300320017
:100a20006150e1002f0032006120e100310032000e
:100a300085855500eb07b000090020000804200060
:100a4000050037000804440089844c000a00310086
:100a50000603430087834b000001530081815b0044
:100a6000f8ff33000203be000800a00008044400a1
:100a700089844c00f6ff3900c639dd00830173001c
:100a800001003200130020008904d1000884d30043
:100a90000998a300050032000800a7000300a00089
:100aa0008904d1000884d3008b05e8008904d100b3
:100ab0000884d3000001eb000281d200100007007f
:100ac00001f0a1000cf0a70001f0a00043003700e6
:100ad0006420e100450032000801be000200be00b3
:100ae000f7ff37006120e100400032006000b800ed
:100af000f3ff37000000200001f82700f0ff370067
:100b000081002000618055000b003d000b0020009b
:100b100061fe2f000100e1001d00340082817100a0
:100b2000610164008904d1000884d3000000e8005a
:100b3000faff3a00710020006100640003007000b9
:100b4000020060000900320061044400e0844c00af
:100b50000988a500050032008b05e8006808e1005f
:100b600002003a008904d1000884d300f20f20006b
:100b70000258e10005003d00c75ddd00f907b20045
:100b80008980750008007800000006000bf8270037
:100b90008b007800000005000004be003100070053
:100ba0000003be000405be000200be002d000700c9
:100bb000844f7500000006000200be006450e10092
:100bc000050036006420e100020036000968a30039
:100bd00001003a000800be000160a0004f06780046
:100be0004f05be004f04be0000000600f0ff2f00be
:100bf000f1ff2700f9ff3700889fbe008a9fbe00e3
:100c0000841f7800e4ff07004f00780011003300d4
:100c1000f0ff2f00838f6c0006003b000405650089
:100c20000a00a7000800370009f0a6001000200005
:100c300008003700820f5400838f5c0003003900e6
:100c40001000200001003e000000200009f0a70075
:100c50000000ea004f05be004f04be000000e000a7
:100c600000000600c70ade00f107b200f50fb2006f
:100c700008003200e1cf4200020032000170a00003
:100c800024000500810f70000100320004080500f7
:100c900044000500810f700002003a0014000500b6
:100ca0008502e9000000400081c04800fcff3b00d5
:100cb0000170a000240005002800fa00889fbe00f3
:100cc0008a9fbe008c9fbe0003866b00170307003f
:100cd0000028a30064003a000128a30067003a003e
:100ce0000008a30062003a000108a30065003a0072
:100cf0001e009000be08900081064000ed3fb1004c
:100d0000f4805700ee019000111ab8008e0990008f
:100d1000311bb8009e099000311cb800511db8006d
:100d2000f485570046000700fe0190003a000700d6
:100d30008b85e8003e0007008e0990004000070008
:100d4000ee019000340007008b85e80038000700b2
:100d50008e099000400007009e0990001b18b80003
:100d6000890440000a854800fe0190003400070015
:100d70008b85e80038000700ee0190003000070086
:100d80008e0990001b18b800890440000a854800ad
:100d90000a98a30008003a000402420085824a0033
:100da00006034b0087834b0008044c0089844c00e9
:100db0000a054d008d06e9008482720085027300e9
:100dc0004c3add008502720001003200150020005f
:100dd000443ade001400b2004538de00cb45dd00a9
:100de0000b007000c540de00cb4ddd008b80700035
:100df0004549de00cb55dd000b017100c551de0019
:100e00000d037800e202070003f0a1000cf0a70038
:100e100003f0a000d90237001b18b800850240007b
:100e200006834800e0834b0060044c000700370055
:100e30001b18b8000603400087834800faff3700fc
:100e40001b18b8008703400008844800e0844c0069
:100e500060054d00000006001b18b80008044000a3
:100e600089844800faff37000108a300c0023a0055
:100e70005800be005801be00e3ff37000008a30081
:100e8000bb023a0009047800f9ff370081037800bb
:100e900074ff07000001be006000b8000478a300e2
:100ea00013003a006220e10015003e000d003900f9
:100eb0008301d1000281d3008180d3008301d1005e
:100ec0000281d3008180d3008301d1000281d3004d
:100ed0008180d3000538b000c42add00f300b200e1
:100ee0008381720007f0a70003f0a0000000060055
:100ef000f3ff2700f2ff2f006110b900fbff37005e
:100f000003ff2700f7ff37008f1fd100cc02070037
:100f10008f87e9000000e00000000600801feb0062
:100f2000c70207008f87e9000000e000000006000c
:100f30001400fa00889fbe008a9fbe008c9fbe00ee
:100f40000005be000206be00680047000c90be000f
:100f50000a90be00e30207006400e1001a003200bc
:100f600016003e006100e1001a0032006e0490009d
:100f7000fe0490000e0b90009e0b90006011b800d4
:100f80009e0590000b38b100d501200082817100d0
:100f9000610164008703d1000683d3008984d300f4
:100fa0000884d3008502e900f8ff3a00d4fe070068
:100fb0000df0a70001f0a00070023700f1ff27003c
:100fc000f0ff2f006d02370001f82700000020001d
:100fd000f7ff37006000b800f5ff3700e8020700b0
:100fe0000509780000000600809feb0094020700ce
:100ff0008f87e9000000e000000006002800fa00ea
:10100000889fbe008a9fbe008c9fbe0007067800a6
:10101000878669000c003b00030478008704780091
:1010200008f0a10009f0a100840f5000858f58003e
:10103000860f5900890f5c00030033000cf0a200fa
:1010400001003a000cf0a100380207006400e10042
:101050005f003200780147006408e100610032005f
:101060006c014700748557003200be001201be00bb
:101070003a04be001a05be001e039000be0a90008e
:101080008503530006003d000004fd008104fd00bf
:101090000205fd008305fd008703ea0005037800d3
:1010a0000df8a3000400320060041400e0841c006a
:1010b00060051d00e0851d006022b8007d03200052
:1010c0000d38e1008006eb000b0039004433dd00f1
:1010d000f300b2008301730039003700848272008c
:1010e0000d027800e10664008b85d1000a85d300eb
:1010f0008984d3000884d3008703e900f7ff3b000d
:1011000008004000898048000a0149008b8149009d
:1011100004003b0060001000e0801800600119002e
:10112000e08119000358a300090032008d8272008b
:1011300084827200610260008301d1000281d300c9
:101140008180d3000080d3000603e8001b00370035
:101150000348a30017003a000600e000170034001f
:101160000603e9000d00a30000004800818048004c
:1011700002014900838149000348a3000f003a009f
:101180000600e000090034000603e900000040000a
:1011900081804800020149008381490001003a0032
:1011a0000003eb000348a300f5ff32006022b80003
:1011b000020037008482720061826600f401070039
:1011c00003f0a1000cf0a70003f0a000eb01370032
:1011d000640147006408e10002003a000df8a30032
:1011e000e3013a003200be001201be00e301370005
:1011f0001400fa00889fbe008a9fbe008c9fbe002c
:101200000004be000205be00680047000a90be0050
:101210000890be00330207000070a7000bf0a10089
:101220000bf8a30020003a009e0990000e099000e0
:10123000fe0090006e0090009e029000344320005b
:1012400084825200cd0132000a003c00b4fc2f0021
:101250000428e100140034008301d1000281d3008e
:101260008180d3000080d3008502e800faff3a00b5
:10127000c2013700b40020000428e10007003c0050
:10128000000040008180480002014900838149003c
:101290008502e900faff3a00b80137000300280090
:1012a00002002000010037006011b8006000b800a3
:1012b000b20137002800fa00889fbe008a9fbe0056
:1012c0008c9fbe0003866b00980107006400e1005c
:1012d000440032006408e1004a0032006100e1008d
:1012e000460032006108e10049003200ec06470088
:1012f0006000b8003d02be003d03be00f48657000a
:101300006011b8003d04be003d05be007d03200015
:101310000b0037000000a0008d06e900130032002a
:101320000402420085824a0006034b0087834b007b
:10133000000040008180480002014900838149008b
:101340000802520089825a000a035b008b835b000b
:10135000f0ff3b000802420089824a000a034b006a
:101360008b834b008d06e900edff3a00848272000a
:1013700086827200f707b200878272000100320095
:10138000150020001e0490003e0b90000603540040
:10139000e63fb0000368a300070032000000a7008a
:1013a0000500a0008301d1000281d3008180d30019
:1013b0000080d3000603e8008301d1000281d3003e
:1013c0008180d3000080d3000002eb000482d200b1
:1013d0006f01070003f0a1000cf0a70003f0a000cc
:1013e00066013700640247006408e10060013200d2
:1013f0003400be003401be00f6ff37006108e10092
:101400005b0132006011b8006000b800f1ff3700e6
:1014100003ff270002002000fbff3700889fbe006b
:10142000830478000300e0002c00350003003c003a
:101430000082700004027100260032003643200052
:10144000c50020008383cf000a0039000541b100a8
:101450008283cf00070039000541b1008183cf00ae
:10146000040039000541b1008083cf00010039003c
:101470000541b10085c353006022b800120032005c
:101480000a003b0084827200610260008301d10087
:101490000281d3008180d3000080d3000603e800de
:1014a0008743e800f7ff3a000700370000004000dc
:1014b0008180480002014900838149000603e90058
:1014c0008743e900f9ff3a003101070009f0a7005e
:1014d00003f0a0004f04be000000060060001000f2
:1014e000e080180060011900e0811900d3ff3b0083
:1014f000033e2c00f7ff370007f0a200bffe3700c5
:10150000881f7800000478005001be004000be0033
:101510000400400085804800060149008781490099
:10152000009cbe000294be000400e1000588e100ba
:101530000690e1000798e1000200310068004400d5
:101540001008e8004f04780000000600f487470008
:10155000889fbe008a9fbe008c9fbe008e1f7800b1
:101560000205be000004be00d4b79f00e5b79f008f
:10157000f6b79f0087bf9f000000eb00c0b79f0039
:10158000b0b79f00a0b79f0090b79f0080b79f00a3
:101590000d042000bfb097004fb09700000140003d
:1015a0000000e0000f003d004f08de000000710069
:1015b000c0b79f009e00070001003d001200200000
:1015c000a100070001003d0012002000a600070056
:1015d000b1000700b60007000f004000c8ff070079
:1015e000220037004f08de0000067100ccb79f00d4
:1015f0008f00070001003d0012002000920007004c
:1016000001003d001200200097000700a200070023
:101610000fb297009fb297002fb39700bfb3970008
:10162000a90007000000520081805a0002015b00ff
:1016300083815b0080b79f0091b79f00a2b79f0096
:10164000b3b79f000007eb009f0007000020e100f8
:1016500001a8e10002b0e10003b8e100010031009f
:101660001e0020000e005600c0b79f004fb297002a
:101670000400e000070035001000200001002000f9
:101680006011b80008047000898470000a057100b8
:101690008b8571008d06e900beff3a000400e00072
:1016a00003003d00820007000f00400094ff070088
:1016b0004fa897000000e00004003a000fb4970024
:1016c0009fb497002fb59700bfb59700940007000f
:1016d0004f0778004f06be004f05be004f04be0006
:1016e0004f01b10000000600881f7800180020009c
:1016f000881f780095ff07008f87e9004f04780066
:1017000000000600801feb0090ff07008f87e900b4
:1017100000000600889fbe008a9fbe008c1f7800d4
:101720006e00070007003d0073000700e00f5b003c
:10173000e08f5b0007003d00320007000006eb0071
:10174000040037003400070002003d002a000700b3
:101750001c00200072000700e3ff07000203be0028
:101760000002be000c00e000010032002200070071
:101770000400be000601be004f0678004f05be0003
:101780004f04be0000000600889fbe008a9fbe0076
:101790008c1f78005100070005003d00560007002f
:1017a000e00f5b00e08f5b0006003d0004003700a7
:1017b0001900070003003d006000b8006011b80088
:1017c0001000070056000700ceff07000203be000e
:1017d0000002be000c00e00001003200060007001d
:1017e0000400be000601be004f0678004f05be0093
:1017f0004f04be00000006006000b8006011b80091
:10180000000037000402500085825800060359008a
:1018100087835900000006000006eb00e00f52002d
:10182000e08f5a00e00f5b00e08f5b0000000600d5
:101830000180400090b79f000001eb008fb097003f
:101840000100e000000006000200700090b79f0059
:101850000180400080b79f000001eb00ffa89700c7
:101860000100e000000006000200700080b79f0049
:10187000018040006faa9700cf20de0001007000b9
:10188000f0af9f0004024200250007004f18de0061
:101890000002720000000600e4af9f00080444004c
:1018a00089844c000a054d008b854d000000060020
:1018b0003fb29700cfb297005fb39700efb39700a6
:1018c00000fe2f00000006003fb09700cfb0970049
:1018d0005fb19700efb19700000006000205be005f
:1018e0000004be00e00f5000e08f5800e00f5900e8
:1018f000e08f5900000006006000b8006011b800d9
:1019000008045000898458000a0559008b85590045
:101910001c002000e00f5200e08f5a00000006007b
:101920000800be000a01be0000000600680447006f
:101930000294be000094be00fc0447008694be00e2
:101940008494be0009007800660007000800780053
:101950006400070099007800814f70000b003b0085
:101960000800be00930007004f00b10003003700dd
:10197000f3ff2700f2ff2f006110b9004f06be00f1
:101980004f05be004f04be000080fa0000000600b4
:101990001800200057002000080453000d003d00ef
:1019a0000600200097fc2f000740e1001e003400d5
:1019b00084827200610260008301d1000281d30041
:1019c0008180d3000080d3000804e800f8ff3a00cb
:1019d00047002000610460000504740004046400f2
:1019e0000d00320061004000e080480060014900c5
:1019f000e081490003b8a500070032000603e800b3
:101a00006538e10004003a008301d1000281d3006f
:101a10008180d3000080d300f87f20000830e100ef
:101a200003003500080378006000b8006011b800ba
:101a30004433dd00f300b2008301730000000600b0
:101a4000889fbe008a9fbe008c9fbe000404be001b
:101a50000605be00809fbe00829fbe006300070097
:101a6000040678000800be000a01be005f000700ff
:101a7000840678004f03be004f02be008d4f7600f3
:101a80007fb0970013003300f0ff2f008b8f6b00a7
:101a900006003b000d0666000c00a7000a00370098
:101aa00007f0a600100020000a003700880f52003f
:101ab000898f5a008a0f5b008b8f5b00030039000f
:101ac0001000200001003e000000200007f0a700e9
:101ad0000000ea004f06be004f05be004f04be00e6
:101ae00000000600800078005002be005003be00d7
:101af0004439de00f700b200f37f200003016100eb
:101b0000090032000218e10016003a008501720057
:101b100083017300838173000008200015003a00e0
:101b2000400020001300370085017200830173001c
:101b30008381730005003a0004a8be0006a8be0019
:101b4000100020000b0037000201e90004024200ef
:101b500085824a0006034b0087834b000748a30099
:101b6000f9ff32000740a00004a8be0006a8be008e
:101b700020002000800098009200980000000600dd
:101b80000003be0037fc07006220e10002003200c3
:101b90000600be0005000500e507b100f107b20030
:101ba00004f023008480700007f0a70001f0a0007b
:101bb00024000500e48240001078a30007003200f2
:101bc000640240001178a3003400be001401be007e
:101bd000040032000330a700000006003500be00fc
:101be0001501be000330a0000000060005ff27001d
:101bf00005826100070032000428e1000100320084
:101c0000240005000600070001003a00440005001a
:101c10000408050002000700f9ff3a00140005005f
:101c20006f8261008102700085027100850272007e
:101c3000000006000c00fa00889fbe000004780037
:101c4000cfb09700f0ff2700d0bf9f008004eb00cb
:101c500099bf9f0088bf9f00a8bf9f00200c200055
:101c6000b0bf9f0078815700708057005f00070069
:101c70000fb89700094878000fb897000804500083
:101c8000080078004f04be000080fa000000060043
:101c9000889fbe008a1f7800804078000004e00022
:101ca00021003d008040ea00d0c6b30080cf500044
:101cb000090034008104fb004206200011000900e5
:101cc0008204d80000017800010078004311dd0093
:101cd0000a3821001f0037000100fb0003382100f3
:101ce00039003700a2002000110009000200d800ce
:101cf00000017800010078004311dd00030141007c
:101d00004300dd00030040003002be002003be009f
:101d100042209000d2209000f22190006221900099
:101d2000e5fb07002e003700d0c6b30080cf50007f
:101d3000230034008104fb0042062000110009004a
:101d40008204d80000017800010078004311dd0012
:101d50000a4321000a014100a800200011000900e7
:101d60000800d8004300dd000a0040004022900037
:101d7000d022900060239000f02390000288900011
:101d800092889000b289900022899000cafb0700d7
:101d9000801f780001027800110009008804d80033
:101da0000102fd004f0078000402fb004322dd0029
:101db0000a0242005403be004402be00d8ff3700ae
:101dc0000100fb0003432100eacf5000c5ff3c00a7
:101dd0004300dd00030040005001be004000be0093
:101de0004f0578004f04be00000006008f03b000ce
:101df000889fbe008a9fbe008c9fbe008e1f780009
:101e0000e0b79f00f1b79f0082bf9f000000eb008a
:101e1000a0b79f00e50437000001eb0050c2b300fb
:101e200080cf5000090032000100fb00efb09700a6
:101e3000eb040700e10f4000dc043200afb0970074
:101e40008100e800a1b79f00d8043700ffb19700d8
:101e500093407800d0c2b30080cf50000c00320015
:101e600007003c006d40500080cf50000d00320054
:101e70006b40400080cf500019003a000e00370040
:101e800000c3b30080cf500015003a000f003700a8
:101e90000230a0007fb297000402e800f4b79f0070
:101ea000eaff37000200a000ffb297008502e800b9
:101eb000f5b79f00e5ff37000210a0007fb697003e
:101ec0000c06e800fcb79f00e0ff37000220a000ee
:101ed0007fb097000000e800f0b79f00dbff3700fd
:101ee0000218a300010032000200a1000238a30082
:101ef000010032000220a1000100fb0003fd2f00c1
:101f000003004000e90f50000f003e008000eb008e
:101f1000c1b79f004fb29700ea20b800ffb2970008
:101f20009500fb000100400003004000c0b79f0087
:101f30005500fb00f5b79f0003004000e90f50007b
:101f40000d003e00f3ff37000006eb00ccb79f000a
:101f5000a0c2b30080cf500007003a000fb897002e
:101f6000c000780080bf9f00c1b79f00ffb19700fd
:101f70008301e800f3b79f00e0c2b3007fb297008f
:101f8000944f100021003a00820678000de0a00076
:101f90008400e80064405000914f100004003200bb
:101fa000f1b79f008002eb00b5b79f00100037002b
:101fb0000fbe97004c0078008cbf9f00b0b79f0009
:101fc000ffb097008180e800f1b79f001300370051
:101fd000bfb19700ea18b8000100400002004000bd
:101fe000b0b79f007fb297000402e800f4b79f00eb
:101ff000ffb297009500fb0002fd2f000280400019
:10200000e90f5000f2ff3600040037008206780026
:102010000dc0a0000006eb00bcb79f007fb097008a
:10202000b0407800f0b79f00c17f9f00c0c6b300ea
:1020300080cf50002700320014003c006840500060
:1020400080cf50009d00320009003c006c405000e1
:1020500080cf5000290032006b40400080cf5000fc
:10206000720032000104e000560432008e00370096
:1020700060c6b30080cf50001c00320063404000b7
:1020800080cf500088003a008c00370030c7b30082
:1020900080cf50001c00320007003c00644050001c
:1020a00080cf5000130032000040e80080cf500085
:1020b0007d003a001100370050c7b30080cf5000b8
:1020c0007d0032006340400080cf500076003a002f
:1020d0000b003700000028000d48a30001003a0063
:1020e0000001200080867600ccff37000da0a00004
:1020f000720037000d60a000700037000d50a00086
:102100000d70a0006d0037008fb897004100780077
:1021100081bf9f00000478000000e00001003a0049
:10212000085821008004eb00010037008104e8001a
:1021300089007800088044001004e000fbff3a00aa
:102140003fb197000200e00003003200890f510008
:1021500001003100820478000007eb00cfb1970046
:10216000898f510001003600098751004368de0065
:10217000e106600019003a000d06780009003700fa
:10218000efb097000002200015040700e10f4000a7
:10219000030032002fb297000402e800a4b79f00aa
:1021a0000c06e8008e0f5600f5ff3a000087eb00a2
:1021b0000a003700880078003100fb000104780035
:1021c000efb0970006040700e10f40000300320063
:1021d000afb297008502e800a5b79f000900e900ab
:1021e00080047800e10f4000f2ff3a000006eb00a7
:1021f0000d00e0000a003a00ec033700efb0970052
:1022000000022000f6030700e10f40000300320047
:102210002fb097000000e800a0b79f000c06e80070
:102220008e0f5600f5ff3a00e00337008fb8970095
:102230004100780081bf9f00cf80de00010178005f
:10224000820178000205be000004be000203be0049
:102250000002be004822de00482edd0004027600a7
:10226000c47f9f000d48a3000a0032000404e00070
:1022700008003200e14f420006003200d1fb2f007f
:102280000180470004487800184098002900200089
:1022900002003700d07f9f0019002000d2fb2f00e2
:1022a00002844700a6ff3700c3fb2f0003844700ca
:1022b00019002000a2ff37000d0cb30000702000b1
:1022c00000826600270232000dc8a300020032001f
:1022d00064002000b4b79f000d48a3000500320041
:1022e0000fba97004401be004400be0084bf9f00a7
:1022f000040037008fba97004500be0085bf9f00dd
:10230000e2fa0700e0af9f00f1af9f0082b79f00a5
:1023100093b79f006022b8006033b8006fa89700a1
:10232000ffa897000fb197009fb19700f6fa07003a
:102330000000e0000a003d006fa89700ffa897008a
:102340000fb197009fb1970003f0a200e0af9f008c
:10235000f1af9f0082b79f0093b79f003d00b3008d
:102360000000eb0080a79f006022b8006033b80037
:102370006fa89700ffa897000fb197009fb1970033
:10238000e6fa07000000e000340032006fa8970072
:10239000ffa897000fb197009fb19700e4fa0700dc
:1023a00003fc2f00038147000cfb07000fa09700e0
:1023b0000000e900e300b800a200200011000900bd
:1023c0000200d8008000fd0081a79f000100e0000e
:1023d00002003d000100e90080a79f000fa49700c4
:1023e0000840ea002afe07006faa9700ffaa97009c
:1023f0000fb397009fb397002ffa0700a0af9f007d
:10240000b1af9f00c2af9f00d3af9f006022b80062
:102410000600200007ff2300bbfa07000000e000d1
:1024200002003d000800e9000b0037006022b80000
:1024300006002000470224002fa89700bfa897009d
:102440004fa99700dfa99700e7fa07000000e00016
:10245000020035000800e80080a79f003fb2970007
:10246000f80f520057003c00d0c6b300804f520016
:10247000290036000485fb004206200011000900f7
:102480000285d80000017800010478004311dd00c6
:102490000b3821000b0141006022b800060020002b
:1024a00007fe23000288900092889000b289900075
:1024b0002289900000fa0700a9002000809fbe003a
:1024c000110009000984d800000478004f00be0004
:1024d0004344dd000b04440048229000d8229000c1
:1024e00068239000f8239000f3f90700801f78001c
:1024f00001027800110009000985d8000102fd00e1
:102500004f0078004322dd000b0242005403be005e
:102510004402be001f0037000480fb000938210080
:10252000ea4f520014003600a200200011000900fa
:102530000280d80000017800010478004311dd001a
:10254000090141006022b8000600200007fe2300b8
:1025500042209000d2209000f22190006221900051
:10256000d5f907004344dd00090444003802be00e9
:102570002803be00070037004300dd0009004000cb
:102580006022b8000600200007fe23005001be00b4
:102590004000be00c8f907000002be000203be00f2
:1025a0006fa89700ffa897000fb197009fb1970001
:1025b00092fa0700e0af9f00f1af9f0082b79f0043
:1025c00093b79f000fa49700e90f540015003c003b
:1025d0006022b8006033b8006fa89700ffa897008a
:1025e0000fb197009fb197004cfa07000000e00080
:1025f000320032006fa89700ffa897000fb1970034
:102600009fb19700fafa0700e00f5000e08f5800e2
:10261000e00f5900e08f590028003a00e10f540004
:10262000260034000400200005002e00b6e0220041
:10263000170124002fa89700bfa897004fa9970063
:10264000dfa9970030fa07000000e00002003d001b
:1026500073005400010037007200540080a79f00ef
:102660000fc097008afd0700a0af9f00b1af9f0089
:10267000c2af9f00d3af9f000002be000203be00a6
:102680006fa89700ffa897000fb197009fb1970020
:1026900008fb0700d6fa07000205be000004be00d2
:1026a0006000b8006011b800a0a79f00b1a79f000c
:1026b000c2a79f00d3a79f002e0037006fa89700e6
:1026c000ffa897000fb197009fb19700c8fa0700c5
:1026d0000205be000004be00e00f5000e08f58006d
:1026e000e00f5900e08f5900020035004bfb070056
:1026f0001300370010002000010020006011b80016
:1027000008006000898060000a0161008b8161001f
:102710008b03d1000a83d3008982d3000882d300bf
:1027200000007200818072000201730083817300d7
:102730003afb07000002be000203be002ffa0700aa
:102740000002be000203be006fa89700ffa897001a
:102750000fb197009fb1970067fb0700a0a79f00ec
:10276000b1a79f00c2a79f00d3a79f000000eb0066
:1027700080a79f0014c0b300054e21000b00370056
:102780000400fb004300dd00050040005001be00d6
:102790004000be000040e10001c8e10002d0e100bd
:1027a00003d8e100030039000442e800f44f52006e
:1027b000f3ff3a00c47f9f000400fb00bfb0970006
:1027c000008040008fa09700010040004fb19700ab
:1027d00000075100bfb197000300e0000100320084
:1027e0000e07e90063806600010032000e07e90071
:1027f0000d28a30026003200e18066000d18a3001a
:102800000c003200d00220000100e00001003a007c
:102810000080e900efb0970071020700e10f40006f
:10282000180032002fb297000402e800a4b79f00fe
:10283000140037000100e00012003200efb09700f2
:102840000002200066020700e10f40000d00320088
:10285000afb297008502e800a5b79f0009003700d6
:10286000efb09700000320005d020700e10f400079
:10287000030032002fb697000c06e800acb79f00ab
:102880000e07e9000e00e000f5ff3c003d003700b8
:102890000d38a3000a0032000b003700efb097009c
:1028a000000220004e020700e10f4000030032004a
:1028b0002fb097000000e800a0b79f000e07e900c6
:1028c0000e00e000f5ff3c00e18066000d18a3005b
:1028d0000c003200d00220000100e00001003a00ac
:1028e0000080e900efb097003d020700e10f4000d3
:1028f00024003200afb097008100e800a1b79f002c
:10290000200037000100e0001e003200efb0970009
:102910000002200032020700e10f400019003200df
:102920002fb197000201e800a2b79f001500370001
:102930000000fb004300dd00014e210001004000cb
:102940003002be002003be000800be000a01be0027
:1029500065fb0700a4002000050020006033b800dc
:1029600068fb07000003b000efb097001c020700ef
:10297000e10f400003003200afb197008301e8008f
:10298000a3b79f004f7a97000440e900c07f9f00e3
:10299000e14f4000e6ff3a000b003700efb0970030
:1029a000000320000e020700e10f40000300320088
:1029b000afb297008502e800a5b79f000fa097006f
:1029c0000000e90080a79f000fa097000000e00032
:1029d000f2ff3c003fb6970020c1b300f20f560053
:1029e00001003c006fe09700c07f9f00cf78970008
:1029f0000100fb003fb1970000005100e0a79f00dd
:102a00000104e00008003200efb09700e00220006f
:102a1000f3010700e10f400003003200afb197005f
:102a20008301e800a3b79f004f78970098fc070048
:102a30000002be000203be002fa09700bfa09700b7
:102a40004fa19700dfa197009bf80700e8f9070066
:102a50001e0037000000fb004300dd000c4e21008b
:102a60000c0040003002be002003be000800be0083
:102a70000a01be001cfb0700a40020000500200086
:102a80006033b8001ffb07000003b000efb09700f1
:102a9000d3010700e10f4000030032002fb297007e
:102aa0000402e800a4b79f00cf7a97000500fb005e
:102ab0004300dd000c0040003002be002003be00d9
:102ac0000800be000a01be000efb07000205be00a2
:102ad0000004be004f7e97000c40e900c07f9f00bd
:102ae000e14f4000dbff3a000006eb000900370031
:102af000efb0970000032000b9010700e10f40008c
:102b0000030032002fb097000000e800a0b79f003c
:102b10000c06e800efa09700810f5600f4ff3a0082
:102b20000d38a300a10132000e00e0009f01340027
:102b30000006eb00efb0970000022000a80107009c
:102b4000e10f4000030032002fb197000201e800be
:102b5000a2b79f000c06e8008e0f560093013200ca
:102b6000f4ff37000d007800000cb20028003a0096
:102b70000d00e00005003d008fb997004305be0041
:102b80004304be0083bf9f00140037000d48a3001c
:102b90000b0032000fba97004400be0084bf9f00b4
:102ba0004f89de00cf91de000002be0002037800f4
:102bb000820378000605be000404be00070037004b
:102bc0008fba97004500780085bf9f000004780009
:102bd000cfc4de00090578008a057800e00f5400b4
:102be000e08f5c00e00f5d00e08f5d0020003d00a5
:102bf0003d00b3006000b8006011b8000804500048
:102c0000898458000a0559008b855900180037003f
:102c10000d00e00005003d000fbe97004c05be0012
:102c20004c04be008cbf9f00110037000d48a3006c
:102c3000080032008fba97004500be0085bf9f0094
:102c400004017800840178000205be000004be0083
:102c5000070037000fbe97004c0078008cbf9f0024
:102c600000047800090020000a0020000b0020006a
:102c70003fb097000000e00007003a00e00f54006a
:102c8000e08f5c00e00f5d00e08f5d0002003a0025
:102c900011002000b1b79f000d0778000e0cb200a4
:102ca00000042000800f57002f00320003003c007a
:102cb0000e00e000070032003f003700000820004f
:102cc000800f570014003200000c2000800f5700c6
:102cd00039003a0014c0b300054e21000b00370044
:102ce0000400fb004300dd00050040005001be0071
:102cf0004000be000040e10001c8e10002d0e10058
:102d000003d8e1002b0039000442e800f44f5200e0
:102d1000f3ff3a00270037000001200001002000e7
:102d20006011b80014c0b3000040e10001c8e10028
:102d300002d0e10003d8e1001e0039004500200068
:102d40000000d0008180d2000281d2008381d200b5
:102d50008502e900faff3a000442e800f04f520011
:102d6000f1ff3a001300370080002000010020002e
:102d70006011b80014c0b3000040e10001c8e100d8
:102d800002d0e10003d8e1000a0039003c00200035
:102d90000000d0008180d2000281d2008381d20065
:102da0000c06e900faff3a000442e800f54f520031
:102db000f1ff3a00c47f9f00cf7897000100fb002d
:102dc0003fb19700820f500002003d00c27f9f007c
:102dd00004003700bfb19700808f510001003d0013
:102de000b0b79f004fb297000400e000040032002b
:102df00063806600020032000402e900c4b79f004d
:102e00000de8a3000b003200cfb297003fb6970049
:102e10008c8f520003003c000000eb00c0b79f0005
:102e200004003700cfb097003fb197008280500078
:102e3000c1b79f00cf7997000300fb000002eb00b1
:102e400094a79f00cfb29700808f520002003400f9
:102e50000080520090a79f000d28a300360032008a
:102e6000e18066000d18a3000c003200d0022000a3
:102e70000100e00001003a000080e900efb0970097
:102e8000d7000700e10f40000e0032002fb6970078
:102e90000c06e800acb79f000a0037000100e00014
:102ea00008003200efb0970000022000cc000700bd
:102eb000e10f4000030032002fb097000000e8004f
:102ec000a0b79f009fa097000100e0000f00320014
:102ed0000006eb00efb0970000032000c0000700e1
:102ee000e10f4000030032002fb197000201e8001b
:102ef000a2b79f000c06e8009fa19700830f560021
:102f0000f4ff3a000002eb0094a79f00bfb29700c5
:102f10004328dd00814d21000100400090af9f005b
:102f20004228dd006400500080af9f00e32eb8000f
:102f3000fca79f00820037001fa097000000e00060
:102f400011003200688066000f003a000006780029
:102f5000efb0970000022000a1000700e10f400041
:102f600003003200afb097008100e800a1b79f00d6
:102f70000c06e8001fa19700820f5600f4ff3a00ec
:102f80008001eb0093a79f00e18066000d18a3006d
:102f90000c003200d00220000100e00001003a00e5
:102fa0000080e900efb097008d000700e10f4000be
:102fb000d6ff32002fb297000402e800a4b79f00aa
:102fc000d2ff37000100e000d0ff3200efb09700e1
:102fd0000002200082000700e10f4000cbff32001a
:102fe000afb297008502e800a5b79f00c7ff370082
:102ff00000042000800f57003100320003003c0025
:103000000e00e000070032003e00370000082000fc
:10301000800f570011003200000c2000800f570075
:1030200038003a001fa897003002be002003be00ff
:103030000800be000a01be00abf90700a400200092
:10304000050020006033b800aef9070004c3b300e8
:1030500004424000c47f9f002a00370075582100b9
:10306000d5b79f000d58a30002003a0080592100f7
:10307000d0b79f0014002000050020006033b80086
:103080008fa897008100e900050033000402d000fa
:103090008582d2000683d2008783d200f9ff3700f1
:1030a0000800be000a01be008ff907006f00600033
:1030b0005fb1970000004100104078001000370019
:1030c00014002000050020006033b8008c01780057
:1030d0008301e900050033000402d0008582d2009c
:1030e0000683d2008783d200f9ff37000800be00b4
:1030f0000a01be007cf90700674060000043b00091
:10310000c07f9f004f7a97000400fb00efb097004c
:1031100033000700e10f400003003200afb2970018
:103120008502e800a5b79f001fa89700680050001f
:1031300090af9f008fa89700e480500081af9f0060
:1031400063065600d0ff2f003fb197008010b800f3
:103150007fa297000000420063005000800f5600dd
:10316000a3ff3a000d38a300100032009fa2970081
:103170000500e0000d0034000006eb00efb0970002
:103180000002200016000700e10f4000030032009b
:103190002fb097000000e800a0b79f000c06e800e1
:1031a0009fa09700810f5600f4ff3a007fb197006f
:1031b000b2407800f2b79f00c17f9f000104e00099
:1031c00015fb3a002fb097004f0778004f06be005e
:1031d0004f05be004f04be008f03b1000000060083
:1031e000889fbe000001780001047800b1009000c3
:1031f0000118a3003d0032000198a30003003a002b
:10320000180090000000e00038003a000190a00093
:103210003104980082047800f90fb2001800900081
:103220000000e00002003a0028009000000c780046
:10323000ea8f540006003a00380090000078a3009e
:1032400003003a0088007800d0002000e4ff070067
:103250009800900058009000808f50000b003200c2
:103260000100e80010049800180078000958780060
:10327000000c780011c0b300405d210001487800c7
:10328000ea8f5400060032001900370088007800e9
:103290000940780019000700800478001400370006
:1032a000380090000088a30011003200180190003f
:1032b000a800900048009000bdf40700980090001e
:1032c000810f500004003200380090000003b3006a
:1032d000300498008084eb000000eb00100498009c
:1032e00028009000000c7800010037008084eb007b
:1032f000090078004f04be00000006000200fa003a
:10330000889fbe00a0ff9f0001047800b1009000dc
:10331000810478000904b200020032000000fb00c2
:10332000360037000118a30005003a000103b3007e
:1033300031049800190498000080eb002f0037003a
:10334000580090000000e00006003a00480090009d
:1033500012002000e680570095f407001904980039
:1033600024003700280090000000e00008003a0028
:10337000005d210020049800000c7800200020004f
:1033800050049800100498000130a0003104980007
:1033900018019000a80090004800900084f40700f5
:1033a00028009000000c78000080eb0010049800ca
:1033b00018007800aff8970001587800000c7800ea
:1033c0002ff89700ea4f50000a003a0038009000aa
:1033d0000088a3000700320018019000a8009000a8
:1033e0004800900072f4070019049800a8009000ab
:1033f000010c7800aff897000100fb004f04be00fd
:083400000080fa000000060044
:020000040000fa
:0200000401f009
:04000c00f9ff0000f8
:020000040000fa
:0200000401f009
:040010007dff000070
:020000040000fa
:0200000401f009
:040014007fff00006a
:020000040000fa
:10000800d4020000d4020000d4020000d402000090
:10001800d4020000d4020000d4020000d402000080
:10002800d4020000d4020000fe3c0000d40200000c
:10003800d4020000d4020000d4020000d402000060
:100048008a380000d4020000d4020000d402000064
:10005800d4020000d4020000d4020000d402000040
:10006800d4020000d4020000d4020000d402000030
:10007800d4020000d4020000d4020000d402000020
:10008800d4020000d4020000d4020000d402000010
:10009800d4020000d4020000d4020000d402000000
:1000a800d4020000d4020000d4020000b8280000e6
:1000b800d4020000d4020000d4020000d4020000e0
:1000c800d4020000d4020000d4020000d4020000d0
:1000d800d4020000d4020000d4020000d4020000c0
:1000e800d4020000d4020000d4020000d4020000b0
:020000040000fa
:1034880030420000000000000000000000000000c2
:103498000000000000000000000000000000000024
:1034a8000000000000000000000000000000000014
:1034b8000000000000000000000000000000000004
:1034c80000000000000000000000000000000000f4
:1034d80000000000000000000000000000000000e4
:1034e80000000000000000000000000000000000d4
:1034f80000000000000000000000000000000000c4
:1035080000000000000000000000000000000000b3
:1035180000000000000000000000000000000000a3
:103528003142000000000000000000000000000020
:103538000000000000000000000000000000000083
:103548000000000000000000000000000000000073
:103558000000000000000000000000000000000063
:103568000000000000000000000000000000000053
:103578000000000000000000000000000000000043
:103588000000000000000000000000000000000033
:103598000000000000000000000000000000000023
:1035a8000000000000000000000000000000000013
:1035b8000000000000000000000000000000000003
:1035c800324400000000000000000000000000007d
:1035d80000000000000000000000000000000000e3
:1035e80000000000000000000000000000000000d3
:1035f80000000000000000000000000000000000c3
:1036080000000000000000000000000000000000b2
:1036180000000000000000000000000000000000a2
:103628000000000000000000000000000000000092
:103638000000000000000000000000000000000082
:103648000000000000000000000000000000000072
:103658000000000000000000000000000000000062
:1036680033460000000000000000000000000000d9
:103678000000000000000000000000000000000042
:103688000000000000000000000000000000000032
:103698000000000000000000000000000000000022
:1036a8000000000000000000000000000000000012
:1036b8000000000000000000000000000000000002
:1036c80000000000000000000000000000000000f2
:1036d80000000000000000000000000000000000e2
:1036e80000000000000000000000000000000000d2
:1036f80000000000000000000000000000000000c2
:103708003448000000000000000000000000000035
:1037180000000000000000000000000000000000a1
:103728000000000000000000000000000000000091
:103738000000000000000000000000000000000081
:103748000000000000000000000000000000000071
:103758000000000000000000000000000000000061
:103768000000000000000000000000000000000051
:103778000000000000000000000000000000000041
:103788000000000000000000000000000000000031
:103798000000000000000000000000000000000021
:1037a800354a000000000000000000000000000092
:1037b8000000000000000000000000000000000001
:1037c80000000000000000000000000000000000f1
:1037d80000000000000000000000000000000000e1
:1037e80000000000000000000000000000000000d1
:1037f80000000000000000000000000000000000c1
:1038080000000000000000000000000000000000b0
:1038180000000000000000000000000000000000a0
:103828000000000000000000000000000000000090
:103838000000000000000000000000000000000080
:10384800364c0000000000000000000000000000ee
:103858000000000000000000000000000000000060
:103868000000000000000000000000000000000050
:103878000000000000000000000000000000000040
:103888000000000000000000000000000000000030
:103898000000000000000000000000000000000020
:1038a8000000000000000000000000000000000010
:1038b8000000000000000000000000000000000000
:1038c80000000000000000000000000000000000f0
:1038d80000000000000000000000000000000000e0
:1038e800374e00000000000000000000000000004b
:1038f80000000000000000000000000000000000c0
:1039080000000000000000000000000000000000af
:10391800000000000000000000000000000000009f
:10392800000000000000000000000000000000008f
:10393800000000000000000000000000000000007f
:10394800000000000000000000000000000000006f
:10395800000000000000000000000000000000005f
:10396800000000000000000000000000000000004f
:10397800000000000000000000000000000000003f
:1039880038500000000000000000000000000000a7
:10399800000000000000000000000000000000001f
:1039a800000000000000000000000000000000000f
:1039b80000000000000000000000000000000000ff
:1039c80000000000000000000000000000000000ef
:1039d80000000000000000000000000000000000df
:1039e80000000000000000000000000000000000cf
:1039f80000000000000000000000000000000000bf
:103a080000000000000000000000000000000000ae
:103a1800000000000000000000000000000000009e
:103a28003952000000000000000000000000000003
:103a3800000000000000000000000000000000007e
:103a4800000000000000000000000000000000006e
:103a5800000000000000000000000000000000005e
:103a6800000000000000000000000000000000004e
:103a7800000000000000000000000000000000003e
:103a8800000000000000000000000000000000002e
:103a9800000000000000000000000000000000001e
:103aa800000000000000000000000000000000000e
:103ab80000000000000000000000000000000000fe
:103ac8004154000000000000000000000000000059
:103ad80000000000000000000000000000000000de
:103ae80000000000000000000000000000000000ce
:103af80000000000000000000000000000000000be
:103b080000000000000000000000000000000000ad
:103b1800000000000000000000000000000000009d
:103b2800000000000000000000000000000000008d
:103b3800000000000000000000000000000000007d
:103b4800000000000000000000000000000000006d
:103b5800000000000000000000000000000000005d
:103b680042560000000000000000000000000000b5
:103b7800000000000000000000000000000000003d
:103b8800000000000000000000000000000000002d
:103b9800000000000000000000000000000000001d
:103ba800000000000000000000000000000000000d
:103bb80000000000000000000000000000000000fd
:103bc80000000000000000000000000000000000ed
:103bd80000000000000000000000000000000000dd
:103be80000000000000000000000000000000000cd
:103bf80000000000000000000000000000000000bd
:103c08004358000000000000000000000000000011
:103c1800000000000000000000000000000000009c
:103c2800000000000000000000000000000000008c
:103c3800000000000000000000000000000000007c
:103c4800000000000000000000000000000000006c
:103c5800000000000000000000000000000000005c
:103c6800000000000000000000000000000000004c
:103c7800000000000000000000000000000000003c
:103c8800000000000000000000000000000000002c
:103c9800000000000000000000000000000000001c
:103ca800445a00000000000000000000000000006e
:103cb80000000000000000000000000000000000fc
:103cc80000000000000000000000000000000000ec
:103cd80000000000000000000000000000000000dc
:103ce80000000000000000000000000000000000cc
:103cf80000000000000000000000000000000000bc
:103d080000000000000000000000000000000000ab
:103d1800000000000000000000000000000000009b
:103d2800000000000000000000000000000000008b
:103d3800000000000000000000000000000000007b
:103d480045420000000000000000000000000000e4
:103d5800000000000000000000000000000000005b
:103d6800000000000000000000000000000000004b
:103d7800000000000000000000000000000000003b
:103d8800000000000000000000000000000000002b
:103d9800000000000000000000000000000000001b
:103da800000000000000000000000000000000000b
:103db80000000000000000000000000000000000fb
:103dc80000000000000000000000000000000000eb
:103dd80000000000000000000000000000000000db
:103de8004644000000000000000000000000000041
:103df80000000000000000000000000000000000bb
:103e080000000000000000000000000000000000aa
:103e1800000000000000000000000000000000009a
:103e2800000000000000000000000000000000008a
:103e3800000000000000000000000000000000007a
:103e4800000000000000000000000000000000006a
:103e5800000000000000000000000000000000005a
:103e6800000000000000000000000000000000004a
:103e7800000000000000000000000000000000003a
:103e8800db0f0000494000000100000001000000b5
:103e9800000000000000000000000000000000001a
:103ea800000000000000000000000000000000000a
:103eb80000000000000000000000000000000000fa
:103ec80000000000000000000ad70000a33b00002b
:103ed80000000000000000000ad70000a33b00001b
:103ee80000000000000000000ad70000a33b00000b
:103ef80000000000000000000ad70000a33b0000fb
:103f080000000000000000000ad70000a33b0000ea
:103f180000000000000000000ad70000a33b0000da
:103f280000000000000000000ad70000a33b0000ca
:103f380000000000000000000ad70000a33b0000ba
:103f48000000000000000000000000000000000069
:103f58000000000000000000000000000000000059
:103f68000000000000000000000000000000000049
:103f78000000000000000000000000000000000039
:103f88000000000000000000000000000000000029
:103f98000000000000000000000000000000000019
:103fa8000000000000000000000000000000000009
:103fb80000000000000000000000000000000000f9
:103fc8000000000000000000256600000025000039
:103fd80064250000642500006425000064000000da
:103fe80000000000000000000000000000000000c9
:103ff80000000000000000000000000000000000b9
:1040080000000000000000000000000000000000a8
:104018000000000000000000000000000000000098
:104028000000000000000000000000000000000088
:104038000000000000000000000000000000000078
:10404800000000000a0d000025640000203a00006e
:1040580020430000616e0000206d0000616e0000ca
:10406800756100006c200000706900007463000036
:10407800682000003a200000256300002563000046
:104088002563000025630000256300002563000008
:1040980025630000256300002020000020000000a8
:1040a8000000000000000000000000000000000008
:1040b80000000000000000000000000000000000f8
:1040c80000000000000000000000000000000000e8
:1040d80000000000000000000000000000000000d8
:1040e80000000000000000000000000000000000c8
:1040f80000000000000000000000000000000000b8
:1041080000000000000000000000000000000000a7
:104118000000000000000000000000000000000097
:104128000000000000000000000000000000000087
:104138000000000000000000000000000000000077
:104148000000000000000000000000000000000067
:104158000000000000000000000000000000000057
:1041680000000000000000000a0d000025640000a7
:10417800203a000020430000616e00002063000028
:104188006f6d00006d6100006e6400006520000026
:104198003a20000025630000256300002563000025
:1041a800256300000a0d0000202000002000000008
:1041b80000000000000000000000000000000000f7
:1041c80000000000000000000000000000000000e7
:1041d80000000000000000000000000000000000d7
:1041e80000000000000000000000000000000000c7
:1041f80000000000000000000000000000000000b7
:1042080000000000000000000000000000000000a6
:104218000000000000000000000000000000000096
:104228000000000000000000000000000000000086
:104238000000000000000000000000000000000076
:104248000000000000000000000000000000000066
:104258000000000000000000000000000000000056
:104268000000000000000000000000000000000046
:0842780000000000000000003e
:020000040000fa
:104280001200fa0040079800510798006207980052
:1042900073079800040f9800200420001040780055
:1042a0000080fb004500de000080fb002007980036
:1042b000200520001000780010079800ff3ffc0048
:1042c000200420009040780000ceb30080c0700031
:1042d00020042000014878009e0090002005200066
:1042e000010878000004a9000184a8001040200003
:1042f0009040780080cfb30000c060000024a00090
:104300001140200080487800004020009040780054
:1043100000ceb30080c0600000c8b30080cf500062
:10432000f9ff3a000164a900b1112000004120000a
:1043300001087800514d200020412000010878003c
:1043400070402000104078007f40600001ccb30036
:104350000140700071402000804878005e009000ad
:104360007f4060007f4060007f4060007f416000d0
:10437000604020009040780000ceb30000c0600094
:104380000240700061402000804878008000eb000f
:10439000a042200001087800a04220009000780090
:1043a00080422000010878008042200090007800c0
:1043b0002042200001087800204220009000780070
:1043c00000422000010878008000eb0060432000dc
:1043d00001087800604320009000780040432000ee
:1043e000010878004043200090007800204320001e
:1043f000010878002043200090007800004320004e
:10440000010878008000eb0040412000010878009e
:104410000004a8008080eb006042200001087800c2
:10442000604220009000780040422000010878009f
:1044300040422000900078002042200001087800cf
:1044400020422000900078000042200001087800ff
:104450000004a9000000eb003007980015003700a9
:104460003e00900080004000c024210000804000f9
:10447000900178003e00900080004000c0242100a0
:104480000080400010007800100178003e0090008d
:1044900080004000c025210000804000100078000e
:1044a00000007100800978003e0090000000e800e4
:1044b00030079800be0090005e009000808f500092
:1044c000e7ff39005e009000fcf2b7000000eb004f
:1044d000300798000f003700be009000c02f210069
:1044e000808040000040eb00904098003e0090002b
:1044f00000004000ea004000c02f21008080400002
:104500000000eb00800878003e0090000000e8000a
:10451000300798003e009000e80f5000eeff360094
:1045200000002100000278002344200062042000e3
:1045300011c0b3007e009000910e07000000210022
:104540000002780003442000220220008040eb009b
:104550006e0090008a0e07000468a9000a04a900f2
:104560000a24a9000e0890006740600067406000c0
:1045700067406000674060004401dd001085200056
:1045800090407800f0c8b30000c0600002407000a6
:1045900011852000804878002468a8000c24a80019
:1045a0000c04a8004e009000674060006741600066
:1045b000104020009040780080cfb30000c0600021
:1045c0000240700011402000804878000040200028
:1045d000104078000080fb004500de008080fb007a
:1045e0004e009000808f5000f8ff3a002005200018
:1045f00010007800000f7800ff3ffc002e009000b4
:1046000067406000c500dd002004200010407800f5
:104610007f40600001407000210420008048780045
:104620009e00780020052000010878000080fa0034
:10463000000006000a00fa00000f78001207980038
:104640002307980031079800440798001e0078005f
:104650001e019000ae0190000288be001e0078008e
:10466000be019000230098004e009000e30060001f
:104670001e007800310098009e0078000080eb005a
:10468000c00098000080fa00000006002600fa0032
:10469000300f9800410f9800225f98000080eb00d7
:1046a000200f980020042000104078000080fb00bc
:1046b0004500de000080fb00300798002005200048
:1046c0001000780020079800ff3ffc002004200025
:1046d0009040780000ceb30080c07000200420001d
:1046e00001487800ae009000200520000108780005
:1046f0000004a900fcd2bf000000fb000000e9009c
:10470000200f98000f003700ae089000c02f210046
:1047100000804000104090000004e00006003a00d5
:10472000ae089000c02f21008080400010c0b30070
:1047300090409800060037002e0890000000e90025
:10474000200f98002e0890000000e000eeff3d00d2
:104750002e089000e10f400013003a0020052000d1
:104760001000780010079800ff3ffc003e0090000a
:1047700067406000c500dd00200420001040780084
:104780007f406000014070002104200080487800d4
:104790009e00900020052000010878000000eb003a
:1047a000600f9800e50037003e089000ae089000ca
:1047b000410098002e08900000004000ea004000f0
:1047c000c02f2100008040003e09900002087800c0
:1047d0003e089000200090000000e0000c003a002d
:1047e0003e0890001000be0080007800f07f20009e
:1047f000008060004200dd00100f98000000eb0018
:10480000000f98000000eb0070079800460037008a
:104810003e0890001000be0080007800f07f20006d
:10482000008060004200dd000000a000100f980032
:104830003e0890001000be0002002000e3ff2100af
:10484000000278008102780002007800830078007e
:1048500000016200018062006102b800740f9800dc
:10486000051798007e0890008e109000c000dd00b3
:1048700000002000700f9800011798007e0890003b
:104880008e1090006112b800740f98000517980000
:104890007e0990008e1190000200700083807000ed
:1048a0004108de0001002000000f98003e08900043
:1048b0001000be0002802f001300200000027800cc
:1048c0008102780002007800830078000001620015
:1048d000018062006102b800141798002517980043
:1048e0001e109000ae109000c000dd0000002000ff
:1048f00010179800211798001e109000ae1090001d
:104900006112b80014179800251798001e11900026
:10491000ae11900002007000838070008100d10011
:104920000080d300700798002e5890000000fb0014
:10493000ef0060007e00900001007000700798009a
:104940002e089000c400dd0000002100008040001f
:104950009e099000030878002e0890004400dd00b6
:104960008080e80000002100008040000e0a9000d6
:10497000040878002e0890004400dd00e4004000a8
:104980000000210000804000fe0290000508780031
:104990002e0890004400dd00800078000000210017
:1049a0006600400000804000600798004e089000bc
:1049b000500798000000eb00400798000b003700fc
:1049c000ce0090006e00900000814000ce0090006c
:1049d0005e009000008040001040780000497800a0
:1049e0004e0090000000e800400798002e5890000c
:1049f0008000fb004e009000808f5000f0ff3e00d2
:104a00002e08900080004000c0242100008040005b
:104a1000100178002e08900080004000c024210082
:104a20000080400010007800900178002e0890006f
:104a300080004000c0272100008040001000780066
:104a400080007800300020000100dd000080ea00d6
:104a500000806100000978002e089000800040006e
:104a6000c024210000804000100278002e08900031
:104a700080004000c0242100008040001000780029
:104a8000100178003e089000b00190002e089000c0
:104a900080004000c0272100008040001000780006
:104aa0000018dd0000007100000a78002e08900058
:104ab00080004000c0242100008040009001780068
:104ac0002e08900080004000c0242100008040009b
:104ad00010007800100178002e089000800040003f
:104ae000c026210000804000100078000000710006
:104af000800978002005200010007800000f780061
:104b0000ff3ffc003e00900067406000c500dd00f4
:104b100020042000104078007f40600001407000b9
:104b200021042000804878009e00780020052000a5
:104b30000108780011002000610f98006e089000b5
:104b40000080fa00000006000400fa00000f780060
:104b50001e00780040009000e10f400003003a0082
:104b60001000200010079800020037000000eb0042
:104b7000100798001e0090000080fa000000060058
:104b80000e00fa00881f780030079800420798004e
:104b90005307980061079800200420001040780017
:104ba0000080fb004500de000080fb00200798002d
:104bb000200520001000780010079800ff3ffc003f
:104bc000200420009040780000ceb30080c0700028
:104bd00020042000014878009e009000200520005d
:104be000010878000004a8003e009000800040000a
:104bf0000020210000804000100478008041eb007c
:104c00006e0190004e009000de009000e900070069
:104c1000000c78003e00900080004000002221003f
:104c200000804000100478006e0190004e0090005b
:104c3000de0090001d010700000c78000004a900b0
:104c40002005200010007800000f7800ff3ffc00d6
:104c50002e00900067406000c500dd0020042000a9
:104c6000104078007f406000014070002104200067
:104c7000804878009e007800200520000108780018
:104c80004f0478000080fa00000006000e00fa00d1
:104c9000881f780030079800420798005307980053
:104ca0006107980020042000104078000080fb007d
:104cb0004500de000080fb00200798002005200052
:104cc0001000780010079800ff3ffc00200420002f
:104cd0009040780000ceb30080c070002004200017
:104ce000014878009e00900020052000010878000f
:104cf0000004a8003e009000800040000024210035
:104d0000008040001004780013c0b3006e019000d2
:104d10004e009000de009000a6000700000c780016
:104d20003e00900080004000602421000080400090
:104d3000100478006e0190004e009000de0090009c
:104d4000da000700000c78000004a900200520000c
:104d500010007800000f7800ff3ffc002e0090004c
:104d600067406000c500dd0020042000104078008e
:104d70007f406000014070002104200080487800de
:104d80009e00780020052000010878004f0478007c
:104d90000080fa00000006000c00fa0030079800be
:104da0004107980052079800200420001040780026
:104db0000080fb004500de000080fb00200798001b
:104dc000200520001000780010079800ff3ffc002d
:104dd000200420009040780000ceb30080c0700016
:104de00020042000014878009e009000200520004b
:104df000010878000004a8003e009000e70f500072
:104e00001d003e003e00900080004000c0282100b0
:104e10000080400010007800800078003000200002
:104e20000100dd000080ea00800078008041200061
:104e30001000780080806000804120000108780028
:104e40003e00900080004000c0282100008040000b
:104e500010007800800078004e0090008100dd0096
:104e60008041200010007800808070008041200088
:104e7000010878001e0037003e00900068005000d6
:104e800080004000c0282100008040001000780011
:104e900080007800300020000100dd000080ea0082
:104ea00080007800a0412000100078008080600021
:104eb000a0412000010878003e00900068005000ea
:104ec00080004000c02821000080400010007800d1
:104ed000800078004e0090008100dd00a04120009d
:104ee0001000780080807000a04120000108780048
:104ef000be009000100020000100dd00800078005e
:104f00004041200010007800808070004041200067
:104f1000010878003e00900000004000fa004000c8
:104f2000c02f210000804000de00900001087800c2
:104f30000004a9002005200010007800000f780070
:104f4000ff3ffc002e00900067406000c500dd00c0
:104f500020042000104078007f4060000140700075
:104f600021042000804878009e0078002005200061
:104f7000010878000080fa00000006000200fa0034
:104f8000000f78009e007800100020000100dd0076
:104f90000080ea0080007800404120001000780086
:104fa0008080600040412000010878000080fa0005
:104fb000000006000e00fa00008fbe0022079800d5
:104fc000634798002e0090000000e0000a003a00bd
:104fd0009e007800f07f200000806000c500dd00aa
:104fe0006e4090000000fb004300dd0080807000f8
:104ff000410798002a0037002e009000e10f500072
:1050000025003a009e007800f07f200000806000bc
:10501000c502dd0000002000018021009e01780013
:105020001e029000000178000100780002816100fa
:10503000000062006103b8005607980067079800f7
:105040005e009000ee009000c000dd000000200037
:1050500050079800610798005e009000ee009000f5
:105060006113b80056079800670798005e0190002a
:10507000ee01900002007000838070004b08de009b
:105080000100200000807200800178000330a00041
:1050900043079800020037000003eb004607980022
:1050a0004e0090000080fa00000006000c00fa009c
:1050b000008fbe00220798002e0090000000e00044
:1050c00003003a000000eb0030079800250037008d
:1050d0002e009000e10f500020003a0000802f00c9
:1050e000f17f20009e0178001e02900000017800f0
:1050f0000100780002816100000062006102b800d6
:1051000044079800550798004e009000de0090007c
:10511000c000dd0000002000400798005107980003
:105120004e009000de0090006112b8004407980025
:10513000550798004e019000de01900002007000bb
:1051400083807000c509dd004b00de000080710027
:10515000cb08de0030079800020037000002eb00a9
:10516000340798003e0090000080fa00000006001e
:105170003600f800809fbe00829fbe00849fbe0064
:10518000869fbe001a00fa000000eb00500798004e
:105190000000eb00400798000000eb00300798008b
:1051a0006000b80010079800210798000040200018
:1051b0001040780061406000404f98000004a90052
:1051c000a040200010407800624060000004e00031
:1051d000dc003200d20037008040200090007800d0
:1051e000f003200000806000400798004e0090000f
:1051f000c400dd00000021000080400010007800a5
:10520000610060000004e000730032004e00900076
:105210004400dd008080e8000000210000804000a4
:105220001000780001002000f2ff200003002000a1
:105230000002780081027800020078008300780084
:1052400000016200018062006102b80074079800ea
:10525000050f98007e0090008e089000c000dd00d1
:105260000000200070079800010f98007e00900059
:105270008e0890006112b80074079800050f98001e
:105280007e0190008e099000020070008380700003
:10529000c103dd00060020004e0090004400dd0048
:1052a000e400400000002100008040001000780071
:1052b0000100200002c02f0003002000000278003f
:1052c000810278000200780083007800000162000b
:1052d000018062006102b800140f9800250f980049
:1052e0001e089000ae089000c000dd000000200005
:1052f000100f9800210f98001e089000ae08900033
:105300006112b800140f9800250f98001e09900034
:10531000ae09900002007000838070000000400021
:105320008180480000037300818373004e00900069
:10533000c400dd0000002100008040001000780063
:1053400001002000c2ff21000300200000027800bd
:10535000810278000200780083007800000162007a
:10536000018062006102b800340f9800450f980078
:105370003e089000ce089000c000dd000000200034
:10538000300f9800410f98003e089000ce08900022
:105390006112b800340f9800450f98003e09900044
:1053a000ce0990000200700083807000ce09dd00fd
:1053b0004200de0000807100c208de0000007300c1
:1053c00081807300100798002107980010002000ca
:1053d000000f78000d0037004e009000c400dd0083
:1053e000000021000080400090007800c0ff2100f4
:1053f000008060004200de000100200010079800dd
:10540000210798000000eb00000f78004e0090008c
:10541000ef0f50000d0036004e009000700050005d
:1054200080007800100020000100dd000080ea000c
:10543000800078002042200010007800808060000a
:1054400020422000010878000a003700ce009000ba
:10545000100020000100dd000080ea0080007800dc
:105460000042200010007800808060000042200090
:10547000010878004e0090004400dd00ee0040007e
:1054800000002100008040009000780000f0210022
:10549000008060004800de00300798003e00900069
:1054a00000004000fa004000c02f210000804000b2
:1054b000100078000000e000190032003e0090006b
:1054c00000004000fa004000c02f21000080400092
:1054d000900278004e0090004400dd00e40040009f
:1054e0000000210000804000100078006f41600043
:1054f0004e0090004400dd00800078000000210094
:105500006600400000804000024278008001780080
:105510001e0178001e009000ae0090000500010002
:1055200000422000100078000000e0002aff3a004e
:1055300020422000100078000000e00026ff3a0022
:105540000a24a900a04020001040780061406000bb
:105550000004e00037003200e09980000000e8001d
:10556000e09988000a04a9000000eb0050079800a9
:105570002b003700de009000c02f2100008040008b
:1055800010409000e14f500022003a005e00900071
:1055900080004000c02421000080400010007800fe
:1055a000100178005e00900080004000c0262100bd
:1055b0000080400010007800000061000000e00062
:1055c00014003a00de009000c02f210080804000cf
:1055d0000040eb00904098005e009000000040000a
:1055e000ea004000c02f21000080400090007800b9
:1055f0000080eb00c00098005e00900000004000ba
:10560000ea004000c02f2100808040000000eb0035
:10561000800878005e0090000000e80050079800c5
:10562000fcd2bf008000fb005e009000808f500025
:10563000d0ff3e004e489000614060006141600034
:105640000040200090407800e0cfb30000c0600030
:105650000240700001402000804878000468a900e2
:105660000080fa004f03be004f02be004f01be0093
:105670004f00be003600f900004006001200fa009c
:105680004007980051079800620798007307980038
:105690000457980020042000104078000080fb0090
:1056a0004500de000080fb00200798002005200058
:1056b0001000780010079800ff3ffc002004200035
:1056c0009040780000ceb30080c07000200420001d
:1056d000014878009e009000200520000108780015
:1056e0007e009000300798003e0090000000e80027
:1056f0001040780037f3b7003e009000104078006b
:1057000036f3b7002005200010007800000f780065
:10571000ff3ffc002e00900067406000c500dd00e8
:1057200020042000104078007f406000014070009d
:1057300021042000804878009e0078002005200089
:10574000010878000080fa00000006000000fa005e
:105750001e8ea8001e2ea8008000eb000032200044
:10576000010878008000eb0020322000010878005a
:105770008000eb0040322000010878008000eb0040
:1057800020332000010878008000eb002037200043
:10579000010878008000eb006032200001087800ea
:1057a0008000eb00e0322000010878008000eb0070
:1057b000003320000108780010322000904078006b
:1057c000c0cfb30080c060001032200001487800d4
:1057d0003032200010407800ff406000303220005e
:1057e000014878002143a900003220009040780051
:1057f00000ceb30080c07000003220000148780065
:105800002083a9002063a9002023a9002043a80029
:105810002203a8003303a9002343a900503220002b
:105820009040780000ceb30000c060000014a000db
:105830005132200080487800f1c7b3004032200088
:105840000148780025e3a90030322000904078001c
:10585000c0cfb30080c06000303220000148780023
:10586000f100200000332000010878002223a80066
:10587000203220009040780030c8b30000c06000a3
:10588000c041b300213220008048780080322000df
:105890009040780000ceb30000c060000024a0005b
:1058a000813220008048780028e3a900903220004f
:1058b0009040780000ceb30000c060000004a0005b
:1058c000913220008048780029e3a9002603a9002e
:1058d000603220009040780090cfb30080c060001c
:1058e00060322000014878002703a90070322000b0
:1058f0009040780090cfb30080c0600070322000ec
:105900000148780021e3a8000080fa0000000600aa
:10591000a805fa00881f780043542000830147003f
:1059200080097800605420000000470001087800da
:1059300080542000000047000208780064004700ff
:1059400041a4290002502000ff04090031587800ca
:1059500002005000405020000000470043a02900f2
:105960001f000900331878000004b1000000eb00ac
:1059700010079800ea02370080542000000047001a
:1059800010007800100078000000e00021003200d4
:1059900000302000100478006140b9003aeb0700a5
:1059a0000002be00425a20000e0141000489be00e0
:1059b0000800e0000a003d000200200003782400f7
:1059c000445a20000e0242001400be008eeb070075
:1059d0000001be00445a20000e024200028abe00ae
:1059e0004054200000004700100078001001be0065
:1059f000455a20008e8242001500be0082eb07004f
:105a00000001be0040542000000047001000780054
:105a10000288be0080542000000047001080e8008b
:105a2000100078000000e000280032004054200000
:105a3000000047009000780064814000215a200057
:105a40008e8040008208780020302000100478000a
:105a50006140b9000ceb07000001be00e4592000d2
:105a60000e024200028abe000800e0000a003d006b
:105a70000200200003782400e55920008e824200b5
:105a80001500be0060eb07000001be00e4592000d5
:105a90000e024200028abe0040542000000047006f
:105aa00090027800648042001001be00e45920009a
:105ab0000e0242001400be0053eb0700255a2000de
:105ac0008e82420095027800808abe0080542000b9
:105ad00000004700900078006480400010007800cb
:105ae0000000e00028003200405420000000470081
:105af00010017800e8014100c25920000e01410068
:105b00000309780040302000100478006140b9009b
:105b1000ddea07000002be00825920000e014100ac
:105b20000489be000800e0000a003d0002002000d9
:105b300003782400845920000e0242001400be00a5
:105b400031eb07000001be00845920000e02420024
:105b5000028abe00405420000000470090027800f6
:105b6000688042001001be00845920000e024200ed
:105b70001400be0024eb0700c55920008e824200ad
:105b800095027800808abe00805420000000470003
:105b90009000780066804000100078000000e0006f
:105ba0002800320040542000000047001001780017
:105bb000ec014100625920000e0141000309780008
:105bc00060302000100478006140b900aeea0700a0
:105bd0000002be00225920000e0141000489be00cf
:105be0000800e0000a003d000200200003782400c5
:105bf000245920000e0242001400be0002eb0700f0
:105c00000001be00245920000e024200028abe009c
:105c10004054200000004700900278006c80420051
:105c20001001be00245920000e0242001400be00e4
:105c3000f5ea0700655920008e824200950278003f
:105c4000808abe0080542000000047009000780049
:105c500068804000100078000000e000280032005a
:105c6000405420000000470010017800f00141007e
:105c7000025920000e014100030978008030200005
:105c8000100478006140b9007fea07000002be00fe
:105c9000c25820000e0141000489be000800e00047
:105ca0000a003d000200200003782400c4582000b0
:105cb0000e0242001400be00d3ea07000001be003d
:105cc000c45820000e024200028abe004054200048
:105cd0000000470090027800708042001001be0072
:105ce000c45820000e0242001400be00c6ea07009d
:105cf000055920008e82420095027800808abe00fd
:105d00008054200000004700900078006a80400026
:105d1000100078000000e00028003200405420000d
:105d20000000470010017800f4014100a258200053
:105d30000e01410003097800a03020001004780013
:105d40006140b90050ea07000002be00625820001e
:105d50000e0141000489be000800e0000a003d0079
:105d60000200200003782400645820000e02420044
:105d70001400be00a4ea07000001be006458200021
:105d80000e024200028abe0040542000000047007c
:105d900090027800748042001001be006458200018
:105da0000e0242001400be0097ea0700a55820002a
:105db0008e82420095027800808abe0080542000c6
:105dc00000004700900078006c80400010007800d0
:105dd0000000e0002800320040542000000047008e
:105de00010017800f8014100425820000e014100e6
:105df00003097800c0302000100478006140b90029
:105e000021ea07000002be00025820000e014100f6
