:020000040000fa
:080000000002040000000000f2
:020000040000fa
:10040000cf3821000eff2d000e01880000000000f3
:100410000c00070000f92200010020000f00070077
:10042000000020000000e000020032000000020096
:1004300000000000341f0200000000000040da004d
:100440000000fe00005e20000000e000020032001c
:10045000002020009001880000000600a102880012
:10046000800078000000eb001a003700e2804000b6
:1004700054a0b4009101ba00e280400054a0b4003e
:100480009102ba00e280400054a0b4000002eb00e8
:10049000472bde00f507b200a6018800602ce100c2
:1004a00008003a000049eb000201e80002003900b0
:1004b0003420ec0002f0a0008301e900f9ff3e00c7
:1004c000040037006128e100010032000082eb00e7
:1004d000040007001101ba000200e000e3ff3a0047
:1004e0000000060004d0a300e20f49001c00390000
:1004f000810278003549ba000201e80002003900a3
:100500003420ec0002f0a0008301e9000f0032006b
:100510002549ba000201e800020039003420ec004d
:1005200002f0a0008301e900080032000400e000ae
:100530000600320015c9ba000201e80002003900c5
:100540003420ec0002f0a0008301e9008180e80083
:1005500054a0b4000300e000e2ff3a0000000600ef
:100560009102ba00055978008301e900f7ff3200d3
:10057000c82ade00055978008301e900f3ff320044
:100580000400e000f1ff320011d9ba00eeff37009d
:100590002e21040000000000e82b040000000000f1
:1005a000ce2b040000000000b42b0400000000006b
:1005b0005c2b040000000000d22a040000000000b0
:1005c0007a2a040000000000f02904000000000066
:1005d0007c290400000000000040da000000fe005a
:1005e000889fbe008a9fbe008c1f78001a010700fa
:1005f0002101330003866c006450e10024003200c6
:100600006420e100270032006150e1002200320046
:100610006120e100210032008b854200eb07b10030
:100620000134b800003ab8000804420089844a0046
:10063000013ab8000030b8008880400009014a0043
:10064000040033000000400081804800020149009e
:100650008b05e900c909dd0083017000010032004b
:1006600013002000c814de004814dd004709de0036
:100670001200b200c808de00088470000e010700f6
:1006800001f0a1000cf0a70001f0a0000301370069
:100690006120e100050132000801be000200be0039
:1006a000f7ff37006150e100fcff3a00ff00370020
:1006b000889fbe008a9fbe008c1f7800e60007005e
:1006c000ed00330003866c006450e1002e00320020
:1006d0006420e100330032006150e1002f0032005d
:1006e0006120e1003100320085855500eb07b00044
:1006f0000900200008042000050037000804440019
:1007000089844c000a0031000603430087834b00b4
:100710000001530081815b00f8ff33000203be003b
:100720000800a0000804440089844c00f6ff39004a
:10073000c639dd0083017300010032001300200080
:100740008904d1000884d3000998a3000500320071
:100750000800a7000300a0008904d1000884d3008a
:100760008b05e8008904d1000884d3000001eb0068
:100770000281d200d000070001f0a1000cf0a70018
:1007800001f0a000c50037006420e100c70032007e
:100790000801be000200be00f7ff37006120e10043
:1007a000c20032006000b800f3ff370000002000f4
:1007b00001f82700f0ff3700f4ff2f00e4003700b6
:1007c0000001be00fd0007000470a70003f0a100b7
:1007d00003f8a30013003a006509b10010003200cd
:1007e000090035006928e1000200350001002800f9
:1007f0000000050000004000818048008502e900fb
:10080000fcff3a0000000600f88f420005003500aa
:100810008100d1000080d3008502e800fcff3a008f
:10082000000006008000eb0000000500889fbe006d
:100830008a9fbe00010578000100e0000400350039
:1008400008003c000000e0002000320005003700f6
:1008500060001000e080180002003b0001f02c0056
:100860001a0037000004be006011b8006b092000b8
:100870000982cf00020039000882cf000441b00095
:10088000694252000e00320008003b008281710074
:10089000610164008904d1000884d3008b05e8005d
:1008a0000442e800f9ff3a0005003700080444005c
:1008b00089844c008b05e9000442e900fbff3a0003
:1008c0007d0007000af0a70001f0a0004f05be0060
:1008d0004f04be000000060003f0a200889fbe0087
:1008e0008a9fbe008c1f78005b0007006200330007
:1008f0006450e1004f0032006420e10052003200f9
:1009000003826c0007003b000905d0000306d000fd
:10091000820f54000c065d00020039000200320014
:1009200089017800030678008582550004003d00a7
:100930000003fd008103fd008502ea008b85420073
:10094000840f720002003b0060001000e08018007d
:100950006011b8000005eb007a28e1000a003900b8
:1009600006007800c75ddd00f707b20087807500dc
:100970002d003700828171000a0178006105600056
:100980008180d1000080d3008502e900f9ff3b009f
:10099000060440008784480002003b006004140005
:1009a000e0841c000988a300070032008a817100de
:1009b00082817100610164008904d1000884d30040
:1009c0008b05e800170037000978a30013003a00f0
:1009d0000b00e000130034008b05e900080444001c
:1009e00089844c000a4474000978a3000d003a0081
:1009f0000b00e000070034008b05e9000804440008
:100a000089844c0001003a000b0020000978a30003
:100a1000f7ff32000001eb00020037008281710015
:100a20000a017800240007000cf0a70001f0a000e4
:100a30001a0037006420e10002003a00838f6c0046
:100a40001a0033000801be000200be001300370088
:100a5000140020003e0037000004be0057000700cd
:100a60000003be000405be000200be0053000700e4
:100a7000844f7500000006000200be006450e100d3
:100a8000050036006420e100020036000968a3007a
:100a900001003a000800be000160a0004f06780087
:100aa0004f05be004f04be0000000600f0ff2f00ff
:100ab000f1ff2700f9ff3700810020006180550019
:100ac0000b003d000b00200061fe2f000100e10043
:100ad0001d00340082817100610164008904d1002d
:100ae0000884d3000000e800faff3a0071002000fb
:100af0006100640003007000020060000900320021
:100b000061044400e0844c000988a500050032001f
:100b10008b05e8006808e10002003a008904d10072
:100b20000884d300f20f20000258e10005003d00c8
:100b3000c75ddd00f907b200898075000800780004
:100b4000000006000bf827008b007800000005006d
:100b5000889fbe008a9fbe00841f7800beff0700ea
:100b60004f00780011003300f0ff2f00838f6c00de
:100b700006003b00040565000a00a70008003700d6
:100b800009f0a6001000200008003700820f540072
:100b9000838f5c00030039001000200001003e003c
:100ba0000000200009f0a7000000ea004f05be0089
:100bb0004f04be000000e00000000600c70ade008f
:100bc000f107b200f50fb20008003200e1cf420099
:100bd000020032000170a00024000500810f7000a7
:100be000010032000408050044000500810f700078
:100bf00002003a00140005008502e90000004000f0
:100c000081c04800fcff3b000170a00024000500eb
:100c1000000278008001eb0002003700315a7800b2
:100c20008301e800828f5100fcff3a0000000600bb
:100c3000000278008001eb0002003700015a7800c2
:100c40008301e800828f5100fcff3a00000006009b
:020000040000fa
:0200000401f009
:04000c00f9ff0000f8
:020000040000fa
:0200000401f009
:040010007dff000070
:020000040000fa
:0200000401f009
:040014007fff00006a
:020000040000fa
:10000800ec020000ec020000ec020000ec02000030
:10001800ec020000ec020000ec020000ec02000020
:10002800ec020000ec020000b82d0000ec02000019
:10003800ec020000ec020000ec020000ec02000000
:10004800ec310000ec020000ec020000ec020000c1
:10005800ec020000ec020000ec020000ec020000e0
:10006800ec020000ec020000ec020000ec020000d0
:10007800ec020000ec020000ec020000ec020000c0
:10008800ec020000ec020000ec020000ec020000b0
:10009800b6310000ec020000ec020000ec020000a7
:1000a800ec020000ec020000ec02000080130000eb
:1000b800ec020000ec020000ec020000ec02000080
:1000c800ec020000ec020000ec020000ec02000070
:1000d800ec020000ec020000ec020000ec02000060
:1000e800ec020000ec020000ec020000ec02000050
:020000040000fa
:100cd00030420000000000000000000000000000a2
:100ce0000000000000000000000000000000000004
:100cf00000000000000000000000000000000000f4
:100d000000000000000000000000000000000000e3
:100d100000000000000000000000000000000000d3
:100d200000000000000000000000000000000000c3
:100d300000000000000000000000000000000000b3
:100d400000000000000000000000000000000000a3
:100d50000000000000000000000000000000000093
:100d60000000000000000000000000000000000083
:100d70003142000000000000000000000000000000
:100d80000000000000000000000000000000000063
:100d90000000000000000000000000000000000053
:100da0000000000000000000000000000000000043
:100db0000000000000000000000000000000000033
:100dc0000000000000000000000000000000000023
:100dd0000000000000000000000000000000000013
:100de0000000000000000000000000000000000003
:100df00000000000000000000000000000000000f3
:100e000000000000000000000000000000000000e2
:100e1000324400000000000000000000000000005c
:100e200000000000000000000000000000000000c2
:100e300000000000000000000000000000000000b2
:100e400000000000000000000000000000000000a2
:100e50000000000000000000000000000000000092
:100e60000000000000000000000000000000000082
:100e70000000000000000000000000000000000072
:100e80000000000000000000000000000000000062
:100e90000000000000000000000000000000000052
:100ea0000000000000000000000000000000000042
:100eb00033460000000000000000000000000000b9
:100ec0000000000000000000000000000000000022
:100ed0000000000000000000000000000000000012
:100ee0000000000000000000000000000000000002
:100ef00000000000000000000000000000000000f2
:100f000000000000000000000000000000000000e1
:100f100000000000000000000000000000000000d1
:100f200000000000000000000000000000000000c1
:100f300000000000000000000000000000000000b1
:100f400000000000000000000000000000000000a1
:100f50003448000000000000000000000000000015
:100f60000000000000000000000000000000000081
:100f70000000000000000000000000000000000071
:100f80000000000000000000000000000000000061
:100f90000000000000000000000000000000000051
:100fa0000000000000000000000000000000000041
:100fb0000000000000000000000000000000000031
:100fc0000000000000000000000000000000000021
:100fd0000000000000000000000000000000000011
:100fe0000000000000000000000000000000000001
:100ff000354a000000000000000000000000000072
:1010000000000000000000000000000000000000e0
:1010100000000000000000000000000000000000d0
:1010200000000000000000000000000000000000c0
:1010300000000000000000000000000000000000b0
:1010400000000000000000000000000000000000a0
:101050000000000000000000000000000000000090
:101060000000000000000000000000000000000080
:101070000000000000000000000000000000000070
:101080000000000000000000000000000000000060
:10109000364c0000000000000000000000000000ce
:1010a0000000000000000000000000000000000040
:1010b0000000000000000000000000000000000030
:1010c0000000000000000000000000000000000020
:1010d0000000000000000000000000000000000010
:1010e0000000000000000000000000000000000000
:1010f00000000000000000000000000000000000f0
:1011000000000000000000000000000000000000df
:1011100000000000000000000000000000000000cf
:1011200000000000000000000000000000000000bf
:10113000374e00000000000000000000000000002a
:10114000000000000000000000000000000000009f
:10115000000000000000000000000000000000008f
:10116000000000000000000000000000000000007f
:10117000000000000000000000000000000000006f
:10118000000000000000000000000000000000005f
:10119000000000000000000000000000000000004f
:1011a000000000000000000000000000000000003f
:1011b000000000000000000000000000000000002f
:1011c000000000000000000000000000000000001f
:1011d0003850000000000000000000000000000087
:1011e00000000000000000000000000000000000ff
:1011f00000000000000000000000000000000000ef
:1012000000000000000000000000000000000000de
:1012100000000000000000000000000000000000ce
:1012200000000000000000000000000000000000be
:1012300000000000000000000000000000000000ae
:10124000000000000000000000000000000000009e
:10125000000000000000000000000000000000008e
:10126000000000000000000000000000000000007e
:1012700039520000000000000000000000000000e3
:10128000000000000000000000000000000000005e
:10129000000000000000000000000000000000004e
:1012a000000000000000000000000000000000003e
:1012b000000000000000000000000000000000002e
:1012c000000000000000000000000000000000001e
:1012d000000000000000000000000000000000000e
:1012e00000000000000000000000000000000000fe
:1012f00000000000000000000000000000000000ee
:1013000000000000000000000000000000000000dd
:101310004154000000000000000000000000000038
:1013200000000000000000000000000000000000bd
:1013300000000000000000000000000000000000ad
:10134000000000000000000000000000000000009d
:10135000000000000000000000000000000000008d
:10136000000000000000000000000000000000007d
:10137000000000000000000000000000000000006d
:10138000000000000000000000000000000000005d
:10139000000000000000000000000000000000004d
:1013a000000000000000000000000000000000003d
:1013b0004256000000000000000000000000000095
:1013c000000000000000000000000000000000001d
:1013d000000000000000000000000000000000000d
:1013e00000000000000000000000000000000000fd
:1013f00000000000000000000000000000000000ed
:1014000000000000000000000000000000000000dc
:1014100000000000000000000000000000000000cc
:1014200000000000000000000000000000000000bc
:1014300000000000000000000000000000000000ac
:10144000000000000000000000000000000000009c
:1014500043580000000000000000000000000000f1
:10146000000000000000000000000000000000007c
:10147000000000000000000000000000000000006c
:10148000000000000000000000000000000000005c
:10149000000000000000000000000000000000004c
:1014a000000000000000000000000000000000003c
:1014b000000000000000000000000000000000002c
:1014c000000000000000000000000000000000001c
:1014d000000000000000000000000000000000000c
:1014e00000000000000000000000000000000000fc
:1014f000445a00000000000000000000000000004e
:1015000000000000000000000000000000000000db
:1015100000000000000000000000000000000000cb
:1015200000000000000000000000000000000000bb
:1015300000000000000000000000000000000000ab
:10154000000000000000000000000000000000009b
:10155000000000000000000000000000000000008b
:10156000000000000000000000000000000000007b
:10157000000000000000000000000000000000006b
:10158000000000000000000000000000000000005b
:1015900045420000000000000000000000000000c4
:1015a000000000000000000000000000000000003b
:1015b000000000000000000000000000000000002b
:1015c000000000000000000000000000000000001b
:1015d000000000000000000000000000000000000b
:1015e00000000000000000000000000000000000fb
:1015f00000000000000000000000000000000000eb
:1016000000000000000000000000000000000000da
:1016100000000000000000000000000000000000ca
:1016200000000000000000000000000000000000ba
:101630004644000000000000000000000000000020
:10164000000000000000000000000000000000009a
:10165000000000000000000000000000000000008a
:10166000000000000000000000000000000000007a
:10167000000000000000000000000000000000006a
:10168000000000000000000000000000000000005a
:10169000000000000000000000000000000000004a
:1016a000000000000000000000000000000000003a
:1016b000000000000000000000000000000000002a
:1016c000000000000000000000000000000000001a
:1016d0000100000001000000000000000000000008
:1016e00000000000000000000000000000000000fa
:1016f00000000000000000000000000000000000ea
:1017000000000000000000000000000000000000d9
:101710000ad70000a33b000000000000000000000a
:101720000ad70000a33b00000000000000000000fa
:101730000ad70000a33b00000000000000000000ea
:101740000ad70000a33b00000000000000000000da
:101750000ad70000a33b00000000000000000000ca
:101760000ad70000a33b00000000000000000000ba
:101770000ad70000a33b00000000000000000000aa
:101780000ad70000a33b000000000000000000009a
:101790000000000000000000000000000000000049
:1017a0000000000000000000000000000000000039
:1017b0000000000000000000000000000000000029
:1017c0000000000000000000000000000000000019
:1017d0000000000000000000000000000000000009
:1017e00000000000000000000000000000000000f9
:1017f00000000000000000000000000000000000e9
:1018000000000000000000000000000000000000d8
:020000040000fa
:101810001200fa00400798005107980062079800ec
:1018200073079800040f98002004200010407800ef
:101830000080fb004500de000080fb0020079800d0
:10184000200520001000780010079800ff3ffc00e2
:10185000200420009040780000ceb30080c07000cb
:1018600020042000014878009e0090002005200000
:10187000010878000004a9000184a800104020009d
:101880009040780080cfb30000c060000024a0002a
:1018900011402000804878000040200090407800ef
:1018a00000ceb30080c0600000c8b30080cf5000fd
:1018b000f9ff3a000164a900b111200000412000a5
:1018c00001087800514d20002041200001087800d7
:1018d00070402000104078007f40600001ccb300d1
:1018e0000140700071402000804878005e00900048
:1018f0007f4060007f4060007f4060007f4160006b
:10190000604020009040780000ceb30000c060002e
:101910000240700061402000804878008000eb00a9
:10192000a042200001087800a0422000900078002a
:10193000804220000108780080422000900078005a
:10194000204220000108780020422000900078000a
:1019500000422000010878008000eb006043200076
:101960000108780060432000900078004043200088
:1019700001087800404320009000780020432000b8
:1019800001087800204320009000780000432000e8
:10199000010878008000eb00404120000108780039
:1019a0000004a8008080eb0060422000010878005d
:1019b000604220009000780040422000010878003a
:1019c000404220009000780020422000010878006a
:1019d000204220009000780000422000010878009a
:1019e0000004a9000000eb00300798001500370044
:1019f0003e00900080004000c02421000080400094
:101a0000900178003e00900080004000c02421003a
:101a10000080400010007800100178003e00900027
:101a200080004000c02521000080400010007800a8
:101a300000007100800978003e0090000000e8007e
:101a400030079800be0090005e009000808f50002c
:101a5000e7ff39005e009000fcf2b7000000eb00e9
:101a6000300798000f003700be009000c02f210003
:101a7000808040000040eb00904098003e009000c5
:101a800000004000ea004000c02f2100808040009c
:101a90000000eb00800878003e0090000000e800a5
:101aa000300798003e009000e80f5000eeff36002f
:101ab000000021000002780023442000620420007e
:101ac00011c0b3007e009000eb1107000000210060
:101ad0000002780003442000220220008040eb0036
:101ae0006e009000e41107000468a9000a04a90030
:101af0000a24a9000e08900067406000674060005b
:101b000067406000674060004401dd0010852000f0
:101b100090407800f0c8b30000c060000240700040
:101b200011852000804878002468a8000c24a800b3
:101b30000c04a8004e009000674060006741600000
:101b4000104020009040780080cfb30000c06000bb
:101b500002407000114020008048780000402000c2
:101b6000104078000080fb004500de008080fb0014
:101b70004e009000808f5000f8ff3a0020052000b2
:101b800010007800000f7800ff3ffc002e0090004e
:101b900067406000c500dd00200420001040780090
:101ba0007f406000014070002104200080487800e0
:101bb0009e00780020052000010878000080fa00cf
:101bc000000006000a00fa00000f780012079800d3
:101bd0002307980031079800440798001e007800fa
:101be0001e019000ae0190000288be001e00780029
:101bf000be019000230098004e009000e3006000ba
:101c00001e007800310098009e0078000080eb00f4
:101c1000c00098000080fa00000006002600fa00cc
:101c2000300f9800410f9800225f98000080eb0071
:101c3000200f980020042000104078000080fb0056
:101c40004500de000080fb003007980020052000e2
:101c50001000780020079800ff3ffc0020042000bf
:101c60009040780000ceb30080c0700020042000b7
:101c700001487800ae00900020052000010878009f
:101c80000004a900fcd2bf000000fb000000e90036
:101c9000200f98000f003700ae089000c02f2100e1
:101ca00000804000104090000004e00006003a0070
:101cb000ae089000c02f21008080400010c0b3000b
:101cc00090409800060037002e0890000000e900c0
:101cd000200f98002e0890000000e000eeff3d006d
:101ce0002e089000e10f400013003a00200520006c
:101cf0001000780010079800ff3ffc003e009000a5
:101d000067406000c500dd0020042000104078001e
:101d10007f4060000140700021042000804878006e
:101d20009e00900020052000010878000000eb00d4
:101d3000600f9800e50037003e089000ae08900064
:101d4000410098002e08900000004000ea0040008a
:101d5000c02f2100008040003e099000020878005a
:101d60003e089000200090000000e0000c003a00c7
:101d70003e0890001000be0080007800f07f200038
:101d8000008060004200dd00100f98000000eb00b2
:101d9000000f98000000eb00700798004600370025
:101da0003e0890001000be0080007800f07f200008
:101db000008060004200dd000000a000100f9800cd
:101dc0003e0890001000be0002002000e3ff21004a
:101dd0000002780081027800020078008300780019
:101de00000016200018062006102b800740f980077
:101df000051798007e0890008e109000c000dd004e
:101e000000002000700f9800011798007e089000d5
:101e10008e1090006112b800740f9800051798009a
:101e20007e0990008e119000020070008380700087
:101e30004108de0001002000000f98003e089000dd
:101e40001000be0002802f00130020000002780066
:101e500081027800020078008300780000016200af
:101e6000018062006102b8001417980025179800dd
:101e70001e109000ae109000c000dd000000200099
:101e800010179800211798001e109000ae109000b7
:101e90006112b80014179800251798001e119000c1
:101ea000ae11900002007000838070008100d100ac
:101eb0000080d300700798002e5890000000fb00af
:101ec000ef0060007e009000010070007007980035
:101ed0002e089000c400dd000000210000804000ba
:101ee0009e099000030878002e0890004400dd0051
:101ef0008080e80000002100008040000e0a900071
:101f0000040878002e0890004400dd00e400400042
:101f10000000210000804000fe02900005087800cb
:101f20002e0890004400dd008000780000002100b1
:101f30006600400000804000600798004e08900056
:101f4000500798000000eb00400798000b00370096
:101f5000ce0090006e00900000814000ce00900006
:101f60005e0090000080400010407800004978003a
:101f70004e0090000000e800400798002e589000a6
:101f80008000fb004e009000808f5000f0ff3e006c
:101f90002e08900080004000c024210000804000f6
:101fa000100178002e08900080004000c02421001d
:101fb0000080400010007800900178002e0890000a
:101fc00080004000c0272100008040001000780001
:101fd00080007800300020000100dd000080ea0071
:101fe00000806100000978002e0890008000400009
:101ff000c024210000804000100278002e089000cc
:1020000080004000c02421000080400010007800c3
:10201000100178003e089000b00190002e0890005a
:1020200080004000c02721000080400010007800a0
:102030000018dd0000007100000a78002e089000f2
:1020400080004000c0242100008040009001780002
:102050002e08900080004000c02421000080400035
:1020600010007800100178002e08900080004000d9
:10207000c0262100008040001000780000007100a0
:10208000800978002005200010007800000f7800fb
:10209000ff3ffc003e00900067406000c500dd008f
:1020a00020042000104078007f4060000140700054
:1020b00021042000804878009e0078002005200040
:1020c0000108780011002000610f98006e08900050
:1020d0000080fa00000006000400fa00000f7800fb
:1020e0001e00780040009000e10f400003003a001d
:1020f0001000200010079800020037000000eb00dd
:10210000100798001e0090000080fa0000000600f2
:102110000e00fa00881f78003007980042079800e8
:1021200053079800610798002004200010407800b1
:102130000080fb004500de000080fb0020079800c7
:10214000200520001000780010079800ff3ffc00d9
:10215000200420009040780000ceb30080c07000c2
:1021600020042000014878009e00900020052000f7
:10217000010878000004a8003e00900080004000a4
:102180000020210000804000100478008041eb0016
:102190006e0190004e009000de009000e900070004
:1021a000000c78003e0090008000400000222100da
:1021b00000804000100478006e0190004e009000f6
:1021c000de0090001d010700000c78000004a9004b
:1021d0002005200010007800000f7800ff3ffc0071
:1021e0002e00900067406000c500dd002004200044
:1021f000104078007f406000014070002104200002
:10220000804878009e0078002005200001087800b2
:102210004f0478000080fa00000006000e00fa006b
:10222000881f7800300798004207980053079800ed
:102230006107980020042000104078000080fb0017
:102240004500de000080fb002007980020052000ec
:102250001000780010079800ff3ffc0020042000c9
:102260009040780000ceb30080c0700020042000b1
:10227000014878009e0090002005200001087800a9
:102280000004a8003e0090008000400000242100cf
:10229000008040001004780013c0b3006e0190006d
:1022a0004e009000de009000a6000700000c7800b1
:1022b0003e0090008000400060242100008040002b
:1022c000100478006e0190004e009000de00900037
:1022d000da000700000c78000004a90020052000a7
:1022e00010007800000f7800ff3ffc002e009000e7
:1022f00067406000c500dd00200420001040780029
:102300007f40600001407000210420008048780078
:102310009e00780020052000010878004f04780016
:102320000080fa00000006000c00fa003007980058
:1023300041079800520798002004200010407800c0
:102340000080fb004500de000080fb0020079800b5
:10235000200520001000780010079800ff3ffc00c7
:10236000200420009040780000ceb30080c07000b0
:1023700020042000014878009e00900020052000e5
:10238000010878000004a8003e009000e70f50000c
:102390001d003e003e00900080004000c02821004b
:1023a000008040001000780080007800300020009d
:1023b0000100dd000080ea008000780080412000fc
:1023c00010007800808060008041200001087800c3
:1023d0003e00900080004000c028210000804000a6
:1023e00010007800800078004e0090008100dd0031
:1023f0008041200010007800808070008041200023
:10240000010878001e0037003e0090006800500070
:1024100080004000c02821000080400010007800ab
:1024200080007800300020000100dd000080ea001c
:1024300080007800a04120001000780080806000bb
:10244000a0412000010878003e0090006800500084
:1024500080004000c028210000804000100078006b
:10246000800078004e0090008100dd00a041200037
:102470001000780080807000a041200001087800e2
:10248000be009000100020000100dd0080007800f8
:102490004041200010007800808070004041200002
:1024a000010878003e00900000004000fa00400063
:1024b000c02f210000804000de009000010878005d
:1024c0000004a9002005200010007800000f78000b
:1024d000ff3ffc002e00900067406000c500dd005b
:1024e00020042000104078007f4060000140700010
:1024f00021042000804878009e00780020052000fc
:10250000010878000080fa00000006000200fa00ce
:10251000000f78009e007800100020000100dd0010
:102520000080ea0080007800404120001000780020
:102530008080600040412000010878000080fa009f
:10254000000006000e00fa00008fbe00220798006f
:10255000634798002e0090000000e0000a003a0057
:102560009e007800f07f200000806000c500dd0044
:102570006e4090000000fb004300dd008080700092
:10258000410798002a0037002e009000e10f50000c
:1025900025003a009e007800f07f20000080600057
:1025a000c502dd0000002000018021009e017800ae
:1025b0001e02900000017800010078000281610095
:1025c000000062006103b800560798006707980092
:1025d0005e009000ee009000c000dd0000002000d2
:1025e00050079800610798005e009000ee00900090
:1025f0006113b80056079800670798005e019000c5
:10260000ee01900002007000838070004b08de0035
:102610000100200000807200800178000330a000db
:1026200043079800020037000003eb0046079800bc
:102630004e0090000080fa00000006000c00fa0036
:10264000008fbe00220798002e0090000000e000de
:1026500003003a000000eb00300798002500370027
:102660002e009000e10f500020003a0000802f0063
:10267000f17f20009e0178001e029000000178008a
:102680000100780002816100000062006102b80070
:1026900044079800550798004e009000de00900017
:1026a000c000dd000000200040079800510798009e
:1026b0004e009000de0090006112b80044079800c0
:1026c000550798004e019000de0190000200700056
:1026d00083807000c509dd004b00de0000807100c2
:1026e000cb08de0030079800020037000002eb0044
:1026f000340798003e0090000080fa0000000600b9
:102700003600f800809fbe00829fbe00849fbe00fe
:10271000869fbe001a00fa0020e4200010407800d6
:102720000080fb004200de00614060000004a20067
:1027300061406000614060004201dd0020e4200053
:1027400090407800b0cfb30000c06000024070003d
:1027500021e42000804878000000eb00500798003a
:102760000000eb00400798000000eb0030079800e5
:102770006000b80010079800210798000040200072
:102780001040780061406000404f98000004a900ac
:10279000a040200010407800624060000004e0008b
:1027a000dc003200d200370080402000900078002a
:1027b000f003200000806000400798004e00900069
:1027c000c400dd00000021000080400010007800ff
:1027d000610060000004e000730032004e009000d1
:1027e0004400dd008080e8000000210000804000ff
:1027f0001000780001002000f2ff200003002000fc
:1028000000027800810278000200780083007800de
:1028100000016200018062006102b8007407980044
:10282000050f98007e0090008e089000c000dd002b
:102830000000200070079800010f98007e009000b3
:102840008e0890006112b80074079800050f980078
:102850007e0190008e09900002007000838070005d
:10286000c103dd00060020004e0090004400dd00a2
:10287000e4004000000021000080400010007800cb
:102880000100200002c02f00030020000002780099
:102890008102780002007800830078000001620065
:1028a000018062006102b800140f9800250f9800a3
:1028b0001e089000ae089000c000dd00000020005f
:1028c000100f9800210f98001e089000ae0890008d
:1028d0006112b800140f9800250f98001e0990008f
:1028e000ae0990000200700083807000000040007c
:1028f0008180480000037300818373004e009000c4
:10290000c400dd00000021000080400010007800bd
:1029100001002000c2ff2100030020000002780017
:1029200081027800020078008300780000016200d4
:10293000018062006102b800340f9800450f9800d2
:102940003e089000ce089000c000dd00000020008e
:10295000300f9800410f98003e089000ce0890007c
:102960006112b800340f9800450f98003e0990009e
:10297000ce0990000200700083807000ce09dd0057
:102980004200de0000807100c208de00000073001b
:102990008180730010079800210798001000200024
:1029a000000f78000d0037004e009000c400dd00dd
:1029b000000021000080400090007800c0ff21004e
:1029c000008060004200de00010020001007980037
:1029d000210798000000eb00000f78004e009000e7
:1029e000ef0f50000d0036004e00900070005000b8
:1029f00080007800100020000100dd000080ea0067
:102a00008000780020422000100078008080600064
:102a100020422000010878000a003700ce00900014
:102a2000100020000100dd000080ea008000780036
:102a300000422000100078008080600000422000ea
:102a4000010878004e0090004400dd00ee004000d8
:102a500000002100008040009000780000f021007c
:102a6000008060004800de00300798003e009000c3
:102a700000004000fa004000c02f2100008040000c
:102a8000100078000000e000190032003e009000c5
:102a900000004000fa004000c02f210000804000ec
:102aa000900278004e0090004400dd00e4004000f9
:102ab0000000210000804000100078006f4160009d
:102ac0004e0090004400dd008000780000002100ee
:102ad00066004000008040000242780080017800db
:102ae0001e0178001e009000ae009000050001005d
:102af00000422000100078000000e0002aff3a00a9
:102b000020422000100078000000e00026ff3a007c
:102b10000a24a900a0402000104078006140600015
:102b20000004e00037003200e09980000000e80077
:102b3000e09988000a04a9000000eb005007980003
:102b40002b003700de009000c02f210000804000e5
:102b500010409000e14f500022003a005e009000cb
:102b600080004000c0242100008040001000780058
:102b7000100178005e00900080004000c026210017
:102b80000080400010007800000061000000e000bc
:102b900014003a00de009000c02f21008080400029
:102ba0000040eb00904098005e0090000000400064
:102bb000ea004000c02f2100008040009000780013
:102bc0000080eb00c00098005e0090000000400014
:102bd000ea004000c02f2100808040000000eb0090
:102be000800878005e0090000000e8005007980020
:102bf000fcd2bf008000fb005e009000808f500080
:102c0000d0ff3e004e48900061406000614160008e
:102c10000040200090407800e0cfb30000c060008a
:102c20000240700001402000804878000468a9003c
:102c30000080fa004f03be004f02be004f01be00ed
:102c40004f00be003600f900004006000000fa0008
:102c50001e8ea8001e2ea8008000eb00003220006f
:102c6000010878008000eb00203220000108780085
:102c70008000eb0040322000010878008000eb006b
:102c800020332000010878008000eb00203720006e
:102c9000010878008000eb00603220000108780015
:102ca0008000eb00e0322000010878008000eb009b
:102cb0000033200001087800103220009040780096
:102cc000c0cfb30080c060001032200001487800ff
:102cd0003032200010407800ff4060003032200089
:102ce000014878002143a90000322000904078007c
:102cf00000ceb30080c07000003220000148780090
:102d00002083a9002063a9002023a9002043a80054
:102d10002203a8003303a9002343a9005032200056
:102d20009040780000ceb30000c060000014a00006
:102d30005132200080487800f1c7b30040322000b3
:102d40000148780025e3a900303220009040780047
:102d5000c0cfb30080c0600030322000014878004e
:102d6000f100200000332000010878002223a80091
:102d7000203220009040780030c8b30000c06000ce
:102d8000c041b3002132200080487800803220000a
:102d90009040780000ceb30000c060000024a00086
:102da000813220008048780028e3a900903220007a
:102db0009040780000ceb30000c060000004a00086
:102dc000913220008048780029e3a9002603a90059
:102dd000603220009040780090cfb30080c0600047
:102de00060322000014878002703a90070322000db
:102df0009040780090cfb30080c060007032200017
:102e00000148780021e3a8000080fa0000000600d5
:102e1000a805fa00881f780043542000830147006a
:102e20008009780060542000000047000108780005
:102e3000805420000000470002087800640047002a
:102e40008166280002502000ff04090031587800f4
:102e5000020050004050200000004700836228001c
:102e60001f000900331878000004b1000000eb00d7
:102e700010079800ea023700805420000000470045
:102e800010007800100078000000e00021003200ff
:102e900000302000100478006140b90063f607009c
:102ea0000002be00425a20000e0141000489be000b
:102eb0000800e0000a003d00020020000378240022
:102ec000445a20000e0242001400be0083f60700a0
:102ed0000001be00445a20000e024200028abe00d9
:102ee0004054200000004700100078001001be0090
:102ef000455a20008e8242001500be0077f607007a
:102f00000001be004054200000004700100078007f
:102f10000288be0080542000000047001080e800b6
:102f2000100078000000e00028003200405420002b
:102f3000000047009000780064814000215a200082
:102f40008e80400082087800203020001004780035
:102f50006140b90035f607000001be00e4592000c9
:102f60000e024200028abe000800e0000a003d0096
:102f70000200200003782400e55920008e824200e0
:102f80001500be0055f607000001be00e459200000
:102f90000e024200028abe0040542000000047009a
:102fa00090027800648042001001be00e4592000c5
:102fb0000e0242001400be0048f60700255a200009
:102fc0008e82420095027800808abe0080542000e4
:102fd00000004700900078006480400010007800f6
:102fe0000000e000280032004054200000004700ac
:102ff00010017800e8014100c25920000e01410093
:103000000309780040302000100478006140b900c6
:1030100006f607000002be00825920000e014100a2
:103020000489be000800e0000a003d000200200004
:1030300003782400845920000e0242001400be00d0
:1030400026f607000001be00845920000e0242004f
:10305000028abe0040542000000047009002780021
:10306000688042001001be00845920000e02420018
:103070001400be0019f60700c55920008e824200d8
:1030800095027800808abe0080542000000047002e
:103090009000780066804000100078000000e0009a
:1030a0002800320040542000000047001001780042
:1030b000ec014100625920000e0141000309780033
:1030c00060302000100478006140b900d7f5070097
:1030d0000002be00225920000e0141000489be00fa
:1030e0000800e0000a003d000200200003782400f0
:1030f000245920000e0242001400be00f7f507001c
:103100000001be00245920000e024200028abe00c7
:103110004054200000004700900278006c8042007c
:103120001001be00245920000e0242001400be000f
:10313000eaf50700655920008e824200950278006a
:10314000808abe0080542000000047009000780074
:1031500068804000100078000000e0002800320085
:10316000405420000000470010017800f0014100a9
:10317000025920000e014100030978008030200030
:10318000100478006140b900a8f507000002be00f5
:10319000c25820000e0141000489be000800e00072
:1031a0000a003d000200200003782400c4582000db
:1031b0000e0242001400be00c8f507000001be0068
:1031c000c45820000e024200028abe004054200073
:1031d0000000470090027800708042001001be009d
:1031e000c45820000e0242001400be00bbf50700c8
:1031f000055920008e82420095027800808abe0028
:103200008054200000004700900078006a80400051
:10321000100078000000e000280032004054200038
:103220000000470010017800f4014100a25820007e
:103230000e01410003097800a0302000100478003e
:103240006140b90079f507000002be006258200015
:103250000e0141000489be000800e0000a003d00a4
:103260000200200003782400645820000e0242006f
:103270001400be0099f507000001be00645820004c
:103280000e024200028abe004054200000004700a7
:1032900090027800748042001001be006458200043
:1032a0000e0242001400be008cf50700a558200055
:1032b0008e82420095027800808abe0080542000f1
:1032c00000004700900078006c80400010007800fb
:1032d0000000e000280032004054200000004700b9
:1032e00010017800f8014100425820000e01410011
:1032f00003097800c0302000100478006140b90054
:103300004af507000002be00025820000e014100ed
:103310000489be000800e0000a003d000200200011
:1033200003782400045820000e0242001400be005e
:103330006af507000001be00045820000e0242009a
:10334000028abe004054200000004700900278002e
:10335000788042001001be00045820000e02420096
:103360001400be005df50700455820008e82420023
:1033700095027800808abe0080542000000047003b
:10338000900078006e804000100078000000e0009f
:10339000280032004054200000004700100178004f
:1033a000fc014100e25720000e01410003097800b2
:1033b000e0302000100478006140b9001bf50700e0
:1033c0000002be00a25720000e0141000489be0089
:1033d0000800e0000a003d000200200003782400fd
:1033e000a45720000e0242001400be003bf5070067
:1033f0000001be00a45720000e024200028abe0057
:103400004054200000004700900278007c80420079
:103410001001be00a45720000e0242001400be009e
:103420002ef50700e55720008e82420095027800b5
:10343000808abe0080542000000047009000780081
:1034400070804000100078000000e000280032008a
:10345000405420000000470002022000900141007b
:10346000825720000e01410003097800003120003e
:10347000100478006140b900ecf407000002be00bf
:10348000425720000e0141000489be000800e00000
:103490000a003d0002002000037824004457200069
:1034a0000e0242001400be000cf507000001be0031
:1034b000445720000e024200028abe004054200001
:1034c0000000470005022000108042001001be00ed
:1034d000445720000e0242001400be00fff4070013
:1034e000855720008e82420095027800808abe00b7
:1034f0008054200000004700900078007280400057
:10350000100078000000e000280032004054200045
:103510000000470042022000900141002257200095
:103520000e014100030978002031200010047800ca
:103530006140b900bdf407000002be00e256200061
:103540000e0141000489be000800e0000a003d00b1
:103550000200200003782400e45620000e024200fe
:103560001400be00ddf407000001be00e456200098
:103570000e024200028abe004054200000004700b4
:1035800045022000108042001001be00e4562000d9
:103590000e0242001400be00d0f4070025572000a0
:1035a0008e82420095027800808abe0080542000fe
:1035b0000000470090007800748040001000780000
:1035c0000000e000280032004054200000004700c6
:1035d0008202200090014100c25620000e014100ed
:1035e0000309780040312000100478006140b900e0
:1035f0008ef407000002be00825620000e0141003a
:103600000489be000800e0000a003d00020020001e
:1036100003782400845620000e0242001400be00ed
:10362000aef407000001be00845620000e024200e6
:10363000028abe004054200000004700850220009e
:10364000108042001001be00845620000e0242008d
:103650001400be00a1f40700c55620008e8242006f
:1036600095027800808abe00805420000000470048
:103670009000780076804000100078000000e000a4
:10368000280032004054200000004700c202200001
:1036900090014100625620000e01410003097800ac
:1036a00060312000100478006140b9005ff4070029
:1036b0000002be00225620000e0141000489be0017
:1036c0000800e0000a003d0002002000037824000a
:1036d000245620000e0242001400be007ff40700b2
:1036e0000001be00245620000e024200028abe00e5
:1036f0004054200000004700c50220001080420016
:103700001001be00245620000e0242001400be002c
:1037100072f40700655620008e8242009502780000
:10372000808abe008054200000004700900078008e
:1037300078804000100078000000e000280032008f
:103740004054200000004700020320009001410087
:10375000025620000e01410003097800803120004c
:10376000100478006140b90030f407000002be0088
:10377000c25520000e0141000489be000800e0008f
:103780000a003d000200200003782400c4552000f8
:103790000e0242001400be0050f407000001be00fb
:1037a000c45520000e024200028abe004054200090
:1037b0000000470005032000108042001001be00f9
:1037c000c45520000e0242001400be0043f407005e
:1037d000055620008e82420095027800808abe0045
:1037e0008054200000004700900078007a8040005c
:1037f000100078000000e000280032004054200053
:10380000000047004203200090014100a255200023
:103810000e01410003097800a03120001004780057
:103820006140b90001f407000002be0062552000ab
:103830000e0141000489be000800e0000a003d00be
:103840000200200003782400645520000e0242008c
:103850001400be0021f407000001be0064552000e2
:103860000e024200028abe004054200000004700c1
:1038700045032000108042001001be006455200066
:103880000e0242001400be0014f40700a5552000eb
:103890008e82420095027800808abe00805420000b
:1038a00000004700900078007c8040001000780005
:1038b0000000e000280032004054200000004700d3
:1038c0008203200090014100425520000e0141007a
:1038d00003097800c0312000100478006140b9006d
:1038e000d2f307000002be00025520000e01410085
:1038f0000489be000800e0000a003d00020020002c
:1039000003782400045520000e0242001400be007b
:10391000f2f307000001be00045520000e02420031
:10392000028abe00405420000000470085032000aa
:10393000108042001001be00045520000e0242001b
:103940001400be00e5f30700455520008e824200ba
:1039500095027800808abe00805420000000470055
:10396000900078007e804000100078000000e000a9
:10397000280032004054200000004700c20320000d
:1039800090014100e25420000e014100030978003b
:10399000e0312000100478006140b900a3f3070073
:1039a0000002be00a25420000e0141000489be00a6
:1039b0000800e0000a003d00020020000378240017
:1039c000a45420000e0242001400be00c3f30700fe
:1039d0000001be00a45420000e024200028abe0074
:1039e0004054200000004700c50320001080420022
:1039f0001001be00a45420000e0242001400be00bc
:103a0000b6f30700e55420008e824200950278004c
:103a1000808abe001e0090000000e8001007980099
:103a20009e00900010032000808f500012fd340093
:103a30000000eb00100798002d0037001e009000da
:103a40000000400080007800805420000000470003
:103a500010804000100078000000e00021003200db
:103a60001e0090004200dd008000780040542000dd
:103a700000004700108440001e0090004200dd005e
:103a80008000780040542000000047001080400073
:103a90001000be00020020008324240004f307006d
:103aa0003233230033052400cdf20700020020004a
:103ab00003482400fef207000002be001e00900032
:103ac0004200dd00800078006054200000004700c4
:103ad000108040001001be000400be007ff307000c
:103ae000008cbe001e0090000000e8001007980047
:103af0001e009000ef0f5000d0ff34004f047800fc
:103b00000080fa00000006000400fa001007980088
:103b100000ccb300004f78001e0090009001900090
:103b20001e00900010007800120020008e00780027
:103b3000030001000080fa00000006000400fa0003
:103b40001007980030ccb300004f78001e009000a2
:103b5000900190001e0090001000780012002000dc
:103b60008e007800030001000080fa0000000600cb
:103b70000400fa001007980020ccb300004f780032
:103b80001e009000900190001e0090001000780030
:103b9000120020008e007800030001000080fa006f
:103ba000000006000600fa00100798004147980040
:103bb000ce409000c0ccb300004f78001147980071
:103bc0001e009000900190001e00900010007800f0
:103bd000220020008e007800030001000080fa001f
:103be000000006000800fa0020079800310798003e
:103bf0003e0090004800de00004178003e0090004a
:103c000080407800d0ccb300004f78001247980075
:103c1000214798002e009000900190002e00900007
:103c200010007800320020008e00780003000100b0
:103c30000080fa00000006000600fa001007980055
:103c40004147980000cdb300004f78004e409000ef
:103c5000104798001e009000900190001e009000f8
:103c600010007800220020008e0078000300010080
:103c70000080fa00000006000800fa002007980003
:103c8000310798003e0090004880de0080407800b8
:103c900000c0eb0000c160003e0090008040780052
:103ca00000c0eb0080c0600010cdb300004f780072
:103cb00012479800214798002e0090009001900034
:103cc0002e00900010007800320020008e00780056
:103cd000030001000080fa00000006001000fa0056
:103ce0005007980062079800730798006e009000d4
:103cf000fe009000008fbe00e4004700a0ccb3009f
:103d0000804878001e00be004808de000100200048
:103d10008040780064004700114098001e00be00fb
:103d20004008de0001002000804078006400470069
:103d3000214098001e00be004809dd004800de005a
:103d400000007100c808de00804078006400470071
:103d5000314098001e00be0080407800640047009b
:103d6000414098005e009000900190005e0090003d
:103d700010007800e400470052002000030001001a
:103d80000080fa00000006000a00fa0020079800f0
:103d9000310798003e009000ff0f50000e003e00db
:103da0003e0090008040780000cab30000c0700060
:103db000004f78002e009000900190002e0090009f
:103dc00010007800120020008e007800030001002f
:103dd00040079800140037008e00e800a0cdb30023
:103de000804878003e0090004800de008040780067
:103df0000e00e800114098003e00900080407800de
:103e00000e00e800214098002e00900090019000e4
:103e10002e009000100078008e00e8003200200094
:103e200003000100400798004e0090000080fa0057
:103e3000000006000600fa00000f78001107980045
:103e4000220798001e007800900190009e009000cc
:103e50001e007800100078002e0190000300010081
:103e60000080fa0000000600a600fa000000eb0047
:103e7000200798006600470081bc28001f00090049
:103e8000311878000004b100600420000e004000ea
:103e900081b828001f000900311878000004b10023
:103ea000600820000e00400081b628000f000900c5
:103eb000311878000002b1006000b800008fbe0029
:103ec0008c080700b80807001701070082002000cf
:103ed000c13521004036210004010700e212220012
:103ee00041362100a0362100d0000700d0cc2c00a4
:103ef000c1dc230070030700000020000112240031
:103f00006d02070000003700620820000e0141002a
:103f1000610420008e80400066004700bcfb070063
:103f200066004700301f780020177800e237210034
:103f30001e00be00110107000000e0000200320078
:103f4000c01020006d01070020e320001040780021
:103f5000614060000004e00004003a006037210086
:103f6000100078000000e0001b00320030e220006a
:103f7000104078000044b2000004e00004003a0061
:103f800060372100100090000000e00012003200b5
:103f900030e3200010407800644060000004e0003e
:103fa00004003a0060372100200090000000e0008b
:103fb0000900320030e320001040780061406000ca
:103fc0000004e00037003a00603721003000900024
:103fd0000000e00033003a0020e3200010407800a9
:103fe000614060000004e00007003a00e136210073
:103ff0000000eb00800878006137210010002000ed
:10400000800878000000000030e2200010407800b6
:104010000044b2000004e00007003a00e13621004d
:104020000000eb0090009800613721001000200094
:10403000900098000000000030e32000104078005d
:10404000644060000004e00007003a00e13621000f
:104050000000eb00a0009800613721001000200054
:10406000a00098000000000030e32000104078001d
:10407000614060000004e00007003a00e1362100e2
:104080000000eb00b0009800613721001000200014
:10409000b000980000000000c012200017010700c7
:1040a0005600370020e32000104078006140600097
:1040b0000004e00004003200e03621001000780027
:1040c0000000e0001b00320030e2200010407800c9
:1040d0000044b2000004e00004003200e036210099
:1040e000100090000000e0001200320030e32000d9
:1040f00010407800644060000004e00004003200da
:10410000e0362100200090000000e00009003200ad
:1041100030e3200010407800614060000004e000bf
:1041200036003200e0362100300090000000e00050
:1041300032003a0020e32000104078006140600027
:104140000004e00007003200e136210010002000ea
:1041500080087800613721000000eb0080087800bb
:104160000000000030e22000104078000044b2005f
:104170000004e00007003200e136210010002000ba
:1041800090009800613721000000eb00900098003b
:104190000000000030e32000104078006440600020
:1041a0000004e00007003200e1362100100020008a
:1041b000a0009800613721000000eb00a0009800eb
:1041c0000000000030e320001040780061406000f3
:1041d0000004e00007003200e1362100100020005a
:1041e000b0009800613721000000eb00b00098009b
:1041f00000000000c0122000c0000700309c8000ba
:10420000e50f500040ff3a000000eb00309c8800b2
:10421000c0122000b9000700c0102000b70007003e
:10422000c0112000b500070037ff37000600fa0074
:10423000000f780011079800220798001e007800f0
:104240009e009000010878001e007800ae009000eb
:10425000110098000080fa00000006000a00fa0031
:104260001007980021079800320798001e00900060
:10427000000f78001e007800900078001e00780083
:1042800010009000808050003e009000808f500011
:10429000030031000080eb00400798001000370059
:1042a0001e007800a00090001e0078001000900012
:1042b00000804000ae0090003e01900054f20700e4
:1042c0001e007800900090003e009000808040002a
:1042d0001e007800110098000000eb0040079800d5
:1042e0004e0090000080fa00000006000600fa0070
:1042f000000f780011079800220798001e00780030
:104300009e009000210098001e007800ae009000f2
:10431000010878009e0078000000eb0090009800f3
:104320000080fa00000006000000fa0034002000bf
:104330008000eb00c210200003002000e0332100c9
:1043400020f60700340020008000eb00c21120009e
:1043500003002000803421001af6070034002000fa
:104360008000eb00c2122000030020002035210055
:1043700014f607000080fa00000006001e00fa0094
:10438000881f7800100f9800210f9800320f9800b6
:104390003e08900090007800010f98000000eb00ac
:1043a0007007980000d5280071e12300500798009d
:1043b000610798000000eb00000f78002a0037002a
:1043c0001e007800cf80de0018f107005e0190002b
:1043d000ee01900082f007000200200003f02300ad
:1043e0003ef1070030079800410798001e00e800e2
:1043f000cf80de000df107005e019000ee0190001d
:1044000077f007000200200003f0230033f10700db
:1044100010079800210798003e019000ce019000ff
:104420001e089000ae089000e3f007000000e000d6
:1044300001003d000b0037001e019000ae0190000e
:104440001e089000ae08900081f107000000e00017
:1044500001003500030037009e0078003e08900000
:10446000010878001e0fe800a00020009e0f100039
:10447000d3ff34003e08900010007800ea04b80032
:104480006140b900e9f00700500f9800610f9800f3
:104490000800e00007003d0002002000037824002f
:1044a0005e089000ee0890000cf10700500f980095
:1044b000610f98005e089000ee089000009c880054
:1044c000119c88003e089000900078000e08900033
:1044d000808f500003003a008000eb00410f9800ed
:1044e0000200370010002000400f98004e08900096
:1044f0004f0478000080fa00000006000200fa0075
:10450000000f7800c01220009e0f100020003a001b
:10451000e0362100300090004300dd00804078004c
:10452000e0362100200090004200dd0080c07000d5
:10453000e0362100100090000000400080c07000b4
:10454000e03621001000780000c070008040780044
:10455000a036210093fd0700d301070022c0b3005d
:10456000c135210020352100acf5070020352100a0
:10457000d9f60700e10f50000300320084d3bf00da
:104580000004e000f9ff3200be01070027003700f9
:10459000c01020009e0f100012003a00029c800004
:1045a000139c8000a0362100ccfd0700be0107004f
:1045b00052c0b300c1352100e033210097f5070058
:1045c000e0332100c4f60700e10f50000300320081
:1045d00084d3bf000004e000f9ff3200a901070006
:1045e00012003700c01120009e0f10000f003a008b
:1045f000a036210051fd0700ab01070022c0b30027
:10460000c13521008034210084f507008034210069
:10461000b1f60700e10f50000300320084d3bf0061
:104620000004e000f9ff3200960107004036210047
:10463000020007000080fa00000006000200fa00f5
:10464000000f78009e0078000000eb0090009800ba
:104650001e007800900078001e0078002000900076
:10466000010178008000eb0071f107000080fa0082
:10467000000006000000fa008000eb00001020009f
:1046800001087800401020009040780000c3b3007b
:1046900080c07000401020000148780004c1a800cc
:1046a0008080eb0020102000010878000068a9003d
:1046b000108420009040780000c7b30080c07000d4
:1046c00010842000014878002068a80005e1a800b7
:1046d0000080fa00000006000800fa002007980099
:1046e000310798000000200001002400008fbe0068
:1046f0008000eb006010200001087800020020001c
:10470000034024002e009000be009000b4ef07008c
:104710000001be0000c22b00e1cb2400e4ef070043
:10472000020020000300240023f007000000e00046
:1047300001003c000a003700000020000140240076
:10474000008fbe00001120009040780000c3b3002d
:1047500080c0700000112000014878003b00370045
:1047600002002000033024002e009000be009000c4
:104770009bef07000001be0000c22b00e1cb24002c
:10478000cbef070002002000030024000af007001e
:104790000000e00001003c000c0037000000200099
:1047a00001302400008fbe000011200090407800ee
:1047b000f0ccb30000c0600001c2b3000140700043
:1047c00001112000804878002000370002002000fe
:1047d000031824002e009000be00900080ef070018
:1047e0000001be0000c22b00e1cb2400b0ef0700a7
:1047f0000200200003002400efef07000000e000ab
:1048000001003c000b0037000000200001182400cc
:10481000008fbe000011200090407800f0ccb30063
:1048200000c060000044a000011120008048780012
:10483000060037000011200090407800f0ccb30053
:1048400080c0600000112000014878002e01900017
:10485000be0190001e00be0061ef07000001be0017
:1048600000c22b00e1cb240091ef0700d4ef07003a
:1048700080007800c0102000010878001e01be00f2
:104880000000200001f8230089ef0700008fbe0020
:1048900000e8a900308420009040780000c7b300f1
:1048a00080c07000308420000148780020e8a80013
:1048b0000080fa00000006000800fa0020079800b7
:1048c000310798000000200001002400008fbe0086
:1048d0008000eb00a01020000108780002002000fa
:1048e000034024002e009000be0090003cef070023
:1048f0000001be0000c22b00e1cb24006cef0700da
:104900000200200003002400abef07000000e000dd
:1049100001003c000a003700000020000140240094
:10492000008fbe00201120009040780000c3b3002b
:1049300080c0700020112000014878003b00370043
:1049400002002000033024002e009000be009000e2
:1049500023ef07000001be0000c22b00e1cb2400c2
:1049600053ef0700020020000300240092ef07002d
:104970000000e00001003c000c00370000002000b7
:1049800001302400008fbe002011200090407800ec
:10499000f0ccb30000c0600001c2b3000140700061
:1049a00021112000804878002000370002002000fc
:1049b000031824002e009000be00900008ef0700ae
:1049c0000001be0000c22b00e1cb240038ef07003d
:1049d000020020000300240077ef07000000e00041
:1049e00001003c000b0037000000200001182400eb
:1049f000008fbe002011200090407800f0ccb30062
:104a000000c060000044a000211120008048780010
:104a1000060037002011200090407800f0ccb30051
:104a200080c0600020112000014878002e01900015
:104a3000be0190001e00be00e9ee07000001be00ae
:104a400000c22b00e1cb240019ef07005cef070048
:104a500080007800e0102000010878001e01be00f0
:104a60000000200001f8230011ef0700008fbe00b6
:104a70000108a900408420001040780080407800a0
:104a80007140b30040842000014878002108a8004c
:104a90000080fa00000006000800fa0020079800d5
:104aa000310798000000200001002400008fbe00a4
:104ab0008000eb0040112000010878000200200077
:104ac000034024002e009000be009000c4ee0700ba
:104ad0000001be0000c22b00e1cb2400f4ee070071
:104ae000020020000300240033ef07000000e00074
:104af00001003c000a0037000000200001402400b3
:104b0000008fbe00e01120009040780000c3b30089
:104b100080c07000e0112000014878003b003700a1
:104b200002002000033024002e009000be00900000
:104b3000abee07000001be0000c22b00e1cb240059
:104b4000dbee070002002000030024001aef07003c
:104b50000000e00001003c000c00370000002000d5
:104b600001302400008fbe00e0112000904078004a
:104b7000f0ccb30000c0600001c2b300014070007f
:104b8000e11120008048780020003700020020005a
:104b9000031824002e009000be00900090ee070045
:104ba0000001be0000c22b00e1cb2400c0ee0700d4
:104bb0000200200003002400ffee07000000e000d8
:104bc00001003c000b003700000020000118240009
:104bd000008fbe00e011200090407800f0ccb300c0
:104be00000c060000044a000e1112000804878006f
:104bf00006003700e011200090407800f0ccb300b0
:104c000080c06000e0112000014878002e01900073
:104c1000be0190001e00be0071ee07000001be0044
:104c200000c22b00e1cb2400a1ee0700e4ee070058
:104c300080007800a0112000010878001e01be004d
:104c40000000200001f8230099ee0700008fbe004d
:104c50000368a900d084200090407800f0c8b30019
:104c600000c0600001c2b30001407000d184200088
:104c7000804878002368a8001fe1a9000080fa009e
:104c8000000006000000fa0013e1a9000040eb005c
:104c900084f3b7008000eb00a0102000010878002a
:104ca0000080fa00000006000000fa0013e1a800ee
:104cb0000080fa00000006000800fa0020079800b3
:104cc000310798000000200001002400008fbe0082
:104cd0008000eb0080112000010878000200200015
:104ce000034024002e009000be0090003cee070020
:104cf0000001be0000c22b00e1cb24006cee0700d7
:104d00000200200003002400abee07000000e000da
:104d100001003c000a003700000020000140240090
:104d2000008fbe00001220009040780000c3b30046
:104d300080c0700000122000014878003b0037005e
:104d400002002000033024002e009000be009000de
:104d500023ee07000001be0000c22b00e1cb2400bf
:104d600053ee0700020020000300240092ee07002b
:104d70000000e00001003c000c00370000002000b3
:104d800001302400008fbe00001220009040780007
:104d9000f0ccb30000c0600001c2b300014070005d
:104da0000112200080487800200037000200200017
:104db000031824002e009000be00900008ee0700ab
:104dc0000001be0000c22b00e1cb240038ee07003a
:104dd000020020000300240077ee07000000e0003e
:104de00001003c000b0037000000200001182400e7
:104df000008fbe000012200090407800f0ccb3007d
:104e000000c060000044a00001122000804878002b
:104e1000060037000012200090407800f0ccb3006c
:104e200080c0600000122000014878002e01900030
:104e3000be0190001e00be00e9ed07000001be00ab
:104e400000c22b00e1cb240019ee07005cee070046
:104e500080007800c0112000010878001e01be000b
:104e60000000200001f8230011ee0700008fbe00b3
:104e70000388a9002388a800e0842000104078005f
:104e8000804078007140b300e08420000148780041
:104e900021e1a8000080fa00000006000000fa00ee
:104ea000a06a20009040780000c8b30000c06000f5
:104eb00031c4b30001407000a16a2000804878002e
:104ec0008000eb00c0122000010878002cc1a8006f
:104ed000c012200090407800f0ccb30000c0600009
:104ee00001c2b30001407000c11220008048780068
:104ef0008080eb008012200001087800708520007f
:104f00009040780000c7b30080c07000708520001a
:104f10000148780005e8a90025e8a8002de1a800cf
:104f20000080fa00000006000000fa00b06a2000cd
:104f30009040780000c8b30000c0600021c4b300f6
:104f400001407000b16a2000804878008000eb00ca
:104f5000e0122000010878002ec1a800e012200015
:104f600090407800f0ccb30000c0600001c2b300f4
:104f700001407000e1122000804878008080eb0042
:104f8000a012200001087800808520009040780061
:104f900080cfb30000c060006040b3008185200076
:104fa000804878000608a9002608a8002fe1a8007c
:104fb0000080fa00000006000000fa00c06a20002d
:104fc0009040780000c8b30000c0600011c4b30076
:104fd00001407000c16a2000804878008000eb002a
:104fe000a0132000010878003ac1a800a0132000f7
:104ff0009040780000c3b30080c07000a013200070
:10500000014878008080eb006013200001087800e0
:105010009085200090407800f0c8b30000c0600088
:1050200001c6b300014070009185200080487800df
:105030000668a9002668a8003be1a8000080fa00e5
:10504000000006000000fa00d06a200090407800be
:1050500000c8b30000c0600001c4b300014070008c
:10506000d16a2000804878008000eb00c013200047
:10507000010878003cc1a800c013200090407800cf
:10508000f0ccb30000c0600001c2b300014070006a
:10509000c1132000804878008080eb00801320003e
:1050a00001087800a08520009040780080cfb300f0
:1050b00000c060006040b300a185200080487800f7
:1050c0000688a9002688a8003de1a8000080fa0013
:1050d000000006001200fa0030079800410798000f
:1050e00052079800630798000000eb002007980023
:1050f0006e0090000000e000080032006e0090009a
:105100001000780020079800ae0090005e0090002c
:10511000810f500004003600060037000000eb004d
:10512000000f9800710037008000eb00010f98001d
:105130006e0037000040eb00204798002e009000e2
:10514000800078004e009000008040009040780081
:10515000214798002e0090000000e80020079800ea
:105160002e4090008000fb00000a2000808060003c
:10517000000a2000808f5000540032000000eb0035
:10518000000f78002e4090008000fb00f00f200000
:105190008080600071079800a00c2000fe00900045
:1051a000808f50003c003200a00c2000fe009000d8
:1051b000808f50000d003c00200c2000fe0090006d
:1051c000808f500025003200300c2000fe0090003f
:1051d000808f50001e003200000c2000fe00900066
:1051e000808f5000170032002e003700d00c2000b6
:1051f000fe009000808f50001e003200d00c200076
:10520000fe009000808f500005003c00c00c200084
:10521000fe009000808f5000130032002100370004
:10522000000d2000fe009000808f5000140032001e
:10523000100d2000fe009000808f500013003200ff
:105240001800370080be2200000f780018003700d9
:10525000e0bc2200000f78001500370040bb2200a0
:10526000000f780012003700c0b52200000f780050
:105270000f00370020ad2200000f78000c0037002f
:10528000a0a72200000f780009003700009f22002d
:10529000000f780006003700c0972200000f78004a
:1052a000030037000000eb00000f98000f003700ec
:1052b0001e00e000050032003e009000640147003f
:1052c0009e017800ce009000030001006e00900067
:1052d0000000e00003003200ae0090006e0090007d
:1052e0000108780011002000010f98000e089000be
:1052f0000080fa00000006000a00fa00200798006b
:1053000031079800420798004e0090001000780086
:10531000800078003e00900000804000104078003f
:105320000000fb004801dd004e00900010007800f6
:10533000800078003e009000008040000000e800ff
:10534000104078000000fb004000dd00000171000b
:105350004e00900010007800800078003e00900021
:10536000008040000080e800104078000000fb0052
:105370004800dd00000171004e0090001000780030
:10538000800078003e0090000080400063004000f4
:10539000104078000000fb0000007100cf80de00ac
:1053a000008fbe00ae0090006000200080087800f2
:1053b0001e00be002e0190001001980021019800ef
:1053c0004e00900010007800e40040004e00900075
:1053d000010878000000eb000080fa0000000600e1
:1053e0000600fa00000f78001107980022079800c5
:1053f0009e00780050002000800878001e0278008f
:105400006000b8006011b8001002980021029800f6
:1054100032029800430298002e009000100078009d
:10542000800078001e00900000804000104078004e
:105430000000fb004800dd000002780005002000ad
:10544000060020000700200000f02f0001002000cf
:105450006011b800040060008580600006016100f2
:10546000878161001e0278001002980021029800d6
:1054700032029800430298002e009000100078003d
:10548000800078001e009000008040000000e800ce
:10549000104078000002fb00cfa2de000503780078
:1054a00086037800f00f2000010020006011b80092
:1054b0000400600085806000060161008781610052
:1054c0001e02780010029800210298003202980013
:1054d000430298002e009000100078008080e800c1
:1054e0002e009000010878000000eb000080fa0018
:1054f000000006000600fa00000f7800110798006f
:10550000220798009e007800400020008008780064
:105510001e0278006000b8006011b8001002980008
:105520002102980032029800430298002e00900059
:1055300010007800800078001e009000008040007d
:10554000104078000002fb00cfa2de0005037800c7
:1055500086037800f00f2000010020006011b800e1
:1055600004006000858060000601610087816100a1
:105570001e02780010029800210298003202980062
:10558000430298002e009000100078008000e80090
:105590002e009000010878000000eb000080fa0067
:1055a000000006000600fa00000f780011079800be
:1055b000220798009e0078003000200080087800c4
:1055c0001e0278006000b8006011b8001002980058
:1055d0002102980032029800430298002e009000a9
:1055e00010007800800078001e00900000804000cd
:1055f000104078000000fb004800dd000002780049
:1056000005002000060020000700200000f02f0009
:10561000010020006011b800040060008580600077
:1056200006016100878161001e0278001002980067
:105630002102980032029800430298002e00900048
:1056400010007800800078001e009000008040006c
:105650000000e800104078000002fb00cfa2de004e
:105660000503780086037800f00f20000100200079
:105670006011b800040060008580600006016100d0
:10568000878161001e0278001002980021029800b4
:1056900032029800430298002e009000100078001b
:1056a0008080e8002e009000010878000000eb00e8
:1056b0000080fa00000006000600fa00000f7800e3
:1056c00011079800220798009e0078002000200013
:1056d000800878001e0278006000b8006011b800f1
:1056e00010029800210298003202980043029800ac
:1056f0002e00900010007800800078001e009000be
:1057000000804000104078000002fb00cfa2de00c5
:105710000503780086037800f00f200001002000c8
:105720006011b8000400600085806000060161001f
:10573000878161001e027800100298002102980003
:1057400032029800430298002e009000100078006a
:105750008000e8002e009000010878000000eb00b7
:105760000080fa00000006000600fa00000f780032
:1057700011079800220798009e0078001000200072
:10578000800878009e0078000040eb00a040980060
:105790000000eb000080fa00000006000600fa009e
:1057a000000f780011079800220798009e007800eb
:1057b00010002000800878009e00780010c0b30020
:1057c000a04098000000eb000080fa0000000600f6
:1057d0000600fa00000f78001107980022079800d1
:1057e0009e0078000000eb00800878000000eb00cd
:1057f0000080fa00000006001200fa00881f7800fe
:10580000000f7800120798002307980072712b0090
:10581000138d23001e009000ae0090008cec07005a
:105820000000e00001003400030037000040eb00fe
:10583000404f98000c0037008040eb00414f98002b
:1058400022972f00f3f723001e009000ae00900077
:10585000d9eb07000000e00001003d000200370026
:1058600010c0b300404f9800ce4890000104e00003
:105870000500320020972f00f1f7230070079800f1
:10588000010f9800040037001e009000ae00900049
:1058900070079800010f98007e0090008e0890001d
:1058a00010079800210798009e007800e6804000cd
:1058b000510798009e007800648040001004780032
:1058c0006140b900d9eb0700300798004107980004
:1058d0000800e00007003d000200200003782400db
:1058e0003e009000ce009000fceb070030079800cf
:1058f000410798001e019000ae0190003e0090000c
:10590000ce00900036eb0700adeb0700de00900004
:10591000800878004f0478000080fa00000006003c
:105920000c00fa00881f7800000f7800120798001a
:10593000230798003407980045079800214f9800e6
:105940002e4890000004e0004400320000122000c5
:10595000104078000043b2000004e0000a003a0062
:105960001e009000ae0090000001be00dbeb0700bf
:105970000001be0000c22b00e1cb24004ceb07006d
:1059800010079800210798000012200010407800ae
:105990000043b200f04f50000b003a00020020001c
:1059a000031824001e009000ae0090000ceb0700ce
:1059b0000001be0000c22b00e1cb24003ceb07003d
:1059c000100798002107980000122000104078006e
:1059d00002c3b3008240600000c2b30080cf500019
:1059e0000b003a0002002000033024001e0090004b
:1059f000ae009000faea07000001be0000c22b00d2
:105a0000e1cb24002aeb070010079800210798003b
:105a1000001220001040780002c3b30082406000f2
:105a200000c3b30080cf500016003a0002002000ef
:105a3000034024001e009000ae009000e8ea07003a
:105a40000001be0000c22b00e1cb240018eb0700d0
:105a500010079800210798000a0037001e009000e8
:105a6000ae0090000001be009ceb07000001be00ec
:105a700000c22b00e1cb24000deb070010079800bb
:105a8000210798009e0078000000eb008008780055
:105a90009e80e8000000eb008008780002f02f00f4
:105aa000f37724001e009000ae00900042eb070048
:105ab0000000e0002b003c001e0078006404400061
:105ac0001e009000ae0090003deb0700000c780037
:105ad0003e019000ce0190001e00780046ff0700b6
:105ae0009e80e8001e80e80010007800f001b300fe
:105af000800878001e81e8001e80e8009000780091
:105b00000000210000807000000978002e489000fd
:105b10000004e000070032001e00780090007800ca
:105b200000c02000808070001e007800010878000e
:105b3000060037001e0078009000780000c02100a9
:105b4000808070001e007800010878001e00780038
:105b500010007800800078005100b3001e0078002b
:105b6000010878004f0478000080fa000000060069
:105b70003200f800881f7800082020009801880073
:105b8000000000004f0478000000fa000048a9005f
:105b90000080fa003200f900004006000400fa001c
:105ba000000f7800110798001e0090000074a100fb
:105bb000004178000274a100406c20009040780001
:105bc00000c8b30000c0600002407000416c2000bb
:105bd000804878008000eb00002220000108780057
:105be0008000eb0020222000010878002082a9001c
:105bf00023c2a9002002a9000022200090407800c2
:105c000090cfb30080c060000022200001487800df
:105c10002062a90023a2a90023e2a90021e2a80092
:105c20002342a800802220001e0878008022200045
:105c3000100078000000e000050032008022200003
:105c40009000780000102000808f500007003a007c
:105c500020a2a80000222000104078000042b200dc
:105c60000004e000fbff3a000100370020a2a90079
:105c70000168a900508420009040780000c7b3005c
:105c800080c0700050842000014878002168a8007e
:105c90000188a900608420009040780080cfb30084
:105ca00000c060005040b30061842000804878004c
:105cb0002188a9000074200010007800430007002c
:105cc0008000eb0000742000010878000080fa00da
:105cd000000006000400fa00004f78001107980049
:105ce000f0c2b3009e4f10000c00340090c3b3000c
:105cf0009e4f100009003c001e009000100078002c
:105d0000ea01b8001e00fb008000410000fd2f00ea
:105d1000808040001e009000010878001e00fb00fb
:105d20000080fa00000006000a00fa002007980030
:105d3000310798004207980010002000000f7800fb
:105d40000000eb00100798001a003700be0090001a
:105d50001e00900000805000800078002e0090000f
:105d6000008040008001e9004e00900010007800a3
:105d7000800078001e007800ea01b80011000900d8
:105d80008280d8008000fd001e017800110009000b
:105d90000280d8000043b000804978001e007800df
:105da000ea00b800000f78001e0090000000e80034
:105db00010079800be0090001e009000808f5000d9
:105dc000e2ff3e000080fa00000006000c00fa002e
:105dd00010079800302220001040780061406000d9
:105de0000004e000fbff32009e00900000002f0046
:105df000008060004c00de00000f78009000200062
:105e00009e0f100004003600700320001e004000aa
