:020000040000fa
:080000000002040000000000f2
:020000040000fa
:100400006f3a21000eff2d000e0188000000000051
:100410000c00070040422200010020000f000700ee
:10042000000020000000e000020032000000020096
:1004300000000000c42b0200000000000040da00b1
:100440000000fe00000220000000e0000200320078
:10045000002020009001880000000600a102880012
:10046000800078000000eb001a003700e2804000b6
:1004700054a0b4009101ba00e280400054a0b4003e
:100480009102ba00e280400054a0b4000002eb00e8
:10049000472bde00f507b200a6018800602ce100c2
:1004a00008003a000049eb000201e80002003900b0
:1004b0003420ec0002f0a0008301e900f9ff3e00c7
:1004c000040037006128e100010032000082eb00e7
:1004d000040007001101ba000200e000e3ff3a0047
:1004e0000000060004d0a300e20f49001c00390000
:1004f000810278003549ba000201e80002003900a3
:100500003420ec0002f0a0008301e9000f0032006b
:100510002549ba000201e800020039003420ec004d
:1005200002f0a0008301e900080032000400e000ae
:100530000600320015c9ba000201e80002003900c5
:100540003420ec0002f0a0008301e9008180e80083
:1005500054a0b4000300e000e2ff3a0000000600ef
:100560009102ba00055978008301e900f7ff3200d3
:10057000c82ade00055978008301e900f3ff320044
:100580000400e000f1ff320011d9ba00eeff37009d
:100590000040da000000fe000a00fa008001780046
:1005a000e20f500027003e00209d8000e10f500028
:1005b00008003200802320000000e0000500320027
:1005c00004232000252320004623200080017800fa
:1005d00004003700042220002522200046222000ab
:1005e00083222000144090000004e0000400350045
:1005f0008009eb00144090000074a00010429800a5
:10060000154090000028a30003003a001540900018
:100610000024a000904298008001eb000600370003
:10062000154090000008a300fdff32003100fb00e0
:10063000000b78008301e800828f5100f8ff3a0038
:100640000800370030002000b0bf9f00c3bf9f00ec
:10065000d1bf9f00e2bf9f006a80570000c0da0050
:100660006fb99700020078000080fa0000000600d1
:10067000889fbe008a9fbe008c1f78001a01070069
:100680002101330003866c006450e1002400320035
:100690006420e100270032006150e10022003200b6
:1006a0006120e100210032008b854200eb07b100a0
:1006b0000134b800003ab8000804420089844a00b6
:1006c000013ab8000030b8008880400009014a00b3
:1006d000040033000000400081804800020149000e
:1006e0008b05e900c909dd008301700001003200bb
:1006f00013002000c814de004814dd004709de00a6
:100700001200b200c808de00088470000e01070065
:1007100001f0a1000cf0a70001f0a00003013700d8
:100720006120e100050132000801be000200be00a8
:10073000f7ff37006150e100fcff3a00ff0037008f
:10074000f4ff2f0026013700140020002401370099
:10075000889fbe008a9fbe00010578000100e0006e
:100760000400350008003c000000e00020003200da
:100770000500370060001000e080180002003b0018
:1007800001f02c001a0037000004be006011b80010
:100790006b0920000982cf00020039000882cf00d7
:1007a0000441b000694252000e00320008003b00d4
:1007b00082817100610164008904d1000884d30042
:1007c0008b05e8000442e800f9ff3a000500370015
:1007d0000804440089844c008b05e9000442e900c8
:1007e000fbff3a00d80007000af0a70001f0a000c4
:1007f0004f05be004f04be000000060003f0a2003b
:10080000889fbe008a9fbe008c1f7800b60007003c
:10081000bd0033006450e1004f0032006420e1006d
:100820005200320003826c0007003b000905d00033
:100830000306d000820f54000c065d000200390050
:100840000200320089017800030678008582550095
:1008500004003d000003fd008103fd008502ea0065
:100860008b854200840f720002003b006000100084
:10087000e08018006011b8000005eb007a28e10064
:100880000a00390006007800c75ddd00f707b200f6
:10089000878075002d003700828171000a01780081
:1008a000610560008180d1000080d3008502e900ed
:1008b000f9ff3b00060440008784480002003b002b
:1008c00060041400e0841c000988a30007003200c3
:1008d0008a81710082817100610164008904d10004
:1008e0000884d3008b05e800170037000978a300bf
:1008f00013003a000b00e000130034008b05e90000
:100900000804440089844c000a4474000978a30058
:100910000d003a000b00e000070034008b05e900f1
:100920000804440089844c0001003a000b002000b8
:100930000978a300f7ff32000001eb000200370046
:10094000828171000a0178007f0007000cf0a70087
:1009500001f0a000750037006420e10002003a00b9
:10096000838f6c00750033000801be000200be00da
:100970006e0037000001be00b40007000470a7003d
:1009800003f0a10003f8a30013003a006509b100c9
:1009900010003200090035006928e100020035002e
:1009a0000100280000000500000040008180480090
:1009b0008502e900fcff3a0000000600f88f4200c3
:1009c000050035008100d1000080d3008502e800d9
:1009d000fcff3a00000006008000eb00000005006c
:1009e000889fbe008a9fbe008c1f78003e000700d3
:1009f0004500330003866c006450e1002e00320095
:100a00006420e100330032006150e1002f00320029
:100a10006120e1003100320085855500eb07b00010
:100a200009002000080420000500370008044400e5
:100a300089844c000a0031000603430087834b0081
:100a40000001530081815b00f8ff33000203be0008
:100a50000800a0000804440089844c00f6ff390017
:100a6000c639dd008301730001003200130020004d
:100a70008904d1000884d3000998a300050032003e
:100a80000800a7000300a0008904d1000884d30057
:100a90008b05e8008904d1000884d3000001eb0035
:100aa0000281d2002800070001f0a1000cf0a7008d
:100ab00001f0a0001d0037006420e1001f0032009b
:100ac0000801be000200be00f7ff37006120e10010
:100ad0001a0032006000b800f3ff37000000200069
:100ae00001f82700f0ff37000004be0057000700a0
:100af0000003be000405be000200be005300070054
:100b0000844f7500000006000200be006450e10042
:100b1000050036006420e100020036000968a300e9
:100b200001003a000800be000160a0004f067800f6
:100b30004f05be004f04be0000000600f0ff2f006e
:100b4000f1ff2700f9ff3700810020006180550088
:100b50000b003d000b00200061fe2f000100e100b2
:100b60001d00340082817100610164008904d1009c
:100b70000884d3000000e800faff3a00710020006a
:100b80006100640003007000020060000900320090
:100b900061044400e0844c000988a500050032008f
:100ba0008b05e8006808e10002003a008904d100e2
:100bb0000884d300f20f20000258e10005003d0038
:100bc000c75ddd00f907b200898075000800780074
:100bd000000006000bf827008b00780000000500dd
:100be000889fbe008a9fbe00841f7800beff07005a
:100bf0004f00780011003300f0ff2f00838f6c004e
:100c000006003b00040565000a00a7000800370045
:100c100009f0a6001000200008003700820f5400e1
:100c2000838f5c00030039001000200001003e00ab
:100c30000000200009f0a7000000ea004f05be00f8
:100c40004f04be000000e00000000600c70ade00fe
:100c5000f107b200f50fb20008003200e1cf420008
:100c6000020032000170a00024000500810f700016
:100c7000010032000408050044000500810f7000e7
:100c800002003a00140005008502e900000040005f
:100c900081c04800fcff3b000170a000240005005b
:100ca0002800fa00889fbe008a9fbe008c9fbe006d
:100cb00003866b00170307000028a30064003a00b6
:100cc0000128a30067003a000008a30062003a0070
:100cd0000108a30065003a001e009000be089000c5
:100ce00081064000ed3fb100f4805700ee01900016
:100cf000111ab8008e099000311bb8009e099000af
:100d0000311cb800511db800f4855700460007009b
:100d1000fe0190003a0007008b85e8003e000700c6
:100d20008e09900040000700ee019000340007009b
:100d30008b85e800380007008e099000400007000e
:100d40009e0990001b18b800890440000a854800dd
:100d5000fe019000340007008b85e8003800070092
:100d6000ee019000300007008e0990001b18b800bb
:100d7000890440000a8548000a98a30008003a0048
:100d80000402420085824a0006034b0087834b0021
:100d900008044c0089844c000a054d008d06e900ca
:100da00084827200850273004c3add008502720075
:100db0000100320015002000443ade001400b200a9
:100dc0004538de00cb45dd000b007000c540de007d
:100dd000cb4ddd008b8070004549de00cb55dd003a
:100de0000b017100c551de000d037800e20207001f
:100df00003f0a1000cf0a70003f0a000d902370017
:100e00001b18b8008502400006834800e0834b00b1
:100e100060044c00070037001b18b80006034000b0
:100e200087834800faff37001b18b800870340008b
:100e300008844800e0844c0060054d000000060076
:100e40001b18b8000804400089844800faff3700e6
:100e50000108a300c0023a005800be005801be00bd
:100e6000e3ff37000008a300bb023a000904780042
:100e7000f9ff37008103780074ff07000001be000e
:100e80006000b8000478a30013003a006220e1007b
:100e900015003e000d0039008301d1000281d3000e
:100ea0008180d3008301d1000281d3008180d300ef
:100eb0008301d1000281d3008180d3000538b000c6
:100ec000c42add00f300b2008381720007f0a7009e
:100ed00003f0a00000000600f3ff2700f2ff2f0040
:100ee0006110b900fbff370003ff2700f7ff370051
:100ef0008f1fd100cc0207008f87e9000000e000bf
:100f000000000600801feb00c70207008f87e90082
:100f10000000e000000006001400fa00889fbe00f8
:100f20008a9fbe008c9fbe000005be000206be0068
:100f3000680047000c90be000a90be00e302070064
:100f40006400e1001a00320016003e006100e1007a
:100f50001a0032006e049000fe0490000e0b900008
:100f60009e0b90006011b8009e0590000b38b100f8
:100f7000d501200082817100610164008703d100e6
:100f80000683d3008984d3000884d3008502e90056
:100f9000f8ff3a00ecfe07000df0a70001f0a000fa
:100fa00070023700f1ff2700f0ff2f006d023700bd
:100fb00001f8270000002000f7ff37006000b800ac
:100fc000f5ff3700e8020700050978000000060079
:100fd000809feb00940207008f87e9000000e0008b
:100fe000000006002800fa00889fbe008a9fbe000d
:100ff0008c9fbe0007067800878669000c003b00c6
:10100000030478008704780008f0a10009f0a1002b
:10101000840f5000858f5800860f5900890f5c009f
:10102000030033000cf0a20001003a000cf0a10014
:10103000380207006400e1005f00320078014700d9
:101040006408e100610032006c01470074855700bc
:101050003200be001201be003a04be001a05be00f6
:101060001e039000be0a90008503530006003d0059
:101070000004fd008104fd000205fd008305fd0064
:101080008703ea00050378000df8a300040032008e
:1010900060041400e0841c0060051d00e0851d0054
:1010a0006022b8007d0320000d38e1008006eb00cf
:1010b0000b0039004433dd00f300b20083017300fc
:1010c00039003700848272000d027800e106640066
:1010d0008b85d1000a85d3008984d3000884d3008e
:1010e0008703e900f7ff3b000800400089804800c3
:1010f0000a0149008b81490004003b006000100098
:10110000e080180060011900e08119000358a30075
:10111000090032008d8272008482720061026000d8
:101120008301d1000281d3008180d3000080d300ed
:101130000603e8001b0037000348a30017003a002d
:101140000600e000170034000603e9000d00a300cc
:101150000000480081804800020149008381490065
:101160000348a3000f003a000600e0000900340025
:101170000603e900000040008180480002014900a8
:101180008381490001003a000003eb000348a300fb
:10119000f5ff32006022b80002003700848272003e
:1011a00061826600f401070003f0a1000cf0a700c3
:1011b00003f0a000eb013700640147006408e10080
:1011c00002003a000df8a300e3013a003200be002d
:1011d0001201be00e30137001400fa00889fbe0030
:1011e0008a9fbe008c9fbe000004be000205be00a8
:1011f000680047000a90be000890be003302070056
:101200000070a7000bf0a1000bf8a30020003a002b
:101210009e0990000e099000fe0090006e00900064
:101220009e0290003443200084825200cd0132009f
:101230000a003c00b4fc2f000428e1001400340034
:101240008301d1000281d3008180d3000080d300cc
:101250008502e800faff3a00c2013700b40020001e
:101260000428e10007003c000000400081804800a5
:1012700002014900838149008502e900faff3a0032
:10128000b8013700030028000200200001003700e9
:101290006011b8006000b800b20137002800fa0001
:1012a000889fbe008a9fbe008c9fbe0003866b0095
:1012b000980107006400e100440032006408e10086
:1012c0004a0032006100e100460032006108e1009e
:1012d00049003200ec0647006000b8003d02be0045
:1012e0003d03be00f48657006011b8003d04be0007
:1012f0003d05be007d0320000b0037000000a0006c
:101300008d06e900130032000402420085824a0083
:1013100006034b0087834b0000004000818048009b
:1013200002014900838149000802520089825a0063
:101330000a035b008b835b00f0ff3b000802420066
:1013400089824a000a034b008b834b008d06e9001b
:10135000edff3a008482720086827200f707b200c5
:101360008782720001003200150020001e049000e8
:101370003e0b900006035400e63fb0000368a30054
:10138000070032000000a7000500a0008301d10083
:101390000281d3008180d3000080d3000603e800df
:1013a0008301d1000281d3008180d3000080d3006b
:1013b0000002eb000482d2006f01070003f0a100dd
:1013c0000cf0a70003f0a00066013700640247009c
:1013d0006408e100600132003400be003401be0048
:1013e000f6ff37006108e1005b0132006011b800d0
:1013f0006000b800f1ff370003ff27000200200063
:10140000fbff3700889fbe00830478000300e000e4
:101410002c00350003003c000082700004027100c3
:101420002600320036432000c50020008383cf0011
:101430000a0039000541b1008283cf00070039005e
:101440000541b1008183cf00040039000541b1009e
:101450008083cf00010039000541b10085c35300ee
:101460006022b800120032000a003b008482720041
:10147000610260008301d1000281d3008180d3002a
:101480000080d3000603e8008743e800f7ff3a0036
:101490000700370000004000818048000201490039
:1014a000838149000603e9008743e900f9ff3a0018
:1014b0003101070009f0a70003f0a0004f04be00af
:1014c0000000060060001000e080180060011900b4
:1014d000e0811900d3ff3b00033e2c00f7ff3700eb
:1014e00007f0a200bffe3700881f780000047800d4
:1014f0005001be004000be0004004000858048004e
:101500000601490087814900009cbe000294be008c
:101510000400e1000588e1000690e1000798e10081
:1015200002003100680044001008e8004f04780011
:1015300000000600f4874700889fbe008a9fbe0017
:101540008c9fbe008e1f78000205be000004be0006
:10155000d4b79f00e5b79f00f6b79f0087bf9f00f5
:101560000000eb00c0b79f00b0b79f00a0b79f007e
:1015700090b79f0080b79f000d042000bfb0970078
:101580004fb09700000140000000e0000f003d0058
:101590004f08de0000007100c0b79f009e000700ea
:1015a00001003d0012002000a100070001003d00e5
:1015b00012002000a6000700b1000700b6000700d7
:1015c0000f004000c8ff0700220037004f08de0070
:1015d00000067100ccb79f008f00070001003d009e
:1015e000120020009200070001003d0012002000c0
:1015f00097000700a20007000fb297009fb2970064
:101600002fb39700bfb39700a90007000000520056
:1016100081805a0002015b0083815b0080b79f00dc
:1016200091b79f00a2b79f00b3b79f000007eb00e0
:101630009f0007000020e10001a8e10002b0e100e6
:1016400003b8e100010031001e0020000e0056002a
:10165000c0b79f004fb297000400e00007003500bc
:1016600010002000010020006011b8000804700084
:10167000898470000a0571008b8571008d06e90070
:10168000beff3a000400e00003003d0082000700b6
:101690000f00400094ff07004fa897000000e000f3
:1016a00004003a000fb497009fb497002fb597003d
:1016b000bfb59700940007004f0778004f06be00a3
:1016c0004f05be004f04be004f01b10000000600f0
:1016d000881f780018002000881f780095ff0700f9
:1016e0008f87e9004f04780000000600801feb00a0
:1016f00090ff07008f87e90000000600889fbe006a
:101700008a9fbe008c1f78006e00070007003d0016
:1017100073000700e00f5b00e08f5b0007003d00f7
:10172000320007000006eb00040037003400070019
:1017300002003d002a0007001c0020007200070084
:10174000e3ff07000203be000002be000c00e00041
:1017500001003200220007000400be000601be00a6
:101760004f0678004f05be004f04be000000060083
:10177000889fbe008a9fbe008c1f78005100070022
:1017800005003d0056000700e00f5b00e08f5b00a6
:1017900006003d00040037001900070003003d006b
:1017a0006000b8006011b800100007005600070084
:1017b000ceff07000203be000002be000c00e000e6
:1017c00001003200060007000400be000601be0052
:1017d0004f0678004f05be004f04be000000060013
:1017e0006000b8006011b80000003700040250002b
:1017f00085825800060359008783590000000600bf
:101800000006eb00e00f5200e08f5a00e00f5b0093
:10181000e08f5b00000006000180400090b79f0051
:101820000001eb008fb097000100e000000006000f
:101830000200700090b79f000180400080b79f00b9
:101840000001eb00ffa897000100e0000000060087
:101850000200700080b79f00018040006faa9700cf
:10186000cf20de0001007000f0af9f0004024200b4
:10187000250007004f18de0000027200000006007d
:10188000e4af9f000804440089844c000a054d0021
:101890008b854d00000006003fb29700cfb2970045
:1018a0005fb39700efb3970000fe2f000000060023
:1018b0003fb09700cfb097005fb19700efb19700ae
:1018c000000006000205be000004be00e00f50004c
:1018d000e08f5800e00f5900e08f5900000006002b
:1018e0006000b8006011b8000804500089845800f6
:1018f0000a0559008b8559001c002000e00f52009a
:10190000e08f5a00000006000800be000a01be0079
:1019100000000600680447000294be000094be0068
:10192000fc0447008694be008494be000900780041
:10193000660007000800780064000700990078003e
:10194000814f70000b003b000800be0093000700b1
:101950004f00b10003003700f3ff2700f2ff2f0014
:101960006110b9004f06be004f05be004f04be0017
:101970000080fa0000000600180020005700200038
:10198000080453000d003d000600200097fc2f00c6
:101990000740e1001e003400848272006102600092
:1019a0008301d1000281d3008180d3000080d30065
:1019b0000804e800f8ff3a004700200061046000d6
:1019c00005047400040464000d003200610040004e
:1019d000e080480060014900e081490003b8a500ab
:1019e000070032000603e8006538e10004003a0011
:1019f0008301d1000281d3008180d3000080d30015
:101a0000f87f20000830e10003003500080378006b
:101a10006000b8006011b8004433dd00f300b2008c
:101a20008301730000000600889fbe008a9fbe00ed
:101a30008c9fbe000404be000605be00809fbe0051
:101a4000829fbe0063000700040678000800be0005
:101a50000a01be005f000700840678004f03be0045
:101a60004f02be008d4f76007fb097001300330009
:101a7000f0ff2f008b8f6b0006003b000d06660009
:101a80000c00a7000a00370007f0a6001000200095
:101a90000a003700880f5200898f5a008a0f5b00b6
:101aa0008b8f5b00030039001000200001003e0016
:101ab0000000200007f0a7000000ea004f06be006b
:101ac0004f05be004f04be000000060080007800f5
:101ad0005002be005003be004439de00f700b200e1
:101ae000f37f200003016100090032000218e100c9
:101af00016003a0085017200830173008381730030
:101b00000008200015003a004000200013003700b4
:101b100085017200830173008381730005003a0020
:101b200004a8be0006a8be00100020000b0037006d
:101b30000201e9000402420085824a0006034b00cc
:101b400087834b000748a300f9ff32000740a0003d
:101b500004a8be0006a8be00200020008000980057
:101b600092009800000006000003be0037fc07004a
:101b70006220e100020032000600be000500050000
:101b8000e507b100f107b20004f023008480700083
:101b900007f0a70001f0a00024000500e482400047
:101ba0001078a30007003200640240001178a300ff
:101bb0003400be001401be00040032000330a70050
:101bc000000006003500be001501be000330a00075
:101bd0000000060005ff27000582610007003200b3
:101be0000428e1000100320024000500060007007f
:101bf00001003a0044000500040805000200070047
:101c0000f9ff3a00140005006f8261008102700044
:101c10008502710085027200000006000c00fa00c7
:101c2000889fbe0000047800cfb09700f0ff270027
:101c3000d0bf9f008004eb0099bf9f0088bf9f002a
:101c4000a8bf9f00200c2000b0bf9f0078815700e4
:101c5000708057005f0007000fb8970009487800b0
:101c60000fb8970008045000080078004f04be0029
:101c70000080fa0000000600889fbe008a1f7800de
:101c8000804078000004e00021003d008040ea0030
:101c9000d0c6b30080cf5000090034008104fb009f
:101ca00042062000110009008204d80000017800db
:101cb000010078004311dd000a1621001f003700e3
:101cc0000100fb000316210039003700a2002000ac
:101cd000110009000200d80000017800010078001e
:101ce0004311dd00030141004300dd00030040001b
:101cf0003002be002003be0042209000d22090009f
:101d0000f221900062219000e5fb07002e003700d1
:101d1000d0c6b30080cf5000230034008104fb0004
:101d200042062000110009008204d800000178005a
:101d3000010078004311dd000a2121000a01410061
:101d4000a8002000110009000800d8004300dd00b1
:101d50000a00400040229000d022900060239000b2
:101d6000f02390000288900092889000b289900041
:101d700022899000cafb0700801f780001027800ca
:101d8000110009008804d8000102fd004f0078000e
:101d90000402fb004322dd000a0242005403be009d
:101da0004402be00d8ff37000100fb0003212100e0
:101db000eacf5000c5ff3c004300dd0003004000b7
:101dc0005001be004000be004f0578004f04be0029
:101dd000000006004f03b000889fbe008a9fbe002f
:101de0008c9fbe008e1f7800e0b79f00f1b79f0068
:101df00082bf9f000000eb00b0b79f006704370070
:101e00000001eb0050c2b30080cf50000900320047
:101e10000100fb00efb097006d040700e10f4000e8
:101e20005e043200bfb097008100e800b1b79f00a8
:101e30005a043700ffb1970093407800d0c2b30036
:101e400080cf50000c00320007003c006d40500075
:101e500080cf50000d0032006b40400080cf50001a
:101e600019003a000e00370000c3b30080cf5000c5
:101e700015003a000f0037000230a0007fb2970033
:101e80000402e800f4b79f00eaff37000200a00058
:101e9000ffb297008502e800f5b79f00e5ff370025
:101ea0000210a0007fb697000c06e800fcb79f0068
:101eb000e0ff37000220a0007fb097000000e8009c
:101ec000f0b79f00dbff37000218a30001003200cb
:101ed0000200a1000238a300010032000220a1008c
:101ee0000100fb0003fd2f0003004000e90f50003c
:101ef0000f003e008000eb00c1a79f004fa297009b
:101f0000ea20b800ffb297009500fb0001004000f6
:101f100003004000c0a79f005500fb00f5b79f00dd
:101f200003004000e90f50000d003e00f3ff3700b2
:101f30000006eb00cca79f00a0c2b30080cf5000ea
:101f400007003a000fb89700c000780080bf9f00dc
:101f5000c1a79f00ffb197008301e800f3b79f007e
:101f6000e0c2b3007fb29700944f100021003a0006
:101f7000820678000de0a0008400e8006440500074
:101f8000914f100004003200f1b79f008002eb0077
:101f9000c5b79f00100037000fbe97004c007800b7
:101fa0008cbf9f00c0b79f00ffb097008180e80002
:101fb000f1b79f0013003700cfb19700ea18b800bf
:101fc0000100400002004000c0b79f007fb29700b0
:101fd0000402e800f4b79f00ffb297009500fb00f1
:101fe00002fd2f0002804000e90f5000f2ff360092
:101ff00004003700820678000dc0a0000006eb0048
:10200000ccb79f007fb09700b0407800f0b79f003a
:1020100081c79f00c0c6b30080cf500014003200bb
:1020200009003c006940500080cf5000650032003c
:102030006340400080cf5000130032000104e000f4
:10204000dc0332007e00370050c7b30080cf500061
:102050007f0032006340400080cf50000d0032000e
:102060006540500080cf500075003a000c003700ea
:10207000000028000d48a30001003a0000012000e4
:1020800080867600dfff37000d0778000ea0a000e5
:10209000710037000d0778000e70a0006e00370049
:1020a0008fb897004100780081bf9f00000478003e
:1020b0000000e00001003a00683821008004eb00d5
:1020c000010037008104e80089007800088044009e
:1020d0001004e000fbff3a004fb197000200e0005f
:1020e00003003200890f51000100310082047800a2
:1020f0000007eb00cfa19700898f51000100360047
:10210000098751004368de00e106600019003a00cb
:102110000d06780009003700efb09700000220009c
:10212000ab030700e10f4000030032003fb297000d
:102130000402e800b4b79f000c06e8008e0f5600ba
:10214000f5ff3a000087eb000a00370088007800ae
:102150003100fb0001047800efb097009c030700fa
:10216000e10f400003003200bfb297008502e80093
:10217000b5b79f000900e90080047800e10f400036
:10218000f2ff3a000006eb000d00e0000a003a0002
:1021900082033700efb09700000220008c03070095
:1021a000e10f4000030032003fb097000000e8005c
:1021b000b0b79f000c06e8008e0f5600f5ff3a00fe
:1021c000760337008fb897004100780081bf9f00e9
:1021d000cf80de0001017800820178000205be0098
:1021e0000004be000203be000002be004822de0062
:1021f000482edd000402760084c79f000d48a3002e
:102200000a0032000404e00008003200e14f4200fe
:102210000600320011fc2f000180470004487800be
:1022200018409800290020000200370090c79f0046
:102230001900200012fc2f0002844700a6ff37007f
:1022400003fc2f000384470019002000a2ff370081
:102250000d0778000e0cb30000702000000267002c
:10226000270232000ec8a3000200320064002000e2
:10227000c4b79f000e48a300050032000fba9700b4
:102280004401be004400be0084bf9f00040037002c
:102290008fba97004500be0085bf9f00f5fa070082
:1022a000f0af9f0081b79f0092b79f00a3b79f0038
:1022b0006022b8006033b8007fa897008fb0970005
:1022c0001fb19700afb1970009fb07000000e000c5
:1022d0000a003d007fa897008fb097001fb19700bc
:1022e000afb1970003f0a200f0af9f0081b79f004d
:1022f00092b79f00a3b79f003e00b3000000eb0021
:10230000a0a79f006022b8006033b8007fa89700a4
:102310008fb097001fb19700afb19700f9fa07008f
:102320000000e000340032007fa897008fb09700d3
:102330001fb19700afb19700f7fa070043fc2f00d9
:10234000038147001ffb07002fa097000000e90052
:10235000e300b800a2002000110009000200d8002c
:102360008000fd00a1a79f000100e00002003d00e9
:102370000100e900a0a79f002fa497000840ea00f1
:102380003dfe07007faa97008fb297001fb397000a
:10239000afb3970042fa0700b0af9f00c1af9f00f4
:1023a000d2af9f00e3af9f006022b800060020007c
:1023b00007ff2300cefa07000000e00002003d0006
:1023c0000800e9000b0037006022b800060020007a
:1023d000470224003fa89700cfa897005fa9970065
:1023e000efa99700fafa07000000e00002003500ac
:1023f0000800e800a0a79f004fb29700f80f520016
:1024000057003c00d0c6b300804f52002900360070
:102410000485fb0042062000110009000285d80057
:1024200000017800010478004311dd000b16210043
:102430000b0141006022b8000600200007fe2300c7
:102440000288900092889000b289900022899000c2
:1024500013fa0700a9002000809fbe0011000900a8
:102460000984d800000478004f00be004344dd001a
:102470000b04440048229000d8229000682390006a
:10248000f823900006fa0700801f78000102780008
:10249000110009000985d8000102fd004f007800f5
:1024a0004322dd000b0242005403be004402be0082
:1024b0001f0037000480fb0009162100ea4f52007c
:1024c00014003600a2002000110009000280d8008c
:1024d00000017800010478004311dd00090141008a
:1024e0006022b8000600200007fe23004220900072
:1024f000d2209000f221900062219000e8f90700bc
:102500004344dd00090444003802be002803be0035
:10251000070037004300dd00090040006022b800da
:102520000600200007fe23005001be004000be0050
:10253000dbf907000002be000203be007fa897007f
:102540008fb097001fb19700afb19700a5fa0700b1
:10255000f0af9f0081b79f0092b79f00a3b79f0085
:102560002fa49700e90f540015003c006022b8002a
:102570006033b8007fa897008fb097001fb1970015
:10258000afb197005ffa07000000e00032003200b0
:102590007fa897008fb097001fb19700afb1970049
:1025a0000dfb0700e00f5000e08f5800e00f5900ce
:1025b000e08f590028003a00e10f54002600340053
:1025c0000400200005002e00b6e0220017012400c0
:1025d0003fa89700cfa897005fa99700efa99700a1
:1025e00043fa07000000e00002003d0073005400c1
:1025f0000100370072005400a0a79f004fc0970051
:102600009dfd0700b0af9f00c1af9f00d2af9f00fc
:10261000e3af9f000002be000203be007fa8970048
:102620008fb097001fb19700afb197001bfb070059
:10263000e9fa07000205be000004be006000b80011
:102640006011b800d0a79f00e1a79f00f2a79f00ec
:1026500083af9f002e0037007fa897008fb09700b0
:102660001fb19700afb19700dbfa07000205be006b
:102670000004be00e00f5000e08f5800e00f59004a
:10268000e08f5900020035005efb070013003700a1
:1026900010002000010020006011b8000800600058
:1026a000898060000a0161008b8161008b03d10089
:1026b0000a83d3008982d3000882d300000072000d
:1026c0008180720002017300838173004dfb07005b
:1026d0000002be000203be0042fa07000002be0074
:1026e0000203be007fa897008fb097001fb197002c
:1026f000afb197007afb0700d0a79f00e1a79f002a
:10270000f2a79f0083af9f000000eb00a0a79f00ef
:1027100014c0b300052c21000b0037000400fb009f
:102720004300dd00050040005001be004000be0037
:102730000040e10001c8e10002d0e10003d8e1005f
:10274000030039000442e800f44f5200f3ff3a005e
:1027500084c79f000400fb00cfb0970000804000ba
:10276000afa09700010040004fa1970080065100e4
:10277000cfb197000300e000010032008d06e900b0
:1027800063006700010032008d06e9000e28a300f7
:1027900026003200e10067000e18a3000c00320092
:1027a000d00220000100e00001003a000080e900b2
:1027b000efb0970006020700e10f4000180032005a
:1027c0003fb297000402e800b4b79f00140037003e
:1027d0000100e00012003200efb09700000220007c
:1027e000fb010700e10f40000d003200bfb297006f
:1027f0008502e800b5b79f0009003700efb09700e9
:1028000000032000f2010700e10f40000300320046
:102810003fb697000c06e800bcb79f008d06e900a4
:102820000d00e000f5ff3c003d0037000e38a3002e
:102830000a0032000b003700efb0970000022000c2
:10284000e3010700e10f4000030032003fb09700b2
:102850000000e800b0b79f008d06e9000d00e00021
:10286000f5ff3c00e10067000e18a3000c003200e9
:10287000d00220000100e00001003a000080e900e1
:10288000efb09700d2010700e10f400024003200b2
:10289000bfb097008100e800b1b79f00200037006b
:1028a0000100e0001e003200efb09700000220009f
:1028b000c7010700e10f4000190032003fb1970047
:1028c0000201e800b2b79f00150037000000fb00ce
:1028d0004300dd00012c2100010040003002be0059
:1028e0002003be000800be000a01be0078fb0700fe
:1028f000a4002000050020006033b8007bfb070027
:102900000003b000efb09700b1010700e10f4000f5
:1029100003003200bfb197008301e800b3b79f0006
:102920000fc297000440e90080c79f00e14f4000bc
:10293000e6ff3a000b003700efb0970000032000dd
:10294000a3010700e10f400003003200bfb297006f
:102950008502e800b5b79f002fa097000000e900ae
:10296000a0a79f002fa097000000e000f2ff3c000e
:102970004fb6970020c1b300f20f560001003c0093
:102980000fe8970080c79f008fc097000100fb00f1
:102990004fb197000000510090af9f000104e0008c
:1029a00008003200efb09700e00220008801070025
:1029b000e10f400003003200bfb197008301e8003f
:1029c000b3b79f000fc09700abfc07000002be002a
:1029d0000203be005fa09700efa097007fa19700c1
:1029e0008fa99700aef80700fbf907001e0037001b
:1029f0000000fb004300dd000c2c21000c00400017
:102a00003002be002003be000800be000a01be0066
:102a10002ffb0700a4002000050020006033b80051
:102a200032fb07000003b000efb097006801070019
:102a3000e10f4000030032003fb297000402e800bb
:102a4000b4b79f008fc297000500fb004300dd0074
:102a50000c0040003002be002003be000800be0093
:102a60000a01be0021fb07000205be000004be00f3
:102a70000fc697000c40e90080c79f00e14f40005f
:102a8000dbff3a000006eb0009003700efb09700cb
:102a9000000320004e010700e10f40000300320058
:102aa0003fb097000000e800b0b79f000c06e800b8
:102ab0009fa89700810f5600f4ff3a000e38a3003c
:102ac000360132000d00e000340134000006eb0056
:102ad000efb09700000220003d010700e10f400029
:102ae000030032003fb197000201e800b2b79f0037
:102af0000c06e8008d0f560028013200f4ff370065
:102b00000e00e00005003d008fb997004305be00b0
:102b10004304be0083bf9f00110037000e48a3008e
:102b2000080032008fba97004500be0085bf9f00a5
:102b300004017800840178000205be000004be0094
:102b4000070037000fbe97004c0078008cbf9f0035
:102b500000047800090020000a0020000b0020007b
:102b60004fb097000000e00007003a00e00f54006b
:102b7000e08f5c00e00f5d00e08f5d0002003a0036
:102b800011002000c1b79f000e017800020cb200b6
:102b9000d2b79f0000082000800f510014003200bf
:102ba000000c2000800f510025003a0014c0b30033
:102bb000052c21000b0037000400fb004300dd0062
:102bc000050040005001be004000be000040e10092
:102bd00001c8e10002d0e10003d8e100170039008c
:102be0000442e800f44f5200f3ff3a0013003700ac
:102bf00000012000010020006011b80014c0b300e3
:102c00000040e10001c8e10002d0e10003d8e1008a
:102c10000a003900450020000000d0008180d20069
:102c20000281d2008381d2008502e900faff3a00d6
:102c30000442e800f04f5200f1ff3a0084c79f00c1
:102c40000fc697000c00fb00cfb09700810f50001b
:102c500002003d0081c79f00040037004fb197007c
:102c6000800f510001003d00c0b79f00cfa1970029
:102c70000300e0000400320063006700020032003d
:102c80008301e900c3a79f000ee8a3000b003200f8
:102c90004fa29700cfb29700850f520003003c006f
:102ca0000006eb00cca79f00040037004fa0970060
:102cb000cfb0970001005000c0a79f000fc1970040
:102cc0000200fb008001eb00b3a79f004fa297001a
:102cd000800f52000200340000005200b0a79f0095
:102ce0000e28a30034003200e10067000e18a30094
:102cf0000c003200d00220000100e00001003a0088
:102d00000080e900efb09700b1000700e10f40003c
:102d10000e003200bfb297008502e800b5b79f00f1
:102d20000a0037000100e00008003200efb0970011
:102d300000022000a6000700e10f4000030032005f
:102d40003fb697000c06e800bcb79f003fa0970075
:102d50000000e0000f0032000006eb00efb097002b
:102d6000000320009a000700e10f4000030032003a
:102d7000bfb097008100e800b1b79f000c06e800e3
:102d80003fa19700820f5600f4ff3a008001eb004c
:102d9000b3a79f004fb297004320dd00812b210095
:102da000810640004220dd00640650008002eb00f6
:102db000a5af9f00630037003fa697000c00e0001e
:102dc00011003200680067000f003a00000678002a
:102dd000efb09700000220007d000700e10f4000e7
:102de000030032003fb097000000e800b0b79f003a
:102df0000c06e800bfa09700810f5600f4ff3a00d0
:102e00000001eb00b2a79f00e10067000e18a300cd
:102e10000c003200d00220000100e00001003a0066
:102e20000080e900efb0970069000700e10f400063
:102e3000d8ff3200bfb197008301e800b3b79f000d
:102e4000d4ff37000100e000d2ff3200efb097005e
:102e5000000220005e000700e10f4000cdff3200bd
:102e60003fb297000402e800b4b79f00c9ff3700e3
:102e700000082000dfb29700808f5200100032005f
:102e8000000c2000808f520020003a003d02be005e
:102e90002d03be000800be000a01be000cfa0700a8
:102ea000a4002000050020006033b8000ffa0700de
:102eb00004c3b3000442400084c79f0013003700de
:102ec00014002000050020006033b8000c007800da
:102ed0000000e900050033000402d0008582d20022
:102ee0000683d2008783d200f9ff37000800be00b6
:102ef0000a01be00f6f907006f006000d438210017
:102f0000040040001040780080c79f008fc09700e9
:102f10000100fb00efb097002d000700e10f40001b
:102f2000030032003fb197000201e800b2b79f00f2
:102f3000afa997008301e800a3af9f00e886560081
:102f4000640656002faa9700cfb29700850f520053
:102f5000c7ff3a000e38a300100032003fa69700ca
:102f60000c00e0000d0034000006eb00efb097000d
:102f70000002200016000700e10f400003003200ad
:102f80003fb097000000e800b0b79f000c06e800d3
:102f9000bfa09700810f5600f4ff3a007fb1970061
:102fa000b2407800f2b79f0081c79f000104e000a3
:102fb00093fb3a003fb097004f0778004f06be00e2
:102fc0004f05be004f04be004f03b10000000600d5
:102fd000889fbe000001780001047800b1009000d5
:102fe0000118a3003d0032000198a30003003a003d
:102ff000180090000000e00038003a000190a000a6
:103000003104980082047800f90fb2001800900093
:103010000000e00002003a0028009000000c780058
:10302000ea8f540006003a00380090000078a300b0
:1030300003003a0088007800d0002000e4ff070079
:103040009800900058009000808f50000b003200d4
:103050000100e80010049800180078000958780072
:10306000000c780011c0b300203a2100014878001c
:10307000ea8f5400060032001900370088007800fb
:103080000940780019000700800478001400370018
:10309000380090000088a300110032001801900051
:1030a000a8009000480090003bf5070098009000b1
:1030b000810f500004003200380090000003b3007c
:1030c000300498008084eb000000eb0010049800ae
:1030d00028009000000c7800010037008084eb008d
:1030e000090078004f04be00000006000200fa004c
:1030f000889fbe00a0ff9f0001047800b1009000ef
:10310000810478000904b200020032000000fb00d4
:10311000360037000118a30005003a000103b30090
:1031200031049800190498000080eb002f0037004c
:10313000580090000000e00006003a0048009000af
:1031400012002000e680570013f5070019049800cc
:1031500024003700280090000000e00008003a003a
:10316000e039210020049800000c780020002000a5
:1031700050049800100498000130a0003104980019
:1031800018019000a80090004800900002f5070088
:1031900028009000000c78000080eb0010049800dc
:1031a00018007800aff8970001587800000c7800fc
:1031b0002ff89700ea4f50000a003a0038009000bc
:1031c0000088a3000700320018019000a8009000ba
:1031d00048009000f0f4070019049800a80090003f
:1031e000010c7800aff897000100fb004f04be000f
:0831f0000080fa000000060057
:020000040000fa
:10000800c8020000c8020000c8020000c8020000c0
:10001800c8020000c8020000c8020000c8020000b0
:10002800c8020000c8020000c802000096220000b2
:10003800c8020000c8020000c8020000c802000090
:100048007a1e0000c8020000c8020000f62c00005a
:100058004e2d00002c290000c8020000c802000034
:10006800c8020000c8020000c8020000e02c00001e
:10007800c8020000c8020000c8020000c802000050
:10008800c8020000c8020000c8020000062c0000d8
:1000980042290000c8020000c8020000c80200008f
:1000a800c8020000c8020000c8020000c802000020
:1000b800c8020000c8020000c8020000c802000010
:1000c800c8020000c8020000c8020000c802000000
:1000d800c8020000c8020000c8020000c8020000f0
:1000e800c8020000c8020000c8020000c8020000e0
:1000f800c8020000c8020000c8020000c8020000d0
:10010800c8020000c80200007c220000c8020000eb
:10011800c8020000c8020000c8020000c8020000af
:10012800c8020000c8020000c8020000c80200009f
:10013800c8020000c8020000c8020000c80200008f
:10014800c8020000c8020000c8020000c80200007f
:10015800c8020000c8020000c8020000c80200006f
:10016800c8020000c8020000c8020000c80200005f
:10017800c8020000c8020000c8020000c80200004f
:10018800c8020000c8020000c8020000c80200003f
:10019800c8020000c8020000c8020000c80200002f
:1001a800c8020000fe260000c8020000c8020000c5
:1001b800c8020000c8020000c8020000c80200000f
:1001c800c8020000c8020000c8020000c8020000ff
:1001d800c8020000c8020000c8020000c8020000ef
:1001e800c8020000c8020000c8020000c8020000df
:1001f800c8020000c8020000c8020000c8020000cf
:10020800c8020000c8020000c8020000c8020000be
:10021800c8020000c8020000c8020000c8020000ae
:10022800c8020000c8020000c8020000c80200009e
:10023800c8020000c8020000c8020000c80200008e
:10024800c8020000c8020000c8020000c80200007e
:10025800c8020000c8020000c8020000c80200006e
:020000040000fa
:1031f800492000005354000045500000504500008d
:1032080052200000312000003a2000002532000042
:103218002e32000066410000200900000d00000069
:10322800db0f000049400000d39e0000c83b0000af
:020000040000fa
:103238000800fa00200798003107980000002000d5
:1032480001002400008fbe008000eb000010200069
:103258000108780002002000034024002e0090009e
:10326800be00900000f507000001be0000c22b0060
:10327800e1cb2400d8f50700020020000300240059
:103288002df507000000e00001003c000a003700af
:103298000000200001402400008fbe0040102000e4
:1032a8009040780000c3b30080c070004010200038
:1032b800014878003b00370002002000033024005a
:1032c8002e009000be009000e7f407000001be0049
:1032d80000c22b00e1cb2400bff50700020020004c
:1032e8000300240014f507000000e00001003c0082
:1032f8000c0037000000200001302400008fbe00c1
:103308004010200090407800f0ccb30000c060006e
:1033180001c2b300014070004110200080487800cd
:103328002000370002002000031824002e0090001f
:10333800be009000ccf407000001be0000c22b00c4
:10334800e1cb2400a4f507000200200003002400bc
:10335800f9f407000000e00001003c000b00370012
:103368000000200001182400008fbe00401020003b
:1033780090407800f0ccb30000c060000044a0008a
:1033880041102000804878000600370040102000d7
:1033980090407800f0ccb30080c06000401020005e
:1033a800014878002e019000be0190001e00be006a
:1033b800adf407000001be0000c22b00e1cb2400e1
:1033c80085f5070069f507008000780020102000c7
:1033d800010878001e01be000000200001f823004b
:1033e8007df50700008fbe000068a900108420004a
:1033f8009040780000c7b30080c07000108420009f
:10340800014878002068a80005e1a8000080fa00bb
:10341800000006000800fa0020079800310798000d
:103428000000200001002400008fbe008000eb0097
:10343800a0102000010878000200200003402400aa
:103448002e009000be00900087f407000001be0027
:1034580000c22b00e1cb24005ff50700020020002a
:1034680003002400b4f407000000e00001003c0061
:103478000a0037000000200001402400008fbe0031
:10348800201120009040780000c3b30080c0700075
:1034980020112000014878003b003700020020007e
:1034a800033024002e009000be0090006ef4070048
:1034b8000001be0000c22b00e1cb240046f5070046
:1034c80002002000030024009bf407000000e00035
:1034d80001003c000c0037000000200001302400ef
:1034e800008fbe002011200090407800f0ccb3007f
:1034f80000c0600001c2b30001407000211120002b
:1035080080487800200037000200200003182400bb
:103518002e009000be00900053f407000001be008a
:1035280000c22b00e1cb24002bf50700020020008d
:103538000300240080f407000000e00001003c00c4
:103548000b0037000000200001182400008fbe0087
:103558002011200090407800f0ccb30000c060003b
:103568000044a000211120008048780006003700a0
:103578002011200090407800f0ccb30080c060009b
:1035880020112000014878002e019000be01900013
:103598001e00be0034f407000001be0000c22b006c
:1035a800e1cb24000cf50700f0f407008000780058
:1035b800e0102000010878001e01be000000200075
:1035c80001f8230004f50700008fbe000108a900d8
:1035d8004084200010407800804078007140b3009b
:1035e80040842000014878002108a80013e1a800c1
:1035f8000080fa00000006000800fa002007980082
:10360800310798000000200001002400008fbe0050
:103618008000eb0040112000010878000200200023
:10362800034024002e009000be0090000ef4070016
:103638000001be0000c22b00e1cb2400e6f4070025
:1036480002002000030024003bf407000000e00013
:1036580001003c000a00370000002000014024005f
:10366800008fbe00e01120009040780000c3b30036
:1036780080c07000e0112000014878003b0037004e
:1036880002002000033024002e009000be009000ad
:10369800f5f307000001be0000c22b00e1cb2400b7
:1036a800cdf40700020020000300240022f40700e4
:1036b8000000e00001003c000c0037000000200082
:1036c80001302400008fbe00e011200090407800f7
:1036d800f0ccb30000c0600001c2b300014070002c
:1036e800e111200080487800200037000200200007
:1036f800031824002e009000be009000daf30700a3
:103708000001be0000c22b00e1cb2400b2f4070088
:10371800020020000300240007f407000000e00076
:1037280001003c000b0037000000200001182400b5
:10373800008fbe00e011200090407800f0ccb3006c
:1037480000c060000044a000e1112000804878001b
:1037580006003700e011200090407800f0ccb3005c
:1037680080c06000e0112000014878002e01900020
:10377800be0190001e00be00bbf307000001be00a2
:1037880000c22b00e1cb240093f4070077f4070074
:1037980080007800a0112000010878001e01be00fa
:1037a8000000200001f823008bf40700008fbe0002
:1037b8000368a900d084200090407800f0c8b300c6
:1037c80000c0600001c4b30001407000d184200033
:1037d800804878002368a8001fe1a8000080fa004c
:1037e800000006000800fa0020079800310798003a
:1037f8000000200001002400008fbe008000eb00c4
:1038080080112000010878000200200003402400f5
:103818002e009000be00900093f307000001be0048
:1038280000c22b00e1cb24006bf40700020020004b
:1038380003002400c0f307000000e00001003c0082
:103848000a0037000000200001402400008fbe005d
:10385800001220009040780000c3b30080c07000c0
:1038680000122000014878003b00370002002000c9
:10387800033024002e009000be0090007af3070069
:103888000001be0000c22b00e1cb240052f4070067
:103898000200200003002400a7f307000000e00056
:1038a80001003c000c00370000002000013024001b
:1038b800008fbe000012200090407800f0ccb300ca
:1038c80000c0600001c2b300014070000112200076
:1038d80080487800200037000200200003182400e8
:1038e8002e009000be0090005ff307000001be00ac
:1038f80000c22b00e1cb240037f4070002002000af
:10390800030024008cf307000000e00001003c00e5
:103918000b0037000000200001182400008fbe00b3
:103928000012200090407800f0ccb30000c0600086
:103938000044a000011220008048780006003700eb
:103948000012200090407800f0ccb30080c06000e6
:1039580000122000014878002e019000be0190005e
:103968001e00be0040f307000001be0000c22b008d
:10397800e1cb240018f40700fcf30700800078006e
:10398800c0112000010878001e01be0000002000c0
:1039980001f8230010f40700008fbe000388a90077
:1039a8002388a800e08420009040780080cfb300ee
:1039b80000c060000024a000e18420008048780056
:1039c80021e1a8000080fa00000006000800fa00c3
:1039d800200798003107980000002000010024000b
:1039e800008fbe008000eb00601220000108780004
:1039f80002002000034024002e009000be0090002a
:103a080019f307000001be0000c22b00e1cb24001f
:103a1800f1f30700020020000300240046f307002a
:103a28000000e00001003c000a0037000000200010
:103a380001402400008fbe00e01220009040780072
:103a480000c3b30080c07000e01220000148780075
:103a58003b00370002002000033024002e009000b5
:103a6800be00900000f307000001be0000c22b005a
:103a7800e1cb2400d8f30700020020000300240053
:103a88002df307000000e00001003c000c003700a7
:103a98000000200001302400008fbe00e01220004a
:103aa80090407800f0ccb30000c0600001c2b300c1
:103ab80001407000e11220008048780020003700a3
:103ac80002002000031824002e009000be00900081
:103ad800e5f207000001be0000c22b00e1cb240084
:103ae800bdf30700020020000300240012f30700c2
:103af8000000e00001003c000b003700000020003f
:103b080001182400008fbe00e012200090407800c9
:103b1800f0ccb30000c060000044a000e112200017
:103b28008048780006003700e012200090407800b6
:103b3800f0ccb30080c06000e0122000014878009b
:103b48002e019000be0190001e00be00c6f20700c4
:103b58000001be0000c22b00e1cb24009ef3070049
:103b680082f3070080007800a01220000108780086
:103b78001e01be000000200001f8230096f3070094
:103b8800008fbe000608a9008085200090407800bc
:103b980080cfb30000c060000024a0008185200011
:103ba800804878002608a8002fe1a8000080fa00c5
:103bb800000006000000fa00374ea900334ea900a5
:103bc800314ea900d06a20009040780000c8b300a8
:103bd80000c0600091c4b30001407000d16a2000a9
:103be800804878008000eb00c013200001087800ae
:103bf8001100200080132000010878003c21a80053
:103c08000688a900a0852000104078008040780030
:103c18007140b300a0852000014878002688a800dc
:103c28003de1a8000080fa00000006000800fa0044
:103c3800008fbe0022079800330798000080fa0022
:103c4800000006000a00fa00008fbe002207980054
:103c580033079800440798001e00be00408888007b
:103c68005188880002002000032724002e009000bd
:103c7800be0090007cf2070002002000833c240074
:103c880079f2070060888800718888006000b800b1
:103c9800808888009188880080ccb30021f1b70023
:103ca8006011b8002e009000be009000a2f207003c
:103cb8000000e00001003c000300370010c0b30022
:103cc80020f1b7000200370080c0b30020f1b70030
:103cd800ce0090001189880000002800b14b240014
:103ce800ccfd07000080fa0000000600801f780065
:103cf8003200f80000202000900188000000000039
:103d08000000fa0010c0b30006f1b7000108a900ce
:103d18000080fa003200f9004f00780000400600e9
:103d28000200fa00318a8000b0b22000808f500073
:103d380003003e00c00d2000000f7800020037008d
:103d48008000eb00010f7800208a80009e00780038
:103d580000804000208a88000080fa0000000600e9
:103d68000200fa00308a80000000e0000300320000
:103d780040f22f00000f7800020037008000eb00af
:103d8800010f7800208a80009e00780000804000a3
:103d9800208a88000080fa00000006000000fa006f
:103da80000c220006011b8004904070000c42000c8
:103db8006011b800460407000080fa000000060001
:103dc8000400fa00000f7800100020009e0f100079
:103dd80003003200800020009e0f100002003a000d
:103de8001e00780020f1b70010898000e80f50000d
:103df80003003c00108980000000e00003003c0044
:103e080020d1bf000000fb001089880010898000c5
:103e1800100798001e009000e40f50004100320087
:103e28001e009000e40f500011003c001e0090009e
:103e3800e10f5000220032001e009000e10f5000f8
:103e480004003c001e009000e10f40001500320005
:103e58005e0037001e009000e20f50002000320084
:103e68001e009000e30f5000260032005700370074
:103e78001e009000e60f50003b0032001e0090002c
:103e8800e60f5000300035001e009000e70f50008c
:103e98003e0032001e009000e80f50004300320040
:103ea8004a00370000c220006011b800080407006b
:103eb80000c420006011b800050407004300370063
:103ec80000c22000d2cc2c00c3ec23000004070061
:103ed80000c420006011b800fd0307003b00370054
:103ee80000c22000d2cc2c00c3e42300f803070052
:103ef80000c42000d2cc2c00c3e42300f403070044
:103f08003200370000c220006011b800f00307003b
:103f180000c42000d2cc2c00c3ec2300ec03070023
:103f28002a00370000c22000d2cc2c00c3e42b00aa
:103f3800e703070000c42000d2cc2c00c3e4230010
:103f4800e30307002100370000c22000d2cc2c0078
:103f5800c3ec2b00de03070000c420006011b8008a
:103f6800db0307001900370000c22000d2cc2c0068
:103f7800c3e42b00d603070000c42000d2cc2c00d9
:103f8800c3e42b00d20307001000370000c2200052
:103f98006011b800ce03070000c42000d2cc2c006a
:103fa800c3ec2b00ca0307000800370000c220003a
:103fb800d2cc2c00c3e42300c503070000c42000b2
:103fc800d2cc2c00c3e42b00c103070020d1bf00d2
:103fd800e14f500004003a00108980000000e8001a
:103fe800108988000600370020d1bf00e84f500034
:103ff80003003a00108980000000e9001089880059
:104008000080fa00000006000400fa00000f7800a3
:10401800100020009e0f10000300320080002000d6
:104028009e0f100002003a001e00780020f1b70031
:1040380010898000e80f500003003c0010898000c0
:104048000000e00003003c0020d1bf000000fb009e
:104058001089880010898000100798001e009000c1
:10406800e40f5000410032001e009000e40f5000a1
:1040780011003c001e009000e10f500022003200a9
:104088001e009000e10f500004003c001e0090004c
:10409800e10f4000150032005e0037001e0090005e
:1040a800e20f5000200032001e009000e30f500085
:1040b80026003200570037001e009000e60f50001f
:1040c8003b0032001e009000e60f50003000350023
:1040d8001e009000e70f50003e0032001e009000c6
:1040e800e80f5000430032004a00370000c22000a9
:1040f8006011b8007603070000c420006011b80002
:10410800730307004300370000c22000d2cc2c0004
:10411800c3ec23006e03070000c420006011b80040
:104128006b0307003b00370000c22000d2cc2c00f4
:10413800c3e423006603070000c42000d2cc2c008f
:10414800c3e42300620307003200370000c22000e6
:104158006011b8005e03070000c42000d2cc2c0018
:10416800c3ec23005a0307002a00370000c22000ce
:10417800d2cc2c00c3e42b005503070000c4200058
:10418800d2cc2c00c3e423005103070021003700e0
:1041980000c22000d2cc2c00c3ec2b004c0307003b
:1041a80000c420006011b800490307001900370057
:1041b80000c22000d2cc2c00c3e42b00440307002b
:1041c80000c42000d2cc2c00c3e42b00400307001d
:1041d8001000370000c220006011b8003c0307003f
:1041e80000c42000d2cc2c00c3ec2b0038030700fd
:1041f8000800370000c22000d2cc2c00c3e4230002
:104208003303070000c42000d2cc2c00c3e42b00e9
:104218002f03070020d1bf00e14f500004003a00ef
:10422800108980000000e800108988000600370027
:1042380020d1bf00e84f500003003a0010898000e9
:104248000000e900108988000080fa0000000600dc
:104258001000fa00881f7800008fbe00c25a2c0098
:10426800737223001e00be0035f107000000e00055
:1042780001003500040037006000b80060079800ae
:10428800710798001300370022972f00f3f72300d7
:104298001e00be0028f107000000e00001003c00fd
:1042a800050037000000200001f8230040079800af
:1042b80051079800030037001e00be004007980011
:1042c800510798004e009000de00900060079800ab
:1042d800710798006e009000fe009000008fbe00ed
:1042e80040c02000100478006140b90016f10700b2
:1042f80020079800310798000800e00007003d00fb
:1043080002002000037824002e009000be009000d8
:1043180039f1070020079800310798001e01be00f8
:104328002e009000be009000cff007008ff107002c
:104338004f0478000080fa00000006000000fa0030
:1043480006d1bf000004e000040032000040eb008a
:1043580006f1b7001000200099fe07000080fa005f
:10436800000006000000fa008000eb00001c20009e
:10437800010878001e0ea9001e2ea900c06b20009f
:104388009040780000c8b30000c0600011c2b300bc
:1043980001407000c16b200080487800d06b20007d
:1043a8009040780000c8b30000c0600001c2b300ac
:1043b80001407000d16b200080487800101c20005c
:1043c8009040780030ceb30080c06000101c200000
:1043d80001487800101c200090407800c0cfb3003e
:1043e80080c06000101c200001487800001c2000dc
:1043f80090407800f0c8b30080c06000001c200026
:1044080001487800c041a900001c200090407800b5
:10441800c0cfb30080c06000001c200001487800b5
:104428008000eb00201c200001087800c3e1a900ef
:10443800c3c1a900301c20009040780070ccb300a4
:1044480080c06000301c2000014878008000eb002c
:10445800401c200001087800c581a800c541a800bb
:104468008000eb00801c2000010878008000eb0031
:10447800601c2000010878008000eb00c01c2000b0
:10448800010878008000eb00e01d2000010878009a
:1044980041e22500c01d2000010878008080eb0063
:1044a800201e200001087800b11d2a00001e2000ef
:1044b800010878000748a900d085200090407800be
:1044c80080cfb30000c060005040b300d185200009
:1044d800804878002748a800c1e1a8000000200013
:1044e800010a240052fb07000080fa0000000600c1
:1044f800801f78003200f80000202000900188001a
:10450800000000000000fa0010002000c0898800a8
:104518000748a9000080fa003200f9004f0078002f
:10452800004006003600f800809fbe00829fbe0053
:10453800849fbe00869fbe003200f8000020200045
:1045480090018800000000000000fa00c01c200054
:104558001000780020898800601c20001000780076
:10456800308988000000200001172400850007001a
:104578000068a9000080fa003200f9004f03be006d
:104588004f02be004f01be004f00be003600f900ca
:10459800004006001a00fa00889fbe00000f78004d
:1045a800120798002307980020898000cf80de003a
:1045b80065f00700c2c88400d3c884002af0070049
:1045c8008089880091898800828980009389800089
:1045d8001e009000ae00900086f0070060898800f9
:1045e800718988006089800071898000d2cc2c0094
:1045f800c3d42b001cf007000004be00008080001c
:104608001180800082142e00a3f7230016f0070003
:104618000001be000800be0077f007000080880097
:104628001180880000808000118080000200200036
:1046380003f0230040f007000000e00001003c0008
:10464800050037000000200001f02300300f98001b
:10465800410f98001500370000808000118080000d
:104668000200200003f02b0035f007000000e000f6
:1046780001003500050037000000200001f02b0084
:10468800100f9800210f9800040037000080800068
:1046980011808000100f9800210f98001e089000cc
:1046a800ae089000300f9800410f98003e08900027
:1046b800ce089000008088001180880040c020004b
:1046c800100478006140b9001ff0070070079800d7
:1046d800010f98000800e00007003d0002002000dc
:1046e800037824007e0090008e08900042f00700b6
:1046f80070079800010f98000280800013808000e6
:104708007e0090008e089000d7ef070050079800b1
:104718006107980040c02000100078000004d10014
:104728006140b90008f00700300798004107980079
:104738000800e00007003d00020020000378240084
:104748003e009000ce0090002bf007003007980044
:10475800410798003e019000ce0190005e00900055
:10476800ee00900024f0070080f007008000780039
:104778001e007800010878004f04be000080fa008f
:10478800000006000400fa00008fbe003089800097
:10479800cf80de00ecef070002002000433b24003e
:1047a800b1ef070002802600f37324008af00700a7
:1047b800a0898800b1898800a2898000b389800017
:1047c8001e00be000bf007002080880031808800a2
:1047d800c08980000000e0000400320060c82000aa
:1047e8006011b8006bff07001300370020e32000ba
:1047f80010407800704060000004e00005003200be
:1048080060c820000200200003f82b0061ff0700a9
:104818000900370020e32000104078007040600055
:104828000004e00004003a0060c8200002002000f4
:1048380003f82b0057ff07000080fa00000006006d
:020000040000fa
:1048480044110000080000008200000000002c0055
:104858000bcdcc00cc3e0000061100001e0000006d
:10486800800000005c1100000200000082000000cf
:10487800000000005e11000002000000800000003f
:104888005811000004000000820000000000000031
:104898003f0000003a1100000a00000082000000fa
:1048a8000000000000000000000000000000000000
:1048b8004c110000060000008000000024110000d8
:1048c8001600000082000000000000000000000048
:1048d80000000000000000000000000000000000d0
:1048e800000000000000000000100000a800000008
:1048f8008000000052110000060000008200000045
:104908000000000000000000a81000005e00000089
:1049180080000000c0120000a0000000820000001b
:10492800010000000000000000000a000000000074
:10493800000000000064000000000000000000000b
:10494800e80300000000000000001000270000003d
:104958000000000000a08600010000000000000028
:1049680040420f0000000000000080009698000000
:10497800000000000000e100f50500000000000054
:1049880000ca9a003b00000000000000e40b54003d
:10499800020000000000e800764817000000000050
:1049a8000010a500d4e8000000000000a0724e002e
:1049b80018090000000040007a10f3005a000000b7
:1049c8000080c600a47e8d000300000000c16f00b7
:1049d800f2862300000000008a5d7800456301002c
:1049e80000006400a7b3b600e00d000000e88900ed
:1049f8000423c7008a000000861300001800000086
:104a080082000000286e75006c6c290000303100af
:104a18003233340035363700383961006263640058
:104a2800656600006011000060010000820000005f
:104a38000000000000000000f03f00000000a0009f
:104a48009999b9003f0000000040e1007a843f00d6
:104a580000000000e04d6200503f00000000e00050
:104a6800e2361a003f0000000080b500f8e43e007e
:104a780000000000a0f7c600b03e00000000a00043
:104a8800f2d77a003e00000000e08e0079453e0033
:104a980000000000e00b2e00113e00000000e000c6
:104aa800df7cdb003d0000000000a1009cc73b004c
:104ab80000000000004c4800b4390000000000006d
:104ac800206ca1003700000000000000000000007a
:104ad80000000000000000000000000000000000ce
:104ae80000000000000000000000000000000000be
:104af80000000000000000000000000000000000ae
:104b0800000000000000000000000000000000009d
:104b1800000000000000000000000000000000008d
:104b28000000f0003f0000000000000000244000ea
:104b380000000000000000005940000000000000d4
:104b480000408f00400000000000000088c34000c3
:104b58000000000000006a00f840000000000000ab
:104b680080842e00410000000000d0001263410044
:104b7800000000000084d7009741000000000000fa
:104b880065cdcd004100000000205f00a00242007a
:104b980000000000801daf00154400000000400028
:104ba800593e2900460000000000000000f07f0088
:104bb8000000000000000000f07f0000000000007e
:104bc8000000f0007f0000000000000000f07f00ff
:104bd8000000000000000000f07f0000000000005e
:104be8000000f0007f0000000000000000f07f00df
:104bf8000000000000000000f07f0000000000003e
:104c08000000f0007f000000601300002600000094
:104c1800820000006213a00013000000a013090026
:104c28000000000002009e00130000009e13060012
:104c38000201000000000000000000000000060063
:104c480002020000000000009e13000006000000a1
:104c580080000000a4130000020000008200000091
:084c6800010000000000000043
:020000040000fa
:104c70000400fa00881f78008000eb0000c02000cc
:104c80000108780020c020009040780080cfb30059
:104c900000c060003040b30021c020008048780090
:104ca000e103200040c020000108780040c020003f
:104cb00010007800c300de0060c220000108780008
:104cc00040c0200010007800c300de0060c4200057
:104cd000010878008000eb0000c220000108780085
:104ce000210ca9008000eb0020c220000108780000
:104cf00023eca80023cca80030c22000904078000c
:104d000030cfb30000c060000024a00031c22000fa
:104d100080487800222ca9008000eb0000c420000d
:104d200001087800410ca9008000eb0020c420009d
:104d30000108780043eca80043cca80030c4200050
:104d40009040780030cfb30000c060000024a00085
:104d500031c4200080487800422ca90040c02000c7
:104d6000100478006140b90079ee0700008fbe00a2
:104d70000800e00005003d00020020000378240048
:104d80001e00be009eee0700008fbe00a299290003
:104d900093f123001e00be0035ee0700f5ee07007c
:104da0008000780060c82000010878008000eb00d7
:104db00000c8200001087800810ca9008000eb00e9
:104dc00020c820000108780083eca80083cca8004c
:104dd00030c820009040780030cfb30080c0600021
:104de00030c8200001487800822ca90001eca800fe
:104df0004f0478000080fa00000006003200f8003e
:104e0000881f78000820200098018800000000001a
:104e10004f0478000000fa000c28a9000080fa0076
:104e20003200f900004006000c00fa00881f7800ec
:104e3000000f780012079800230798000200200056
:104e400003f023001e009000ae00900008ee070063
:104e50000200200003f0230069ee0700100798000d
:104e6000210798001e007800660040005007980057
:104e700040c02000100478006140b90034ee070003
:104e800030079800410798000800e00007003d0047
:104e900002002000037824003e009000ce00900025
:104ea00057ee070030079800410798001e01900058
:104eb000ae0190003e009000ce009000eced0700a7
:104ec000acee0700de009000800878004f04780008
:104ed0000080fa00000006001200fa00881f780027
:104ee000000f780012079800230798006011b8009f
:104ef0001e009000ae00900013ee07000000e000de
:104f0000010035002c0037001e009000ae0090001c
:104f100001f0a20010079800210798001e81e80008
:104f20001e80e80090007800f0ef2f000080600005
:104f3000000978001e81e8001e80e80090007800db
:104f40000020200000807000000978001e0078001a
:104f500066004000000f980040c020001004780058
:104f60006140b900faed07006007980071079800ea
:104f70000800e00007003d00020020000378240044
:104f80006e009000fe0090001dee07006007980084
:104f9000710798001e019000ae0190006e00900015
:104fa000fe009000b2ed070072ee07008e08900040
:104fb00080087800260037001e81e8001e80e80087
:104fc00090007800f0df2f0000806000000978007a
:104fd0001e81e8001e80e80090007800001020008c
:104fe00000807000000978001e0078006600400014
:104ff0005007980040c02000100478006140b900bc
:10500000d3ed070030079800410798000800e00042
:1050100007003d0002002000037824003e009000bd
:10502000ce009000f6ed0700300798004107980089
:105030001e019000ae0190003e009000ce00900056
:105040008bed07004bee0700de0090008008780033
:105050004f0478000080fa00000006000000fa000b
:105060008000eb00e0e12000010878001e4ea8005f
:105070001e6ea8001e8ea8001eaea8008000eb00c9
:1050800000322000010878008000eb002032200070
:10509000010878008000eb00403220000108780011
:1050a0008000eb0020332000010878008000eb0036
:1050b00020372000010878008000eb0060322000db
:1050c000010878008000eb00e03220000108780041
:1050d0008000eb000033200001087800103220002f
:1050e00090407800c0cfb30080c060001032200034
:1050f000014878002143a9000032200010407800c8
:10510000ff40600000322000014878002083a900a1
:105110002063a9002043a80030322000904078008e
:10512000c0cfb30080c0600030322000014878005a
:105130003032200010407800ff4060003032200004
:10514000014878002203a9002223a9002032200070
:105150009040780030c8b30000c06000c1c3b30005
:105160000140700021322000804878002343a900cc
:10517000503220009040780000ceb30000c06000a4
:105180003040b300513220008048780080c0eb00ee
:10519000403220000148780025e3a9003303a9002c
:1051a000803220009040780000ceb30000c0600044
:1051b0000014a000813220008048780028e3a90074
:1051c000903220009040780000ceb30000c0600014
:1051d0003040b300913220008048780029e3a900d4
:1051e0002603a900603220009040780090cfb300e1
:1051f00080c0600060322000014878002703a900c9
:10520000703220009040780090cfb30080c06000e2
:10521000703220000148780021a8a8006084200096
:1052200090407800f0c8b30000c0600001c4b30033
:1052300001407000618420008048780001a8a90026
:1052400021e3a80000002000010a240067f90700fc
:105250000080fa00000006003200f800881f780085
:105260000820200098018800000000004f0478000a
:105270000000fa0001a8a9000080fa003200f9003d
:1052800000400600809fbe00821f78003200f800b8
:105290000020200090018800000000000000fa00bb
:1052a00040e62000104078000080fb000000d100a4
:1052b000614060000004a200614060006140600045
:1052c0000041400040e6200090407800d0cfb3007d
:1052d00000c060000240700041e620008048780075
:1052e00010c0b30054f1b7000388a9000080fa0091
:1052f0003200f9004f0178004f00be000040060068
:105300000400fa00881f780054d1bf000004e000b8
:105310003900320000302000100478006140b900ec
:105320000bed0700008fbe000800e00005003d0007
:1053300002002000037824001e00be0030ed0700ac
:10534000008fbe0032332300330524001e00be0050
:10535000c7ec07000200200003482400a0ed07006e
:105360003233230033fd230024ed070050858800ed
:10537000618588005085800061858000809fbe0027
:10538000c08f2900801f7800600b210023f20700e6
:10539000e68757000000eb00908a8800918a800021
:1053a000600b210000804000104078008000fb006e
:1053b00040222000010878003022200010407800b0
:1053c000614060000004e000fbff3200908a800032
:1053d0000000e800908a8800918a8000600b21001c
:1053e00000804000104078000004e000ebff3a002d
:1053f0000040eb0054f1b7004f0478000080fa0041
:10540000000006000400fa00000f78001107980061
:105410001e0090000074a100004178000274a100f9
:10542000406c20009040780000c8b30000c06000cd
:1054300002407000416c2000804878008000eb0042
:1054400000222000010878008000eb0020222000cc
:10545000010878002082a90023c2a9002002a90027
:10546000002220009040780090cfb30080c0600000
:1054700000222000014878002062a90023a2a90090
:1054800023e2a90021e2a8002342a80080222000f4
:105490001e08780080222000100078000000e00044
:1054a00005003200802220009000780000102000cb
:1054b000808f500007003a0020a2a80000222000a0
:1054c000104078000042b2000004e000fbff3a0008
:1054d0000100370020a2a9000168a9005084200023
:1054e0009040780000c7b30080c070005084200056
:1054f000014878002168a9000188a9006084200083
:105500009040780080cfb30000c060005040b300ee
:1055100061842000804878002188a9000074200060
:1055200010007800430007008000eb0000742000aa
:10553000010878000080fa00000006000400fa006c
:10554000004f780011079800f0c2b3009e4f100082
:105550000c00340090c3b3009e4f100009003c00c3
:105560001e00900010007800ea01b8001e00fb0049
:105570008000410000fd2f00808040001e00900050
:10558000010878001e00fb000080fa000000060001
:105590000a00fa0020079800310798004207980097
:1055a00010002000000f78000000eb0010079800aa
:1055b0001a003700be0090001e00900000805000ce
:1055c000800078002e009000008040008001e900fb
:1055d0004e00900010007800800078001e007800d7
:1055e000ea01b800110009008280d8008000fd00a7
:1055f0001e017800110009000280d8000043b000ad
:10560000804978001e007800ea00b800000f78009a
:105610001e0090000000e80010079800be009000f7
:105620001e009000808f5000e2ff3e000080fa00d4
:10563000000006000c00fa0010079800302220003d
:1056400010407800614060000004e000fbff320081
:105650009e00900000002f00008060004c00de00e3
:10566000000f7800900020009e0f1000040036000c
:10567000700320001e004000500798000300370010
:10568000000320001e004000500798005e009000bc
:10569000000f7800402220001e0878009e00900035
:1056a00000f02000008060004800de00000f78005d
:1056b000900020009e0f10000400360070032000b0
:1056c0001e00400040079800030037000003200040
:1056d0001e004000400798004e009000000f780028
:1056e000402220001e0878009e009000000f20003d
:1056f000008060004400de00000f78009000200071
:105700009e0f100004003600700320001e004000b1
:105710003007980003003700000320001e004000ff
:10572000300798003e009000000f780040222000d3
:105730001e0878001e0090006f0f6000900020008f
:105740009e0f100004003600700320001e00400071
:105750002007980003003700000320001e004000cf
:10576000200798002e009000000f780040222000b3
:105770001e087800d1002000402220000108780097
:105780000080fa00000006000000fa000300070095
:105790005300070036fd0700ffff37000000fa0046
:1057a000407420009040780000ceb30080c06000bc
:1057b00040742000014878004074200010407800b8
:1057c000f2c3b300824060004074200001487800ba
:1057d000607420009000780000e02f0000806000de
:1057e00051032000010070006174200080087800df
:1057f00020742000104078000042b2000004e00055
:10580000fbff32000080fa00000006003600f800be
:10581000809fbe00829fbe00849fbe00869fbe0008
:105820003200f800002020009001880000000000f5
:105830000000fa0040e6200010407800614060005f
:105840000004a200614060006141600040e6200069
:1058500090407800e0cfb30000c0600002407000cc
:1058600041e6200080487800608a80000000e8005f
:10587000608a8800608a8000e20f50000f003600c6
:1058800020e3200010407800704060000004e00039
:105890000200320024f907000600370020e3200050
:1058a00010407800704060000004e00001003a0001
:1058b0002df907000000eb00608a88000368a9004a
:1058c0000080fa003200f9004f03be004f02be0014
:1058d0004f01be004f00be003600f9000040060038
:1058e0000000fa0020e520001040780068406000c9
:1058f0000004e0000200320020e5200010407800a3
:10590000106920009040780000ccb30000c0600017
:105910000004a00011692000804878005106200092
:10592000a0012000b7fe07008000eb00e0e62000a9
:1059300001087800e0e6200090007800e0e4200014
:1059400001087800e0e4200090007800e0e3200007
:1059500001087800e0e3200090007800e0e22000f9
:1059600001087800e0e2200090007800e0e02000ec
:10597000010878008000eb0000e4200001087800b6
:105980008000eb0000e52000010878008000eb00bb
:1059900000e32000010878008000eb0000e6200012
:1059a000010878008080eb0000e120000108780009
:1059b000640ea900642ea9000080fa000000060011
:1059c0003200f800881f7800082020009801880025
:1059d000000000004f0478000000fa000268a900ef
:1059e0000080fa003200f900004006003600f8009e
:1059f000809fbe00829fbe00849fbe00869fbe0027
:105a00003200f80000202000900188000000000013
:105a10000000fa0040e62000104078000080fb0003
:105a20000000d100614060000004a20061406000fd
:105a3000614060000041400040e620009040780056
:105a4000d0cfb30000c060000240700041e62000eb
:105a500080487800c11521006022200010007800e5
:105a6000b6fe07005ef1b7005ed1bf008000fb000c
:105a700040222000010878000168a9000080fa0097
:105a80003200f9004f03be004f02be004f01be00be
:105a90004f00be003600f900004006003200f8005a
:105aa000881f78000820200098018800000000006e
:105ab0004f0478000000fa000188a9000080fa0075
:085ac0003200f900004006006d
:00000001FF
