:020000040000fa
:080000000002040000000000f2
:020000040000fa
:100400000f3521000eff2d000e01880000000000b6
:100410000c000700a03d2200010020000f00070093
:10042000000020000000e000020032000000020096
:10043000000000001a1e0200000000000040da0068
:100440000000fe00e06320000000e0000200320037
:10045000002020009001880000000600a102880012
:10046000800078000000eb001a003700e2804000b6
:1004700054a0b4009101ba00e280400054a0b4003e
:100480009102ba00e280400054a0b4000002eb00e8
:10049000472bde00f507b200a6018800602ce100c2
:1004a00008003a000049eb000201e80002003900b0
:1004b0003420ec0002f0a0008301e900f9ff3e00c7
:1004c000040037006128e100010032000082eb00e7
:1004d000040007001101ba000200e000e3ff3a0047
:1004e0000000060004d0a300e20f49001c00390000
:1004f000810278003549ba000201e80002003900a3
:100500003420ec0002f0a0008301e9000f0032006b
:100510002549ba000201e800020039003420ec004d
:1005200002f0a0008301e900080032000400e000ae
:100530000600320015c9ba000201e80002003900c5
:100540003420ec0002f0a0008301e9008180e80083
:1005500054a0b4000300e000e2ff3a0000000600ef
:100560009102ba00055978008301e900f7ff3200d3
:10057000c82ade00055978008301e900f3ff320044
:100580000400e000f1ff320011d9ba00eeff37009d
:100590003e1f0400000000000040da000000fe00e2
:1005a000140020001c013700889fbe008a9fbe00f7
:1005b000010578000100e0000400350008003c005f
:1005c0000000e0002000320005003700600010004d
:1005d000e080180002003b0001f02c001a003700f8
:1005e0000004be006011b8006b0920000982cf0032
:1005f000020039000882cf000441b0006942520075
:100600000e00320008003b0082817100610164002d
:100610008904d1000884d3008b05e8000442e80077
:10062000f9ff3a00050037000804440089844c00b3
:100630008b05e9000442e900fbff3a0011010700c5
:100640000af0a70001f0a0004f05be004f04be0055
:1006500000000600889fbe008a9fbe008c1f7800a5
:100660002e0107003501330003866c006450e10061
:100670002e0032006420e100330032006150e100be
:100680002f0032006120e1003100320085855500e5
:10069000eb07b00009002000080420000500370027
:1006a0000804440089844c000a003100060343001a
:1006b00087834b000001530081815b00f8ff33000a
:1006c0000203be000800a0000804440089844c0016
:1006d000f6ff3900c639dd008301730001003200e6
:1006e000130020008904d1000884d3000998a300d6
:1006f000050032000800a7000300a0008904d10013
:100700000884d3008b05e8008904d1000884d30055
:100710000001eb000281d200da00070001f0a10025
:100720000cf0a70001f0a0000d0137006420e100eb
:100730000f0132000801be000200be00f7ff3700c3
:100740006120e1000a0132006000b800f3ff3700c9
:100750000000200001f82700f0ff370003f0a2009e
:10076000889fbe008a9fbe008c1f7800eb000700a8
:10077000f20033006450e1004f0032006420e100d9
:100780005200320003826c0007003b000905d000d4
:100790000306d000820f54000c065d0002003900f1
:1007a0000200320089017800030678008582550036
:1007b00004003d000003fd008103fd008502ea0006
:1007c0008b854200840f720002003b006000100025
:1007d000e08018006011b8000005eb007a28e10005
:1007e0000a00390006007800c75ddd00f707b20097
:1007f000878075002d003700828171000a01780022
:10080000610560008180d1000080d3008502e9008d
:10081000f9ff3b00060440008784480002003b00cb
:1008200060041400e0841c000988a3000700320063
:100830008a81710082817100610164008904d100a4
:100840000884d3008b05e800170037000978a3005f
:1008500013003a000b00e000130034008b05e900a0
:100860000804440089844c000a4474000978a300f9
:100870000d003a000b00e000070034008b05e90092
:100880000804440089844c0001003a000b00200059
:100890000978a300f7ff32000001eb0002003700e7
:1008a000828171000a017800760007000cf0a70031
:1008b00001f0a000aa0037006420e10002003a0025
:1008c000838f6c00aa0033000801be000200be0046
:1008d000a3003700f4ff2f004f003700889fbe00b1
:1008e0008a9fbe008c1f78008c00070093003300a5
:1008f00003866c006450e100240032006420e100b3
:10090000270032006150e100220032006120e10046
:10091000210032008b854200eb07b1000134b800a2
:10092000003ab8000804420089844a00013ab8003d
:100930000030b8008880400009014a0004003300fc
:100940000000400081804800020149008b05e90059
:10095000c909dd008301700001003200130020008e
:10096000c814de004814dd004709de001200b200a2
:10097000c808de00088470004200070001f0a100f2
:100980000cf0a70001f0a000750037006120e10025
:10099000770032000801be000200be00f7ff3700fa
:1009a0006150e100fcff3a00710037000001be0019
:1009b000720007000470a70003f0a10003f8a30071
:1009c00013003a006509b10010003200090035003b
:1009d0006928e10002003500010028000000050040
:1009e00000004000818048008502e900fcff3a00d9
:1009f00000000600f88f4200050035008100d1009c
:100a00000080d3008502e800fcff3a0000000600e9
:100a10008000eb0000000500889fbe008a9fbe009a
:100a2000841f78003d0007004f007800110033005c
:100a3000f0ff2f00838f6c0006003b00040565006b
:100a40000a00a7000800370009f0a60010002000e7
:100a500008003700820f5400838f5c0003003900c8
:100a60001000200001003e000000200009f0a70057
:100a70000000ea004f05be004f04be000000e00089
:100a80000000060081002000618055000b003d0041
:100a90000b00200061fe2f000100e1001d0034006a
:100aa00082817100610164008904d1000884d3004f
:100ab0000000e800faff3a007100200061006400c5
:100ac000030070000200600009003200610444006d
:100ad000e0844c000988a500050032008b05e80081
:100ae0006808e10002003a008904d1000884d300bc
:100af000f20f20000258e10005003d00c75ddd0057
:100b0000f907b2008980750008007800000006002f
:100b10000bf827008b007800000005000004be00e1
:100b2000160007000003be000405be000200be0060
:100b300012000700844f7500000006000200be008e
:100b40006450e100050036006420e1000200360038
:100b50000968a30001003a000800be000160a0007f
:100b60004f0678004f05be004f04be00000006008f
:100b7000f0ff2f00f1ff2700f9ff3700c70ade0062
:100b8000f107b200f50fb20008003200e1cf4200d9
:100b9000020032000170a00024000500810f7000e7
:100ba000010032000408050044000500810f7000b8
:100bb00002003a00140005008502e9000000400030
:100bc00081c04800fcff3b000170a000240005002c
:100bd000000278008001eb0002003700015a780023
:100be0008301e800828f5100fcff3a0000000600fc
:020000040000fa
:10000800cc020000cc020000cc020000cc020000b0
:10001800cc020000cc020000cc020000cc020000a0
:10002800cc020000cc02000002220000cc0200003a
:10003800cc020000cc020000cc020000cc02000080
:10004800cc020000cc020000cc020000cc02000070
:10005800cc020000cc020000cc020000cc02000060
:10006800cc020000cc020000cc020000cc02000050
:10007800cc020000cc020000cc020000cc02000040
:10008800cc020000cc020000cc020000cc02000030
:10009800cc020000cc020000cc020000cc02000020
:1000a800cc020000cc020000cc020000ae1300001d
:1000b800cc020000cc020000cc020000cc02000000
:1000c800cc020000cc020000cc020000cc020000f0
:1000d800cc020000cc020000cc020000cc020000e0
:1000e800cc020000cc020000cc020000cc020000d0
:020000040000fa
:100c70003042000000000000000000000000000002
:100c80000000000000000000000000000000000064
:100c90000000000000000000000000000000000054
:100ca0000000000000000000000000000000000044
:100cb0000000000000000000000000000000000034
:100cc0000000000000000000000000000000000024
:100cd0000000000000000000000000000000000014
:100ce0000000000000000000000000000000000004
:100cf00000000000000000000000000000000000f4
:100d000000000000000000000000000000000000e3
:100d10003142000000000000000000000000000060
:100d200000000000000000000000000000000000c3
:100d300000000000000000000000000000000000b3
:100d400000000000000000000000000000000000a3
:100d50000000000000000000000000000000000093
:100d60000000000000000000000000000000000083
:100d70000000000000000000000000000000000073
:100d80000000000000000000000000000000000063
:100d90000000000000000000000000000000000053
:100da0000000000000000000000000000000000043
:100db00032440000000000000000000000000000bd
:100dc0000000000000000000000000000000000023
:100dd0000000000000000000000000000000000013
:100de0000000000000000000000000000000000003
:100df00000000000000000000000000000000000f3
:100e000000000000000000000000000000000000e2
:100e100000000000000000000000000000000000d2
:100e200000000000000000000000000000000000c2
:100e300000000000000000000000000000000000b2
:100e400000000000000000000000000000000000a2
:100e50003346000000000000000000000000000019
:100e60000000000000000000000000000000000082
:100e70000000000000000000000000000000000072
:100e80000000000000000000000000000000000062
:100e90000000000000000000000000000000000052
:100ea0000000000000000000000000000000000042
:100eb0000000000000000000000000000000000032
:100ec0000000000000000000000000000000000022
:100ed0000000000000000000000000000000000012
:100ee0000000000000000000000000000000000002
:100ef0003448000000000000000000000000000076
:100f000000000000000000000000000000000000e1
:100f100000000000000000000000000000000000d1
:100f200000000000000000000000000000000000c1
:100f300000000000000000000000000000000000b1
:100f400000000000000000000000000000000000a1
:100f50000000000000000000000000000000000091
:100f60000000000000000000000000000000000081
:100f70000000000000000000000000000000000071
:100f80000000000000000000000000000000000061
:100f9000354a0000000000000000000000000000d2
:100fa0000000000000000000000000000000000041
:100fb0000000000000000000000000000000000031
:100fc0000000000000000000000000000000000021
:100fd0000000000000000000000000000000000011
:100fe0000000000000000000000000000000000001
:100ff00000000000000000000000000000000000f1
:1010000000000000000000000000000000000000e0
:1010100000000000000000000000000000000000d0
:1010200000000000000000000000000000000000c0
:10103000364c00000000000000000000000000002e
:1010400000000000000000000000000000000000a0
:101050000000000000000000000000000000000090
:101060000000000000000000000000000000000080
:101070000000000000000000000000000000000070
:101080000000000000000000000000000000000060
:101090000000000000000000000000000000000050
:1010a0000000000000000000000000000000000040
:1010b0000000000000000000000000000000000030
:1010c0000000000000000000000000000000000020
:1010d000374e00000000000000000000000000008b
:1010e0000000000000000000000000000000000000
:1010f00000000000000000000000000000000000f0
:1011000000000000000000000000000000000000df
:1011100000000000000000000000000000000000cf
:1011200000000000000000000000000000000000bf
:1011300000000000000000000000000000000000af
:10114000000000000000000000000000000000009f
:10115000000000000000000000000000000000008f
:10116000000000000000000000000000000000007f
:1011700038500000000000000000000000000000e7
:10118000000000000000000000000000000000005f
:10119000000000000000000000000000000000004f
:1011a000000000000000000000000000000000003f
:1011b000000000000000000000000000000000002f
:1011c000000000000000000000000000000000001f
:1011d000000000000000000000000000000000000f
:1011e00000000000000000000000000000000000ff
:1011f00000000000000000000000000000000000ef
:1012000000000000000000000000000000000000de
:101210003952000000000000000000000000000043
:1012200000000000000000000000000000000000be
:1012300000000000000000000000000000000000ae
:10124000000000000000000000000000000000009e
:10125000000000000000000000000000000000008e
:10126000000000000000000000000000000000007e
:10127000000000000000000000000000000000006e
:10128000000000000000000000000000000000005e
:10129000000000000000000000000000000000004e
:1012a000000000000000000000000000000000003e
:1012b0004154000000000000000000000000000099
:1012c000000000000000000000000000000000001e
:1012d000000000000000000000000000000000000e
:1012e00000000000000000000000000000000000fe
:1012f00000000000000000000000000000000000ee
:1013000000000000000000000000000000000000dd
:1013100000000000000000000000000000000000cd
:1013200000000000000000000000000000000000bd
:1013300000000000000000000000000000000000ad
:10134000000000000000000000000000000000009d
:1013500042560000000000000000000000000000f5
:10136000000000000000000000000000000000007d
:10137000000000000000000000000000000000006d
:10138000000000000000000000000000000000005d
:10139000000000000000000000000000000000004d
:1013a000000000000000000000000000000000003d
:1013b000000000000000000000000000000000002d
:1013c000000000000000000000000000000000001d
:1013d000000000000000000000000000000000000d
:1013e00000000000000000000000000000000000fd
:1013f0004358000000000000000000000000000052
:1014000000000000000000000000000000000000dc
:1014100000000000000000000000000000000000cc
:1014200000000000000000000000000000000000bc
:1014300000000000000000000000000000000000ac
:10144000000000000000000000000000000000009c
:10145000000000000000000000000000000000008c
:10146000000000000000000000000000000000007c
:10147000000000000000000000000000000000006c
:10148000000000000000000000000000000000005c
:10149000445a0000000000000000000000000000ae
:1014a000000000000000000000000000000000003c
:1014b000000000000000000000000000000000002c
:1014c000000000000000000000000000000000001c
:1014d000000000000000000000000000000000000c
:1014e00000000000000000000000000000000000fc
:1014f00000000000000000000000000000000000ec
:1015000000000000000000000000000000000000db
:1015100000000000000000000000000000000000cb
:1015200000000000000000000000000000000000bb
:101530004542000000000000000000000000000024
:10154000000000000000000000000000000000009b
:10155000000000000000000000000000000000008b
:10156000000000000000000000000000000000007b
:10157000000000000000000000000000000000006b
:10158000000000000000000000000000000000005b
:10159000000000000000000000000000000000004b
:1015a000000000000000000000000000000000003b
:1015b000000000000000000000000000000000002b
:1015c000000000000000000000000000000000001b
:1015d0004644000000000000000000000000000081
:1015e00000000000000000000000000000000000fb
:1015f00000000000000000000000000000000000eb
:1016000000000000000000000000000000000000da
:1016100000000000000000000000000000000000ca
:1016200000000000000000000000000000000000ba
:1016300000000000000000000000000000000000aa
:10164000000000000000000000000000000000009a
:10165000000000000000000000000000000000008a
:10166000000000000000000000000000000000007a
:10167000db0f00004940000066750000636b00004e
:1016800021210000210000000000000000000000f7
:10169000000000000000000000000000000000004a
:1016a000000000000000000000000000000000003a
:1016b000000000000000000000000000000000002a
:1016c000000000000000000000000000000000001a
:1016d000000000000000000000000000000000000a
:1016e00000000000000000000000000000000000fa
:1016f00000000000000000000000000000000000ea
:1017000000000000000000000000000000000000d9
:1017100000000000000000000000000000000000c9
:1017200000000000000000000000000000000000b9
:1017300000000000000000000000000000000000a9
:101740000000000000000000000000000000000099
:101750000000000000000000000000000000000089
:101760000000000000000000000000000000000079
:101770000000000000000000000000000000000069
:101780000000000000000000000000000000000059
:101790000000000000000000000000000000000049
:1017a0000000000000000000000000000000000039
:1017b0000000000000000000000000000000000029
:1017c0000000000000000000000000000000000019
:1017d0000000000000000000000000000000000009
:1017e00000000000000000000000000000000000f9
:1017f00000000000000000000000000000000000e9
:1018000000000000000000000000000000000000d8
:1018100000000000000000000000000000000000c8
:1018200000000000000000000000000000000000b8
:1018300000000000000000000000000000000000a8
:101840000000000000000000000000000000000098
:101850000000000000000000000000000000000088
:0c1860000000000000000000000000007c
:020000040000fa
:10186c001200fa0040079800510798006207980090
:10187c0073079800040f9800200420001040780093
:10188c000080fb004500de000080fb002007980074
:10189c00200520001000780010079800ff3ffc0086
:1018ac00200420009040780000ceb30080c070006f
:1018bc0020042000014878009e00900020052000a4
:1018cc00010878000004a9000184a8001040200041
:1018dc009040780080cfb30000c060000024a000ce
:1018ec001140200080487800004020009040780093
:1018fc0000ceb30080c0600000c8b30080cf5000a1
:10190c00f9ff3a000164a900b11120000041200048
:10191c0001087800514d200020412000010878007a
:10192c0070402000104078007f40600001ccb30074
:10193c000140700071402000804878005e009000eb
:10194c007f4060007f4060007f4060007f4160000e
:10195c00604020009040780000ceb30000c06000d2
:10196c000240700061402000804878008000eb004d
:10197c00a042200001087800a042200090007800ce
:10198c0080422000010878008042200090007800fe
:10199c0020422000010878002042200090007800ae
:1019ac0000422000010878008000eb00604320001a
:1019bc00010878006043200090007800404320002c
:1019cc00010878004043200090007800204320005c
:1019dc00010878002043200090007800004320008c
:1019ec00010878008000eb004041200001087800dd
:1019fc000004a8008080eb00604220000108780001
:101a0c0060422000900078004042200001087800dd
:101a1c00404220009000780020422000010878000d
:101a2c00204220009000780000422000010878003d
:101a3c000004a9000000eb003007980015003700e7
:101a4c003e00900080004000c02421000080400037
:101a5c00900178003e00900080004000c0242100de
:101a6c000080400010007800100178003e009000cb
:101a7c0080004000c025210000804000100078004c
:101a8c0000007100800978003e0090000000e80022
:101a9c0030079800be0090005e009000808f5000d0
:101aac00e7ff39005e009000fcf2b7000000eb008d
:101abc00300798000f003700be009000c02f2100a7
:101acc00808040000040eb00904098003e00900069
:101adc0000004000ea004000c02f21008080400040
:101aec000000eb00800878003e0090000000e80049
:101afc00300798003e009000e80f5000eeff3600d3
:101b0c000000210000027800234420006204200021
:101b1c0011c0b3007e009000e80b0700000021000c
:101b2c000002780003442000220220008040eb00d9
:101b3c006e009000e10b07000468a9000a04a900dc
:101b4c000a24a9000e0890006740600067406000fe
:101b5c0067406000674060004401dd001085200094
:101b6c0090407800f0c8b30000c0600002407000e4
:101b7c0011852000804878002468a8000c24a80057
:101b8c000c04a8004e0090006740600067416000a4
:101b9c00104020009040780080cfb30000c060005f
:101bac000240700011402000804878000040200066
:101bbc00104078000080fb004500de008080fb00b8
:101bcc004e009000808f5000f8ff3a002005200056
:101bdc0010007800000f7800ff3ffc002e009000f2
:101bec0067406000c500dd00200420001040780034
:101bfc007f40600001407000210420008048780084
:101c0c009e00780020052000010878000080fa0072
:101c1c00000006000a00fa00000f78001207980076
:101c2c002307980031079800440798001e0078009d
:101c3c001e019000ae0190000288be001e007800cc
:101c4c00be019000230098004e009000e30060005d
:101c5c001e007800310098009e0078000080eb0098
:101c6c00c00098000080fa00000006002600fa0070
:101c7c00300f9800410f9800225f98000080eb0015
:101c8c00200f980020042000104078000080fb00fa
:101c9c004500de000080fb00300798002005200086
:101cac001000780020079800ff3ffc002004200063
:101cbc009040780000ceb30080c07000200420005b
:101ccc0001487800ae009000200520000108780043
:101cdc000004a900fcd2bf000000fb000000e900da
:101cec00200f98000f003700ae089000c02f210085
:101cfc0000804000104090000004e00006003a0014
:101d0c00ae089000c02f21008080400010c0b300ae
:101d1c0090409800060037002e0890000000e90063
:101d2c00200f98002e0890000000e000eeff3d0010
:101d3c002e089000e10f400013003a00200520000f
:101d4c001000780010079800ff3ffc003e00900048
:101d5c0067406000c500dd002004200010407800c2
:101d6c007f40600001407000210420008048780012
:101d7c009e00900020052000010878000000eb0078
:101d8c00600f9800e50037003e089000ae08900008
:101d9c00410098002e08900000004000ea0040002e
:101dac00c02f2100008040003e09900002087800fe
:101dbc003e089000200090000000e0000c003a006b
:101dcc003e0890001000be0080007800f07f2000dc
:101ddc00008060004200dd00100f98000000eb0056
:101dec00000f98000000eb007007980046003700c9
:101dfc003e0890001000be0080007800f07f2000ac
:101e0c00008060004200dd000000a000100f980070
:101e1c003e0890001000be0002002000e3ff2100ed
:101e2c0000027800810278000200780083007800bc
:101e3c0000016200018062006102b800740f98001a
:101e4c00051798007e0890008e109000c000dd00f1
:101e5c0000002000700f9800011798007e08900079
:101e6c008e1090006112b800740f9800051798003e
:101e7c007e0990008e11900002007000838070002b
:101e8c004108de0001002000000f98003e08900081
:101e9c001000be0002802f0013002000000278000a
:101eac008102780002007800830078000001620053
:101ebc00018062006102b800141798002517980081
:101ecc001e109000ae109000c000dd00000020003d
:101edc0010179800211798001e109000ae1090005b
:101eec006112b80014179800251798001e11900065
:101efc00ae11900002007000838070008100d10050
:101f0c000080d300700798002e5890000000fb0052
:101f1c00ef0060007e0090000100700070079800d8
:101f2c002e089000c400dd0000002100008040005d
:101f3c009e099000030878002e0890004400dd00f4
:101f4c008080e80000002100008040000e0a900014
:101f5c00040878002e0890004400dd00e4004000e6
:101f6c000000210000804000fe029000050878006f
:101f7c002e0890004400dd00800078000000210055
:101f8c006600400000804000600798004e089000fa
:101f9c00500798000000eb00400798000b0037003a
:101fac00ce0090006e00900000814000ce009000aa
:101fbc005e009000008040001040780000497800de
:101fcc004e0090000000e800400798002e5890004a
:101fdc008000fb004e009000808f5000f0ff3e0010
:101fec002e08900080004000c0242100008040009a
:101ffc00100178002e08900080004000c0242100c1
:10200c000080400010007800900178002e089000ad
:10201c0080004000c02721000080400010007800a4
:10202c0080007800300020000100dd000080ea0014
:10203c0000806100000978002e08900080004000ac
:10204c00c024210000804000100278002e0890006f
:10205c0080004000c0242100008040001000780067
:10206c00100178003e089000b00190002e089000fe
:10207c0080004000c0272100008040001000780044
:10208c000018dd0000007100000a78002e08900096
:10209c0080004000c02421000080400090017800a6
:1020ac002e08900080004000c024210000804000d9
:1020bc0010007800100178002e089000800040007d
:1020cc00c026210000804000100078000000710044
:1020dc00800978002005200010007800000f78009f
:1020ec00ff3ffc003e00900067406000c500dd0033
:1020fc0020042000104078007f40600001407000f8
:10210c0021042000804878009e00780020052000e3
:10211c000108780011002000610f98006e089000f3
:10212c000080fa00000006000400fa00000f78009e
:10213c001e00780040009000e10f400003003a00c0
:10214c001000200010079800020037000000eb0080
:10215c00100798001e0090000080fa000000060096
:10216c000e00fa00881f780030079800420798008c
:10217c005307980061079800200420001040780055
:10218c000080fb004500de000080fb00200798006b
:10219c00200520001000780010079800ff3ffc007d
:1021ac00200420009040780000ceb30080c0700066
:1021bc0020042000014878009e009000200520009b
:1021cc00010878000004a8003e0090008000400048
:1021dc000020210000804000100478008041eb00ba
:1021ec006e0190004e009000de009000e9000700a8
:1021fc00000c78003e00900080004000002221007e
:10220c0000804000100478006e0190004e00900099
:10221c00de0090001d010700000c78000004a900ee
:10222c002005200010007800000f7800ff3ffc0014
:10223c002e00900067406000c500dd0020042000e7
:10224c00104078007f4060000140700021042000a5
:10225c00804878009e007800200520000108780056
:10226c004f0478000080fa00000006000e00fa000f
:10227c00881f780030079800420798005307980091
:10228c006107980020042000104078000080fb00bb
:10229c004500de000080fb00200798002005200090
:1022ac001000780010079800ff3ffc00200420006d
:1022bc009040780000ceb30080c070002004200055
:1022cc00014878009e00900020052000010878004d
:1022dc000004a8003e009000800040000024210073
:1022ec00008040001004780013c0b3006e01900011
:1022fc004e009000de009000a6000700000c780055
:10230c003e009000800040006024210000804000ce
:10231c00100478006e0190004e009000de009000da
:10232c00da000700000c78000004a900200520004a
:10233c0010007800000f7800ff3ffc002e0090008a
:10234c0067406000c500dd002004200010407800cc
:10235c007f4060000140700021042000804878001c
:10236c009e00780020052000010878004f047800ba
:10237c000080fa00000006000c00fa0030079800fc
:10238c004107980052079800200420001040780064
:10239c000080fb004500de000080fb002007980059
:1023ac00200520001000780010079800ff3ffc006b
:1023bc00200420009040780000ceb30080c0700054
:1023cc0020042000014878009e0090002005200089
:1023dc00010878000004a8003e009000e70f5000b0
:1023ec001d003e003e00900080004000c0282100ef
:1023fc000080400010007800800078003000200041
:10240c000100dd000080ea0080007800804120009f
:10241c001000780080806000804120000108780066
:10242c003e00900080004000c02821000080400049
:10243c0010007800800078004e0090008100dd00d4
:10244c0080412000100078008080700080412000c6
:10245c00010878001e0037003e0090006800500014
:10246c0080004000c028210000804000100078004f
:10247c0080007800300020000100dd000080ea00c0
:10248c0080007800a041200010007800808060005f
:10249c00a0412000010878003e0090006800500028
:1024ac0080004000c028210000804000100078000f
:1024bc00800078004e0090008100dd00a0412000db
:1024cc001000780080807000a04120000108780086
:1024dc00be009000100020000100dd00800078009c
:1024ec0040412000100078008080700040412000a6
:1024fc00010878003e00900000004000fa00400007
:10250c00c02f210000804000de0090000108780000
:10251c000004a9002005200010007800000f7800ae
:10252c00ff3ffc002e00900067406000c500dd00fe
:10253c0020042000104078007f40600001407000b3
:10254c0021042000804878009e007800200520009f
:10255c00010878000080fa00000006000200fa0072
:10256c00000f78009e007800100020000100dd00b4
:10257c000080ea00800078004041200010007800c4
:10258c008080600040412000010878000080fa0043
:10259c00000006000e00fa00008fbe002207980013
:1025ac00634798002e0090000000e0000a003a00fb
:1025bc009e007800f07f200000806000c500dd00e8
:1025cc006e4090000000fb004300dd008080700036
:1025dc00410798002a0037002e009000e10f5000b0
:1025ec0025003a009e007800f07f200000806000fb
:1025fc00c502dd0000002000018021009e01780052
:10260c001e02900000017800010078000281610038
:10261c00000062006103b800560798006707980035
:10262c005e009000ee009000c000dd000000200075
:10263c0050079800610798005e009000ee00900033
:10264c006113b80056079800670798005e01900068
:10265c00ee01900002007000838070004b08de00d9
:10266c000100200000807200800178000330a0007f
:10267c0043079800020037000003eb004607980060
:10268c004e0090000080fa00000006000c00fa00da
:10269c00008fbe00220798002e0090000000e00082
:1026ac0003003a000000eb003007980025003700cb
:1026bc002e009000e10f500020003a0000802f0007
:1026cc00f17f20009e0178001e029000000178002e
:1026dc000100780002816100000062006102b80014
:1026ec0044079800550798004e009000de009000bb
:1026fc00c000dd0000002000400798005107980042
:10270c004e009000de0090006112b8004407980063
:10271c00550798004e019000de01900002007000f9
:10272c0083807000c509dd004b00de000080710065
:10273c00cb08de0030079800020037000002eb00e7
:10274c00340798003e0090000080fa00000006005c
:10275c003600f800809fbe00829fbe00849fbe00a2
:10276c00869fbe001a00fa0020e42000104078007a
:10277c000080fb004200de00614060000004a2000b
:10278c0061406000614060004201dd0020e42000f7
:10279c0090407800b0cfb30000c0600002407000e1
:1027ac0021e42000804878000000eb0050079800de
:1027bc000000eb00400798000000eb003007980089
:1027cc006000b80010079800210798000040200016
:1027dc001040780061406000404f98000004a90050
:1027ec00a040200010407800624060000004e0002f
:1027fc00dc003200d20037008040200090007800ce
:10280c00f003200000806000400798004e0090000c
:10281c00c400dd00000021000080400010007800a2
:10282c00610060000004e000730032004e00900074
:10283c004400dd008080e8000000210000804000a2
:10284c001000780001002000f2ff2000030020009f
:10285c000002780081027800020078008300780082
:10286c0000016200018062006102b80074079800e8
:10287c00050f98007e0090008e089000c000dd00cf
:10288c000000200070079800010f98007e00900057
:10289c008e0890006112b80074079800050f98001c
:1028ac007e0190008e099000020070008380700001
:1028bc00c103dd00060020004e0090004400dd0046
:1028cc00e40040000000210000804000100078006f
:1028dc000100200002c02f0003002000000278003d
:1028ec008102780002007800830078000001620009
:1028fc00018062006102b800140f9800250f980047
:10290c001e089000ae089000c000dd000000200002
:10291c00100f9800210f98001e089000ae08900030
:10292c006112b800140f9800250f98001e09900032
:10293c00ae0990000200700083807000000040001f
:10294c008180480000037300818373004e00900067
:10295c00c400dd0000002100008040001000780061
:10296c0001002000c2ff21000300200000027800bb
:10297c008102780002007800830078000001620078
:10298c00018062006102b800340f9800450f980076
:10299c003e089000ce089000c000dd000000200032
:1029ac00300f9800410f98003e089000ce08900020
:1029bc006112b800340f9800450f98003e09900042
:1029cc00ce0990000200700083807000ce09dd00fb
:1029dc004200de0000807100c208de0000007300bf
:1029ec0081807300100798002107980010002000c8
:1029fc00000f78000d0037004e009000c400dd0081
:102a0c00000021000080400090007800c0ff2100f1
:102a1c00008060004200de000100200010079800da
:102a2c00210798000000eb00000f78004e0090008a
:102a3c00ef0f50000d0036004e009000700050005b
:102a4c0080007800100020000100dd000080ea000a
:102a5c008000780020422000100078008080600008
:102a6c0020422000010878000a003700ce009000b8
:102a7c00100020000100dd000080ea0080007800da
:102a8c00004220001000780080806000004220008e
:102a9c00010878004e0090004400dd00ee0040007c
:102aac0000002100008040009000780000f0210020
:102abc00008060004800de00300798003e00900067
:102acc0000004000fa004000c02f210000804000b0
:102adc00100078000000e000190032003e00900069
:102aec0000004000fa004000c02f21000080400090
:102afc00900278004e0090004400dd00e40040009d
:102b0c000000210000804000100078006f41600040
:102b1c004e0090004400dd00800078000000210091
:102b2c00660040000080400002427800800178007e
:102b3c001e0178001e009000ae0090000500010000
:102b4c0000422000100078000000e0002aff3a004c
:102b5c0020422000100078000000e00026ff3a0020
:102b6c000a24a900a04020001040780061406000b9
:102b7c000004e00037003200e09980000000e8001b
:102b8c00e09988000a04a9000000eb0050079800a7
:102b9c002b003700de009000c02f21000080400089
:102bac0010409000e14f500022003a005e0090006f
:102bbc0080004000c02421000080400010007800fc
:102bcc00100178005e00900080004000c0262100bb
:102bdc000080400010007800000061000000e00060
:102bec0014003a00de009000c02f210080804000cd
:102bfc000040eb00904098005e0090000000400008
:102c0c00ea004000c02f21000080400090007800b6
:102c1c000080eb00c00098005e00900000004000b7
:102c2c00ea004000c02f2100808040000000eb0033
:102c3c00800878005e0090000000e80050079800c3
:102c4c00fcd2bf008000fb005e009000808f500023
:102c5c00d0ff3e004e489000614060006141600032
:102c6c000040200090407800e0cfb30000c060002e
:102c7c000240700001402000804878000468a900e0
:102c8c000080fa004f03be004f02be004f01be0091
:102c9c004f00be003600f900004006001200fa009a
:102cac004007980051079800620798007307980036
:102cbc000457980020042000104078000080fb008e
:102ccc004500de000080fb00200798002005200056
:102cdc001000780010079800ff3ffc002004200033
:102cec009040780000ceb30080c07000200420001b
:102cfc00014878009e009000200520000108780013
:102d0c007e009000300798003e0090000000e80024
:102d1c001040780037f3b7003e0090001040780068
:102d2c0036f3b7002005200010007800000f780063
:102d3c00ff3ffc002e00900067406000c500dd00e6
:102d4c0020042000104078007f406000014070009b
:102d5c0021042000804878009e0078002005200087
:102d6c00010878000080fa00000006000000fa005c
:102d7c001e8ea8001e2ea8008000eb000032200042
:102d8c00010878008000eb00203220000108780058
:102d9c008000eb0040322000010878008000eb003e
:102dac0020332000010878008000eb002037200041
:102dbc00010878008000eb006032200001087800e8
:102dcc008000eb00e0322000010878008000eb006e
:102ddc000033200001087800103220009040780069
:102dec00c0cfb30080c060001032200001487800d2
:102dfc003032200010407800ff406000303220005c
:102e0c00014878002143a90000322000904078004e
:102e1c0000ceb30080c07000003220000148780062
:102e2c002083a9002063a9002023a9002043a80027
:102e3c002203a8003303a9002343a9005032200029
:102e4c009040780000ceb30000c060000014a000d9
:102e5c005132200080487800f1c7b3004032200086
:102e6c000148780025e3a90030322000904078001a
:102e7c00c0cfb30080c06000303220000148780021
:102e8c00f100200000332000010878002223a80064
:102e9c00203220009040780030c8b30000c06000a1
:102eac00c041b300213220008048780080322000dd
:102ebc009040780000ceb30000c060000024a00059
:102ecc00813220008048780028e3a900903220004d
:102edc009040780000ceb30000c060000004a00059
:102eec00913220008048780029e3a9002603a9002c
:102efc00603220009040780090cfb30080c060001a
:102f0c0060322000014878002703a90070322000ad
:102f1c009040780090cfb30080c0600070322000e9
:102f2c000148780021e3a8000080fa0000000600a8
:102f3c00a805fa00881f780043542000830147003d
:102f4c0080097800605420000000470001087800d8
:102f5c0080542000000047000208780064004700fd
:102f6c008163280002502000ff04090031587800ca
:102f7c00020050004050200000004700835f2800f2
:102f8c001f000900331878000004b1000000eb00aa
:102f9c0010079800ea023700805420000000470018
:102fac0010007800100078000000e00021003200d2
:102fbc0000302000100478006140b90077f507005c
:102fcc000002be00425a20000e0141000489be00de
:102fdc000800e0000a003d000200200003782400f5
:102fec00445a20000e0242001400be00d9f507001e
:102ffc000001be00445a20000e024200028abe00ac
:10300c004054200000004700100078001001be0062
:10301c00455a20008e8242001500be00cdf50700f7
:10302c000001be0040542000000047001000780052
:10303c000288be0080542000000047001080e80089
:10304c00100078000000e0002800320040542000fe
:10305c00000047009000780064814000215a200055
:10306c008e80400082087800203020001004780008
:10307c006140b90049f507000001be00e459200089
:10308c000e024200028abe000800e0000a003d0069
:10309c000200200003782400e55920008e824200b3
:1030ac001500be00abf507000001be00e45920007e
:1030bc000e024200028abe0040542000000047006d
:1030cc0090027800648042001001be00e459200098
:1030dc000e0242001400be009ef50700255a200087
:1030ec008e82420095027800808abe0080542000b7
:1030fc0000004700900078006480400010007800c9
:10310c000000e0002800320040542000000047007e
:10311c0010017800e8014100c25920000e01410065
:10312c000309780040302000100478006140b90099
:10313c001af507000002be00825920000e01410062
:10314c000489be000800e0000a003d0002002000d7
:10315c0003782400845920000e0242001400be00a3
:10316c007cf507000001be00845920000e024200cd
:10317c00028abe00405420000000470090027800f4
:10318c00688042001001be00845920000e024200eb
:10319c001400be006ff50700c55920008e82420056
:1031ac0095027800808abe00805420000000470001
:1031bc009000780066804000100078000000e0006d
:1031cc002800320040542000000047001001780015
:1031dc00ec014100625920000e0141000309780006
:1031ec0060302000100478006140b900ebf4070057
:1031fc000002be00225920000e0141000489be00cd
:10320c000800e0000a003d000200200003782400c2
:10321c00245920000e0242001400be004df5070098
:10322c000001be00245920000e024200028abe009a
:10323c004054200000004700900278006c8042004f
:10324c001001be00245920000e0242001400be00e2
:10325c0040f50700655920008e82420095027800e7
:10326c00808abe0080542000000047009000780047
:10327c0068804000100078000000e0002800320058
:10328c00405420000000470010017800f00141007c
:10329c00025920000e014100030978008030200003
:1032ac00100478006140b900bcf407000002be00b5
:1032bc00c25820000e0141000489be000800e00045
:1032cc000a003d000200200003782400c4582000ae
:1032dc000e0242001400be001ef507000001be00e5
:1032ec00c45820000e024200028abe004054200046
:1032fc000000470090027800708042001001be0070
:10330c00c45820000e0242001400be0011f5070044
:10331c00055920008e82420095027800808abe00fa
:10332c008054200000004700900078006a80400024
:10333c00100078000000e00028003200405420000b
:10334c000000470010017800f4014100a258200051
:10335c000e01410003097800a03020001004780011
:10336c006140b9008df407000002be0062582000d5
:10337c000e0141000489be000800e0000a003d0077
:10338c000200200003782400645820000e02420042
:10339c001400be00eff407000001be0064582000ca
:1033ac000e024200028abe0040542000000047007a
:1033bc0090027800748042001001be006458200016
:1033cc000e0242001400be00e2f40700a5582000d3
:1033dc008e82420095027800808abe0080542000c4
:1033ec0000004700900078006c80400010007800ce
:1033fc000000e0002800320040542000000047008c
:10340c0010017800f8014100425820000e014100e3
:10341c0003097800c0302000100478006140b90026
:10342c005ef407000002be00025820000e014100ad
:10343c000489be000800e0000a003d0002002000e4
:10344c0003782400045820000e0242001400be0031
:10345c00c0f407000001be00045820000e02420018
:10346c00028abe0040542000000047009002780001
:10347c00788042001001be00045820000e02420069
:10348c001400be00b3f40700455820008e824200a1
:10349c0095027800808abe0080542000000047000e
:1034ac00900078006e804000100078000000e00072
:1034bc002800320040542000000047001001780022
:1034cc00fc014100e25720000e0141000309780085
:1034dc00e0302000100478006140b9002ff40700a0
:1034ec000002be00a25720000e0141000489be005c
:1034fc000800e0000a003d000200200003782400d0
:10350c00a45720000e0242001400be0091f40700e4
:10351c000001be00a45720000e024200028abe0029
:10352c004054200000004700900278007c8042004c
:10353c001001be00a45720000e0242001400be0071
:10354c0084f40700e55720008e8242009502780033
:10355c00808abe0080542000000047009000780054
:10356c0070804000100078000000e000280032005d
:10357c00405420000000470002022000900141004e
:10358c00825720000e014100030978000031200011
:10359c00100478006140b90000f407000002be007e
:1035ac00425720000e0141000489be000800e000d3
:1035bc000a003d000200200003782400445720003c
:1035cc000e0242001400be0062f407000001be00af
:1035dc00445720000e024200028abe0040542000d4
:1035ec000000470005022000108042001001be00c0
:1035fc00445720000e0242001400be0055f4070090
:10360c00855720008e82420095027800808abe0089
:10361c008054200000004700900078007280400029
:10362c00100078000000e000280032004054200018
:10363c000000470042022000900141002257200068
:10364c000e0141000309780020312000100478009d
:10365c006140b900d1f307000002be00e256200021
:10366c000e0141000489be000800e0000a003d0084
:10367c000200200003782400e45620000e024200d1
:10368c001400be0033f407000001be00e456200015
:10369c000e024200028abe00405420000000470087
:1036ac0045022000108042001001be00e4562000ac
:1036bc000e0242001400be0026f40700255720001d
:1036cc008e82420095027800808abe0080542000d1
:1036dc0000004700900078007480400010007800d3
:1036ec000000e00028003200405420000000470099
:1036fc008202200090014100c25620000e014100c0
:10370c000309780040312000100478006140b900b2
:10371c00a2f307000002be00825620000e014100f9
:10372c000489be000800e0000a003d0002002000f1
:10373c0003782400845620000e0242001400be00c0
:10374c0004f407000001be00845620000e02420063
:10375c00028abe0040542000000047008502200071
:10376c00108042001001be00845620000e02420060
:10377c001400be00f7f30700c55620008e824200ed
:10378c0095027800808abe0080542000000047001b
:10379c009000780076804000100078000000e00077
:1037ac00280032004054200000004700c2022000d4
:1037bc0090014100625620000e014100030978007f
:1037cc0060312000100478006140b90073f30700e9
:1037dc000002be00225620000e0141000489be00ea
:1037ec000800e0000a003d000200200003782400dd
:1037fc00245620000e0242001400be00d5f3070030
:10380c000001be00245620000e024200028abe00b7
:10381c004054200000004700c502200010804200e8
:10382c001001be00245620000e0242001400be00ff
:10383c00c8f30700655620008e824200950278007e
:10384c00808abe0080542000000047009000780061
:10385c0078804000100078000000e0002800320062
:10386c00405420000000470002032000900141005a
:10387c00025620000e01410003097800803120001f
:10388c00100478006140b90044f307000002be0048
:10389c00c25520000e0141000489be000800e00062
:1038ac000a003d000200200003782400c4552000cb
:1038bc000e0242001400be00a6f307000001be0079
:1038cc00c45520000e024200028abe004054200063
:1038dc000000470005032000108042001001be00cc
:1038ec00c45520000e0242001400be0099f30700dc
:1038fc00055620008e82420095027800808abe0018
:10390c008054200000004700900078007a8040002e
:10391c00100078000000e000280032004054200025
:10392c00000047004203200090014100a2552000f6
:10393c000e01410003097800a0312000100478002a
:10394c006140b90015f307000002be00625520006b
:10395c000e0141000489be000800e0000a003d0091
:10396c000200200003782400645520000e0242005f
:10397c001400be0077f307000001be006455200060
:10398c000e024200028abe00405420000000470094
:10399c0045032000108042001001be006455200039
:1039ac000e0242001400be006af30700a555200069
:1039bc008e82420095027800808abe0080542000de
:1039cc0000004700900078007c80400010007800d8
:1039dc000000e000280032004054200000004700a6
:1039ec008203200090014100425520000e0141004d
:1039fc0003097800c0312000100478006140b90040
:103a0c00e6f207000002be00025520000e01410044
:103a1c000489be000800e0000a003d0002002000fe
:103a2c0003782400045520000e0242001400be004e
:103a3c0048f307000001be00045520000e024200ae
:103a4c00028abe004054200000004700850320007d
:103a5c00108042001001be00045520000e024200ee
:103a6c001400be003bf30700455520008e82420037
:103a7c0095027800808abe00805420000000470028
:103a8c00900078007e804000100078000000e0007c
:103a9c00280032004054200000004700c2032000e0
:103aac0090014100e25420000e014100030978000e
:103abc00e0312000100478006140b900b7f2070033
:103acc000002be00a25420000e0141000489be0079
:103adc000800e0000a003d000200200003782400ea
:103aec00a45420000e0242001400be0019f307007b
:103afc000001be00a45420000e024200028abe0047
:103b0c004054200000004700c503200010804200f4
:103b1c001001be00a45420000e0242001400be008e
:103b2c000cf30700e55420008e82420095027800c9
:103b3c00808abe001e0090000000e800100798006c
:103b4c009e00900010032000808f500012fd340066
:103b5c000000eb00100798002d0037001e009000ad
:103b6c0000004000800078008054200000004700d6
:103b7c0010804000100078000000e00021003200ae
:103b8c001e0090004200dd008000780040542000b0
:103b9c0000004700108440001e0090004200dd0031
:103bac008000780040542000000047001080400046
:103bbc001000be000200200083242400a2f20700a3
:103bcc00323323003305240041f3070002002000a8
:103bdc00034824009cf207000002be001e00900067
:103bec004200dd0080007800605420000000470097
:103bfc00108040001001be000400be00d5f207008a
:103c0c00008cbe001e0090000000e8001007980019
:103c1c001e009000ef0f5000d0ff34004f047800ce
:103c2c000080fa00000006006a00fa000e80e8002e
:103c3c00c1b3280007000900315878008000b1009a
:103c4c0068004000c20520008000eb00ddf3070097
:103c5c004203070081030700ba0007000000370089
:103c6c00309a8000419a8000303798004137980094
:103c7c00000000003e309000ce309000bd000700e8
:103c8c000200200003f8230042f207000000e000cd
:103c9c000100320002003700522ea800010037004c
:103cac00522ea90000000000309a8000e10f500055
:103cbc0002003a00420ea800e9ff3700420ea900ac
:103ccc00e7ff37004600fa00601f9800711f98004c
:103cdc00022798001327980044c798006a004700f1
:103cec0001ba280031000900315878002003b100d6
:103cfc0020042000104078000080fb004500de000e
:103d0c000080fb0040079800200520001000780080
:103d1c0010079800ff3ffc00200420009040780022
:103d2c0000ceb30080c07000200420000148780051
:103d3c009e00900020052000010878001e209000b5
:103d4c00209a88004ec090008000fb0000fd2f00e0
:103d5c0000804000109a8800200520001000780098
:103d6c00000f7800ff3ffc004e00900067406000a1
:103d7c00c500dd0020042000104078007f4060006a
:103d8c000140700021042000804878009e007800db
:103d9c0020052000010878000080fa0000000600d1
:103dac004600fa00601f9800711f980002279800c7
:103dbc001327980044c798006a00470021bd2800cb
:103dcc0031000900315878002003b1002004200094
:103ddc00104078000080fb004500de000080fb00f6
:103dec00400798002005200010007800100798006c
:103dfc00ff3ffc00200420009040780000ceb30070
:103e0c0080c0700020042000014878009e009000c3
:103e1c0020052000010878001e209000009a8800e0
:103e2c001e209000f09988002005200010007800da
:103e3c00000f7800ff3ffc004e00900067406000d0
:103e4c00c500dd0020042000104078007f40600099
:103e5c000140700021042000804878009e0078000a
:103e6c0020052000010878000080fa000000060000
:103e7c004600fa00601f9800711f980002279800f6
:103e8c001327980044c798006a00470041c02800d7
:103e9c0031000900315878002003b10020042000c3
:103eac00104078000080fb004500de000080fb0025
:103ebc00400798002005200010007800100798009b
:103ecc00ff3ffc00200420009040780000ceb3009f
:103edc0080c0700020042000014878009e009000f3
:103eec0020052000010878001e209000409a8800d0
:103efc004ec090000000fb00309a88002005200086
:103f0c0010007800000f7800ff3ffc004e0090007e
:103f1c0067406000c500dd002004200010407800e0
:103f2c007f40600001407000210420008048780030
:103f3c009e00780020052000010878000080fa001f
:103f4c00000006000000fa008000eb009210200038
:103f5c00030020002000200081f80700e2f321007c
:103f6c00310020002000200003f907000080fa0037
:103f7c00000006001000fa00600798007107980016
:103f8c000000eb00500798000000eb004007980081
:103f9c006000b80020079800310798006000b80056
:103fac00008fbe000000eb00500798002c0037007b
:103fbc007e019000ee0090005e00900000805000aa
:103fcc000000410090407800e0c2b30080cf500068
:103fdc000b003a005e0090000000e00008003a0080
:103fec004e009000cf80de006cf107000001be0097
:103ffc001e00be0094f10700008fbe000d003700bc
:10400c007e019000ee0090005e0090000080500059
:10401c0000004100104078008000fb0000fd2f00e4
:10402c0000804000cf80de005cf107002007980084
:10403c00310798002e019000be0190001e00be00ba
:10404c00c4f10700008fbe004e0090006a004000d3
:10405c00400798005e0090000000e80050079800b0
:10406c00ee0090005e009000808f5000d0ff3c006e
:10407c002e009000be0090000080fa0000000600a8
:10408c001200fa00881f7800000f780012079800c1
:10409c002307980072712b00138d23001e009000d3
:1040ac00ae0090003bf107000000e000010034007e
:1040bc00030037000040eb00404f98000c00370025
:1040cc008040eb00414f980022972f00f3f723001c
:1040dc001e009000ae009000fbf107000000e00015
:1040ec0001003d000200370010c0b300404f9800a3
:1040fc00ce4890000104e0000500320020972f000c
:10410c00f1f7230070079800010f980004003700a6
:10411c001e009000ae00900070079800010f9800f0
:10412c007e0090008e0890001007980021079800e0
:10413c009e007800e6804000510798009e007800b1
:10414c0064804000100478006140b90013f107004e
:10415c0030079800410798000800e00007003d0078
:10416c0002002000037824003e009000ce00900056
:10417c0078f1070030079800410798001e01900065
:10418c00ae0190003e009000ce009000d0f10700f0
:10419c0003f20700de009000800878004f047800de
:1041ac000080fa00000006000c00fa00881f78005e
:1041bc00000f780012079800230798003407980026
:1041cc0045079800214f98002e4890000004e0000d
:1041dc004400320000122000104078000043b2006e
:1041ec000004e0000a003a001e009000ae009000af
:1041fc000001be0057f107000001be0000c22b00f9
:10420c00e1cb240010f1070010079800210798005b
:10421c0000122000104078000043b200f04f500014
:10422c000b003a0002002000031824001e0090002e
:10423c00ae009000a6f107000001be0000c22b00ea
:10424c00e1cb240000f1070010079800210798002b
:10425c00001220001040780002c3b30082406000be
:10426c0000c2b30080cf50000b003a0002002000c7
:10427c00033024001e009000ae00900094f1070063
:10428c000001be0000c22b00e1cb2400eef00700c1
:10429c0010079800210798000012200010407800a9
:1042ac0002c3b3008240600000c3b30080cf500053
:1042bc0016003a0002002000034024001e0090006b
:1042cc00ae00900082f107000001be0000c22b007e
:1042dc00e1cb2400dcf007001007980021079800c0
:1042ec000a0037001e009000ae0090000001be00d6
:1042fc0018f107000001be0000c22b00e1cb240026
:10430c00d1f0070010079800210798009e00780054
:10431c000000eb00800878009e80e8000000eb00b5
:10432c008008780002f02f00f37724001e00900024
:10433c00ae00900064f107000000e0002b003c0090
:10434c001e007800640440001e009000ae00900037
:10435c0093f10700000c78003e019000ce01900014
:10436c001e00780046ff07009e80e8001e80e800d3
:10437c0010007800f001b300800878001e81e8007e
:10438c001e80e80090007800000021000080700082
:10439c00000978002e4890000004e000070032006d
:1043ac001e0078009000780000c020008080700013
:1043bc001e00780001087800060037001e00780007
:1043cc009000780000c02100808070001e007800f2
:1043dc00010878001e00780010007800800078003a
:1043ec005100b3001e007800010878004f047800db
:1043fc000080fa00000006003200f800881f7800e8
:10440c000820200098018800000000004f0478006c
:10441c000000fa000048a9000080fa003200f90000
:10442c00004006000400fa00000f78001107980005
:10443c001e0090000074a100004178000274a100dd
:10444c00406c20009040780000c8b30000c06000b1
:10445c0002407000416c2000804878008000eb0026
:10446c0000222000010878008000eb0020222000b0
:10447c00010878002082a90023c2a9002002a9000b
:10448c00002220009040780090cfb30080c06000e4
:10449c0000222000014878002062a90023a2a90074
:1044ac0023e2a90021e2a8002342a80080222000d8
:1044bc001e08780080222000100078000000e00028
:1044cc0005003200802220009000780000102000af
:1044dc00808f500007003a0020a2a8000022200084
:1044ec00104078000042b2000004e000fbff3a00ec
:1044fc000100370020a2a9000168a9005084200007
:10450c009040780000c7b30080c070005084200039
:10451c00014878002168a8000188a9006084200067
:10452c009040780080cfb30000c060005040b300d2
:10453c0061842000804878002188a9000074200044
:10454c0010007800430007008000eb00007420008e
:10455c00010878000080fa00000006000400fa0050
:10456c00004f780011079800f0c2b3009e4f100066
:10457c000c00340090c3b3009e4f100009003c00a7
:10458c001e00900010007800ea01b8001e00fb002d
:10459c008000410000fd2f00808040001e00900034
:1045ac00010878001e00fb000080fa0000000600e5
:1045bc000a00fa002007980031079800420798007b
:1045cc0010002000000f78000000eb00100798008e
:1045dc001a003700be0090001e00900000805000b2
:1045ec00800078002e009000008040008001e900df
:1045fc004e00900010007800800078001e007800bb
:10460c00ea01b800110009008280d8008000fd008a
:10461c001e017800110009000280d8000043b00090
:10462c00804978001e007800ea00b800000f78007e
:10463c001e0090000000e80010079800be009000db
:10464c001e009000808f5000e2ff3e000080fa00b8
:10465c00000006000c00fa00100798003022200021
:10466c0010407800614060000004e000fbff320065
:10467c009e00900000002f00008060004c00de00c7
:10468c00000f7800900020009e0f100004003600f0
:10469c00700320001e0040005007980003003700f4
:1046ac00000320001e004000500798005e009000a0
:1046bc00000f7800402220001e0878009e00900019
:1046cc0000f02000008060004800de00000f780041
:1046dc00900020009e0f1000040036007003200094
:1046ec001e00400040079800030037000003200024
:1046fc001e004000400798004e009000000f78000c
:10470c00402220001e0878009e009000000f200020
:10471c00008060004400de00000f78009000200054
:10472c009e0f100004003600700320001e00400095
:10473c003007980003003700000320001e004000e3
:10474c00300798003e009000000f780040222000b7
:10475c001e0878001e0090006f0f60009000200073
:10476c009e0f100004003600700320001e00400055
:10477c002007980003003700000320001e004000b3
:10478c00200798002e009000000f78004022200097
:10479c001e087800d100200040222000010878007b
:0847ac000080fa000000060085
:020000040000fa
:1047b4004e13000002000000820000000000000010
:1047c4003e1300000c000000800000004a130000ab
:1047d4000400000082000000000000003f00000010
:1047e400001200009c00000082000000400444000d
:1047f400044804004c0450000454040058045c00b1
:104804000460040064046800046c04007004740010
:10481400047804007c044200044604004a044e0068
:104824000452040056045a00045e04006204660044
:10483400046a04006e047200047604007a047e00a4
:1048440004300400340438000432040036043a000e
:104854000430040030043200043204003404340010
:10486400043604003604800000008000800000004c
:1048740080800000008080000000800008000000ac
:1048840008080000000808000000080008000000f4
:1048940008000000080000000008000000000800f4
:1048a40000000000080000000002000004000600f0
:1048b400000800000a000c00000e000000100000b8
:1048c4000002000080000000fc1200004200000012
:1048d400800000009c1200006000000082000000c4
:1048e400000b10000b200b00300b40000b500b0092
:1048f400600b70000b0c0b001c0b2c000b3c0b0012
:104904004c0b5c000b6c0b007c0b0e000b1e0b00a5
:104914002e0b3e000b4e0b005e0b6e000b7e0b004d
:10492400020b12000b220b00320b42000b520b0045
:10493400620b72000b040b00140b24000b340b00ed
:10494400440b54000b640b00740b08000b180b0091
:10495400280b38000b480b00580b68000b780b0031
:04496400000000004f
:020000040000fa
:104968000000fa00407420009040780000ceb300a8
:1049780080c0600040742000014878004074200026
:1049880010407800f2c3b3008240600040742000f9
:1049980001487800607420009000780000e02f0043
:1049a8000080600051032000010070006174200045
:1049b8008008780020742000104078000042b2007f
:1049c8000004e000fbff32008080eb0000e32000e1
:1049d800010878008080eb0000e1200001087800e1
:1049e8008080eb0000e22000010878008000eb00e6
:1049f80000e5200001087800010f200000e42000f5
:104a0800010878008000eb00e0e22000010878004f
:104a18008000eb00e0e4200001087800504ea80078
:104a2800506ea9000080fa00000006000000fa009d
:104a3800c06820009040780000ccb30000c060003f
:104a48000004a000c168200080487800710520009b
:104a5800a001200074fe07000080fa000000060094
:104a68000000fa00406d20009040780000c8b300b4
:104a780000c0600021c6b30001407000416d2000f5
:104a880080487800106920009040780000ccb3007e
:104a980000c06000e040b300116920008048780041
:104aa8007400200043002000320020008100200014
:104ab8000000eb006bf307000080fa00000006001e
:104ac8000a00fa00000f7800214798002207980092
:104ad80033079800440798001e00780080004000c3
:104ae800c029210000804000100178002e4090006d
:104af8000000fb00cd00dd000002200000807000f7
:104b0800000978001e00780080004000c02a2100bb
:104b18000080400010007800be0090000108780076
:104b28001e00780080004000c02b2100008040005b
:104b38009000780070002000800878001e0078003f
:104b480080004000c02c2100008040001000780048
:104b5800ae009000010878001e0078008000400038
:104b6800c02d21000080400010007800ce00900089
:104b7800010878001e00780080004000c02921004c
:104b880000804000100178001e007800800040007e
:104b9800c0292100008040001000780090007800b3
:104ba8000000280000807000000978000080fa00ea
:044bb80000000600f3
:00000001FF
