:020000040000fa
:080000000002040000000000f2
:020000040000fa
:10040000cfbb21000eff2d000e0188000000000070
:100410000c00070000d32200010020000f0007009d
:10042000000020000000e000020032000000020096
:1004300000000000a8350200000000000040da00c3
:100440000000fe00200420000000e0000200320056
:10045000002020009001880000000600a102880012
:10046000800078000000eb001a003700e2804000b6
:1004700054a0b4009101ba00e280400054a0b4003e
:100480009102ba00e280400054a0b4000002eb00e8
:10049000472bde00f507b200a6018800602ce100c2
:1004a00008003a000049eb000201e80002003900b0
:1004b0003420ec0002f0a0008301e900f9ff3e00c7
:1004c000040037006128e100010032000082eb00e7
:1004d000040007001101ba000200e000e3ff3a0047
:1004e0000000060004d0a300e20f49001c00390000
:1004f000810278003549ba000201e80002003900a3
:100500003420ec0002f0a0008301e9000f0032006b
:100510002549ba000201e800020039003420ec004d
:1005200002f0a0008301e900080032000400e000ae
:100530000600320015c9ba000201e80002003900c5
:100540003420ec0002f0a0008301e9008180e80083
:1005500054a0b4000300e000e2ff3a0000000600ef
:100560009102ba00055978008301e900f7ff3200d3
:10057000c82ade00055978008301e900f3ff320044
:100580000400e000f1ff320011d9ba00eeff37009d
:100590000040da000000fe0003f0a200889fbe00c9
:1005a0008a9fbe008c1f780041010700480133007c
:1005b0006450e1004f0032006420e100520032003c
:1005c00003826c0007003b000905d0000306d00041
:1005d000820f54000c065d00020039000200320058
:1005e00089017800030678008582550004003d00eb
:1005f0000003fd008103fd008502ea008b854200b7
:10060000840f720002003b0060001000e0801800c0
:100610006011b8000005eb007a28e1000a003900fb
:1006200006007800c75ddd00f707b200878075001f
:100630002d003700828171000a0178006105600099
:100640008180d1000080d3008502e900f9ff3b00e2
:10065000060440008784480002003b006004140048
:10066000e0841c000988a300070032008a81710021
:1006700082817100610164008904d1000884d30083
:100680008b05e800170037000978a30013003a0033
:100690000b00e000130034008b05e900080444005f
:1006a00089844c000a4474000978a3000d003a00c4
:1006b0000b00e000070034008b05e900080444004b
:1006c00089844c0001003a000b0020000978a30047
:1006d000f7ff32000001eb00020037008281710059
:1006e0000a017800b70007000cf0a70001f0a00095
:1006f000000137006420e10002003a00838f6c00a3
:10070000000133000801be000200be00f9003700fe
:10071000889fbe008a9fbe008c1f7800e4000700ff
:10072000eb00330003866c006450e1002e003200c1
:100730006420e100330032006150e1002f003200fc
:100740006120e1003100320085855500eb07b000e3
:1007500009002000080420000500370008044400b8
:1007600089844c000a0031000603430087834b0054
:100770000001530081815b00f8ff33000203be00db
:100780000800a0000804440089844c00f6ff3900ea
:10079000c639dd0083017300010032001300200020
:1007a0008904d1000884d3000998a3000500320011
:1007b0000800a7000300a0008904d1000884d3002a
:1007c0008b05e8008904d1000884d3000001eb0008
:1007d0000281d2007b00070001f0a1000cf0a7000d
:1007e00001f0a000c30037006420e100c500320022
:1007f0000801be000200be00f7ff37006120e100e3
:10080000c00032006000b800f3ff37000000200095
:1008100001f82700f0ff370014002000f000370037
:10082000f4ff2f00ee0037000001be008b00070030
:100830000470a70003f0a1006509b10016003200a2
:100840000d0035006828e10006003500f0ff2f009c
:10085000f1ff27000300e00013003b000100280027
:100860000000050000004000818048008502e9008a
:10087000fcff3a0008003700f88f420002003c00fd
:100880008000eb00000005008100d1000080d30053
:100890008502e800fcff3a000300e00002003b0094
:1008a00060001000e0801800000006000001be009b
:1008b0006a0007000470a70003f0a10003f8a3007a
:1008c00013003a006509b10010003200090035003c
:1008d0006928e10002003500010028000000050041
:1008e00000004000818048008502e900fcff3a00da
:1008f00000000600f88f4200050035008100d1009d
:100900000080d3008502e800fcff3a0000000600ea
:100910008000eb0000000500889fbe008a9fbe009b
:10092000010578000100e0000400350008003c00eb
:100930000000e000200032000500370060001000d9
:10094000e080180002003b0001f02c001a00370084
:100950000004be006011b8006b0920000982cf00be
:10096000020039000882cf000441b0006942520001
:100970000e00320008003b008281710061016400ba
:100980008904d1000884d3008b05e8000442e80004
:10099000f9ff3a00050037000804440089844c0040
:1009a0008b05e9000442e900fbff3a00050007005f
:1009b0000af0a70001f0a0004f05be004f04be00e2
:1009c0000000060081002000618055000b003d0002
:1009d0000b00200061fe2f000100e1001d0034002b
:1009e00082817100610164008904d1000884d30010
:1009f0000000e800faff3a00710020006100640086
:100a0000030070000200600009003200610444002d
:100a1000e0844c000988a500050032008b05e80041
:100a20006808e10002003a008904d1000884d3007c
:100a3000f20f20000258e10005003d00c75ddd0017
:100a4000f907b200898075000800780000000600f0
:100a50000bf827008b00780000000500c70ade00b5
:100a6000f107b200f50fb20008003200e1cf4200fa
:100a7000020032000170a00024000500810f700008
:100a8000010032000408050044000500810f7000d9
:100a900002003a00140005008502e9000000400051
:100aa00081c04800fcff3b000170a000240005004d
:100ab0000004be00e9ff07000003be000405be00fd
:100ac0000200be00e5ff0700844f7500000006002d
:100ad0000200be006450e100050036006420e10021
:100ae000020036000968a30001003a000800be00b9
:100af0000160a0004f0678004f05be004f04be0005
:100b000000000600f0ff2f00f1ff2700f9ff37007b
:100b1000889fbe008a9fbe008c1f7800e4ff0700fc
:100b2000ebff330003866c006450e10024003200c8
:100b30006420e100270032006150e1002200320011
:100b40006120e100210032008b854200eb07b100fb
:100b50000134b800003ab8000804420089844a0011
:100b6000013ab8000030b8008880400009014a000e
:100b70000400330000004000818048000201490069
:100b80008b05e900c909dd00830170000100320016
:100b900013002000c814de004814dd004709de0001
:100ba0001200b200c808de000884700085ff07004c
:100bb00001f0a1000cf0a70001f0a000cdff37006c
:100bc0006120e100cfff32000801be000200be003c
:100bd000f7ff37006150e100fcff3a00c9ff370022
:100be000889fbe008a9fbe00841f7800b0ff070068
:100bf0004f00780011003300f0ff2f00838f6c004e
:100c000006003b00040565000a00a7000800370045
:100c100009f0a6001000200008003700820f5400e1
:100c2000838f5c00030039001000200001003e00ab
:100c30000000200009f0a7000000ea004f05be00f8
:100c40004f04be000000e000000006000c00fa00a7
:100c5000889fbe0000047800cfb09700f0ff270007
:100c6000d0bf9f008004eb0099bf9f0088bf9f000a
:100c7000a8bf9f00200c2000b0bf9f0078815700c4
:100c8000708057005f0007000fb897000948780090
:100c90000fb8970008045000080078004f04be0009
:100ca0000080fa0000000600889fbe008a1f7800be
:100cb000804078000004e00021003d008040ea0010
:100cc000d0c6b30080cf5000090034008104fb007f
:100cd00042062000110009008204d80000017800bb
:100ce000010078004311dd006a9721001f003700e2
:100cf0000100fb006397210039003700a2002000ab
:100d0000110009000200d8000001780001007800fd
:100d10004311dd00030141004300dd0003004000fa
:100d20003002be002003be0042209000d22090007e
:100d3000f221900062219000290707002e00370061
:100d4000d0c6b30080cf5000230034008104fb00e4
:100d500042062000110009008204d800000178003a
:100d6000010078004311dd006aa221000a01410060
:100d7000a8002000110009000800d8004300dd0091
:100d80000a00400040229000d02290006023900092
:100d9000f02390000288900092889000b289900021
:100da000228990000e070700801f7800010278005a
:100db000110009008804d8000102fd004f007800ee
:100dc0000402fb004322dd000a0242005403be007d
:100dd0004402be00d8ff37000100fb0063a22100df
:100de000eacf5000c5ff3c004300dd000300400097
:100df0005001be004000be004f0578004f04be0009
:100e0000000006004f03b000889fbe008a9fbe000e
:100e10008c9fbe008e1f7800e0b79f00f1b79f0047
:100e200082bf9f000000eb00b0b79f00670437004f
:100e30000001eb0050c2b30080cf50000900320027
:100e40000100fb00efb097006d040700e10f4000c8
:100e50005e043200bfb097008100e800b1b79f0088
:100e60005a043700ffb1970093407800d0c2b30016
:100e700080cf50000c00320007003c006d40500055
:100e800080cf50000d0032006b40400080cf5000fa
:100e900019003a000e00370000c3b30080cf5000a5
:100ea00015003a000f0037000230a0007fb2970013
:100eb0000402e800f4b79f00eaff37000200a00038
:100ec000ffb297008502e800f5b79f00e5ff370005
:100ed0000210a0007fb697000c06e800fcb79f0048
:100ee000e0ff37000220a0007fb097000000e8007c
:100ef000f0b79f00dbff37000218a30001003200ab
:100f00000200a1000238a300010032000220a1006b
:100f10000100fb0003fd2f0003004000e90f50001b
:100f20000f003e008000eb00c1a79f004fa297007a
:100f3000ea20b800ffb297009500fb0001004000d6
:100f400003004000c0a79f005500fb00f5b79f00bd
:100f500003004000e90f50000d003e00f3ff370092
:100f60000006eb00cca79f00a0c2b30080cf5000ca
:100f700007003a000fb89700c000780080bf9f00bc
:100f8000c1a79f00ffb197008301e800f3b79f005e
:100f9000e0c2b3007fb29700944f100021003a00e6
:100fa000820678000de0a0008400e8006440500054
:100fb000914f100004003200f1b79f008002eb0057
:100fc000c5b79f00100037000fbe97004c00780097
:100fd0008cbf9f00c0b79f00ffb097008180e800e2
:100fe000f1b79f0013003700cfb19700ea18b8009f
:100ff0000100400002004000c0b79f007fb2970090
:101000000402e800f4b79f00ffb297009500fb00d0
:1010100002fd2f0002804000e90f5000f2ff360071
:1010200004003700820678000dc0a0000006eb0027
:10103000ccb79f007fb09700b0407800f0b79f001a
:1010400081c79f00c0c6b30080cf5000140032009b
:1010500009003c006940500080cf5000650032001c
:101060006340400080cf5000130032000104e000d4
:10107000dc0332007e00370050c7b30080cf500041
:101080007f0032006340400080cf50000d003200ee
:101090006540500080cf500075003a000c003700ca
:1010a000000028000d48a30001003a0000012000c4
:1010b00080867600dfff37000d0778000ea0a000c5
:1010c000710037000d0778000e70a0006e00370029
:1010d0008fb897004100780081bf9f00000478001e
:1010e0000000e00001003a00c8b921008004eb00d4
:1010f000010037008104e80089007800088044007e
:101100001004e000fbff3a004fb197000200e0003e
:1011100003003200890f5100010031008204780081
:101120000007eb00cfa19700898f51000100360026
:10113000098751004368de00e106600019003a00ab
:101140000d06780009003700efb09700000220007c
:10115000ab030700e10f4000030032003fb29700ed
:101160000402e800b4b79f000c06e8008e0f56009a
:10117000f5ff3a000087eb000a003700880078008e
:101180003100fb0001047800efb097009c030700da
:10119000e10f400003003200bfb297008502e80073
:1011a000b5b79f000900e90080047800e10f400016
:1011b000f2ff3a000006eb000d00e0000a003a00e2
:1011c00082033700efb09700000220008c03070075
:1011d000e10f4000030032003fb097000000e8003c
:1011e000b0b79f000c06e8008e0f5600f5ff3a00de
:1011f000760337008fb897004100780081bf9f00c9
:10120000cf80de0001017800820178000205be0077
:101210000004be000203be000002be004822de0041
:10122000482edd000402760084c79f000d48a3000d
:101230000a0032000404e00008003200e14f4200de
:101240000600320011fc2f0001804700044878009e
:1012500018409800290020000200370090c79f0026
:101260001900200012fc2f0002844700a6ff37005f
:1012700003fc2f000384470019002000a2ff370061
:101280000d0778000e0cb30000702000000267000c
:10129000270232000ec8a3000200320064002000c2
:1012a000c4b79f000e48a300050032000fba970094
:1012b0004401be004400be0084bf9f00040037000c
:1012c0008fba97004500be0085bf9f003a05070012
:1012d000f0af9f0081b79f0092b79f00a3b79f0018
:1012e0006022b8006033b8007fa897008fb09700e5
:1012f0001fb19700afb19700810407000000e00024
:101300000a003d007fa897008fb097001fb197009b
:10131000afb1970003f0a200f0af9f0081b79f002c
:1013200092b79f00a3b79f003e00b3000000eb0000
:10133000a0a79f006022b8006033b8007fa8970084
:101340008fb097001fb19700afb19700d00407008e
:101350000000e000340032007fa897008fb09700b3
:101360001fb19700afb197001406070043fc2f0090
:1013700003814700970507002fa097000000e900b0
:10138000e300b800a2002000110009000200d8000c
:101390008000fd00a1a79f000100e00002003d00c9
:1013a0000100e900a0a79f002fa497000840ea00d1
:1013b0003dfe07007faa97008fb297001fb39700ea
:1013c000afb3970086050700b0af9f00c1af9f0085
:1013d000d2af9f00e3af9f006022b800060020005c
:1013e00007ff2300460407000000e00002003d0064
:1013f0000800e9000b0037006022b800060020005a
:10140000470224003fa89700cfa897005fa9970044
:10141000efa997003f0407000000e000020035003c
:101420000800e800a0a79f004fb29700f80f5200f5
:1014300057003c00d0c6b300804f52002900360050
:101440000485fb0042062000110009000285d80037
:1014500000017800010478004311dd006b97210042
:101460000b0141006022b8000600200007fe2300a7
:101470000288900092889000b289900022899000a2
:1014800057050700a9002000809fbe001100090039
:101490000984d800000478004f00be004344dd00fa
:1014a0000b04440048229000d8229000682390004a
:1014b000f82390004a050700801f78000102780099
:1014c000110009000985d8000102fd004f007800d5
:1014d0004322dd000b0242005403be004402be0062
:1014e0001f0037000480fb0069972100ea4f52007b
:1014f00014003600a2002000110009000280d8006c
:1015000000017800010478004311dd000901410069
:101510006022b8000600200007fe23004220900051
:10152000d2209000f2219000622190002c0507004b
:101530004344dd00090444003802be002803be0015
:10154000070037004300dd00090040006022b800ba
:101550000600200007fe23005001be004000be0030
:101560001f0507000002be000203be007fa897000f
:101570008fb097001fb19700afb1970063030700ca
:10158000f0af9f0081b79f0092b79f00a3b79f0065
:101590002fa49700e90f540015003c006022b8000a
:1015a0006033b8007fa897008fb097001fb19700f5
:1015b000afb19700360407000000e00032003200af
:1015c0007fa897008fb097001fb19700afb1970029
:1015d00098040700e00f5000e08f5800e00f59001a
:1015e000e08f590028003a00e10f54002600340033
:1015f0000400200005002e00b6e0220017012400a0
:101600003fa89700cfa897005fa99700efa9970080
:10161000bb0307000000e00002003d00730054001f
:101620000100370072005400a0a79f004fc0970030
:101630009dfd0700b0af9f00c1af9f00d2af9f00dc
:10164000e3af9f000002be000203be007fa8970028
:101650008fb097001fb19700afb19700b20307009a
:10166000740407000205be000004be006000b8005c
:101670006011b800d0a79f00e1a79f00f2a79f00cc
:1016800083af9f002e0037007fa897008fb0970090
:101690001fb19700afb19700660407000205be00b6
:1016a0000004be00e00f5000e08f5800e00f59002a
:1016b000e08f5900020035008f0407001300370047
:1016c00010002000010020006011b8000800600038
:1016d000898060000a0161008b8161008b03d10069
:1016e0000a83d3008982d3000882d30000007200ed
:1016f0008180720002017300838173007e04070001
:101700000002be000203be00000307000002be008c
:101710000203be007fa897008fb097001fb197000b
:10172000afb1970023050700d0a79f00e1a79f0056
:10173000f2a79f0083af9f000000eb00a0a79f00cf
:1017400014c0b30065ad21000b0037000400fb009e
:101750004300dd00050040005001be004000be0017
:101760000040e10001c8e10002d0e10003d8e1003f
:10177000030039000442e800f44f5200f3ff3a003e
:1017800084c79f000400fb00cfb09700008040009a
:10179000afa09700010040004fa1970080065100c4
:1017a000cfb197000300e000010032008d06e90090
:1017b00063006700010032008d06e9000e28a300d7
:1017c00026003200e10067000e18a3000c00320072
:1017d000d00220000100e00001003a000080e90092
:1017e000efb0970006020700e10f4000180032003a
:1017f0003fb297000402e800b4b79f00140037001e
:101800000100e00012003200efb09700000220005b
:10181000fb010700e10f40000d003200bfb297004e
:101820008502e800b5b79f0009003700efb09700c8
:1018300000032000f2010700e10f40000300320026
:101840003fb697000c06e800bcb79f008d06e90084
:101850000d00e000f5ff3c003d0037000e38a3000e
:101860000a0032000b003700efb0970000022000a2
:10187000e3010700e10f4000030032003fb0970092
:101880000000e800b0b79f008d06e9000d00e00001
:10189000f5ff3c00e10067000e18a3000c003200c9
:1018a000d00220000100e00001003a000080e900c1
:1018b000efb09700d2010700e10f40002400320092
:1018c000bfb097008100e800b1b79f00200037004b
:1018d0000100e0001e003200efb09700000220007f
:1018e000c7010700e10f4000190032003fb1970027
:1018f0000201e800b2b79f00150037000000fb00ae
:101900004300dd0061ad2100010040003002be0057
:101910002003be000800be000a01be0079050700d2
:10192000a4002000050020006033b8007c050700fb
:101930000003b000efb09700b1010700e10f4000d5
:1019400003003200bfb197008301e800b3b79f00e6
:101950000fc297000440e90080c79f00e14f40009c
:10196000e6ff3a000b003700efb0970000032000bd
:10197000a3010700e10f400003003200bfb297004f
:101980008502e800b5b79f002fa097000000e9008e
:10199000a0a79f002fa097000000e000f2ff3c00ee
:1019a0004fb6970020c1b300f20f560001003c0073
:1019b0000fe8970080c79f008fc097000100fb00d1
:1019c0004fb197000000510090af9f000104e0006c
:1019d00008003200efb09700e00220008801070005
:1019e000e10f400003003200bfb197008301e8001f
:1019f000b3b79f000fc09700abfc07000002be000a
:101a00000203be005fa09700efa097007fa19700a0
:101a10008fa99700f2030700860307001e00370016
:101a20000000fb004300dd006cad21000c00400015
:101a30003002be002003be000800be000a01be0046
:101a400030050700a4002000050020006033b80026
:101a5000330507000003b000efb0970068010700ee
:101a6000e10f4000030032003fb297000402e8009b
:101a7000b4b79f008fc297000500fb004300dd0054
:101a80000c0040003002be002003be000800be0073
:101a90000a01be00220507000205be000004be00c8
:101aa0000fc697000c40e90080c79f00e14f40003f
:101ab000dbff3a000006eb0009003700efb09700ab
:101ac000000320004e010700e10f40000300320038
:101ad0003fb097000000e800b0b79f000c06e80098
:101ae0009fa89700810f5600f4ff3a000e38a3001c
:101af000360132000d00e000340134000006eb0036
:101b0000efb09700000220003d010700e10f400008
:101b1000030032003fb197000201e800b2b79f0016
:101b20000c06e8008d0f560028013200f4ff370044
:101b30000e00e00005003d008fb997004305be0090
:101b40004304be0083bf9f00110037000e48a3006e
:101b5000080032008fba97004500be0085bf9f0085
:101b600004017800840178000205be000004be0074
:101b7000070037000fbe97004c0078008cbf9f0015
:101b800000047800090020000a0020000b0020005b
:101b90004fb097000000e00007003a00e00f54004b
:101ba000e08f5c00e00f5d00e08f5d0002003a0016
:101bb00011002000c1b79f000e017800020cb20096
:101bc000d2b79f0000082000800f5100140032009f
:101bd000000c2000800f510025003a0014c0b30013
:101be00065ad21000b0037000400fb004300dd0061
:101bf000050040005001be004000be000040e10072
:101c000001c8e10002d0e10003d8e100170039006b
:101c10000442e800f44f5200f3ff3a00130037008b
:101c200000012000010020006011b80014c0b300c2
:101c30000040e10001c8e10002d0e10003d8e1006a
:101c40000a003900450020000000d0008180d20049
:101c50000281d2008381d2008502e900faff3a00b6
:101c60000442e800f04f5200f1ff3a0084c79f00a1
:101c70000fc697000c00fb00cfb09700810f5000fb
:101c800002003d0081c79f00040037004fb197005c
:101c9000800f510001003d00c0b79f00cfa1970009
:101ca0000300e0000400320063006700020032001d
:101cb0008301e900c3a79f000ee8a3000b003200d8
:101cc0004fa29700cfb29700850f520003003c004f
:101cd0000006eb00cca79f00040037004fa0970040
:101ce000cfb0970001005000c0a79f000fc1970020
:101cf0000200fb008001eb00b3a79f004fa29700fa
:101d0000800f52000200340000005200b0a79f0074
:101d10000e28a30034003200e10067000e18a30073
:101d20000c003200d00220000100e00001003a0067
:101d30000080e900efb09700b1000700e10f40001c
:101d40000e003200bfb297008502e800b5b79f00d1
:101d50000a0037000100e00008003200efb09700f1
:101d600000022000a6000700e10f4000030032003f
:101d70003fb697000c06e800bcb79f003fa0970055
:101d80000000e0000f0032000006eb00efb097000b
:101d9000000320009a000700e10f4000030032001a
:101da000bfb097008100e800b1b79f000c06e800c3
:101db0003fa19700820f5600f4ff3a008001eb002c
:101dc000b3a79f004fb297004320dd00e1ac210094
:101dd000810640004220dd00640650008002eb00d6
:101de000a5af9f00630037003fa697000c00e000fe
:101df00011003200680067000f003a00000678000a
:101e0000efb09700000220007d000700e10f4000c6
:101e1000030032003fb097000000e800b0b79f0019
:101e20000c06e800bfa09700810f5600f4ff3a00af
:101e30000001eb00b2a79f00e10067000e18a300ad
:101e40000c003200d00220000100e00001003a0046
:101e50000080e900efb0970069000700e10f400043
:101e6000d8ff3200bfb197008301e800b3b79f00ed
:101e7000d4ff37000100e000d2ff3200efb097003e
:101e8000000220005e000700e10f4000cdff32009d
:101e90003fb297000402e800b4b79f00c9ff3700c3
:101ea00000082000dfb29700808f5200100032003f
:101eb000000c2000808f520020003a003d02be003e
:101ec0002d03be000800be000a01be000d0407007d
:101ed000a4002000050020006033b80010040700b3
:101ee00004c3b3000442400084c79f0013003700be
:101ef00014002000050020006033b8000c007800ba
:101f00000000e900050033000402d0008582d20001
:101f10000683d2008783d200f9ff37000800be0095
:101f20000a01be00f70307006f00600034ba210009
:101f3000040040001040780080c79f008fc09700c9
:101f40000100fb00efb097002d000700e10f4000fb
:101f5000030032003fb197000201e800b2b79f00d2
:101f6000afa997008301e800a3af9f00e886560061
:101f7000640656002faa9700cfb29700850f520033
:101f8000c7ff3a000e38a300100032003fa69700aa
:101f90000c00e0000d0034000006eb00efb09700ed
:101fa0000002200016000700e10f4000030032008d
:101fb0003fb097000000e800b0b79f000c06e800b3
:101fc000bfa09700810f5600f4ff3a007fb1970041
:101fd000b2407800f2b79f0081c79f000104e00083
:101fe00093fb3a003fb097004f0778004f06be00c2
:101ff0004f05be004f04be004f03b10000000600b5
:10200000889fbe000001780001047800b1009000b4
:102010000118a300400032000198a30003003a0019
:10202000180090000000e0003b003a000190a00082
:102030003104980082047800f90fb2001800900073
:102040000000e00002003a0028009000000c780038
:10205000ea8f540006003a00380090000078a30090
:1020600003003a0088007800d0002000e4ff070059
:10207000180290006121b90058009000e80090001b
:10208000800f5100818f59000b0032000400e800de
:10209000100498001800780009587800000c7800a7
:1020a00011c0b30080bb210001487800ea8f5400c2
:1020b00006003200190037008800780009407800d7
:1020c00019000700800478001400370038009000e1
:1020d0000088a3001100320018019000a8009000b1
:1020e000480090005300070098009000810f5000b6
:1020f00004003200380090000003b3003004980060
:102100008084eb000000eb00100498002800900091
:10211000000c7800010037008084eb000900780093
:102120004f04be00000006000200fa00889fbe00b7
:10213000a0ff9f0001047800b100900081047800a6
:102140000904b200020032000000fb003600370034
:102150000118a30005003a000103b3003104980000
:10216000190498000080eb002f0037005800900001
:102170000000e00006003a00480090001200200035
:10218000e68057002b000700190498002400370050
:10219000280090000000e00008003a0040bb210049
:1021a00020049800000c78002000200050049800c3
:1021b000100498000130a00031049800180190002c
:1021c000a8009000480090001a0007002800900026
:1021d000000c78000080eb001004980018007800d4
:1021e000aff8970001587800000c78002ff897009e
:1021f000ea4f50000a003a00380090000088a3001f
:102200000700320018019000a800900048009000dc
:102210000800070019049800a8009000010c78003d
:10222000aff897000100fb004f04be000080fa00e9
:10223000000006000a00fa0080017800e20f50005a
:1022400027003e00d0dd8000e10f50000800320082
:10225000802320000000e00005003200042320005d
:102260002523200046232000800178000400370049
:102270000422200025222000462220008322200064
:10228000144090000004e000040035008009eb00d9
:10229000144090000074a000104298001540900077
:1022a0000028a30003003a00154090000024a0007d
:1022b000904298008001eb00060037001540900026
:1022c0000008a300fdff32003100fb00000b780086
:1022d0008301e800828f5100f8ff3a0008003700c0
:1022e00030002000b0bf9f00c3bf9f00d1bf9f0040
:1022f000e2bf9f006a80570000c0da006fb9970004
:10230000020078000080fa00000006002800fa00b1
:10231000889fbe008a9fbe008c9fbe000706780083
:10232000878669000c003b0003047800870478006e
:1023300008f0a10009f0a100840f5000858f58001b
:10234000860f5900890f5c00030033000cf0a200d7
:1023500001003a000cf0a100fe0007006400e1005b
:102360005f003200780147006408e100610032003c
:102370006c014700748557003200be001201be0098
:102380003a04be001a05be001e039000be0a90006b
:102390008503530006003d000004fd008104fd009c
:1023a0000205fd008305fd008703ea0005037800b0
:1023b0000df8a3000400320060041400e0841c0047
:1023c00060051d00e0851d006022b8007d0320002f
:1023d0000d38e1008006eb000b0039004433dd00ce
:1023e000f300b20083017300390037008482720069
:1023f0000d027800e10664008b85d1000a85d300c8
:102400008984d3000884d3008703e900f7ff3b00e9
:1024100008004000898048000a0149008b8149007a
:1024200004003b0060001000e0801800600119000b
:10243000e08119000358a300090032008d82720068
:1024400084827200610260008301d1000281d300a6
:102450008180d3000080d3000603e8001b00370012
:102460000348a30017003a000600e00017003400fc
:102470000603e9000d00a300000048008180480029
:1024800002014900838149000348a3000f003a007c
:102490000600e000090034000603e90000004000e7
:1024a00081804800020149008381490001003a000f
:1024b0000003eb000348a300f5ff32006022b800e0
:1024c0000200370084827200618266007500070096
:1024d00003f0a1000cf0a70003f0a000b10037004a
:1024e000640147006408e10002003a000df8a3000f
:1024f000a9003a003200be001201be00a900370058
:102500008f1fd100010307008f87e9000000e00062
:1025100000000600809feb00fc0207008f87e900a7
:102520000000e000000006002800fa00889fbe00be
:102530008a9fbe008c9fbe0003866b00850007004b
:102540006400e100440032006408e1004a00320007
:102550006100e100460032006108e10049003200fc
:10256000ec0647006000b8003d02be003d03be001f
:10257000f48657006011b8003d04be003d05be0062
:102580007d0320000b0037000000a0008d06e9004d
:10259000130032000402420085824a0006034b0009
:1025a00087834b0000004000818048000201490001
:1025b000838149000802520089825a000a035b00a5
:1025c0008b835b00f0ff3b000802420089824a00d7
:1025d0000a034b008b834b008d06e900edff3a00a8
:1025e0008482720086827200f707b20087827200ce
:1025f00001003200150020001e0490003e0b9000e8
:1026000006035400e63fb0000368a3000700320051
:102610000000a7000500a0008301d1000281d300c3
:102620008180d3000080d3000603e8008301d1003d
:102630000281d3008180d3000080d3000002eb0030
:102640000482d2001700070003f0a1000cf0a700dd
:1026500003f0a00053003700640247006408e10063
:102660004d0032003400be003401be00f6ff3700da
:102670006108e100480032006011b8006000b80055
:10268000f1ff370003ff270002002000fbff3700a7
:10269000801feb009d0207008f87e9000000e0002b
:1026a0000000060018002000570020000804530016
:1026b0000d003d000600200097fc2f000740e100c0
:1026c0001e00340084827200610260008301d10028
:1026d0000281d3008180d3000080d3000804e80089
:1026e000f8ff3a0047002000610460000504740010
:1026f000040464000d00320061004000e0804800e6
:1027000060014900e081490003b8a50007003200dc
:102710000603e8006538e10004003a008301d100b7
:102720000281d3008180d3000080d300f87f200095
:102730000830e10003003500080378006000b800ad
:102740006011b8004433dd00f300b2008301730070
:1027500000000600680447000294be000094be001a
:10276000fc0447008694be008494be0009007800f3
:10277000af02070008007800ad020700990078005a
:10278000814f70000b003b000800be00880207006c
:102790004f00b10003003700f3ff2700f2ff2f00c6
:1027a0006110b9004f06be004f05be004f04be00c9
:1027b0000080fa000000060081037800a7f80700f7
:1027c0000001be006000b8000478a30013003a00c6
:1027d0006220e10015003e000d0039008301d100a8
:1027e0000281d3008180d3008301d1000281d30014
:1027f0008180d3008301d1000281d3008180d30086
:102800000538b000c42add00f300b20083817200f5
:1028100007f0a70003f0a00000000600f3ff270068
:10282000f2ff2f006110b900fbff370003ff270004
:10283000f7ff37001400fa00889fbe008a9fbe0091
:102840008c9fbe000004be000205be006800470069
:102850000a90be000890be00750207000070a70035
:102860000bf0a1000bf8a30020003a009e09900095
:102870000e099000fe0090006e0090009e029000f5
:102880003443200084825200c6ff32000a003c001c
:10289000b4fc2f000428e100140034008301d100af
:1028a0000281d3008180d3000080d3008502e8003c
:1028b000faff3a00bbff3700b40020000428e10013
:1028c00007003c00000040008180480002014900f0
:1028d000838149008502e900faff3a00b1ff370021
:1028e0000300280002002000010037006011b8003a
:1028f0006000b800abff3700889fbe0083047800fb
:102900000300e0002c00350003003c000082700052
:10291000040271002600320036432000c50020006a
:102920008383cf000a0039000541b1008283cf00c4
:10293000070039000541b1008183cf000400390050
:102940000541b1008083cf00010039000541b1008d
:1029500085c353006022b800120032000a003b0019
:1029600084827200610260008301d1000281d30081
:102970008180d3000080d3000603e8008743e8008d
:10298000f7ff3a0007003700000040008180480050
:1029900002014900838149000603e9008743e900f9
:1029a000f9ff3a003fff070009f0a70003f0a0007d
:1029b0004f04be000000060060001000e080180018
:1029c00060011900e0811900d3ff3b00033e2c0099
:1029d000f7ff3700c0010700050978000000060076
:1029e0002800fa00889fbe008a9fbe008c9fbe0010
:1029f00003866b0057ff07000028a30064003a001d
:102a00000128a30067003a000008a30062003a0012
:102a10000108a30065003a001e009000be08900067
:102a200081064000ed3fb100f4805700ee019000b8
:102a3000111ab8008e099000311bb8009e09900051
:102a4000311cb800511db800f4855700460007003e
:102a5000fe0190003a0007008b85e8003e00070069
:102a60008e09900040000700ee019000340007003e
:102a70008b85e800380007008e09900040000700b1
:102a80009e0990001b18b800890440000a85480080
:102a9000fe019000340007008b85e8003800070035
:102aa000ee019000300007008e0990001b18b8005e
:102ab000890440000a8548000a98a30008003a00eb
:102ac0000402420085824a0006034b0087834b00c4
:102ad00008044c0089844c000a054d008d06e9006d
:102ae00084827200850273004c3add008502720018
:102af0000100320015002000443ade001400b2004c
:102b00004538de00cb45dd000b007000c540de001f
:102b1000cb4ddd008b8070004549de00cb55dd00dc
:102b20000b017100c551de000d037800ddfe0700ca
:102b300003f0a1000cf0a70003f0a00019ff37007c
:102b40001b18b8008502400006834800e0834b0054
:102b500060044c00070037001b18b8000603400053
:102b600087834800faff37001b18b800870340002e
:102b700008844800e0844c0060054d000000060019
:102b80001b18b8000804400089844800faff370089
:102b90000108a30000ff3a005800be005801be0023
:102ba000e3ff37000008a300fbfe3a0009047800a9
:102bb000f9ff370007f0a200d4fd37001400fa0037
:102bc000889fbe008a9fbe008c9fbe000005be008d
:102bd0000206be00680047000c90be000a90be00ce
:102be000930107006400e1001a00320016003e0065
:102bf0006100e1001a0032006e049000fe049000b3
:102c00000e0b90009e0b90006011b8009e05900086
:102c10000b38b100d5012000828171006101640090
:102c20008703d1000683d3008984d3000884d300ae
:102c30008502e900f8ff3a0062f707000df0a700ef
:102c400001f0a000d7fe3700f1ff2700f0ff2f00b2
:102c5000d4fe370001f8270000002000f7ff3700fe
:102c60006000b800f5ff3700881f78000004780086
:102c70005001be004000be000400400085804800b6
:102c80000601490087814900009cbe000294be00f5
:102c90000400e1000588e1000690e1000798e100ea
:102ca00002003100680044001008e8004f0478007a
:102cb00000000600f4874700889fbe008a9fbe0080
:102cc0008c9fbe008e1f78000205be000004be006f
:102cd000d4b79f00e5b79f00f6b79f0087bf9f005e
:102ce0000000eb00c0b79f00b0b79f00a0b79f00e7
:102cf00090b79f0080b79f000d042000bfb09700e1
:102d00004fb09700000140000000e0000f003d00c0
:102d10004f08de0000007100c0b79f004d000700a3
:102d200001003d00120020005000070001003d009e
:102d30001200200055000700610007006600070030
:102d40000f004000c8ff0700220037004f08de00d8
:102d500000067100ccb79f003e00070001003d0057
:102d6000120020004100070001003d001200200079
:102d700046000700520007000fb297009fb297006d
:102d80002fb39700bfb3970059000700000052000f
:102d900081805a0002015b0083815b0080b79f0045
:102da00091b79f00a2b79f00b3b79f000007eb0049
:102db0004f0007000020e10001a8e10002b0e1009f
:102dc00003b8e100010031001e0020000e00560093
:102dd000c0b79f004fb297000400e0000700350025
:102de00010002000010020006011b80008047000ed
:102df000898470000a0571008b8571008d06e900d9
:102e0000beff3a000400e00003003d00320007006e
:102e10000f00400094ff07004fa897000000e0005b
:102e200004003a000fb497009fb497002fb59700a5
:102e3000bfb597000800be000a01be004f0778002a
:102e40004f06be004f05be004f04be004f01b1004b
:102e5000000006000180400090b79f000001eb00d9
:102e60008fb097000100e000000006000200700033
:102e700090b79f000180400080b79f000001eb00e9
:102e8000ffa897000100e0000000060002007000ab
:102e900080b79f00018040006faa9700cf20de001e
:102ea00001007000f0af9f00040242000800be0065
:102eb0000a01be004f18de0000027200000006008a
:102ec000e4af9f000804440089844c000a054d00cb
:102ed0008b854d00000006003fb29700cfb29700ef
:102ee0005fb39700efb3970000fe2f0000000600cd
:102ef0003fb09700cfb097005fb19700efb1970058
:102f000000000600881f780018002000881f780045
:102f100068ff07008f87e9004f0478000000060073
:102f2000801feb0063ff07008f87e90000000600a9
:102f3000889fbe008a9fbe008c1f78000205be00dd
:102f40000004be00e00f5000e08f5800e00f590071
:102f5000e08f59000c003d006000b8006011b8001f
:102f600008045000898458000a0559008b855900cf
:102f70001c0020001f00070008003d00180007008b
:102f80000006eb00050037000006eb001900070003
:102f900002003d000f0007001c0020000800be00da
:102fa0000a01be00d7ff07000203be000002be00f8
:102fb0000c00e00001003200060007000400be0023
:102fc0000601be004f0678004f05be004f04be004c
:102fd000000006006000b8006011b8000000370073
:102fe0000402500085825800060359008783590067
:102ff00000000600e00f5200e08f5a00e00f5b0077
:10300000e08f5b0000000600889fbe008a9fbe0024
:103010008c1f78000205be000004be00e00f5000c7
:10302000e08f5800e00f5900e08f59000a003d0082
:103030006000b8006011b80008045000898458008e
:103040000a0559008b8559001c0020001800070054
:1030500007003d00050037000006eb0014000700e4
:1030600003003d006000b8006011b80015000700c3
:103070000800be000a01be00a9ff07000203be004f
:103080000002be000c00e000030032006000b80047
:103090006011b8000b0007000400be000601be006e
:1030a0004f0678004f05be004f04be00000006002a
:1030b000e00f5200e08f5a00e00f5b00e08f5b00f2
:1030c00000000600040250008582580006035900e3
:1030d00087835900000006000003be005ff607006a
:1030e0006220e100020032000600be00050005007b
:1030f000e507b100f107b20004f0230084807000fe
:1031000007f0a70001f0a00024000500889fbe0082
:103110008a9fbe008c9fbe000404be000605be0050
:10312000809fbe00829fbe002f000700040678002b
:103130000800be000a01be002b00070084067800cc
:103140004f03be004f02be008d4f76007fb0970048
:1031500013003300f0ff2f008b8f6b0006003b0045
:103160000d0666000c00a7000a00370007f0a60055
:10317000100020000a003700880f5200898f5a0083
:103180008a0f5b008b8f5b0003003900100020006a
:1031900001003e000000200007f0a7000000ea0048
:1031a0004f06be004f05be004f04be0000000600e3
:1031b000e48240001078a30007003200640240005f
:1031c0001178a3003400be001401be0004003200d8
:1031d0000330a700000006003500be001501be0048
:1031e0000330a0000000060005ff270005826100f3
:1031f000070032000428e10001003200240005002d
:103200000600070001003a0044000500040805001c
:1032100002000700f9ff3a00140005006f82610008
:1032200081027000850271008502720000000600b4
:10323000800078005002be005003be004439de001a
:10324000f700b200f37f20000301610009003200a3
:103250000218e10016003a00850172008301730034
:10326000838173000008200015003a004000200010
:10327000130037008501720083017300838173009e
:1032800005003a0004a8be0006a8be0010002000f9
:103290000b0037000201e9000402420085824a0067
:1032a00006034b0087834b000748a300f9ff320059
:1032b0000740a00004a8be0006a8be002000200011
:0c32c000800098009200980000000600ba
:020000040000fa
:10000800c8020000c8020000c8020000c8020000c0
:10001800c8020000c8020000c8020000c8020000b0
:10002800c8020000c8020000c8020000c8020000a0
:10003800c8020000c8020000c8020000c802000090
:10004800c8020000c8020000c8020000d621000053
:10005800a2210000d2330000c8020000c80200003c
:10006800c8020000c8020000c8020000c802000060
:10007800c8020000e8330000c8020000c8020000ff
:10008800c8020000c8020000c8020000c802000040
:10009800ec310000c80200002e2200000a220000f5
:1000a800c8020000c8020000c8020000c802000020
:1000b800c8020000c8020000c8020000c802000010
:1000c800c8020000c8020000c8020000c802000000
:1000d800c8020000c8020000c80200004a3200003e
:1000e800ac320000c8020000c80200000e33000055
:1000f80070330000c8020000c8020000c8020000f7
:10010800c8020000c8020000c8020000c8020000bf
:10011800c8020000c8020000c8020000c8020000af
:10012800c8020000c8020000c8020000c80200009f
:10013800c8020000c8020000c8020000c80200008f
:10014800c8020000c8020000c8020000c80200007f
:10015800c8020000c8020000c8020000c80200006f
:10016800c8020000c80200007622000052220000e7
:10017800c8020000c8020000c8020000c80200004f
:10018800be2200009a220000c8020000c802000037
:10019800c8020000c8020000c8020000c80200002f
:1001a800c8020000c8020000c8020000c80200001f
:1001b800c8020000c8020000c8020000c80200000f
:1001c800c8020000c8020000c8020000c8020000ff
:1001d800c8020000c8020000c8020000c8020000ef
:1001e800c8020000c8020000c8020000c8020000df
:1001f800c8020000c8020000c8020000c8020000cf
:10020800c8020000c8020000c8020000c8020000be
:10021800c8020000c8020000c8020000c8020000ae
:10022800c8020000c8020000c8020000c80200009e
:10023800c8020000c8020000c8020000c80200008e
:10024800c8020000c8020000c8020000c80200007e
:10025800c8020000c8020000c8020000c80200006e
:020000040000fa
:0200000401f009
:04000800cfff000026
:020000040000fa
:0200000401f009
:04000c00f9ff0000f8
:020000040000fa
:0200000401f009
:04001000ffff0000ee
:020000040000fa
:0200000401f009
:040014007fff00006a
:020000040000fa
:0200000401f009
:04001800ffff0000e6
:020000040000fa
:0200000401f009
:04001c00dfff000002
:020000040000fa
:0200000401f009
:04002000cfff00000e
:020000040000fa
:1032cc004e6f0000747500007320000053740000f2
:1032dc006172000074650000642000000a0d00009b
:1032ec00002500002e320000662000002020000087
:1032fc00202500002e320000662000002020000057
:10330c00202500002e320000662000002020000046
:10331c00202500002e320000662000002020000036
:10332c00202500002e320000660000000a0d00006f
:10333c000000000095bf00005636000095bf00004d
:04334c0056370000f0
:020000040000fa
:103350000800fa00404798003107980010c0b300f9
:10336000204798000000eb00000f78004e409000ce
:10337000e8030700204798002e4090000004e0007a
:10338000400032004e4090000080fb008000400072
:103390000082210000804000100f78009e0078001d
:1033a0000000eb00800878009e0078000000eb0031
:1033b000900098009e0078000000eb00b00098009c
:1033c0001e007800100178003e0090001040900030
:1033d0008080fb00400020000100dd0080007100c3
:1033e0001e007800010878001e00780010017800a7
:1033f0003e009000104078008080fb0030002000ec
:103400000100dd00800071001e00780001087800d6
:103410001e007800100178003e00900020409000cf
:103420008080fb00200020000100dd008000710092
:103430001e007800010878001e00780090007800d7
:103440003e009000304090000080fb0080807000c3
:103450001e007800010878003e0090004040900077
:103460008080fb001e007800410098001e0078005c
:103470009000780000002800808070001e00780016
:10348000010878000080fa00000006000a00fa0037
:103490004047980031079800420798000040eb0031
:1034a0001047980000c0eb00004f78004e4090009d
:1034b00098030700104798001e4090000004e000a9
:1034c000020032004e409000004f78009e80fb00ca
:1034d000802020008008b80001202000808040006b
:1034e00000002100808040000040eb0090409800e8
:1034f0009e80fb00802020008008b8002120200052
:103500008080400000002100808040000040eb00ef
:10351000804878009e80fb00802020008008b80052
:103520002120200080804000000021008080400099
:103530000040eb00904098000000eb00100798005e
:10354000170037009e80fb001e01900080202000a5
:103550008008b80082004000000021008080400008
:103560000040eb00804878009e80fb001e01900028
:10357000802020008008b8000200400001102000d8
:103580008080400000002100808040000040eb006f
:10359000804878001e0090000000e80010079800a6
:1035a0009e009000f00f2000808f5000e5ff360055
:1035b0004e0090000000e0000a0032009e80fb00f8
:1035c000802020008008b80061202000808040001a
:1035d0000000210000804000ce009000010878002b
:1035e000090037009e80fb00802020008008b80082
:1035f0006120200080804000000021008080400089
:103600000000eb00800878003e0090000000e00021
:103610000a0032009e80fb00802020008008b80055
:1036200041202000808040000000210000804000f8
:10363000be00900001087800090037009e80fb0062
:10364000802020008008b8004120200080804000b9
:1036500000002100808040000000eb00800878001e
:103660000080fa00000006000600fa0040479800bb
:103670000040eb00204798000000eb00000f7800ae
:103680004e40900023030700204798002e409000f2
:103690000004e0004d0032004e4090008080fb00ae
:1036a000802020008008b800212020008080400079
:1036b0000000210000804000104078000004e0007d
:1036c000420032004e4090000080fb00800040002d
:1036d0000082210000804000100f78004e409000d2
:1036e0008080fb00802020008008b800212020007e
:1036f00080804000000021000080400010417800e0
:103700004e4090008080fb00802020008008b800a0
:1037100001102000808040000000210080804000d7
:103720004e4090002b0007000040eb00304798000f
:10373000100037004e4090000081fb003e4090009a
:103740008080fb00802020008010b8000100400035
:103750000110200080804000000021008080400097
:103760000040eb00804878003e4090000040e800b8
:10377000304798004e4090008080fb008020200061
:103780008008b80021202000808040000000210037
:1037900000804000904078003e40900080cf500074
:1037a000e4ff3e004e4090008080fb00802020001f
:1037b0008008b80021202000808040000000210007
:1037c000808040000040eb00804878000080fa00d4
:1037d000000006000a00fa004047980031079800f0
:1037e000024f98000040eb00204798000000eb00db
:1037f000000f78004e409000c60207002047980056
:103800002e4090000004e0005e0032002e40900048
:103810008080fb00802020008008b800212020004c
:103820008080400000002100008040001040900097
:103830000004e00053003a004e4090000080fb007e
:10384000800040000082210000804000100f7800be
:103850000040eb0030479800130037004e409000c6
:103860000081fb003e4090008081fb003e409000c4
:103870000080fb00800078003e0090000080400047
:1038800010427800802020008010b80083004000a3
:103890000000210000804000044878003e40900075
:1038a0000040e80030479800be4090000e4890006d
:1038b00080cf5000e9ff39004e4090008080fb002f
:1038c000802020008008b800012020008080400077
:1038d00000002100008040008e48900011409800b8
:1038e0004e4090008080fb00802020008008b800bf
:1038f00001202000808040000000210080804000e6
:103900000040eb00804878004e4090008080fb0033
:10391000802020008008b800212020008080400006
:10392000000021008080400010c0b300904098004b
:103930004e4090000081fb004e4090008080fb00d4
:10394000802020008008b8000120200080804000f6
:103950000000210000804000104078008080fb00c3
:10396000802020008010b80081004000000021006d
:1039700000804000104078008080fb001e0078002e
:10398000210098000080fa00000006000600fa00fe
:10399000404798005147980010c0b3002047980056
:1039a0000000eb00000f78004e4090005902070025
:1039b000204798002e4090000004e00016003200de
:1039c0004e4090000080fb008000400000822100fb
:1039d00000804000100f78005e409000e14f5000e2
:1039e00007003a001e007800900090000040200080
:1039f000808070001e0078001100980006003700db
:103a00001e00780090009000f0bf2f0080806000c2
:103a10001e007800110098000080fa0000000600e7
:103a20000e00fa004047980031079800024f9800b6
:103a3000134f980010c0b300204798000000eb001f
:103a4000000f78004e409000320207002047980097
:103a50002e4090000004e000aa0032004e4090008a
:103a60000080fb00800040000082210000804000b8
:103a7000100f78001e007800900078003e00900043
:103a8000808070001e007800010878001e489000b9
:103a9000e14f50004d003a004e4090000080fb0086
:103aa000600798006e009000e10f50001d0032008a
:103ab0006e009000e10f500004003c006e0090008a
:103ac0000000e000080032008e0037006e00900019
:103ad000e20f5000220032006e009000e30f500011
:103ae0002d0032008700370082c2800080c2800033
:103af000900078000e4890000080fb004c00dd0034
:103b0000008070000009780042c1800040c1800040
:103b1000900078000080200000807000000978008c
:103b200078003700d2c28000d0c2800090007800b8
:103b30000e4890000080fb004800dd00008070000f
:103b40000009780052c1800050c1800090007800c8
:103b50000000240000807000000978006900370030
:103b6000a2c38000a0c38000900078000e4890009f
:103b70000080fb004800dd00008070000009780034
:103b800091c1800090c18000100078000020a0004a
:103b9000800878005b003700c2c38000c0c380008b
:103ba000900078000e4890000080fb0000807000bc
:103bb0000009780091c1800090c180001000780059
:103bc0000040a000800878004e0037004e40900072
:103bd0000080fb00500798005e009000e10f50004d
:103be0001d0032005e009000e10f500004003c0018
:103bf0005e0090000000e000080032004100370045
:103c00005e009000e20f5000220032005e00900043
:103c1000e30f50002e0032003a00370082c28000cd
:103c200080c28000900078000e4890000080fb0069
:103c30004c00dd00008070000009780042c1800067
:103c400040c1800090007800f07f2f00008060006d
:103c5000000978002b003700d2c28000d0c280005b
:103c6000900078000e4890000080fb004800dd00c6
:103c7000008070000009780052c1800050c18000af
:103c800090007800f0ff2b000080600000097800b1
:103c90001c003700a2c38000a0c380009000780001
:103ca0000e4890000080fb004800dd00008070009e
:103cb0000009780092c1800090c1800090007800d7
:103cc000b0ff2f0000806000000978000d00370071
:103cd000c2c38000c0c38000900078000e489000ee
:103ce0000080fb00008070000009780092c1800015
:103cf00090c1800090007800f0fe2f0000806000ee
:103d0000000978000080fa00000006000e00fa00aa
:103d10004047980031079800024f9800134f9800d1
:103d200010c0b300204798000000eb00000f78009f
:103d30004e40900077010700204798002e409000e9
:103d40000004e000ab0032004e4090000080fb0019
:103d5000800040000082210000804000100f7800a9
:103d60001e007800900078003e0090008080700077
:103d70001e007800010878001e489000e14f5000b6
:103d80004e003a004e4090000080fb006007980013
:103d90006e009000e10f50001c0032006e00900099
:103da000e10f500004003c006e0090000000e000b5
:103db000080032008f0037006e009000e20f5000c4
:103dc000210032006e009000e30f50002c00320002
:103dd0008800370092c2800090c280009000780076
:103de0000e4890000080fb00008070000009780001
:103df00042c1800040c18000900078000000210096
:103e000000807000000978007a003700d2c280007c
:103e1000d0c28000900078000e4890000080fb0027
:103e20004c00dd00008070000009780052c1800065
:103e300050c18000900078000000280000807000d1
:103e4000000978006b003700a2c38000a0c3800087
:103e5000900078000e4890000080fb004c00dd00d0
:103e6000008070000009780091c1800090c180003e
:103e7000100078000030a000800878005d00370056
:103e8000c2c38000c0c38000900078000e4890003c
:103e90000080fb004400dd00008070000009780015
:103ea00092c1800090c18000900078000002200044
:103eb00000807000000978004e0037004e409000ee
:103ec0000080fb00500798005e009000e10f50005a
:103ed0001c0032005e009000e10f500004003c0026
:103ee0005e0090000000e000080032004100370052
:103ef0005e009000e20f5000210032005e00900052
:103f0000e30f50002d0032003a00370092c28000cb
:103f100090c28000900078000e4890000080fb0066
:103f2000008070000009780042c1800040c180001c
:103f300090007800f0ff2e000080600000097800fb
:103f40002c003700d2c28000d0c2800090007800e0
:103f50000e4890000080fb004c00dd0000807000e7
:103f60000009780052c1800050c1800090007800a4
:103f7000f0ff270000806000000978001d00370076
:103f8000a2c38000a0c38000900078000e4890007b
:103f90000080fb004c00dd0000807000000978000c
:103fa00092c1800090c180009000780070ff2f00c7
:103fb00000806000000978000e003700c2c3800056
:103fc000c0c38000900078000e4890000080fb0085
:103fd0004400dd00008070000009780092c180007c
:103fe00090c1800090007800f0fd2f0000806000fc
:103ff000000978000080fa00000006000600fa00c0
:10400000404798000000eb00000f78004e40900001
:104010000080fb0080004000008221000080400002
:10402000100f78004e4090000081fb00802020009f
:104030008010b80001202000808040000000210096
:1040400000804000104078008041e800802020007f
:104050008010b80001202000808040000000210076
:1040600000804000034878001e0078001000900097
:104070004800de00610060000000e000faff32004e
:10408000230037004e4090008081fb004e4090009e
:104090000082fb00802020008020b800012020004a
:1040a0008080400000002100008040001041780026
:1040b0008280fb00802020008018b8008100400032
:1040c0000000210000804000104078008080fb004c
:1040d0001e007800210098000241e80080202000a6
:1040e0008020b800012020008080400000002100d6
:1040f00000804000024878001e0078001000900008
:104100004800de00610060000000e000faff3200bd
:104110004e4090008080fb00802020008008b80086
:10412000012020008080400000002100008040002d
:10413000104178004e4090008080fb0080202000dd
:104140008008b8000120200080804000000021008d
:104150000080400010409000804f5100c9ff3a009d
:104160000040eb00204798000e0037004e409000c2
:104170000081fb002e4090008080fb00802020000a
:104180008010b800810040000000210080804000c5
:104190000040eb00804878002e4090000040e8008e
:1041a000204798004e4090008080fb008020200037
:1041b0008008b8000120200080804000000021001d
:1041c00000804000904090002e40900080cf500032
:1041d000e6ff3e004e4090008080fb0080202000e3
:1041e0008008b800012020008080400000002100ed
:1041f000808040000040eb00804878004e409000f6
:104200008080fb00802020008008b8002120200052
:104210008080400000002100808040000040eb00d2
:10422000904098004e4090008080fb00802020004d
:104230008008b8000120200080804000000021009c
:10424000808040000040eb00904098000080fa0021
:10425000000006000400fa00204798000000eb0070
:10426000000f78002e4090000080fb00800040008e
:104270000082210000804000100f78001e007800ae
:1042800010009000610060000004e0001f00320098
:104290002e4090000082fb002e4090008082fb00a8
:1042a000802020008028b80021202000808040004d
:1042b0000000210000804000104178008280fb0057
:1042c0001e0078003000900080417800802020009f
:1042d0008020b800010040000110200080804000d4
:1042e0000000210000804000034878000241e800ff
:1042f000802020008028b8002120200080804000fd
:104300000000210000804000024878000080fa0090
:10431000000006000400fa00204798000040eb006f
:10432000004f78002e409000e34f500002003e0006
:1043300010c0b300004f78001e80fb000080fa0020
:10434000000006003600f800809fbe00829fbe007d
:10435000849fbe00869fbe003200f800002020002f
:1043600090018800000000000000fa000040eb000f
:1043700022ff0700d2c18000d0c1800090007800e9
:10438000f0ff2e0000806000000978000080fa0035
:104390003200f9004f03be004f02be004f01be00c5
:1043a0004f00be003600f900004006003600f8005d
:1043b000809fbe00829fbe00849fbe00869fbe007d
:1043c0003200f8000020200090018800000000006a
:1043d0000000fa000040eb009eff0700d2c1800001
:1043e000d0c1800090007800f07f2f000080600036
:1043f000000978000080fa003200f9004f03be0087
:104400004f02be004f01be004f00be003600f90053
:1044100000400600809fbe00821f78003200f80036
:104420000020200090018800000000000000fa0039
:10443000e2c18000e0c1800090007800f0ff27001a
:1044400000806000000978000080fa003200f90066
:104450004f0178004f00be0000400600809fbe0064
:10446000821f78003200f8000020200090018800b0
:10447000000000000000fa00e2c18000e0c18000fe
:1044800090007800f0ff2b000080600000097800a9
:104490000080fa003200f9004f0178004f00be00a2
:1044a00000400600809fbe00821f78003200f800a6
:1044b0000020200090018800000000000000fa00a9
:1044c00022c2800020c280009000780070ff2f0080
:1044d00000806000000978000080fa003200f900d6
:1044e0004f0178004f00be0000400600809fbe00d4
:1044f000821f78003200f800002020009001880020
:10450000000000000000fa0022c2800020c28000eb
:1045100090007800b0ff2f00008060000009780054
:104520000080fa003200f9004f0178004f00be0011
:1045300000400600809fbe00821f78003200f80015
:104540000020200090018800000000000000fa0018
:1045500022c2800020c2800090007800f0fd2f0071
:1045600000806000000978000080fa003200f90045
:104570004f0178004f00be0000400600809fbe0043
:10458000821f78003200f80000202000900188008f
:10459000000000000000fa0022c2800020c280005b
:1045a00090007800f0fe2f00008060000009780085
:1045b0000080fa003200f9004f0178004f00be0081
:1045c000004006000000fa008000eb000010200010
:1045d00001087800401020009040780000c3b3002c
:1045e00080c07000401020000148780004c1a8007d
:1045f0008080eb0020102000010878000068a900ee
:10460000108420009040780000c7b30080c0700084
:1046100010842000014878002068a80005e1a80067
:104620000080fa00000006000800fa002007980049
:10463000310798000000200001002400008fbe0018
:1046400011e1a9008000eb00601020000108780053
:1046500002002000034024002e009000be009000c5
:104660002bf107000001be000068290081c9240069
:1046700027f00700020020000300240068f0070074
:104680000000e00001003c000a00370000002000ac
:1046900001402400008fbe000011200090407800ef
:1046a00000c3b30080c070000011200001487800f2
:1046b0003b00370002002000033024002e00900051
:1046c000be00900012f107000001be000068290042
:1046d00081c924000ef0070002002000030024001e
:1046e0004ff007000000e00001003c000c00370024
:1046f0000000200001302400008fbe0000112000c7
:1047000090407800f0ccb30000c0600001c2b3005c
:10471000014070000111200080487800200037001f
:1047200002002000031824002e009000be0090001c
:10473000f7f007000001be000068290081c92400cd
:10474000f3ef0700020020000300240034f007000c
:104750000000e00001003c000b00370000002000da
:1047600001182400008fbe00001120009040780046
:10477000f0ccb30000c060000044a0000111200094
:104780008048780006003700001120009040780033
:10479000f0ccb30080c06000001120000148780018
:1047a0002e019000be0190001e00be00d8f0070050
:1047b0000001be000068290081c92400d4ef070071
:1047c0003af0070080007800c0102000010878004f
:1047d000308420009040780000c7b30080c0700093
:1047e000308420000148780000e8a90020e8a800f3
:1047f0000080fa00000006000000fa0011e1a900a4
:104800008000eb0060102000010878000080fa00b2
:10481000000006000800fa00200798003107980001
:104820000000200001002400008fbe008000eb008b
:10483000a01020000108780002002000034024009e
:104840002e009000be009000b1f007000001be00f5
:104850000068290081c92400adef07000200200094
:1048600003002400eeef07000000e00001003c0020
:104870000a0037000000200001402400008fbe0025
:10488000201120009040780000c3b30080c0700069
:1048900020112000014878003b0037000200200072
:1048a000033024002e009000be00900098f0070016
:1048b0000001be000068290081c9240094ef0700b0
:1048c0000200200003002400d5ef07000000e000f4
:1048d00001003c000c0037000000200001302400e3
:1048e000008fbe002011200090407800f0ccb30073
:1048f00000c0600001c2b30001407000211120001f
:1049000080487800200037000200200003182400af
:104910002e009000be0090007df007000001be0058
:104920000068290081c9240079ef070002002000f7
:1049300003002400baef07000000e00001003c0083
:104940000b0037000000200001182400008fbe007b
:104950002011200090407800f0ccb30000c060002f
:104960000044a00021112000804878000600370094
:104970002011200090407800f0ccb30080c060008f
:1049800020112000014878002e019000be01900007
:104990001e00be005ef007000001be000068290096
:1049a00081c924005aef0700c0ef0700800078009b
:1049b000e0102000010878001e01be000000200069
:1049c00001f8230052ef0700008fbe000108a90084
:1049d000408420009040780080cfb30000c0600089
:1049e0000014a00041842000804878002108a8001d
:1049f00013e1a8000080fa00000006000800fa0099
:104a000020079800310798000000200001002400d2
:104a1000008fbe008000eb008011200001087800ac
:104a200002002000034024002e009000be009000f1
:104a300037f007000001be000068290081c924008a
:104a400033ef0700020020000300240074ef07008a
:104a50000000e00001003c000a00370000002000d8
:104a600001402400008fbe0000122000904078001a
:104a700000c3b30080c0700000122000014878001d
:104a80003b00370002002000033024002e0090007d
:104a9000be0090001ef007000001be000068290063
:104aa00081c924001aef070002002000030024003f
:104ab0005bef07000000e00001003c000c00370045
:104ac0000000200001302400008fbe0000122000f2
:104ad00090407800f0ccb30000c0600001c2b30089
:104ae000014070000112200080487800200037004b
:104af00002002000031824002e009000be00900049
:104b000003f007000001be000068290081c92400ed
:104b1000ffee0700020020000300240040ef070022
:104b20000000e00001003c000b0037000000200006
:104b300001182400008fbe00001220009040780071
:104b4000f0ccb30000c060000044a00001122000bf
:104b5000804878000600370000122000904078005e
:104b6000f0ccb30080c06000001220000148780043
:104b70002e019000be0190001e00be00e4ef070071
:104b80000001be000068290081c92400e0ee070092
:104b900046ef070080007800c0112000010878006f
:104ba0001e01be000000200001f82300d8ee07001f
:104bb000008fbe000388a9002388a800e08420009d
:104bc0009040780080cfb30000c060000024a000b7
:104bd000e18420008048780021e1a8000080fa00ec
:104be000000006000000fa00a06a20009040780053
:104bf00000c8b30000c0600031c4b30001407000c1
:104c0000a16a2000804878008000eb00c0122000dc
:104c1000010878002cc1a800c01220009040780044
:104c2000f0ccb30000c0600001c2b30001407000ce
:104c3000c1122000804878008080eb0080122000a4
:104c400001087800708520009040780000c7b3000c
:104c500080c07000708520000148780005e8a90038
:104c600025e8a8002de1a8000080fa000000060059
:104c70000000fa00b06a20009040780000c8b3003d
:104c800000c0600021c4b30001407000b16a200080
:104c9000804878008000eb00e012200001087800d6
:104ca0002ec1a800e012200090407800f0ccb300a4
:104cb00000c0600001c2b30001407000e11220009a
:104cc000804878008080eb00a01220000108780066
:104cd000808520009040780080cfb30000c0600045
:104ce0006040b30081852000804878000608a90054
:104cf0002608a8002fe1a8000080fa0000000600a6
:104d00000000fa00c06a20009040780000c8b3009c
:104d100000c0600011c4b30001407000c16a2000ef
:104d2000804878008000eb00a01320000108780084
:104d30003ac1a800a01320009040780000c3b3003f
:104d400080c07000a0132000014878008080eb0034
:104d500060132000010878009085200090407800c2
:104d6000f0c8b30000c0600001c6b300014070008d
:104d700091852000804878000668a9002668a80070
:104d80003be1a8000080fa00000006000000fa00e5
:104d9000d06a20009040780000c8b30000c06000d6
:104da00001c4b30001407000d16a2000804878003f
:104db0008000eb00c0132000010878003cc1a8006f
:104dc000c013200090407800f0ccb30000c0600019
:104dd00001c2b30001407000c11320008048780078
:104de0008080eb008013200001087800a08520005f
:104df0009040780080cfb30000c060006040b300f6
:104e0000a1852000804878000688a9002688a8008f
:104e10003de1a8000080fa00000006000000fa0052
:104e2000407420009040780000ceb30080c0600045
:104e30004074200001487800407420001040780041
:104e4000f2c3b30082406000407420000148780043
:104e5000607420009000780000e02f000080600067
:104e6000a102200001007000617420008008780019
:104e700020742000104078000042b2000004e000de
:104e8000fbff32000080fa00000006000000fa007c
:104e9000310ea900312ea900314ea900316ea900b2
:104ea00030eea80030cea900504ea800506ea900e8
:104eb000500ea800502ea90030aea800308ea900d8
:104ec000604ea90060cea90060eea800610ea900a6
:104ed00050cea90050aea900508ea9008000eb0072
:104ee000e0e12000010878001fcea8001feea80016
:104ef0001e4ea8001e6ea8001e8ea8001eaea800a2
:104f0000006920009040780000ccb30000c0600031
:104f10000004a0000169200080487800406c200057
:104f20009040780000c8b30000c0600031c6b300f4
:104f300001407000416c200080487800f06820003b
:104f40009040780000ccb30000c060003040b30057
:104f5000f168200080487800606c20009040780064
:104f600000c8b30000c0600001c6b300014070007b
:104f7000616c2000804878006068200090407800d4
:104f800000ccb30000c06000e040b30061682000c6
:104f900080487800406d20009040780000c8b30041
:104fa00000c0600071c4b30001407000416d20007a
:104fb00080487800300ea8003a0ea800302ea800d5
:104fc0003a2ea800304ea8003a4ea800306ea80035
:104fd0003a6ea8000080fa00000006000000fa0007
:104fe00000ff070022ff070045ff070067ff0700db
:104ff0000080fa00000006000000fa00ff0507002c
:10500000720607000080fa00000006000400fa00a3
:10501000100798000040eb00004f78001e00900041
:105020000000e00003003a0000c0eb00004f7800f1
:105030002f0037001e0190006000b8000089be00fc
:105040001e0190006000b800200198003101980016
:105050001e0190006000b8004001980051019800c6
:105060001e0190006000b800600198007101980076
:105070001e0190006000b800000998001109980016
:105080001e0190006000b8002009980031099800c6
:105090001e0190006000b800400998005109980076
:1050a0001e0190006000b800600998007109980026
:1050b0001e0190006000b8000011980011119800c6
:1050c0001e0190006000b800201198003111980076
:1050d0001e0090008002b000e3000700004f78003f
:1050e0001e009000a003b000df000700004f780012
:1050f0001e00fb000080fa00000006000800fa0015
:10510000881f7800100798000040eb00004f7800df
:1051100000302000100478006140b900feed070067
:1051200020079800310798000800e00007003d00c4
:1051300002002000037824002e009000be009000a2
:1051400016ed070020079800310798002e01900007
:10515000be0190002e009000be0090000fed0700f1
:1051600002002c00f347240069ed070032332300ce
:105170003305240066ee07001e0190002001980010
:10518000310198001e00fb004f0478000080fa00f7
:10519000000006000800fa00881f78001007980039
:1051a0000040eb00004f7800203020001004780011
:1051b0006140b900d8ed070020079800310798003a
:1051c0000800e00007003d000200200003782400f2
:1051d0002e009000be009000f0ec07002007980021
:1051e0003107980002002000030824002e009000e0
:1051f000be00900046ee070002002c00f34724009a
:1052000043ed0700323323003305240040ee07004e
:105210001e0190000089be001e00fb004f047800b4
:105220000080fa00000006000600fa00881f7800df
:105230000040eb00004f780060342000100478003c
:105240006140b900b4ed07001007980021079800ed
:105250000800e00007003d00020020000378240061
:105260001e009000ae009000ccec070010079800e4
:105270002107980002002000833424001e009000c3
:10528000ae00900022ee070002002c00f34724003d
:105290001fed070080c8880091c888001e00fb0031
:1052a0004f0478000080fa00000006000600fa00b3
:1052b000881f78000040eb00004f78002034200069
:1052c000100478006140b90093ed070010079800c2
:1052d000210798000800e00007003d0002002000c0
:1052e000037824001e009000ae009000abec070095
:1052f000100798002107980002002000433b24007b
:105300001e009000ae00900001ee070002002c008d
:10531000f3472400feec070000c9880011c988008b
:105320001e00fb004f0478000080fa000000060019
:105330000200fa000040eb00004f7800a2ca800093
:10534000b3ca80000000200001f82300f0ec070041
:105350000001be000000200001012400ecec070069
:10536000d2262e0043ee2300e9ed0700e0c88800b6
:10537000f1c888001e00fb000080fa000000060053
:105380000200fa000040eb00004f780080ca800065
:1053900091ca80000200200003272400dced0700f2
:1053a00002002000031a2400d9ec0700c0c88800be
:1053b000d1c888001e00fb000080fa000000060033
:1053c0000200fa000040eb00004f780060ca800045
:1053d00071ca80000200200003272400cced0700e2
:1053e00002002000031a2400c9ec0700c0c888008e
:1053f000d1c888001e00fb000080fa0000000600f3
:105400000400fa00100798000040eb00004f7800fd
:105410001e0090008002b0008a0007001e00fb0002
:105420000080fa00000006000400fa00100798004f
:105430000040eb00004f78001e00fb000080fa00e7
:10544000000006000000fa000040eb002800070002
:1054500020c0b3004300070010c0b30024000700c1
:105460000080fa00000006000400fa00100798000f
:105470000040eb00004f78001e0090000000e000ac
:1054800003003a0000c0eb00004f78001500370021
:105490009e0090000000eb00800878009e009000c5
:1054a0000000eb00900098009e0090000000eb00d0
:1054b000a00098001e0190006000b8003001980024
:1054c000410198001e0190006000b8005001980052
:1054d000610198001e0190006000b8007001980002
:1054e000010998001e00fb000080fa000000060081
:1054f0000400fa00204798000040eb00004f7800bd
:105500000042eb008e017800a2c2b300b1c3b30029
:10551000a0c3b300410307002e409000e14f5000ac
:1055200005003a001e407800ae4090000140700037
:10553000004f7800040037001e407800e1cfb30030
:1055400001406000004f78001e4178008041eb0070
:10555000a1c2b300a0c3b300f30207000080fa00a9
:10556000000006000600fa00204798000040eb000b
:10557000004f78002e4090000080fb00200798002c
:105580002e009000e10f50000c0032002e00900021
:10559000e20f50000e0032002e0090000000e000ec
:1055a000010032000e0037000040200090cb880040
:1055b00020c0b30074f9b7000900370000202000b4
:1055c00090cb880040c0b30074f9b70004003700e6
:1055d0000010200090cb880080c0b30074f9b700a1
:1055e0000042eb008e017800e2c0b300b1c3b3000b
:1055f000a0c3b300090307009e407800c0cfb300ea
:1056000000c06000004f78009e4078002e4090005f
:1056100000c07000004f78001e4178008041eb0010
:10562000e1c0b300a0c3b300bf0207000080fa00ce
:10563000000006000200fa00000f78000080fa0067
:10564000000006001e00fa00881f7800200798005e
:105650000040eb00004f78000040eb00104798003e
:105660000040eb00204798000040eb0030479800d6
:105670000e00e8000042eb008001780012c0b30089
:10568000b1c3b300a0c3b300e40207001e40900002
:105690000080fb00c800dd002e00900001087800ab
:1056a0001e4090000004e00002003d0010c0b30066
:1056b000004f78000e00e8000042eb008001780007
:1056c00022c0b300b1c3b300a0c3b300d30207002c
:1056d0002e009000900078001e4090000080fb009b
:1056e000808040002e009000010878002e0090007d
:1056f00010007800c480de002e00900001087800c1
:105700001e04e0000e0032002e0090001000780011
:105710000080ea008000e8002e0090000108780078
:105720002e009000900078000080eb008009b80007
:105730002e009000020878000040eb00004f780037
:105740002e00900010007800cf80de0072ec070081
:10575000500f9800610f980098cb80006140b9000d
:105760006dec0700300f9800410f98000800e00032
:1057700007003d0002002000037824003e0890004e
:10578000ce08900085eb0700300f9800410f98007d
:105790003e099000ce0990005e089000ee0890004f
:1057a000dbeb07002e0190003001980041019800ca
:1057b0000e80e8000042eb008001780032c0b300a8
:1057c000b1c3b300a0c3b300940207002e40900001
:1057d0000080fb00c800dd002e0090001100980042
:1057e0002e4090000004e00002003d0010c0b30015
:1057f000004f78000e80e8000042eb008001780046
:1058000042c0b300b1c3b300a0c3b300830207001a
:105810002e009000900090002e4090000080fb0031
:10582000808040002e009000110098002e00900013
:1058300010009000c480de002e009000110098003f
:105840001e04e0000e0032002e00900010009000b8
:105850000080ea008000e8002e009000110098000f
:105860002e009000900090000080eb008009b800ae
:105870002e009000120098000040eb00004f7800ce
:105880002e00900010009000cf80de0022ec070078
:10589000100f9800210f980098cb80006140b9004c
:1058a0001dec070070079800010f98000800e00049
:1058b00007003d0002002000037824007e009000d5
:1058c0008e08900035eb070070079800010f9800d4
:1058d0007e0190008e0990001e089000ae08900096
:1058e0008beb07002e019000500198006101980099
:1058f000630047000042eb008001780052c0b30013
:10590000b1c3b300a0c3b300440207003e409000ff
:105910000080fb00c800dd002e00900021009800f0
:105920003e4090000004e00002003d0010c0b300c3
:10593000004f7800630047000042eb0080017800d0
:1059400062c0b300b1c3b300a0c3b3003302070009
:105950002e009000a00090003e4090000080fb00d0
:10596000808040002e009000210098002e009000c2
:1059700020009000c480de002e00900021009800de
:105980001e04e000170032002e009000200090005e
:105990000080ea00cf80de00dfeb0700020020007d
:1059a00003f82300fdea07009feb07008000780062
:1059b0002e009000210098002e0090002000900002
:1059c000cf80de00d4eb070001f0a20096eb0700c9
:1059d000800078002e009000210098000040eb002d
:1059e000004f78002e00900020009000cf80de0055
:1059f000c9eb0700500798006107980098cb80001a
:105a00006140b900c4eb07003007980041079800d7
:105a10000800e00007003d00020020000378240099
:105a20003e009000ce009000dcea070030079800ae
:105a3000410798003e019000ce0190005e0090006a
:105a4000ee00900032eb07002e01900070019800ec
:105a5000010998004f0478000080fa000000060059
:020000040000fa
:105a60005819000014000000820000000602160011
:105a700002080200180204000214020002021200ce
:105a800002000200100200006c1900000600000075
:105a900082000000000000000000000094180000d8
:105aa00068000000820000000100000001140000f6
:105ab00000000000000000000000000000000000e6
:105ac00000000000000000000000000000000000d6
:105ad00000000000000000000000000000000000c6
:105ae00000000000000000000000000000000000b6
:105af00000000000000000000000000000000000a6
:105b00000000000000000000000000000000000095
:105b10000000000000000000000000000000000085
:105b20000000000000000000000000000000000075
:105b30000000000072190000040000008000000056
:105b4000fc1800005c00000080000000201800002d
:105b500074000000820000002002300002500200a9
:105b6000b0022000082208002408260008280800a7
:105b70002a082c00082e080030080000080208003f
:105b800004080600080808000a080c00080e0800af
:105b90001008400008420800440846000848080071
:105ba0004a084c00084e08005008520008540800eb
:105bb00056085800085a08005c085e000860080093
:105bc000620864000866080068086a00086c08003b
